:100000000C94880B0C94851F0C94B00B0C94B00BC3
:100010000C94B00B0C94B00B0C94B00B0C945720B8
:100020000C94B00B0C94B00B0C94B00B0C94B00B64
:100030000C94B00B0C94B00B0C94B00B0C94B00B54
:100040000C940F260C94B00B0C9491250C946B25FA
:100050000C94B00B0C94B00B0C94B00B0C94B00B34
:100060000C94571E0C94B00B000000000000000020
:1000700030787830300030006C6C6C00000000008C
:100080006C6CFE6CFE6C6C00307CC0780CF8300040
:1000900000C6CC183066C600386C3876DCCC7600EA
:1000A0006060C00000000000183060606030180020
:1000B000603018181830600000663CFF3C66000095
:1000C000003030FC30300000000000000070306074
:1000D000000000FC000000000000000000303000C4
:1000E000060C183060C0800078CCDCFCECCC7800CA
:1000F00030F030303030FC0078CC0C3860CCFC0074
:1001000078CC0C380CCC78001C3C6CCCFE0C0C0071
:10011000FCC0F80C0CCC78003860C0F8CCCC78006F
:10012000FCCC0C183060600078CCCC78CCCC78005B
:1001300078CCCC7C0C1870000000303000303000DF
:100140000000303000703060183060C0603018003F
:100150000000FC00FC0000006030180C183060004B
:1001600078CC0C18300030007CC6DEDEDEC07800B3
:100170003078CCCCFCCCCC00FC66667C6666FC009F
:100180003C66C0C0C0663C00FC6C6666666CFC00E9
:10019000FE6268786862FE00FE6268786860F0005F
:1001A0003C66C0C0CE663E00CCCCCCFCCCCCCC00F7
:1001B00078303030303078001E0C0C0CCCCC78000D
:1001C000E6666C786C66E600F06060606266FE0071
:1001D000C6EEFED6C6C6C600C6E6F6DECEC6C6006B
:1001E000386CC6C6C66C3800FC66667C6060F00081
:1001F00078CCCCCCDC781C00FC66667C786CE600A5
:1002000078CCE0381CCC7800FCB43030303078004A
:10021000CCCCCCCCCCCCFC00CCCCCCCCCC78300076
:10022000C6C6C6D6FEEEC600C6C66C386CC6C600CC
:10023000CCCCCC7830307800FECC983062C6FE0052
:100240007860606060607800C06030180C06020062
:10025000781818181818780010386CC600000000BC
:1002600000000000000000FF303018000000000017
:100270000000780C7CCC7600E0607C666666BC0092
:10028000000078CCC0CC78001C0C0C7CCCCC760068
:10029000000078CCFCC07800386C60F06060F00042
:1002A000000076CCCC7C0CF8E0606C766666E600EC
:1002B0003000703030307800180078181818D87076
:1002C000E060666C786CE60070303030303078007A
:1002D0000000ECFED6C6C6000000F8CCCCCCCC00AA
:1002E000000078CCCCCC78000000DC66667C60F046
:1002F000000076CCCC7C0C1E0000D86C6C60F0004A
:1003000000007CC0780CF80010307C3030341800CD
:100310000000CCCCCCCC76000000CCCCCC7830002B
:100320000000C6C6D6FE6C000000C66C386CC60065
:100330000000CCCCCC7C0CF80000FC983064FC00B5
:100340001C3030E030301C00181818001818180045
:10035000E030301C3030E00076DC000000000000AF
:1003600010386CC6C6C6FE004128D441CF83008336
:100370003041ED846403128141E88385017941CBEA
:1003800085392C00340241F7812041EA8200004186
:10039000C0812641C1811141C582353E41C781BE20
:1003A00041B182001B41F281084126810141E08F69
:1003B0001F1A180A0F064587320A0702070500416F
:1003C000E18F0025270510093A784D05180D383AB8
:1003D0001F41B6840A82270041B78107413A8155FF
:1003E000413681E8412A82000082013F412B820090
:1003F000008200EF4111FCFC4129D4FFFF666666D4
:100400006666666666666666666463626462606F98
:100410006D6C73787B6B777F73818A6B767D747775
:10042000796C6A6864626164636366666666666660
:10043000666666666666666666666666666666665C
:1004400066666463627882896E7F8B617785576E9A
:100450007C7E8D97FFFFFF596D7B5A717F63798793
:100460006E7F89767D8264636366666666666666AD
:100470006666666666666666666666666666646321
:1004800063747A7E5A7484687F8D687F8D687E8CF1
:10049000B7C1C860788769808E677E8C5D77877406
:1004A00075766464646666666666666666666666D3
:1004B00066666666666666666666656565666666DF
:1004C000635955000000000000000000000000001B
:1004D00000000000000000006F645F6364646666F3
:1004E00066666666666666666666666666666666AC
:1004F000666666666666666666585C5FF2C2A9D422
:10050000A68E81655754423946372F5A473D8E6F24
:1005100060E6B49ACAA6935C60626A6A6A666666B6
:10052000666666666666666666666666666666666B
:100530006666666666585D5FE0B49DE0B097D9A8D0
:100540008FDBA990EEBCA2E0AF96D2A189E2B19870
:10055000C9A89755595B3C3B3B6A6A6A6666666602
:10056000666666666666666666666666666666662B
:1005700066585D5FE0B49DDEAD93C0ABA4D7B9AA69
:10058000DAAA91E4BCA8B3A7A5E1AE93C7A5936787
:100590006B6D1717176C6C6C6666666666666666CA
:1005A00066666666666666666666666666585D6008
:1005B000DEB19ADDAD94C7A798D6AE99DFAF95E3CB
:1005C000B79FBA9D92E1AF95C7A5936165671C1C63
:1005D0001C737373656565666666666666666666E1
:1005E000666666666666666666585D5FE2B49DDC52
:1005F000AD94D7A891B99280BB9685B89280DCACB7
:1006000093DEAE95C6A4925F63653838385C5C5C57
:100610006767676666666666666666666666666677
:100620006666666666575C5EEEC0A9DBAD94D6A8CA
:10063000925E4643685454654B47DCAD95DFAF96F8
:10064000C6A4925C60625B5B5B3436386A6A6A6639
:10065000666666666666666666666666666666663A
:1006600066575C5EF5C4ABE5B297D7A68FA98D84BB
:10067000C6B2AAA78B80DDAC93E8B499CCA49159FB
:100680005D5F7A7B7B6C594566686A656565666601
:10069000666666666666666666666666665E60610D
:1006A000A3958E8F837EA1897F9B7F738C6C5E9CCC
:1006B0007F73A28B81938781968C8763696D7C7829
:1006C0006B69553F696B6D656565666666666666EE
:1006D0006666666666666565656F6D6C4E5B6237FD
:1006E0004C583349564962701D2B34445D6A364B71
:1006F00056384C5726363D28384056626966676939
:10070000676767656565666666666666666666658A
:10071000656568686857626829373E4D5D674A5B62
:10072000655367731B23275266723E4E57626F777D
:100730006A6E70656C706B6969656565656565662F
:1007400066666666666666666666666263638A8411
:1007500081253842676D7053636B495B65516571E4
:100760002E3A41516571485A655C6A7267656366E5
:10077000656565656566666666666666666666661E
:10078000666666666666665E6061BFA19187817E09
:100790006A686755677151667250657146565F5356
:1007A00068754D626D5D6D756765646666666666E3
:1007B00066666666666666666666666666666666D9
:1007C0006666666666665E60616263636D6D6D1B1C
:1007D00018190D0B0C1F1A1A4E5C651C18171F1BDD
:1007E0001C514F4F68686866666666666666666630
:1007F0006666666666666666666666666666666699
:1008000066666666666666666B6B6B333334262196
:10081000204B45427A7A7A28201D342F2F73747426
:10082000656565666666666666666666666666666B
:100830006666666666666666666666666666666658
:10084000666666666464648D8D8C221B194842421C
:100850006F7070352E2D342E2C79797A656565662A
:100860006666666666666666666666666666666628
:10087000666666666666666666666666666565651B
:100880007272720303020000002C2C2C7575761214
:1008900012110000001A1A196D6D6D6666666666A3
:1008A00066666666666666666666666666666666E8
:1008B00066666666666666666666666666666666D8
:1008C00066666666666666666666666666666666C8
:1008D00066666666666666666666666666666666B8
:1008E00066666666666666666666666666666666A8
:1008F0006666666666666666666666666666666698
:100900006666666666666666666666666666666687
:100910006464646061646262636666666666666299
:1009200062625B5B5D66666666666666666666668E
:100930006666666666666666666666666666666657
:100940006666666666666666666464646468709A0F
:100950008D6E797B805F5F61626262828282C2C5D6
:10096000BC666666666666666666666666666666D1
:100970006666666666666666666666666666666617
:100980006666646464595C63E1CB93BBAD88EFCE6B
:100990007875767A58595B9499A0FFD44966666653
:1009A00066666666666666666666666666666666E7
:1009B00066666363636767676565656666666A6AD8
:1009C0006B9B9995F4D9925A5F6A77797FF0CE76CE
:1009D000767A846A7080E6CE81666666666666664A
:1009E0006666666666666666646464616161898976
:1009F000895C5C5C7A7A7A5C5C5C828487433412C2
:100A00008585836161625E5F617B7A77EACA79F08E
:100A1000D081B6B0A066666666666666666666661D
:100A2000666464647474748888882B2B2B1C1C1C6B
:100A30000A0A0A000000A0A0A00506096767686509
:100A4000656566666660616265686F676A715F604A
:100A50006366666666666666666665656564646442
:100A60007878783E3E3E4E4E4E4E4E4E38383815D3
:100A700015150000000505055D5D5D7676766464FC
:100A80006466666664646464646465656566666617
:100A90006666666666666363638888883232327229
:100AA0007272757575717171505050282828090936
:100AB000090B0B0B0000007575756565656666664C
:100AC00066666666666666666666666666666666C6
:100AD00066666767675252526A6A6A818181979730
:100AE000978A8A8A5C5C5C3030300A0A0A0B0B0BEE
:100AF0000505054343437171716565656666666604
:100B00006666666666666666666666666666686881
:100B1000685656563636366666668484847C7C7C97
:100B20005A5A5A2B2B2B0808080B0B0B0808081FC6
:100B30001F1F7171716565656666666666666666C5
:100B400066666666666666666666696969424242A8
:100B50002F2F2F55555565656561616149494916C6
:100B600016160E0E0E0B0B0B0707071D1D1D7272BE
:100B7000726565656666666666666666666666660C
:100B80006666666666666666666363631B1B1B3D18
:100B90003D3D4A4A4A424242222222171717121268
:100BA000120A0A0A0C0C0C4F4F4F6E6E6E6565658B
:100BB00066666666666666666666666666666666D5
:100BC00066666363638E8E8E1B1B1B2C2C2C32324D
:100BD000322727272222221C1C1C1212120E0E0E54
:100BE00000000078787863636366666666666666AA
:100BF0006666666666666666666666666666646499
:100C0000646F6F6F6B6B6B1F1F1F2E2E2E29292990
:100C10002222221919192323231616164848487927
:100C20007979727272646464666666666666666620
:100C3000666666666666666565656767676464645A
:100C40006969695454541717170F0F0F0C0C0C12C5
:100C500012120F0F0F3C3C3C707070626262797927
:100C60007964646466666666666666666666666617
:100C7000666666666666646464626262646464672B
:100C800067676E6E6E5555554646464E4E4E6C6CB9
:100C90006C686868656565666666646464666666F1
:100CA00066666666666666666666666666666665E5
:100CB00065656E6E6E8A8A8A7575757777776A6AEA
:100CC0006A68686869696968686866666689898942
:100CD00063636365656566666666666666666666C0
:100CE00066666666666666666666666666666565A6
:100CF000656262626363636E6E6E65656565656598
:100D00006666666666666565656262626565656695
:100D10006666666666666666666666666666666673
:100D20006666666666666666666666666666666663
:100D30006666666565656565656666666666666659
:100D40006666666666666666666666666666666643
:100D50006666666666666666666666666691714B18
:100D6000DFC094CDAC81C3A478CCAC85ECD2B1E427
:100D7000C8A3E9C9A3DDBD96E4C8A3F5D9B4E0C012
:100D800099E0C09AD4B891EBD1AED0B089C8A87F11
:100D9000C9A980D8B88FC9A87FDBBB92B4926CCBAD
:100DA000A87ED7B68BAD8B5ECAA77DC5A47BA78472
:100DB0005A9271488B6A3FA3825797764D967D5E13
:100DC000C09F76D4B187BC9A6DD3B287DCBB90BF8D
:100DD0009E71BE9C6FC6A57AAB8A5FB3936ACAAA9E
:100DE00084C4A47DD4B99BDFCDB5D3C0A2C2AB82ED
:100DF000D2B68FD5B992DFC8A8BDA57FCDAF8BD2B3
:100E0000B895C0A27CCBB495C4A380C19F72A987BA
:100E10005AC3A478CBAA81C7A67DC2A27CCEAE87D6
:100E2000B19065917754A7865DA3835D7456308B2E
:100E30006E46B6956CB5956FA6845EA07F568461AC
:100E400039B89A74583E23BD9C71B99970C7A77E72
:100E5000AE8C5FC1A17AA38056D0B089D9B791B5C5
:100E60009469B29877BD9D767A593078552BE3C155
:100E70009BA18055B7966DB29168916E44C7A780CB
:100E800054391CB59268E3C59FEAD0ADBC996FD8C0
:100E9000BA94C9A87DB39066BF9F78D4B38AB08F47
:100EA00066A08363A5845B97764DD5B58CBC9B709B
:100EB00097764BB18E6698774EC6A67F563B1EC47A
:100EC000A47DDEBE97DBBE9CB8976EEBD5BD8F735D
:100ED0004ECCAB80AF8C62D0B087C7AA88C2A27953
:100EE000775B36907047DDC9B0B19067A4835AAC88
:100EF000895FA7865DC8AE89523719BD9C73C3A2AE
:100F000077E7C7A0A9885FD7BB96AA8A63A48B6C32
:100F1000C7A780BFA580CFB28ACAA980BA9A7389B1
:100F20006C4AD7B790CFAE85AC8C65A8855B9B7BB0
:100F300052BD9F79583F21AE8D64CAA980D7B79022
:100F4000A18057D0B691A28259BEA27D9A7D55D07C
:100F5000B28C9D7A50B79770B5946BC3A37CBEA634
:100F600084A4845DB08F66B6956C8D6F49AB8D6738
:100F7000604729B39164DCBB92EBCDA78B6A3FDB62
:100F8000BD99AD8D66D6BA95B18C609A805FE0C28E
:100F90009CA38056BA9A73B2926BC7A77E785C37CF
:100FA000B4946EB9986D7D5F39BA9C7661482AB465
:100FB0009167B19065F1D5AE846338D5B7938664F7
:100FC0003EE3C7A2AD885BB99972C2A887E0C39B14
:100FD000926F45B09069B3936CCBAB84977A58AE5F
:100FE0008D64846640AD8D66695032A9875AAF8C96
:100FF00062D7B7909E7D54D2BEA37D5D37DBBD978F
:10100000997447D2BDA2DBC6A9A98C6AE0C29CA292
:101010007F55BC9D7EAC8C63C9A9827F6544856782
:1010200041C7AF95584122AE8C5FDAB990E6C6A0B1
:10103000A98B67D7BE958B6A41DBBD97C29D71D0E6
:10104000B389D9BB95C2A47E5E3C16E5C9A4B4930E
:101050006AB5956EA4845BCAAD85684D2FBA9C763F
:10106000563F20AF8E63CDAB85DDC19CB29168E366
:10107000CAA288673ECBAB849C774BDBBD97CFAED3
:1010800083CEB189936E42C0A683E6CAA3BB9A7190
:10109000CEAC86AD8D66CCAC859C8364523A20BDC7
:1010A0009D74C6A57AEBD1B0BF9C72D5B992AC8CB9
:1010B00063CAAA818B683EDFC39EC2A178C8AB8396
:1010C000A27D51CEB08A886B43D7BB94B7966DC8CA
:1010D000A77EAD8D66D9BC9439250DC8A680DBBB33
:1010E00094D0B087AC8A5DC4A6809E7E58A4845BF1
:1010F0007B5A31D7B993D2B895D0B089C5A376DAE7
:10110000BC969E7C4FA68A65F9DBB5CEAD84BB99B3
:1011100073CBB293B8A07EB9986DE2C49EC7A77E88
:10112000CFAE85D6C3A5A7896595754C6C4E28C5ED
:10113000AB86A48358BD9F79A9885DB89C77A786A4
:1011400059D2B68FB19879E2C69FB5946BAD8D66D2
:101150009D805EBD9C6FC1A178CFAE83A8875CB730
:10116000946AF9E9C8FCE7CAFEEFD8FDF1D7FFF4AD
:10117000DAFFFAE0FFF2D8FFF0D7FFF3D9FFF2DB96
:10118000FFF8E2FFEDD5D0B48FD6BA95B89A76C500
:10119000A375AD8B5ED8B98BB5926AAF8E65C1A0D1
:1011A00075C6A175C2A176AE8E67B3926798774E69
:1011B000A78256A984578D6C43AD8A60A6865FB519
:1011C0009469C4A275BA976DB19168BA9970B998CB
:1011D0006DD2B58DC7A57FCFAE83D3B38CCBAB8497
:1011E000E3C9A6E8CEABD4B48DE7C9A3F2D4B0E886
:1011F000CAA4E6CAA3DDBD96EACEA9E8CEADD8B8AA
:1012000091CFAF86C9A980C6A57CD5B48B3F3D3BA5
:10121000413F3E3A38372726263D3D3D3A3A3A3C53
:101220003C3C3F403F2A282739373642404047461A
:10123000444644422D2B2A2E2B2A42403F42403F17
:101240003F3B392523223D3B3A3533323231303171
:101250002F2E2B29273737363B3A393D3D3B343348
:101260003325242337353436353431302F31302F80
:101270001E1D1C26242435333232312F37343220C0
:101280001F1D31302F1311111C1A1922201E151485
:10129000131D1B1B1C1B1B2020202222221716158E
:1012A0001A19181514142120202C2B2B2B2A2A2B29
:1012B00029272421202423223737352D2D2B282799
:1012C000262926253331313533322A272638333241
:1012D0003132313F413F3D3E3C28262639383730B8
:1012E0002E2E333232403E3F3837363733303632A7
:1012F000302F2E2C3B3A383838353735331D1C1BF0
:101300002927272C2B2B19161624212023232232A0
:10131000333130312F2120202423232221221F1F6B
:101320001E1D1C1C1D1C1C2C28262622201B1A19C5
:101330002C2D2B30302F282725393634302E2D23D5
:1013400022223434343938393636362E2D2C3C3B73
:101350003A3D3C3B302E2D3130303F3D3D43414105
:10136000484746201F1E3C3E3E424342343331250F
:1013700023213D3A384746464443442D2B2B4646CD
:10138000484040423A393A2C2B2B3E3C3D434141A8
:10139000403E3D2928284443423F3E3D3D3C3B25BD
:1013A0002423474846444544444644302E2C413F7C
:1013B0003E1B1A191A19171F1D1D1B1B1A1A191962
:1013C0002524231B1A19201E1E1F1E1D1B1A19154A
:1013D00014131514131615141A19181B19181716A7
:1013E000152625242524231F1E1E2322223F3F418C
:1013F0003B393848464545434143413F2C2A2A3E24
:101400003D3C413F3F3533332827262C2B2A211FD3
:101410001E33312F3A373544403D1B1A1944444698
:101420004A4A4B444446444446313132211F1F3816
:1014300037363736343332322322223E3D3E414066
:1014400040312F303C3B3A434241222120403E3D37
:10145000403E3E4A474621201F47484A3E3E3F3CC9
:101460003C3E3737391818191D1D1E15151619174A
:1014700017332F2C312D2A211E1D1817171E1D1D45
:10148000232221201E1E333233232324232324200E
:101490001F201211101615151A1A1A1615161312E6
:1014A000134547484142443E3F412B28263B3633B3
:1014B0003E3835342E2B302F2E403F3D3F3D3D24CE
:1014C00023234041423E3E404445463D3E3F272681
:1014D000253936333F3A372422203D3E401717172F
:1014E0002525263030311B191734302D322E2C2B68
:1014F00027252625253635333735341B1A1A34353A
:10150000362C2D2E38383A292A2B211F1E2C2B2A17
:1015100033312F24211F1717182625241B1A1816BC
:101520001412302F2D2B29283432301E1D1D39382E
:1015300039343334343334202020211F1D1F1C1A2A
:1015400019181731302F3331303332301716152E2A
:101550002E2D3533332C2B2B44413E312F2D3A3851
:1015600037413F3E3E3C3B2827273E3E3F3E3D3FE6
:101570004241432B2A2B3F3A363F3935201E1D4628
:1015800045444E4C4B51504F2A2928484746454424
:1015900043201E1E201F1E1A19181818171C1C1B6A
:1015A000222120171615201F1F1E1D1D1B1A1A167B
:1015B00015151A18171E1C1A1716151D1C1C1E1C93
:1015C0001D292828201F1E1E1D1D28272623201FF9
:1015D0003A37353C3937403C3A423F3C201F1E36B3
:1015E00033302D2A282E2C2B413E3B44413E2523CF
:1015F000224A4A474A4A4644454141413F1F1F1F2C
:101600002C2B2A2825222B28261E1C1C44423F4214
:10161000403E464342423F3D201F1E3D3B393A3744
:1016200035353331413E3C4743402524224A4B481F
:10163000494A4846474443454323222044413F46C4
:10164000423E3B3735151514232120211F1E272527
:10165000251D1C1B12100F24211F221F1D141313E4
:101660001E1E1E1C1C1B12111122201F1816141CDA
:101670001C1B2426240E0C0C1614131C1B192321CE
:101680001F43413F4845433C393721201F3F3F3DE1
:101690003838373D3D3D3837372C2A2944434243BB
:1016A0004140413F3E41403E2D2B2A2E2C2B3F3CBA
:1016B0003B3835333B3835242221403E3B00000087
:1016C0000800020100000304070000000000000001
:1016D0000000000000250028002B0000000000246E
:1016E0000027002A00040404040404040402020283
:1016F0000202020303030303030102040810204053
:101700008001020408102001020408102000CC39D6
:1017100011241FBECFEFD8E0DEBFCDBF12E0A0E0A6
:10172000B1E0EEE0F7E702C005900D92AA39B107EB
:10173000D9F725E0AAE9B2E001C01D92A232B207B2
:10174000E1F71BE0C8E8DBE004C02197FE010E943E
:101750005D3AC738D107C9F70E94E5350C94853B3F
:101760000C9400002F923F924F925F926F927F9263
:101770008F929F92AF92BF92CF92DF92EF92FF92A1
:101780000F931F93CF93DF93CDB7DEB7E3970FB6D9
:10179000F894DEBF0FBECDBF5C0199249A948FE907
:1017A00092E09BAB8AABDD24D39414E0612E03E07E
:1017B000702E87E0582E95E0892E2AE0422E39E0DF
:1017C000332E46E0242EFE01B996FFA7EEA76CE962
:1017D00072E08DE992E00E94AB2FF0919C02F8AB91
:1017E00080919D0289ABB501CE0101960E9429210D
:1017F000EFE9FFE03197F1F700C0000080919E0211
:10180000813009F039C19091A202913009F02AC1CA
:10181000C0900001F1E0CF1233C0B0E2EB2EBDEF7B
:10182000FB2E08E310E025E930E048E050E068E0F6
:1018300070E0CE0101960E94351CC092A20289A9D7
:101840008D3808F43EC0C090000191E0C9121BC061
:10185000E2E0E0930001E12CF12C25E930E048E0E2
:1018600050E068E070E0CE0101960E94351CA0E2D5
:10187000EA2EADEFFA2E25E930E048E050E01EC038
:10188000F9A9FD38F0F0F3E0CF125EC060920001DC
:10189000E12CF12C08E310E025E930E046E450E0CB
:1018A00068E070E0CE0101960E94351CF0E2EF2E58
:1018B000FDEFFF2E25E930E046E450E063EA70E0FA
:1018C0003DC089A9823708F03FC080910001823075
:1018D000C9F4D0920001E12CF12C08E310E025E9D5
:1018E00030E048E050E063EA70E0CE0101960E94EB
:1018F000351CE0E2EE2EEDEFFE2E25E930E048E06B
:1019000050E01AC0843001F570920001E12CF12CF6
:1019100008E310E025E930E046E450E063EA70E0D7
:10192000CE0101960E94351C70E2E72E7DEFF72E66
:1019300025E930E046E450E068E070E0CE01019631
:101940000E94351C1092A20298A9923708F043C059
:10195000809100018130D9F470920001E12CF12CCA
:1019600008E310E025E930E048E050E068E070E08E
:10197000CE0101960E94351C60E2E62E6DEFF62E38
:1019800025E930E046E450E068E070E01DC08230B8
:1019900009F072C060920001E12CF12C08E310E024
:1019A00025E930E048E050E063EA70E0CE010196BE
:1019B0000E94351C50E2E52E5DEFF52E25E930E062
:1019C00046E450E063EA70E0CE0101960E94351CC7
:1019D0001092A20251C0E8A9ED3808F44DC08091E0
:1019E00000018330D9F4D0920001E12CF12C08E3FE
:1019F00010E025E930E046E450E068E070E0CE0118
:101A000001960E94351C40E2E42E4DEFF42E25E9AC
:101A100030E048E050E068E070E01DC0843061F5DF
:101A2000F2E0F0930001E12CF12C08E310E025E94D
:101A300030E046E450E063EA70E0CE0101960E9497
:101A4000351C30E2E32E3DEFF32E25E930E048E08F
:101A500050E063EA70E0CE0101960E94351CD092FE
:101A6000A2020AC098A99357993130F499A99357C3
:101A7000993110F48093A20280919E02823009F085
:101A8000A3C1C090A20281E0C81294C1809100015C
:101A9000853029F520E2E22E2DEFF22E08E310E04A
:101AA0002CE430E046E450E068E070E0CE010196BE
:101AB0000E94351CC092A20299A9923908F45CC018
:101AC00080910001853079F420920001E12CF12C05
:101AD0002CE430E046E450E068E070E07EC099A974
:101AE000923908F449C0863069F450920001E12C23
:101AF000F12C08E310E02CE430E046E450E060E52F
:101B000070E04EC08730E1F488E080930001E12C62
:101B1000F12C08E310E02CE430E046E450E063EA06
:101B200070E0CE0101960E94351C90E2E92E9DEFF7
:101B3000F92E2CE430E046E450E06BEE70E093C008
:101B4000893009F096C040920001E12CF12C08E3A5
:101B500010E025E930E044E850E068E070E0CE01B4
:101B600001960E94351C80E2E82E8DEFF82E25E9C3
:101B700030E044E850E020C0E9A9EE3608F079C032
:101B8000809100018830D9F450920001E12CF12CB1
:101B900008E310E02CE430E046E450E06BEE70E047
:101BA000CE0101960E94351CB0E2EB2EBDEFFB2E5C
:101BB0002CE430E046E450E063EA70E054C0873043
:101BC000D9F420920001E12CF12C08E310E02CE480
:101BD00030E046E450E063EA70E0CE0101960E94F6
:101BE000351CA0E2EA2EADEFFA2E2CE430E046E4FC
:101BF00050E060E570E037C08630C9F480920001A3
:101C0000E12CF12C08E310E02CE430E046E450E055
:101C100060E570E0CE0101960E94351CF0E2EF2EE7
:101C2000FDEFFF2E2CE430E046E450E01AC08A308D
:101C300001F530920001E12CF12C08E310E025E9D8
:101C400030E044E850E063EA70E0CE0101960E9483
:101C5000351CE0E2EE2EEDEFFE2E25E930E044E803
:101C600050E068E070E0CE0101960E94351C1092B1
:101C7000A202F8A9FE3608F057C080910001853015
:101C800069F430920001E12CF12C08E310E02CE41F
:101C900030E046E450E068E070E00EC08630C9F401
:101CA00030920001E12CF12C08E310E02CE430E04C
:101CB00046E450E060E570E0CE0101960E94351CDC
:101CC00070E2E72E7DEFF72E25E930E044E850E0A2
:101CD0004BC0873069F440920001E12CF12C08E3FD
:101CE00010E02CE430E046E450E063EA70E00FC01E
:101CF000883009F069C040920001E12CF12C08E322
:101D000010E02CE430E046E450E06BEE70E0CE01F1
:101D100001960E94351C60E2E62E6DEFF62E25E955
:101D200030E044E850E043C088A9823908F44CC050
:101D300080910001893009F580920001E12CF12C9D
:101D400008E310E025E930E044E850E068E070E0A6
:101D5000CE0101960E94351C50E2E52E5DEFF52E76
:101D60002CE430E046E450E068E070E0CE010196FB
:101D70000E94351C1092A20227C08A3029F5509289
:101D80000001E12CF12C08E310E025E930E044E803
:101D900050E063EA70E0CE0101960E94351C40E2FB
:101DA000E42E4DEFF42E2CE430E046E450E063EAFC
:101DB00070E0DCCF88A98357893130F489A9835733
:101DC000893110F4D092A20280919E02833009F0F2
:101DD00070C18091A202813009F061C1809100013F
:101DE0008B3089F530E2E32E3DEFF32E08E310E06F
:101DF0002CE430E046E450E068E070E0CE0101966B
:101E00000E94351C1092A20299A99D38F0F1809190
:101E100000018B30D9F48CE080930001E12CF12C8F
:101E20002CE430E046E450E068E070E0CE0101963A
:101E30000E94351C20E2E22E2DEFF22E2CE430E041
:101E400046E450E01FC0E9A9ED38F8F08D3009F004
:101E500061C08EE080930001E12CF12C08E310E0DA
:101E60002CE430E044E850E068E070E0CE010196F8
:101E70000E94351C90E2E92E9DEFF92E2CE430E013
:101E800044E850E06BEE70E03FC0E9A9E23708F0AB
:101E900041C0809100018C30D1F48BE0809300012F
:101EA000E12CF12C08E310E02CE430E046E450E0B3
:101EB0006BEE70E0CE0101960E94351C80E2E82EA8
:101EC0008DEFF82E2CE430E046E450E01BC08E305D
:101ED00009F58DE080930001E12CF12C08E310E07E
:101EE0002CE430E044E850E06BEE70E0CE01019667
:101EF0000E94351CB0E2EB2EBDEFFB2E2CE430E04F
:101F000044E850E068E070E0CE0101960E94351C84
:101F10001092A202F8A9F23708F05DC0809100018A
:101F20008B3071F48DE080930001E12CF12C08E3FB
:101F300010E02CE430E046E450E068E070E0A2C03D
:101F40008C30D1F48EE080930001E12CF12C08E379
:101F500010E02CE430E046E450E06BEE70E0CE019F
:101F600001960E94351CA0E2EA2EADEFFA2E2CE479
:101F700030E044E850E074C08E3071F48FE080931C
:101F80000001E12CF12C08E310E02CE430E044E8FF
:101F900050E06BEE70E010C08D3009F08AC08FE029
:101FA00080930001E12CF12C08E310E02CE430E0F8
:101FB00044E850E068E070E0CE0101960E94351CD4
:101FC000F0E2EF2EFDEFFF2E25E930E042EC50E08D
:101FD00065E570E023C088A98D3808F46AC0809157
:101FE00000018D3011F58BE080930001E12CF12C84
:101FF00008E310E02CE430E044E850E068E070E0F2
:10200000CE0101960E94351CE0E2EE2EEDEFFE2E91
:102010002CE430E046E450E068E070E0CE01019648
:102020000E94351C1092A20244C08E30E1F48CE074
:1020300080930001E12CF12C08E310E02CE430E067
:1020400044E850E06BEE70E0CE0101960E94351C32
:1020500070E2E72E7DEFF72E2CE430E046E450E00E
:102060006BEE70E0DBCF8F3021F58DE080930001C7
:10207000E12CF12C08E310E025E930E042EC50E0DF
:1020800065E570E0CE0101960E94351C60E2E62E07
:102090006DEFF62E2CE430E044E850E0BDCF88A987
:1020A0008357893130F489A98357893110F4D0924C
:1020B000A20280919E02843009F071C08091A20238
:1020C000813009F062C080910001803191F550E2C9
:1020D000E52E5DEFF52E08E310E025E930E046E45B
:1020E00050E065E570E0CE0101960E94351C10922B
:1020F000A20298A9923700F580910001803109F081
:102100004EC081E180930001E12CF12C25E930E003
:1021100046E450E065E570E0CE0101960E94351C72
:1021200040E2E42E4DEFF42E25E930E042EC50E0A1
:1021300023C0F8A9F23798F1E8A9ED3880F1809131
:102140000001813161F580E180930001E12CF12CE7
:1021500008E310E025E930E042EC50E065E570E08E
:10216000CE0101960E94351C30E2E32E3DEFF32EA6
:1021700025E930E046E450E065E570E0CE010196E7
:102180000E94351C1092A2020AC088A98357893187
:1021900030F489A98357893110F4D092A20280913A
:1021A0009E02853009F019C18091A202813009F0A8
:1021B0000AC1809100018231D1F520E2E22E2DEF9B
:1021C000F22E08E310E02CE430E046E450E068E052
:1021D00070E0CE0101960E94351C1092A202F9A96E
:1021E000FD3840F180910001823109F04CC083E15B
:1021F00080930001E12CF12C2CE430E046E450E027
:1022000068E070E0CE0101960E94351C90E2E92E54
:102210009DEFF92E2CE430E046E450E06BEE70E0E8
:10222000CE0101960E94351C1092A2022CC089A9F1
:102230008D3848F589A9823730F5809100018331C6
:1022400011F582E180930001E12CF12C08E310E00C
:102250002CE430E046E450E06BEE70E0CE010196F5
:102260000E94351C80E2E82E8DEFF82E2CE430E041
:1022700046E450E068E070E0CE0101960E94351C13
:102280001092A20251C098A9923708F04DC08091D7
:102290000001823171F486E180930001E12CF12C80
:1022A00008E310E02CE430E046E450E068E070E041
:1022B0000FC08331D1F486E180930001E12CF12C31
:1022C00008E310E02CE430E046E450E06BEE70E010
:1022D000CE0101960E94351CB0E2EB2EBDEFFB2E25
:1022E00025E930E044E850E01CC0863109F075C0B3
:1022F00084E180930001E12CF12C08E310E025E952
:1023000030E044E850E065E570E0CE0101960E94BF
:10231000351CA0E2EA2EADEFFA2E25E930E042ECC2
:1023200050E065E570E048C0E8A9E23908F455C01E
:1023300080910001843109F586E180930001E12C50
:10234000F12C08E310E025E930E042EC50E065E5CF
:1023500070E0CE0101960E94351CF0E2EF2EFDEFF9
:10236000FF2E25E930E044E850E065E570E0CE015D
:1023700001960E94351C1092A202809100018631C4
:1023800061F582E180930001E12CF12C08E310E07B
:1023900025E930E044E850E065E570E0CE010196C3
:1023A0000E94351CE0E2EE2EEDEFFE2E2CE430E034
:1023B00046E450E068E070E0CE0101960E94351CD2
:1023C0001092A2020AC088A98357893130F489A9E2
:1023D0008357893110F4D092A20280919E028630F8
:1023E00079F58091A202813009F580910001853153
:1023F00039F51092A202F8A9F23728F098A99D3871
:10240000F8F08093000170E2E72E7DEFF72E08E3ED
:1024100010E025E930E042EC50E065E570E0CE01E7
:1024200001960E94351C1092A2020AC088A9835707
:10243000893130F489A98357893110F4D092A202EE
:1024400080919A02882361F18091A0029091A1026B
:102450000E941E28633021F57F3729F41092430330
:102460008093030168C4272F30E0A90165E05595EA
:1024700047956A95E1F74730510591F4109243036F
:102480001092030192E090931F053695322F222778
:1024900037952795282B30931A03209319035DC491
:1024A00080919E02811186C080914303882309F4A4
:1024B00081C0D092000110924303B501CE01019674
:1024C0000E94292160E070E0CE0101960E94C81DA3
:1024D00091E3E92E93E6F92E04E310E021E930E0E0
:1024E0004AE050E06AE070E0CE0101960E94351C9F
:1024F00021E930E04AE050E065EA70E0CE01019663
:102500000E94351C22E0E22E00E010E026E631E0D9
:102510004EE150E06AE270E0CE0101960E943C304C
:102520002CE631E04EE150E061EB70E0CE01019627
:102530000E943C3031E3E32E33E6F32E04E310E057
:1025400021E930E048E450E06AE070E0CE01019615
:102550000E94351C21E930E048E450E065EA70E073
:10256000CE0101960E94351C42E0E42E00E010E00E
:1025700023ED31E04CE550E063E270E0CE010196DE
:102580000E943C3025E731E04CE550E063EC70E020
:10259000CE0101960E943C30EE24E3942BE731E01B
:1025A00043EE50E060E070E0CE0101960E943C30C6
:1025B000D0929E0280919E02813009F051C3809199
:1025C0000001813009F0BEC080914303882309F4E3
:1025D00047C310924303B501CE0101960E94292101
:1025E00060E070E0CE0101960E94C81DA3E0EA2ED3
:1025F00000E010E021E931E04FE050E06FE070E0F2
:10260000CE0101960E943C30B1E3EB2EB3E6FB2EE7
:1026100004E310E028E430E048E450E06AE070E0D1
:10262000CE0101960E94351C28E430E048E450E0D9
:1026300062E570E0CE0101960E94351C28E430E08E
:1026400048E450E065EA70E0CE0101960E94351C36
:1026500028E430E048E450E06DEE70E0CE010196F1
:102660000E94351C12E0E12E00E010E02FE831E07E
:102670004CE550E063E270E0CE0101960E943C30F0
:102680002EE931E04CE550E06BE670E0CE010196BA
:102690000E943C3020EA31E04CE550E063EC70E011
:1026A000CE0101960E943C3022EA31E04CE550E038
:1026B0006BE071E0CE0101960E943C3001E3E02E18
:1026C00003E6F02E04E310E021E930E046E850E0B4
:1026D0006AE070E0CE0101960E94351C21E930E0ED
:1026E00046E850E065EA70E0CE0101960E94351C94
:1026F00082E0E82E00E010E024EA31E04AE950E010
:1027000063E270E0CE0101960E943C302BEA31E09A
:102710004AE950E068EC70E0CE0101960E943C303E
:10272000EE24E3942BE731E043EE50E060E070E00C
:10273000CE0101960E943C3082E080939E028092FE
:1027400000018EC2823009F04FC18091430388237B
:1027500009F486C2109243034BE0C42EC0920001DC
:10276000B501CE0101960E94292160E070E0CE0102
:1027700001960E94C81D53E0E52E00E010E02CE613
:1027800031E04FE050E067E370E0CE0101960E9437
:102790003C3061E3E62E63E6F62E04E310E028E425
:1027A00030E048E450E06AE070E0CE0101960E941B
:1027B000351C72E0E72E78EFF72E28E430E048E48D
:1027C00050E06AE070E0CE0101960E94C21BE1E396
:1027D000EE2EE3E6FE2E21E930E048E450E067E526
:1027E00070E0CE0101960E94351C28E430E048E4F8
:1027F00050E06DEE70E0CE0101960E94351CF0E4D1
:10280000EF2EF6E6FF2E28E430E048E450E06DEECF
:1028100070E0CE0101960E94C21BA2E0EA2E02E007
:1028200018EF20EB31E04CE550E068E270E0CE01BB
:1028300001960E943C30EE24E39400E010E022EB8D
:1028400031E042E550E06BE670E0CE0101960E9477
:102850003C30B1E3EB2EB3E6FB2E05E010E025E5BE
:1028600030E046E650E060E770E0CE0101960E945D
:10287000351C8091020125E530E0281B310980E2FA
:10288000E82E8DEFF82E46E650E060E770E0CE01CE
:1028900001960E94C21B92E0E92E00E416E62FEB9F
:1028A00031E04CE550E06BE071E0CE0101960E9412
:1028B0003C3021E3E22E23E6F22E04E310E028E48C
:1028C00030E046E850E06AE070E0CE0101960E94F8
:1028D000351C32E0E32E38EFF32E28E430E046E8F2
:1028E00050E06AE070E0CE0101960E94C21B41E315
:1028F000E42E43E6F42E21E930E046E850E067E5B7
:1029000070E0CE0101960E94351C28E430E046E8D4
:1029100050E06DEE70E0CE0101960E94351C50E44F
:10292000E52E56E6F52E28E430E046E850E06DEE60
:1029300070E0CE0101960E94C21B62E0E62E02E02A
:1029400018EF20EB31E04AE950E068E270E0CE0198
:1029500001960E943C30EE24E39400E010E021EC6C
:1029600031E040E950E06BE670E0CE0101960E9454
:102970003C302091010144EA50E068E970E0CE016A
:1029800001960E94763072E0E72E00E416E62FEB07
:1029900031E04AE950E06BE071E0CE0101960E941F
:1029A0003C30E1E3EE2EE3E6FE2E04E310E021E905
:1029B00030E044EC50E067E570E0CE0101960E9403
:1029C000351CF2E0EF2E00E010E02BEA31E043EDA1
:1029D00050E06FE770E0CE0101960E943C307092AB
:1029E0009E02C09200013CC1833009F0B3C08091C7
:1029F0004303882309F434C110924303B501CE0187
:102A000001960E94292160E070E0CE0101960E94AB
:102A1000C81D23E0E22E00E010E02EEC31E04FE094
:102A200050E069E170E0CE0101960E943C3031E354
:102A3000E32E33E6F32E04E310E021E930E048E42E
:102A400050E067E570E0CE0101960E94351CEEA5CE
:102A5000FFA5882D11928A95E9F782E090E00E9407
:102A6000F93A89A783E090E00E94F93A8AA784E0C6
:102A700090E00E94F93A8BA785E090E00E94F93A35
:102A80008CA7EE24E39400E010E09E01275D3F4F09
:102A900047E550E062E770E0CE0101960E943C30CD
:102AA000BC0177272AED31E047E550E0CE010196E1
:102AB0000E943C308C0180E090E00E94F93A4AE0AC
:102AC000BE01685E7F4F0E94CF3AB801772700E0D1
:102AD00010E09E01285E3F4F47E550E0CE01019691
:102AE0000E943C3080911E05882391F02DED31E04D
:102AF00046E650E06CE570E0CE0101960E943C3065
:102B000082E090E00E94F93AC19711F010921E0500
:102B100081E3E82E83E6F82E04E310E021E930E0BB
:102B200044EC50E067E570E0CE0101960E94351C50
:102B300092E0E92E00E010E02BEA31E043ED50E0B6
:102B40006FE770E0CE0101960E943C3060929E02D9
:102B500080E184C0843009F083C0809143038823DE
:102B600009F47EC010924303B501CE0101960E9484
:102B7000292160E070E0CE0101960E94C81DA3E00B
:102B8000EA2E00E010E02FEE31E04FE050E064E686
:102B900070E0CE0101960E943C30B2E0EB2E25EFB2
:102BA00031E047E350E06FE070E0CE0101960E9413
:102BB0003C30EE24E39424E032E045E550E06FE061
:102BC00070E0CE0101960E943C302DE032E044E6F8
:102BD00050E06FE070E0CE0101960E943C302CE1A5
:102BE00032E043E750E06FE070E0CE0101960E94D2
:102BF0003C302CE232E042E850E06FE070E0CE0181
:102C000001960E943C302FE332E041E950E06FE052
:102C100070E0CE0101960E943C3011E3E12E13E6F4
:102C2000F12E04E310E021E930E044EC50E067E5E8
:102C300070E0CE0101960E94351C02E0E02E00E01B
:102C400010E02BEA31E043ED50E06FE770E0CE0199
:102C500001960E943C3020929E0285E18093000103
:102C600080919E02823009F0A4C0909100019530BD
:102C700071F490914303992309F44FC010924303D8
:102C800080931F05D09203019924939446C09630F7
:102C900071F490914303992309F43FC010924303C8
:102CA00080931F0580930301F2E09F2E36C097307A
:102CB00069F490914303992381F110924303809327
:102CC0001F0570920301E3E09E2E27C0983069F43F
:102CD00090914303992309F11092430380931F05B8
:102CE0008092030175E0972E18C0993061F490919D
:102CF0004303992391F01092430380931F05109290
:102D00000301912C0AC09A3041F480914303882337
:102D100021F01092430310929E02EAA9FBA9808140
:102D2000843608F440C091100AC010921A03109221
:102D300019031092430382E080931F050EC01914FB
:102D400054F51092430382E080931F059092030193
:102D5000492D6FE783E00E94CC2D6CE273E6C5013C
:102D60000E94C81DE3960FB6F894DEBF0FBECDBF1C
:102D7000DF91CF911F910F91FF90EF90DF90CF9057
:102D8000BF90AF909F908F907F906F905F904F908B
:102D90003F902F90089540E060E080E00E94CC2DAD
:102DA000EAA9FBA91082EAA9FBA980813196FBABB5
:102DB000EAAB80919E02833009F0BFC08091000190
:102DC0008B30D9F580914303882309F4B6C0109263
:102DD000430380910201853508F0AFC08F5F809377
:102DE0000201E12CF12C05E010E025E530E046E69B
:102DF00050E060E770E0C5010E94C21B51E3E52E80
:102E000053E6F52E25E530E046E650E060E770E059
:102E1000C5010E94351C8091020125E530E0281B88
:102E2000310960E2E62E6DEFF62E46E650E060E7EF
:102E300070E0C5010E94C21B80C08C30F1F580910A
:102E40004303882309F479C010924303809102015F
:102E50008150853508F071C0E12CF12C05E010E0BF
:102E600025E530E046E650E060E770E0C5010E94ED
:102E7000C21B21E3E22E23E6F22E25E530E046E6F2
:102E800050E060E770E0C5010E94351C80910201AE
:102E900026E530E0281B310940E2E42E4DEFF42E08
:102EA00046E650E060E770E0C5010E94C21B8091D9
:102EB000020181508093020140C08D3011F5809154
:102EC00043038823D1F11092430380919B02811127
:102ED0000EC020910101223050F0215020930101B9
:102EE00044EA50E068E970E0C5010E9476308091C4
:102EF0009B028F5F80939B028C3FF9F410929B02A0
:102F00001CC08E3081F4809143038823B1F010926D
:102F1000430380919B028111EACF2091010125306A
:102F200030F72F5FDBCF8F3041F48091430388234C
:102F300021F01092430310929E0280919E028430F1
:102F400009F0E4C080910001803109F0D5C0809182
:102F50004303882309F4DAC0B501CE0101960E942B
:102F6000292160E070E0CE0101960E94C81DEE2488
:102F7000EA94FE2C0FE210E02EE730E04FE250E042
:102F800060E670E0CE0101960E94BD1C2EEA30E0A2
:102F90004FE250E060E970E0CE0101960E94BD1C56
:102FA0002FED30E04FE250E061EC70E0CE01019691
:102FB0000E94BD1C71E3E72E73E6F72E04E310E0D8
:102FC00028E430E048E450E06AE070E0CE01019689
:102FD0000E94351CE2E0EE2EE8EFFE2E28E430E001
:102FE00048E450E06AE070E0CE0101960E94C21B06
:102FF000F1E3EF2EF3E6FF2E21E930E048E450E064
:1030000067E570E0CE0101960E94351C28E430E0AF
:1030100048E450E06DEE70E0CE0101960E94351C50
:10302000A0E4EA2EA6E6FA2E28E430E048E450E0D8
:103030006DEE70E0CE0101960E94C21BB2E0EB2E55
:1030400002E018EF20EB31E04CE550E068E270E080
:10305000CE0101960E943C3000E416E62FEB31E0F1
:103060004CE550E06BE071E0CE0101960E943C30EF
:1030700011E3E12E13E6F12E04E310E021E930E044
:1030800046E850E067E570E0CE0101960E94351CED
:1030900002E0E02E00E010E027E931E045E950E0F1
:1030A00060E770E0CE0101960E943C3081E3E82E9B
:1030B00083E6F82E04E310E021E930E044EC50E030
:1030C00067E570E0CE0101960E94351C92E0E92E82
:1030D00000E010E02BEA31E043ED50E06FE770E0F4
:1030E000CE0101960E943C3080929E0282E1809344
:1030F0000001109243030AC0813141F480914303DF
:10310000882321F01092430310929E0280919E0228
:10311000853009F0C2C08091430381110FC052E095
:10312000C52EE12CF12C0FEF1FEF2091040147E594
:1031300050E06AE970E0C5010E94E3198091000146
:10314000823151F580914303882331F1109243037A
:10315000209104018EEB820F8931F0F48091A4025A
:10316000811110C021502093040142E0C42EE12CB3
:10317000F12C0FEF1FEF47E550E06AE970E0C50161
:103180000E94E3198091A4028F5F8E3119F0809321
:10319000A40202C01092A40280910001833151F573
:1031A00080914303882331F110924303209104015D
:1031B0008FEB820F8931F0F48091A402811110C04D
:1031C0002F5F2093040132E0C32EE12CF12C0FEF8E
:1031D0001FEF47E550E06AE970E0C5010E94E3197E
:1031E0008091A4028F5F823319F08093A40202C001
:1031F0001092A402809100018631D9F58091430399
:103200008823B9F11092430380919B02811127C05A
:103210008091A302833018F520910401E82FF0E09B
:10322000E25EFC4F208393E0C92EE12CF12C0FEFDE
:103230001FEF46E150E0813029F0823031F066E640
:1032400070E005C066E970E002C067EC70E0C5019F
:103250000E94E3198091A3028F5F8093A302809163
:103260009B028F5F8C3F19F080939B0202C01092EB
:103270009B0280910001843181F480914303882373
:1032800061F01092430310929E021092A30260918B
:103290000D01809120050E94063180919E028630AA
:1032A00011F00C94E70B80910001853111F00C9422
:1032B000E70B80914303882311F40C94E70B1092E1
:1032C000430310929E020C94E70BCF92EF92FF9271
:1032D0000F931F93CF93DF93EC01262F6A3081F475
:1032E0008C899D89998B888B2A852F778A899B89E0
:1032F00038E0239F800D911D11249B8B8A8B47C042
:10330000862F8B7F893009F442C068897989203201
:1033100019F461157105D9F1E881F981EE84FF8412
:103320000C851D854A895B890088F189E02DCA8456
:10333000CE010995BC01998B888B8B85882339F147
:103340002A852F77822F90E048EF420390011124C5
:103350004E815F81420F531F46175707C4F44C89B3
:103360005D89598B488B43E0880F991F4A95E1F797
:103370004A895B89840F951F9B8B8A8B4885598569
:10338000240F351F2817390714F41B8A1A8A81E085
:1033900090E0DF91CF911F910F91FF90EF90CF9030
:1033A0000895CF92EF92FF920F931F93DC01ED915E
:1033B000FC910684F785E02D09951F910F91FF90F0
:1033C000EF90CF9008952F923F924F925F926F921D
:1033D0007F928F929F92AF92BF92CF92DF92EF92A5
:1033E000FF920F931F93CF93DF9300D01F92CDB71F
:1033F000DEB79B838A83480188E02802900111246C
:10340000D901A859B0405D01BC2DBF77CB2EEA8110
:10341000FB8186819781F1E0FB1708F463C06B01A3
:1034200028E0C20ED11C8C159D050CF46EC0AA813B
:10343000BB811896ED91FC9119979A01285F3F4F37
:10344000E217F3070CF461C0AA81BB81ED91FC91F6
:1034500011978A01095F1F4F9B01295F3F4F06802B
:10346000F781E02DCD010995AA81BB81ED91FC91F9
:1034700011970084F185E02DCD0109958501085F44
:103480001F4FF5014490FFEFAF1ABF0A98E0692E75
:10349000712C20E8522EAA81BB81ED91FC911197ED
:1034A000852D84210284F385E02D882319F0B40151
:1034B000CD0103C0B7018A819B8109955694B1E083
:1034C0006B1A710841F7A016B106D9F6AA81BB8123
:1034D000ED91FC9111970484F585E02DCD010995BE
:1034E000C60176C0B8E0CB9E800111243B01600E7E
:1034F000711E861597054CF0040F151FEA81FB819C
:10350000208531852017310714F4019661C0AA8106
:10351000BB81ED91FC911197015011090680F78153
:10352000E02D930121503109CD010995AA81BB817C
:10353000ED91FC9111970084F185E02DCD01099565
:103540002501B8E04B0E511CF5012490FFEFAF1A96
:10355000BF0A3C2C08E010E080E8D82E8D2D822197
:103560002C2DA1F0AA81BB81ED91FC9111970284D1
:10357000F385E02DB401CD012983099529812150DE
:1035800089F7D6940150110949F710C0AA81BB816F
:10359000ED91FC9111970284F385E02DB701CD01E7
:1035A000298309952981215089F7EBCF3A9431106D
:1035B000D1CFA414B50409F0C7CFAA81BB81ED9186
:1035C000FC9111970484F585E02DCD010995C30187
:1035D0000F900F900F90DF91CF911F910F91FF905F
:1035E000EF90DF90CF90BF90AF909F908F907F90A3
:1035F0006F905F904F903F902F90089585ED80934E
:10360000BC008091BC0084FDFCCF10927003089533
:103610004091EA02262F30E0240F311D213231057E
:10362000DCF4209170032430C9F4FC0180E090E0C8
:10363000861758F43091EA022191DC01A853BD4F5E
:10364000A30FB11D2C930196F3CF8091EA02680F6E
:103650006093EA0280E0089581E0089582E0089591
:103660000895E091220380912103E81730F4F0E0FF
:10367000ED5DFC4F808190E008958FEF9FEF0895FE
:103680009091220380912103981750F4E92FF0E0E4
:10369000ED5DFC4F208130E09F5F9093220302C0DC
:1036A0002FEF3FEFC90108958091210390E0209111
:1036B0002203821B91090895CF92DF92EF92FF922D
:1036C0000F931F93CF93DF937C01262F972F8A01AF
:1036D00080917103882391F0C62FD72F6E01C40EFD
:1036E000D51ECC15DD0571F06991D701ED91FC91E6
:1036F0000190F081E02DC7010995F3CF642F822F4F
:103700000E94081BC801DF91CF911F910F91FF907C
:10371000EF90DF90CF900895CF93DF931F92CDB7B6
:10372000DEB76983209171032223D1F020919403A5
:10373000203240F021E030E0FC013383228380E03E
:1037400090E015C080917203E82FF0E0ED58FC4F37
:10375000998190838F5F809372038093940305C057
:1037600061E0CE0101960E94081B81E090E00F907D
:10377000DF91CF9108958EBD00000DB407FEFDCFFF
:103780008EB508958F929F92AF92BF92CF92DF92A3
:10379000EF92FF920F931F93CF93DF93EC01690198
:1037A00058012E813F81621773071CF0B9016150E7
:1037B000710988859985481759071CF0AC0141505B
:1037C0005109FB01EC0DFD1DE217F3071CF0690127
:1037D000C61AD70A9A012A0D3B1D281739071CF073
:1037E0005C01A41AB50AE881F9818A010A0D1B1D42
:1037F000015011099B012C0D3D1D215031090680FE
:10380000F781E02DCE010995E881F9810084F185E9
:10381000E02DCE0109959501D6010E944E3A4B014B
:103820005C01E881F98181149104A104B10461F083
:103830000284F385E02DB701CE01099581E0881A55
:103840009108A108B108EDCF0484F585E02DCE01E3
:10385000DF91CF911F910F91FF90EF90DF90CF906C
:10386000BF90AF909F908F9009944F925F926F920C
:103870007F928F929F92AF92BF92CF92DF92EF9200
:10388000FF920F931F93CF93DF93EC016B015A01CB
:103890002901380121E030E00E94C21BA501460D3C
:1038A000571D4150510901E010E09201B601CE01CF
:1038B0000E94C21BB601640D751D61507109830120
:1038C00021E030E0A501CE010E94C21B01E010E022
:1038D0009201A501B601CE010E94C21BDF91CF91DA
:1038E0001F910F91FF90EF90DF90CF90BF90AF901E
:1038F0009F908F907F906F905F904F900895EF9280
:10390000FF920F931F93CF93DF93EC018E819F81E2
:10391000681779075CF5888599854817590734F544
:103920007901E881F9810680F781E02D8A019B0108
:10393000CE010995E881F9810084F185E02DCE0161
:103940000995E881F9810284F385E02DB701CE0164
:103950000995E881F9810484F585E02DCE01DF9198
:10396000CF911F910F91FF90EF900994DF91CF912C
:103970001F910F91FF90EF9008952F923F924F92D9
:103980005F926F927F928F929F92AF92BF92CF92EF
:10399000DF92EF92FF920F931F93CF93DF93CDB7F8
:1039A000DEB728970FB6F894DEBF0FBECDBF4C012F
:1039B0006B0158874F83590162177307A1F40417ED
:1039C000150744F4042715274027512758874F83AC
:1039D000042715272F813885021B130B0F5F1F4FFC
:1039E00021E030E015C04F81588540175107B9F4E8
:1039F0002617370734F4A626B726CA24DB24AC24BE
:103A0000BD2495012C193D092F5F3F4F01E010E0C7
:103A10004F815885B601C4010E94C21BA0C0FC01A1
:103A2000268137816217730724F06901F1E0CF1A0C
:103A3000D108F401808591854F8158854817590731
:103A400024F0FC013197F887EF83A216B30624F027
:103A50005901F1E0AF1AB108081719071CF08C01E1
:103A60000150110935016C187D0828012F81388516
:103A7000421A530A77FE08C07194619471084FEF9F
:103A80005FEF5A83498304C081E090E09A83898381
:103A900057FE08C0519441945108EFEFFFEFFC83AB
:103AA000EB8304C021E030E03C832B83A301440F6F
:103AB000551F5E834D831201220C331C97014F81E9
:103AC0005885B601C4010E947F1C461457041CF59A
:103AD000810106191709CA14DB0409F440C017FD57
:103AE0000CC08F819885EB81FC818E0F9F1F98877A
:103AF0008F832D813E81021B130B49815A81C40E95
:103B0000D51E020D131D97014F815885B601C401C2
:103B10000E947F1CE0CFAD80BE80A418B5088F81C5
:103B2000988580179107D9F0B7FC06C089819A81E2
:103B3000C80ED91EA218B308EF81F8852B813C81ED
:103B4000E20FF31FF887EF834D815E81A40EB51E4F
:103B50009701AF01B601C4010E947F1CE0CF2896F7
:103B60000FB6F894DEBF0FBECDBFDF91CF911F918E
:103B70000F91FF90EF90DF90CF90BF90AF909F900C
:103B80008F907F906F905F904F903F902F9008950F
:103B90008F929F92AF92BF92EF92FF920F931F93DB
:103BA000CF93DF93EC017B01E881F98108851985CA
:103BB000015011092E813F81215031090680F78182
:103BC000E02D40E050E060E070E00995E881F98187
:103BD0000084F185E02DCE010995AE81BF81288555
:103BE00039850E944E3A4B015C0183E0B694A7945C
:103BF000979487948A95D1F7E881F981811491048B
:103C0000A104B10409F444C00284F385E02DB70196
:103C1000CE010995E881F9810284F385E02DB70191
:103C2000CE010995E881F9810284F385E02DB70181
:103C3000CE010995E881F9810284F385E02DB70171
:103C4000CE010995E881F9810284F385E02DB70161
:103C5000CE010995E881F9810284F385E02DB70151
:103C6000CE010995E881F9810284F385E02DB70141
:103C7000CE010995E881F9810284F385E02DB70131
:103C8000CE01099581E0881A9108A108B108B4CF46
:103C90000484F585E02DCE01DF91CF911F910F9126
:103CA000FF90EF90BF90AF909F908F9009941F92DC
:103CB0000F920FB60F9211242F933F934F935F9360
:103CC0006F937F938F939F93AF93BF93EF93FF93E4
:103CD0008091B900887F803609F49CC068F58832ED
:103CE00009F45BC090F4803109F454C038F488239F
:103CF00009F4F6C0883009F44DC0F6C0883109F4E3
:103D00004CC0803209F45DC0EFC0803409F468C053
:103D100048F4803309F455C0883309F0E5C0809336
:103D20006E03D8C0803509F44FC0883509F45DC0F2
:103D3000883409F0D9C0D6C0883909F4C7C0A8F4BE
:103D4000883709F467C038F4883609F463C08037CF
:103D500009F460C0C9C0883809F4B8C0803909F4D2
:103D60005FC0803809F0C0C05BC0803B09F486C0EA
:103D700038F4803A09F466C0883A09F47FC0B4C0C8
:103D8000803C09F4A7C0883C09F4A4C0883B09F42E
:103D90008AC0AAC080914B0310C090916D0380919E
:103DA0006C03981770F5E0916D0381E08E0F80939E
:103DB0006D03F0E0E45BFC4F80818093BB0085ECF9
:103DC00086C080936E038EC0E0916D0381E08E0FFC
:103DD00080936D038091BB00F0E0E45BFC4F808337
:103DE00090916D0380916C036EC0E0916D0381E052
:103DF0008E0F80936D038091BB00F0E0E45BFC4F7D
:103E0000808380916F0381116DC081E080934A03AC
:103E100084EA61C083E08093700310920E03CFCFD9
:103E200080910E03803208F051C0E0910E0381E0D2
:103E30008E0F80930E038091BB00F0E0E251FD4FA6
:103E40008083BDCF85EC8093BC001092700380917D
:103E50000E03803230F4E0910E03F0E0E251FD4FAA
:103E6000108260910E0370E0E091EC02F091ED029F
:103E70008EEE92E0099510920E0336C084E0809396
:103E800070031092EB021092EA02E091E802F091C6
:103E9000E90209958091EA02811105C081E08093D1
:103EA000EA021092C802E091EB0281E08E0F80934B
:103EB000EB02F0E0E853FD4F80818093BB009091CE
:103EC000EB028091EA02981708F479CF85E8809395
:103ED000BC000AC085EC8093BC001092700304C043
:103EE00010926E030E94FE1AFF91EF91BF91AF9165
:103EF0009F918F917F916F915F914F913F912F9102
:103F00000F900FBE0F901F9018951F920F920FB633
:103F10000F9211242F933F934F935F936F937F934F
:103F20008F939F93AF93BF93809159048111B0C039
:103F30008091C4029091C502A091C602B091C702BF
:103F40004091C0025091C1026091C2027091C302BF
:103F500084179507A607B70750F04091C00250910B
:103F6000C1026091C2027091C3029C010BC04091DA
:103F7000C0025091C1026091C2027091C3029C01C3
:103F800021503109241B350B3093BF022093BE0210
:103F90008093C0029093C102A093C202B093C30267
:103FA0008091BE029091BF02893C910530F0109241
:103FB000BD021092BC0210929A028091BE029091B2
:103FC000BF02029708F464C08091BE029091BF02C4
:103FD000089708F05DC080919A02811110929A02B0
:103FE0008091BE029091BF020597C0F08091BE0201
:103FF0009091BF02089790F44091BC025091BD028D
:104000002091A0023091A10281E090E002C0880FCF
:10401000991F4A95E2F7822B932B35C08091BE02FF
:104020009091BF02029730F08091BE029091BF0242
:104030000597B0F08091BC029091BD02409730F49A
:1040400081E080939A0282E380939F028091BC0278
:104050009091BD0201969093BD028093BC0218C05E
:104060004091BC025091BD022091A0023091A1026A
:1040700081E090E002C0880F991F4A95E2F7809591
:104080009095822393239093A1028093A002D2CF94
:10409000BF91AF919F918F917F916F915F914F9160
:1040A0003F912F910F900FBE0F901F9018951F9268
:1040B0000F920FB60F9211240F931F932F933F93DC
:1040C0004F935F936F937F938F939F93AF93BF9320
:1040D0008091BB028F5F8093BB028A3009F0A8C039
:1040E0008091C4029091C502A091C602B091C7020E
:1040F000AC01BD014F5F5F4F6F4F7F4F4093C402D4
:104100005093C5026093C6027093C7022091590470
:10411000222309F483C02091BA022223F1F0809176
:10412000B8029091B9020A9771F41092BA021092F3
:10413000B4021092B5021092B6021092B702109219
:10414000B9021092B8028091B8029091B90201961A
:104150009093B9028093B80248C00091B4021091C4
:10416000B5022091B6023091B7024017510762079D
:10417000730721F42091B302211153C04091B4027E
:104180005091B5026091B6027091B702452B462B53
:10419000472B59F520915A0430915B044091B102AC
:1041A0005091B20202C0369527954A95E2F720FF5A
:1041B00004C00796A11DB11D03C00496A11DB11D29
:1041C0008093B4029093B502A093B602B093B70265
:1041D00081E08093B302539A8091B1029091B20230
:1041E00001969093B2028093B1028091B1029091B6
:1041F000B202419799F41092B30253981092B2020E
:104200001092B102109259041092BA021092B402A4
:104210001092B5021092B6021092B7021092BB0231
:1042200007C01092B302539821E02093BA02A6CFA0
:10423000BF91AF919F918F917F916F915F914F91BE
:104240003F912F911F910F910F900FBE0F901F90D4
:104250001895FC01DB018CE491E091838083129638
:104260008D919C9113979383828314968D919C9149
:1042700015979583848316968D919C9117979783B4
:10428000868318968D919C911997918780871A96AD
:104290008C911A9782871B968C911B9783871C960B
:1042A0008D919C911D97958784871E968D919C91E9
:1042B0001F979787868750968D919C915197918BE8
:1042C000808B52968D919C915397938B828B5496B1
:1042D0008D919C915597958B848B84E591E091838A
:1042E000808356968C91868B0895CF92DF92EF92C1
:1042F000FF920F931F93CF93DF936C017A018B0191
:10430000C0E0D0E0CE15DF0589F0D8016D918D01B8
:10431000D601ED91FC910190F081E02DC601099547
:10432000892B11F47E0102C02196ECCFC701DF91E9
:10433000CF911F910F91FF90EF90DF90CF90089554
:10434000FC01918D828D981761F0828DDF01A80F9D
:10435000B11D5D968C91928D9F5F9F73928F90E0BF
:1043600008958FEF9FEF0895FC01918D828D98172E
:1043700031F0828DE80FF11D858D90E008958FEF6B
:104380009FEF0895FC01918D228D892F90E0805C34
:104390009F4F821B91098F7399270895FC01848D8B
:1043A000DF01A80FB11DA35ABF4F2C91848D90E05F
:1043B00001968F739927848FA689B7892C93A0893A
:1043C000B1898C9180648C93938D848D981306C0F1
:1043D0000288F389E02D80818F7D80830895EF929C
:1043E000FF920F931F93CF93DF93EC0181E0888FAF
:1043F0009B8D8C8D981305C0E889F989808185FD96
:1044000024C0F62E0B8D10E00F5F1F4F0F73112786
:10441000E02E8C8DE8120CC00FB607FCFACFE889AD
:10442000F989808185FFF5CFCE010E94CE21F1CFA1
:104430008B8DFE01E80FF11DE35AFF4FF0820B8FC9
:10444000EA89FB898081806207C0EE89FF896083E9
:10445000E889F98980818064808381E090E0DF9140
:10446000CF911F910F91FF90EF900895CF93DF931D
:10447000EC01888D8823C9F0EA89FB89808185FD5C
:1044800005C0A889B9898C9186FD0FC00FB607FCBD
:10449000F5CF808185FFF2CFA889B9898C9185FFFE
:1044A000EDCFCE010E94CE21E7CFDF91CF910895CD
:1044B0003FB7F8948091150390911603A0911703CC
:1044C000B091180326B5A89B05C02F3F19F001969F
:1044D000A11DB11D3FBFBA2FA92F982F8827820F8A
:1044E000911DA11DB11DBC01CD0142E0660F771FDA
:1044F000881F991F4A95D1F708958F929F92AF9286
:10450000BF92CF92DF92EF92FF926B017C010E94EB
:1045100058224B015C01C114D104E104F104F1F013
:104520000E945822DC01CB0188199909AA09BB090C
:10453000883E9340A105B10570F321E0C21AD1086D
:10454000E108F10888EE880E83E0981EA11CB11CDA
:10455000C114D104E104F10419F7DDCFFF90EF900D
:10456000DF90CF90BF90AF909F908F9008955F9A0B
:1045700008952F923F924F925F926F927F928F9207
:104580009F92AF92BF92CF92DF92EF92FF920F93E2
:104590001F93CF93DF9300D000D0CDB7DEB76C016F
:1045A0005B014A019EEF492E55245A941C821B82BE
:1045B00022E0622E712C4B815C81480D591D8FEEDB
:1045C000E82E8BE7F82E8A011501260C371C910185
:1045D000C501861997099A838983BC01C6010E9487
:1045E000BD1CA401EB81FC814E1B5F0B8A01910174
:1045F00069817A81C6010E94BD1C2B803C802A0CF7
:104600003B1C95018B819C81281B390B3A832983A4
:10461000A401460D571D8A01910169817A81C60165
:104620000E94BD1CA401461957098A0191016981A4
:104630007A81C6010E94BD1C8B819C810196EB8111
:10464000FC814E0E5F1E480E591EFFEF4F165F068F
:1046500039F021E0621A71084618570846185708C1
:104660009C838B83681679060CF0A5CF0F900F9072
:104670000F900F90DF91CF911F910F91FF90EF90CE
:10468000DF90CF90BF90AF909F908F907F906F9072
:104690005F904F903F902F9008950E94633A862F2D
:1046A0005F982B9A2D989CB59F7B9CBD2D9A9CB5AD
:1046B00090649CBD0E94BB1B5F9A0895CF93DF93CB
:1046C0001F92CDB7DEB7872F5F982B9A2D989CB598
:1046D0009F7B9CBD2D9A9CB590649CBD69830E9474
:1046E000BB1B2B9A2D989CB59F7B9CBD2D9A9CB58E
:1046F00090649CBD6981862F0E94BB1B5F9A0F90BE
:10470000DF91CF910895862F5F982B982D989CB5B7
:104710009F7B9CBD2D9A9CB590649CBD0E94BB1B49
:104720005F9A08956CE20E9483235F980895AF9288
:10473000BF92CF92DF92EF92FF920F931F93CF938E
:10474000DF93EC015B017A0169016AE20E94832335
:10475000B501CE010E945E23B601CE010E945E2308
:104760006BE2CE010E948323B701CE010E945E233B
:10477000B801CE01DF91CF911F910F91FF90EF9083
:10478000DF90CF90BF90AF900C945E230F931F9358
:10479000CF93DF93EC016930710519F06A3571052B
:1047A00071F48AE590E09D838C8380EF90E09F8395
:1047B0008E8380E491E09987888718E434C0623161
:1047C000710519F0643B710571F484EB90E09D83F1
:1047D0008C8380E491E09F838E8380EF90E09987C3
:1047E000888718E320C06B31710521F07E7F6E3021
:1047F000710571F48EE091E09D838C8380EF90E0F1
:104800009F838E8380E491E09987888718E80BC0A6
:104810001D821C8280E491E09F838E8380EF90E074
:104820009987888718EE66E3CE010E948323612F63
:10483000CE010E944F23E881F98108851985015036
:1048400011092E813F81215031090680F781E02D29
:1048500040E050E060E070E0CE010995DF91CF913B
:104860001F910F910895CF93DF931F92CDB7DEB7BD
:10487000872F2B9A2D989CB59F7B9CBD2D9A9CB51C
:1048800090649CBD69830E94BB1B2B9A2D989CB59C
:104890009F7B9CBD2D9A9CB590649CBD6981862FA1
:1048A0000F90DF91CF910C94BB1B2F923F924F92B0
:1048B0005F926F927F928F929F92AF92BF92CF92B0
:1048C000DF92EF92FF920F931F93CF93DF93EC0150
:1048D00060E070E00E94C81D34E0E32E00E010E0CC
:1048E0002FE432E048E250E06FE070E0CE010E9439
:1048F0003C3040EFE42EFF24FA9400E110E0C12C9C
:10490000D12C5CE3252E312C66E3462E512C46013A
:1049100086E3880E911C2CE233E6A40158018CE357
:10492000A80EB11CB501CE010E947F1C2CE233E61B
:10493000A4013101601A710AB301CE010E947F1CEB
:1049400042018C189D082CE233E6A401B501CE018A
:104950000E947F1C2CE233E6A401B301CE010E9429
:104960007F1C46018CE3880E911C2CE233E6580133
:1049700086E3A80EB11CA501B401CE010E947F1CE4
:1049800031016C187D082CE233E6A501B301CE019C
:104990000E947F1C2CE233E65201A01AB10AA50145
:1049A000B401CE010E947F1C2CE233E6A501B301C5
:1049B000CE010E947F1CC6010196EC0CFD1CE80E86
:1049C000F91EF7FC06C001501109E01AF10AE01ABD
:1049D000F10A6C01081719070CF099CF4EE250E06C
:1049E00066E370E0CE010E94B92240E350E064E348
:1049F00070E0CE010E94B9229CE2E92E93E6F92EE6
:104A000005E010E02FE030E043E250E065E370E0C5
:104A1000CE010E94351CE12CF12C2FE030E043E266
:104A200050E065E370E0CE010E94C21B20E8E22E58
:104A30002AE7F22E26E030E04EE150E06AE370E033
:104A4000CE010E94C21B26E030E04CE150E068E35A
:104A500070E0CE010E94C21B26E030E04AE150E047
:104A600066E370E0CE010E94C21B26E030E048E120
:104A700050E064E370E0CE010E94C21B6CE972E07A
:104A80008DE992E00E94AB2F82E0E82E00E010E07A
:104A900029E532E048EC50E069E170E0CE010E9487
:104AA0003C3080914303882349F381E080931F05C4
:104AB000DF91CF911F910F91FF90EF90DF90CF90FA
:104AC000BF90AF909F908F907F906F905F904F902E
:104AD0003F902F9008951F920F920FB60F921124BE
:104AE0002F933F934F935F936F937F938F939F93F6
:104AF000AF93BF93EF93FF938CE594E00E94CE2198
:104B0000FF91EF91BF91AF919F918F917F916F91A5
:104B10005F914F913F912F910F900FBE0F901F907B
:104B200018951F920F920FB60F9211242F938F9307
:104B30009F93EF93FF93E0916C04F0916D0480815B
:104B4000E0917204F091730482FD12C09081809113
:104B500075048F5F8F7320917604821751F0E09176
:104B60007504F0E0E45AFB4F958F8093750401C003
:104B70008081FF91EF919F918F912F910F900FBEA8
:104B80000F901F90189590E0FC01E354F94E34917A
:104B9000FC01E750F94E2491FC01EB51F94EE491F0
:104BA000EE2309F43BC0332339F1333091F038F46C
:104BB0003130A9F0323001F584B58F7D12C0373025
:104BC00091F03830A1F03430B9F4809180008F7DBD
:104BD00003C0809180008F77809380000DC084B5E2
:104BE0008F7784BD09C08091B0008F7703C080911A
:104BF000B0008F7D8093B000F0E0EE0FFF1FEF520A
:104C0000F94EA591B4918FB7F894EC91611103C05E
:104C100020952E2301C02E2B2C938FBF08951F9219
:104C20000F920FB60F9211242F933F938F939F9360
:104C3000AF93BF938091110390911203A09113033E
:104C4000B09114033091100323E0230F2D3720F48B
:104C50000196A11DB11D05C026E8230F0296A11DD6
:104C6000B11D209310038093110390931203A0931E
:104C70001303B09314038091150390911603A09130
:104C80001703B09118030196A11DB11D8093150360
:104C900090931603A0931703B0931803BF91AF919D
:104CA0009F918F913F912F910F900FBE0F901F906A
:104CB00018952F923F924F925F926F927F928F92B0
:104CC0009F92AF92BF92CF92DF92EF92FF920F939B
:104CD0001F93CF93DF935C0184E1689F60011124EF
:104CE00094E1499F80011124412C512C320176011D
:104CF000C0E0D0E042019FEF891A990A120182E0D8
:104D0000280E311CFE01E40DF51DE355F74F84918B
:104D1000FE01E80DF91DE355F74F2491FE01E20D68
:104D2000F31DE355F74FE491887F2C7F98E0299F8E
:104D300090011124382BE695E695E6952E2BA801D7
:104D4000B701C5010E947F1C23968FEFE81AF80A6D
:104D5000CC33D105B9F69CE3490E511C611C711C82
:104D60000F5F1F4F80EB481684E058066104710402
:104D700009F0BDCFDF91CF911F910F91FF90EF9080
:104D8000DF90CF90BF90AF909F908F907F906F906B
:104D90005F904F903F902F9008952F923F924F92A7
:104DA0005F926F927F928F929F92AF92BF92CF92BB
:104DB000DF92EF92FF920F931F93CF93DF935C01EB
:104DC00084E1689F6001112494E1499F80011124CE
:104DD000412C512C32017601C0E0D0E042019FEF1E
:104DE000891A990A120182E0280E311CFE01E40D95
:104DF000F51DE350FC4F8491FE01E80DF91DE350D1
:104E0000FC4F2491FE01E20DF31DE350FC4FE491B1
:104E1000887F2C7F98E0299F90011124382BE695FC
:104E2000E695E6952E2BA801B701C5010E947F1CCF
:104E300023968FEFE81AF80ACC33D105B9F69CE334
:104E4000490E511C611C711C0F5F1F4F80EB4816EF
:104E500084E058066104710409F0BDCFDF91CF9161
:104E60001F910F91FF90EF90DF90CF90BF90AF9088
:104E70009F908F907F906F905F904F903F902F907A
:104E800008950F931F93CF93DF93CDB7DEB7679746
:104E90000FB6F894DEBF0FBECDBF182F062FBA0194
:104EA000CE0101960E942921402F612FCE0101964B
:104EB0000E94CD2667960FB6F894DEBF0FBECDBF19
:104EC000DF91CF911F910F910895CF92DF92EF92D2
:104ED000FF920F931F93CF93DF938C01219A289811
:104EE000219A579A259A239A249829985F9A84E0C0
:104EF000F801868B8CB5837F8CBD8CB58F7D8CBD86
:104F0000CFB7F89480910F03811124C0EFEEF6E142
:104F10008491E3E0F7E19491E82FF0E0EE0FFF1FBA
:104F2000E552F94EA591B491EC91E92321F461E0A9
:104F30008AE00E94C3258AE00E9424348CB58061F7
:104F40008CBD8CB580648CBD8DE00E9424348BE0D8
:104F50000E94243480910F038F5F80930F03CFBF93
:104F60008CB58C7F8CBD8DB58E7F8DBD5F9A28985A
:104F700062E370E080E090E00E947D22289A68E77A
:104F800070E080E090E00E947D22E8E6F3E07F019F
:104F90008FEFE81AF80A64916F3FA1F1862F807CA9
:104FA0008038B1F0803C39F1803411F0F701EFCF57
:104FB000C62FCF736F01DC2FFFEFCF1ADF0ADD237F
:104FC000B9F0F6016491C8010E948323D150F4CF57
:104FD000C62FCF736F01DC2FFFEFCF1ADF0ADD235F
:104FE00039F0F6016491C8010E944F23D150F4CFEB
:104FF000EC0EF11CDBCF6F7370E080E090E00E945C
:105000007D22D4CF60E070E0C8010E94C81D8CB53D
:105010008C7F8CBD8DB581608DBD8FE790E00E9447
:1050200043346CE273E6C801DF91CF911F910F9179
:10503000FF90EF90DF90CF900C94C81DFC01682F7B
:10504000637020E030E070E080E0A9014E5F5F4FC8
:10505000DF0102C0B695A7954A95E2F7AD01417010
:105060005527022E01C0440F0A94EAF7742BA901B8
:10507000475F5F4FDF0102C0B695A7954A95E2F7FB
:10508000AD0141705527022E01C0440F0A94EAF782
:10509000842B2F5F3F4F27303105B9F60895BF921B
:1050A000CF92DF92EF92FF920F931F93CF93DF93F4
:1050B000C62F69017A0181118AC0809119039091EC
:1050C0001A03892B91F4C9019E7F906E90931A0365
:1050D00080931903482F4F77BC01660F672F661F17
:1050E000770B719583E00E94CC2D809119039091EC
:1050F0001A030E94B93A8091190390911A03BC01D6
:1051000080E090E04AE00E94B2308AE692E00E949D
:105110008B2F4AE0C701B6010E94B2308AE692E0C6
:105120000E948B2F0E94C335CC23A1F09AE090936C
:105130000C018EE080930B0190939603809395036E
:1051400000E010E095E0C92ED12CBB24B39422E0FE
:10515000E22E08C081E080930C0180930B018093C4
:105160009603ECCFE801CC55DC4F8EE0F82E0E9480
:10517000B43AB6010E943A3A99278230910571F00B
:105180002CF4009749F0019739F00BC0833091055A
:1051900039F0049729F005C0188203C0B88201C015
:1051A000E882FA942C96F110E2CF0F5F1F4F0A307D
:1051B0001105C1F61092A4031092A5031092B0033A
:1051C000109248041092490410923D04DBC48130CF
:1051D00009F026C1662349F09EE090930C018AE015
:1051E00080930B019093960306C080930C018093EB
:1051F0000B0180939603809395030E94C33582E050
:105200008093BC038093C8038093D4038093E0030E
:105210008093EC038093F80380930404809310043C
:1052200080931C048093280480933404809340046A
:1052300091E09093B1038093BD039093C903809351
:10524000D5039093E1038093ED038093F90390934A
:1052500005048093110490931D0480932904909376
:105260003504809341048093A6038093B203109287
:10527000BE038093CA031092D6038093E203809307
:10528000EE038093FA038093060410921204809335
:105290001E0410922A048093360480934204809363
:1052A000A7039093B3038093BF039093CB038093A2
:1052B000D7039093E3038093EF038093FB039093D2
:1052C00007048093130490931F0480932B049093FE
:1052D0003704809343048093A8038093B40380939E
:1052E000C0038093CC038093D8038093E40380931E
:1052F000F0038093FC03809308048093140480934C
:10530000200480932C048093380480934404809379
:10531000A9038093B5038093C1038093CD03809349
:10532000D9038093E5038093F1038093FD03809379
:105330000904809315048093210480932D048093A5
:105340003904809345048093AA039093B603809315
:10535000C2039093CE038093DA039093E603809385
:10536000F2038093FE0390930A04809316049093B3
:10537000220480932E0490933A04809346048093F1
:10538000AB038093B7031092C3038093CF031092B3
:10539000DB038093E7038093F3038093FF03809301
:1053A0000B04109217048093230410922F0480930F
:1053B0003B04809347048093AC039093B80380939D
:1053C000C4039093D0038093DC039093E80380930D
:1053D000F4038093000490930C048093180490933A
:1053E00024048093300490933C04109248048093EA
:1053F000AD038093B9038093C5038093D103809359
:10540000DD038093E9038093F50380930104809387
:105410000D048093190480932504809331045AC2AB
:10542000823009F028C197E090930C0161118AE065
:1054300080930B0190939603809395030E94C3354C
:1054400082E08093A4038093B0038093BC03809395
:10545000C8038093D4038093E0031092EC0310926E
:10546000F803809304048093100480931C048093B9
:10547000280480933404809340048093A50391E032
:105480009093B1038093BD039093C9038093D50398
:105490009093E1031092ED031092F90390930504A9
:1054A0008093110490931D048093290490933504F4
:1054B000809341048093A6038093B2031092BE03AD
:1054C0008093CA031092D6038093E2038093EE0385
:1054D0008093FA03809306041092120480931E04B2
:1054E00010922A0480933604809342048093A70389
:1054F0009093B3038093BF039093CB038093D70320
:105500009093E3038093EF038093FB03909307044E
:105510008093130490931F0480932B04909337047B
:10552000809343048093A8038093B4038093C003C3
:105530008093CC038093D8038093E4038093F0039B
:105540008093FC03809308048093140480932004C8
:1055500080932C0480933804809344048093A9039F
:105560008093B5038093C1038093CD038093D903C7
:105570008093E5038093F1038093FD0380930904F6
:10558000809315048093210480932D048093390423
:10559000809345048093AA039093B6038093C2033B
:1055A0009093CE038093DA039093E6038093F20303
:1055B0008093FE0390930A04809316049093220430
:1055C00080932E0490933A04809346048093AB0317
:1055D0008093B7031092C3038093CF031092DB0331
:1055E0008093E7038093F3038093FF0380930B047E
:1055F000109217048093230410922F0480933B048D
:10560000809347048093AC039093B8038093C403C2
:105610009093D0038093DC039093E8031092F403FB
:105620001092000490930C04809318049093240427
:105630008093300490933C04809348048093AD039E
:105640008093B9038093C5038093D1038093DD03D6
:105650008093E9031092F5031092010480930D04E6
:1056600080931904809325048093310480933D0432
:105670008093490487C2833009F031C1662349F021
:105680009AE090930C018EE080930B019093960327
:1056900007C081E080930C0180930B0180939603F7
:1056A000809395030E94C3351092A4031092B00317
:1056B00091E09093BC039093C8039093D40390938C
:1056C000E00382E08093EC038093F803809304046A
:1056D0008093100490931C048093280480933404D6
:1056E000809340041092A5039093B1039093BD035F
:1056F0009093C9039093D5039093E1038093ED03B6
:105700008093F903909305048093110490931D04F2
:105710008093290490933504809341048093A603D9
:105720009093B2038093BE038093CA038093D60301
:105730009093E2038093EE038093FA039093060420
:105740008093120490931E0480932A04909336044D
:10575000809342048093A7039093B3038093BF0385
:105760009093CB038093D7039093E3038093EF034D
:105770008093FB03909307048093130490931F047A
:1057800080932B0490933704809343048093A80361
:105790009093B4038093C0039093CC038093D80379
:1057A0009093E4038093F0038093FC0390930804A8
:1057B000809314049093200480932C0490933804D5
:1057C000809344048093A9039093B5038093C1030D
:1057D0009093CD038093D9039093E5038093F103D5
:1057E0008093FD0390930904809315049093210402
:1057F00080932D0490933904809345048093AA03E9
:105800009093B6038093C2039093CE038093DA0300
:105810009093E6038093F2038093FE0390930A042F
:10582000809316049093220480932E0490933A045C
:10583000809346048093AB039093B7038093C30394
:105840009093CF038093DB039093E7038093F3035C
:105850008093FF0390930B04809317048093230499
:1058600080932F0490933B04809347048093AC0370
:105870009093B8038093C4039093D0038093DC0388
:105880009093E8038093F4038093000490930C04B6
:1058900090931804909324049093300490933C04C4
:1058A000109248048093AD038093B9038093C5039D
:1058B0009093D1038093DD038093E9038093F503F4
:1058C0008093010490930D04909319049093250400
:1058D0009093310410923D041092490453C18430D6
:1058E00009F025C1C2E0C0930C01C0930B01C09325
:1058F0009603C09395030E94C335C093A403C0933D
:10590000B003C093BC03C093C803C093D403C09337
:10591000E00381E08093EC038093F803C0930404D8
:10592000C0931004C0931C04C0932804C093340493
:10593000C0934004C093A5031092B1031092BD031D
:10594000C093C903C093D5038093E103C093ED03D3
:10595000C093F90380930504C0931104C0931D0400
:105960001092290410923504C0934104C093A603F9
:105970001092B203C093BE03C093CA038093D603B0
:10598000C093E203C093EE03C093FA03C0930604EE
:1059900080931204C0931E04C0932A04109236040C
:1059A000C0934204C093A703C093B303C093BF0343
:1059B0008093CB03C093D703C093E303C093EF035B
:1059C000C093FB03C0930704C093130480931F0488
:1059D000C0932B04C0933704C0934304C093A8031F
:1059E000C093B4038093C003C093CC03C093D80387
:1059F000C093E4038093F0038093FC03C0930804F6
:105A0000C0931404C093200480932C04C0933804E2
:105A1000C0934404C093A903C093B5038093C1030A
:105A2000C093CD03C093D903C093E5038093F103E2
:105A30008093FD03C0930904C0931504C09321040F
:105A400080932D04C0933904C0934504C093AA03E6
:105A5000C093B603C093C2038093CE03C093DA030E
:105A6000C093E603C093F203C093FE03C0930A04FD
:105A7000C093160480932204C0932E04C0933A046A
:105A8000C0934604C093AB031092B703C093C30303
:105A9000C093CF038093DB03C093E703C093F3036A
:105AA000C093FF03C0930B0480931704C093230497
:105AB000C0932F0410923B04C0934704C093AC03DF
:105AC0001092B8031092C403C093D003C093DC03B8
:105AD0008093E803C093F403C093000480930C0404
