:100000000C943C020C94D2250C9464020C9464026F
:100010000C9464020C9464020C9464020C948B267D
:100020000C9464020C9495260C9464020C94640263
:100030000C9464020C9464020C9464020C946402A8
:100040000C94D40B0C9464020C94AF0A0C94890A9F
:100050000C9464020C9464020C9464020C94640288
:100060000C94A4240C94640243616C696272617400
:10007000696F6E0043616C6962726174696F6E00D2
:1000800000000000240027002A00000000002500D6
:1000900028002B00040404040404040402020202E5
:1000A000020203030303030301020408102040803B
:1000B00001020408102001020408102000000008BA
:1000C000000201000003040700000000000000001F
:1000D0007C3C3E5E2B3D3F2F5B5D3B2C2A225C002F
:1000E0000000000000000000307878303000300060
:1000F0006C6C6C00000000006C6CFE6CFE6C6C00A4
:10010000307CC0780CF8300000C6CC183066C600D1
:10011000386C3876DCCC76006060C00000000000EF
:1001200018306060603018006030181818306000B7
:1001300000663CFF3C660000003030FC30300000C0
:100140000000000000703060000000FC00000000B3
:100150000000000000303000060C183060C0800045
:1001600078CCDCFCECCC780030F030303030FC0067
:1001700078CC0C3860CCFC0078CC0C380CCC7800F7
:100180001C3C6CCCFE0C0C00FCC0F80C0CCC7800B9
:100190003860C0F8CCCC7800FCCC0C183060600023
:1001A00078CCCC78CCCC780078CCCC7C0C18700097
:1001B000000030300030300000003030007030601F
:1001C000183060C0603018000000FC00FC00000027
:1001D0006030180C1830600078CC0C1830003000FB
:1001E0007CC6DEDEDEC078003078CCCCFCCCCC0027
:1001F000FC66667C6666FC003C66C0C0C0663C006F
:10020000FC6C6666666CFC00FE6268786862FE00E4
:10021000FE6268786860F0003C66C0C0CE663E0052
:10022000CCCCCCFCCCCCCC0078303030303078002A
:100230001E0C0C0CCCCC7800E6666C786C66E60084
:10024000F06060606266FE00C6EEFED6C6C6C600FE
:10025000C6E6F6DECEC6C600386CC6C6C66C38002A
:10026000FC66667C6060F00078CCCCCCDC781C004E
:10027000FC66667C786CE60078CCE0381CCC7800B4
:10028000FCB4303030307800CCCCCCCCCCCCFC00C2
:10029000CCCCCCCCCC783000C6C6C6D6FEEEC600E0
:1002A000C6C66C386CC6C600CCCCCC783030780072
:1002B000FECC983062C6FE007860606060607800B6
:1002C000C06030180C06020078181818181878004A
:1002D00010386CC60000000000000000000000FFA5
:1002E00030301800000000000000780C7CCC760054
:1002F000E0607C666666BC00000078CCC0CC78000C
:100300001C0C0C7CCCCC7600000078CCFCC07800B7
:10031000386C60F06060F000000076CCCC7C0CF8AB
:10032000E0606C766666E600300070303030780051
:10033000180078181818D870E060666C786CE600C1
:1003400070303030303078000000ECFED6C6C60089
:100350000000F8CCCCCCCC00000078CCCCCC780021
:100360000000DC66667C60F0000076CCCC7C0C1E65
:100370000000D86C6C60F00000007CC0780CF800C5
:1003800010307C30303418000000CCCCCCCC76005F
:100390000000CCCCCC7830000000C6C6D6FE6C0085
:1003A0000000C66C386CC6000000CCCCCC7C0CF8CD
:1003B0000000FC983064FC001C3030E030301C0041
:1003C0001818180018181800E030301C3030E00001
:1003D00076DC00000000000010386CC6C6C6FE00C7
:1003E0004128D441CF8300833041ED8464031281DE
:1003F00041E88385017941CB85392C00340241F7EE
:10040000812041EA82000041C0812641C181114121
:10041000C582353E41C781BE41B182001B41F28198
:10042000084126810141E08F1F1A180A0F064587EF
:10043000320A070207050041E18F00252705100950
:100440003A784D05180D383A1F41B6840A822700C4
:1004500041B78107413A8155413681E8412A8200FE
:100460000082013F412B8200008200EF4111FCFC21
:100470004129D4FFFF00723311241FBECFEFD8E013
:10048000DEBFCDBF12E0A0E0B1E0E2E2FCE602C0D8
:1004900005900D92AC39B107D9F727E0ACE9B2E08D
:1004A00001C01D92A439B207E1F712E0CCE3D2E01B
:1004B00004C02197FE010E946C34CB33D107C9F7E9
:1004C0000E94E8260C940F360C940000CF93DF9323
:1004D000EC0188E891E099838883FB018281938114
:1004E0009B838A83848195819D838C838681978178
:1004F0009F838E8380859185998788878285938560
:100500009B878A87848595859D878C878685978537
:100510009F878E8780899189998B888B828993891F
:100520009B8B8A8B848995899D8B8C8B86899789F7
:100530009F8B8E8B8CE17896DE01589601900D9200
:100540008A95E1F7FB0184A98CAB85A98DAB86A9BF
:1005500097A99FAB8EAB80AD91AD99AF88AF82ADBF
:1005600093AD9BAF8AAF84AD95AD9DAF8CAF86AD9B
:1005700097AD9FAF8EAF80E991E099838883E05C6F
:10058000FF4F8081C05CDF4F8883DF91CF9108955A
:10059000CF92DF92EF92FF920F931F93CF93DF934F
:1005A0006C017A018B01C0E0D0E0CE15DF0589F047
:1005B000D8016D918D01D601ED91FC910190F081F2
:1005C000E02DC6010995892B11F47E0102C0219608
:1005D000ECCFC701DF91CF911F910F91FF90EF906A
:1005E000DF90CF900895FC01918D828D981761F076
:1005F000828DDF01A80FB11D5D968C91928D9F5F5A
:100600009F73928F90E008958FEF9FEF0895FC0104
:10061000918D828D981731F0828DE80FF11D858DB7
:1006200090E008958FEF9FEF0895FC01918D228D4A
:10063000892F90E0805C9F4F821B91098F739927CF
:100640000895FC01848DDF01A80FB11DA35ABF4F8F
:100650002C91848D90E001968F739927848FA689C1
:10066000B7892C93A089B1898C9180648C93938DE8
:10067000848D981306C00288F389E02D80818F7DD8
:1006800080830895EF92FF920F931F93CF93DF9390
:10069000EC0181E0888F9B8D8C8D981305C0E889D3
:1006A000F989808185FD24C0F62E0B8D10E00F5F47
:1006B0001F4F0F731127E02E8C8DE8120CC00FB660
:1006C00007FCFACFE889F989808185FFF5CFCE0153
:1006D0000E942103F1CF8B8DFE01E80FF11DE35A3B
:1006E000FF4FF0820B8FEA89FB898081806207C00F
:1006F000EE89FF896083E889F9898081806480833D
:1007000081E090E0DF91CF911F910F91FF90EF90EA
:100710000895CF93DF93EC01888D8823C9F0EA898F
:10072000FB89808185FD05C0A889B9898C9186FDEA
:100730000FC00FB607FCF5CF808185FFF2CFA889E7
:10074000B9898C9185FFEDCFCE010E942103E7CFBF
:10075000DF91CF9108950E949F35AF92BF92CF92C3
:10076000DF92EF92FF920F931F93CF93DF93CDB75A
:10077000DEB72B970FB6F894DEBF0FBECDBF7C015E
:10078000CE0101966C01FC0190E28BE08C0D9193FF
:100790008E13FDCFDA0120E037E09D91992339F1E6
:1007A0009E3219F0E0EDF0E00AC03A3009F4AAC038
:1007B00028E03AE0F2CF3196891709F4A3C084917A
:1007C0008111F9CF321708F49DC08FED890F8E3556
:1007D00008F098C081E0820FF601E20FF11D2FE9C9
:1007E000290F2A3108F490529083282FD6CF89817F
:1007F000803209F487C08B01FB01838D948DF70152
:10080000948F838FFB0116821782108611861286C1
:10081000138614861586A12CF80182859385A485FC
:10082000B585438954896589768984179507A60714
:10083000B70708F067C025E0B695A7959795879507
:100840002A95D1F7F82FFF70BF2EF80185818230ED
:1008500008F458C0C8010E94232497FD53C0F80132
:1008600082859385A485B5854F96A11DB11D82878C
:100870009387A487B587F0E2BF9EC0011124BC0115
:100880006B527D4F61157105E9F1FB012081222337
:10089000B9F1253EE1F04BE050E0C6010E94A435DD
:1008A000892B09F0B9CF6B2DC7012B960FB6F894A1
:1008B000DEBF0FBECDBFDF91CF911F910F91FF9093
:1008C000EF90DF90CF90BF90AF900C941822A110C2
:1008D00014C0F701B28A4091020150910301609166
:1008E00004017091050146875787608B718BFC016D
:1008F000EB52FD4F8081882329F0AA24A3948CCF4A
:10090000AA2039F380E02B960FB6F894DEBF0FBE15
:10091000CDBFDF91CF911F910F91FF90EF90DF90AE
:10092000CF90BF90AF9008950F931F93CF93DF9315
:10093000CDB7DEB7C154D1090FB6F894DEBF0FBEF4
:10094000CDBF89013091C402332319F19091C302C4
:100950009923F9F0831302C06917D9F0BA01CE01C7
:1009600001960E9466024091C3026091C40284E134
:10097000489FA001112484E1689FB00111249E01C9
:100980002F5F3F4FC8010E941E0C1092C4021092AC
:10099000C302CF5BDF4F0FB6F894DEBF0FBECDBFF3
:1009A000DF91CF911F910F9108958F929F92AF92F7
:1009B000BF92CF92DF92EF92FF920F931F93CF934C
:1009C000DF93CDB7DEB7C154D1090FB6F894DEBFBF
:1009D0000FBECDBF49013091C1029091C2023613C2
:1009E00002C0981769F15A01D62EC82E84E1389FAB
:1009F000A001112484E1989FB00111248CE2E82E1B
:100A000083E6F82E04E110E024E130E0C5010E9405
:100A1000D414B501CE0101960E94660284E1D89EED
:100A2000A001112484E1C89EB00111249E012F5F12
:100A30003F4FC4010E941E0CC092C202D092C1025C
:100A4000CF5BDF4F0FB6F894DEBF0FBECDBFDF9197
:100A5000CF911F910F91FF90EF90DF90CF90BF90BB
:100A6000AF909F908F9008956F927F928F929F92F8
:100A7000AF92BF92CF92DF92EF92FF920F931F93AC
:100A8000CF93DF934C0197EDA92E94E0B92E612C02
:100A9000712C6501C0E0D0E0F6018081813019F44D
:100AA000E12CF12C06C0823069F480EDE82E8DED4A
:100AB000F82E04E110E024E130E0A301BE01C401FE
:100AC0000E94D414FCE0CF0ED11C6496C03481E0A7
:100AD000D80711F7E4E16E0E711CFFEFAF1ABF0AE1
:100AE00080EF68167104A9F6DF91CF911F910F91E5
:100AF000FF90EF90DF90CF90BF90AF909F908F903E
:100B00007F906F900895CF93DF93E7EDF4E080E05E
:100B100091E020E030E0DF01AC54BF4F882311F0BA
:100B20008B3029F4EF01C20FD31F988302C090834A
:100B30009C93245F3F4F203C310581F78F5F3196B6
:100B40008C3039F7DF91CF9108958F929F92AF92B9
:100B5000BF92CF92DF92EF92FF92CF93DF93C82F95
:100B600087E396E09093C0028093BF02CC2369F1A3
:100B7000C53010F080E00DC140E060E070E0CB01D6
:100B80000E94221C8823B1F320E1C29FC0011124DE
:100B90008B539D4FFC01E254FE4F20812F7751F77C
:100BA0003C964081518162817381443651056105D3
:100BB000710500F33497C080D180E280F380C114C6
:100BC000D104E104F10421F4D5CFC12CD12C76015C
:100BD00040E0C701B6010E94221C882359F280918F
:100BE000E0029091E1028115924021F6A091E50288
:100BF000AA2309F4BFCF6091E3027091E40261156A
:100C0000710509F4B7CF2091E202222309F4B2CF93
:100C1000A09355062093470680E030E0E1E0F0E045
:100C2000C82FAF01082E02C0440F551F0A94E2F7E7
:100C30002417350741F0982F8F5F983089F789E0A6
:100C40008093500697CF809350062091EB0230910D
:100C5000EC022115310519F040E050E008C0209168
:100C6000F9023091FA024091FB025091FC0220936C
:100C700048063093490640934A0650934B06460176
:100C80005701860E971EA11CB11C809256069092A9
:100C90005706A0925806B0925906E091E602F091EC
:100CA000E702F0935C06E0935B06B0E00E94F53546
:100CB000860E971EA81EB91E80925D0690925E0653
:100CC000A0925F06B092600685E0EE0FFF1F8A9546
:100CD000E1F7E150FE4FEF2FFF27E6958E0E9F1EA6
:100CE000A11CB11C8092510690925206A09253060C
:100CF000B09254062091E8023091E90221153105A5
:100D000021F0A90160E070E008C04091F502509127
:100D1000F6026091F7027091F802D701C6018819B6
:100D20009909AA09BB09840F951FA61FB71F04C004
:100D3000B695A79597958795CA95D2F780934C0657
:100D400090934D06A0934E06B0934F06853F2FE03B
:100D50009207A105B10510F48CE018C0853F9F4FA4
:100D6000A105B10510F480E111C0809101039091BB
:100D70000203A0910303B091040380935D06909356
:100D80005E06A0935F06B093600680E280935A06E9
:100D900081E0DF91CF91FF90EF90DF90CF90BF90F7
:100DA000AF909F908F900895DF92EF92FF920F93F4
:100DB0001F93CF93DF931CB5DDB585E00E948714A8
:100DC0005E9888EB0E94862380E00E948623C82FCD
:100DD00088EC0E94862380E00E9486235E9A80959C
:100DE0008F77CF77082F0C0F063008F462C05E981B
:100DF00080E90E94862380E00E948623E82E80E01E
:100E00000E94862380E90E94862380E00E94862338
:100E1000F82E80E00E948623C82FEF1048C080ED96
:100E20000E94862380E00E948623F82E80E00E94A4
:100E3000862380ED0E94862380E00E948623D82EA0
:100E400080E00E948623FD1032C094E0E99E90016C
:100E500011244C2F50E096E0559547959A95E1F76F
:100E6000422B532B6FEF73E09B01241B350BA90121
:100E7000C1F034E0F39EB0011124282F30E086E069
:100E8000359527958A95E1F7262B372B21153105C6
:100E900041F050939D0640939C0630939F0620930B
:100EA0009E06802F90E090939B0680939A065E9A10
:100EB00004C010929B0610929A061CBDDDBD81E015
:100EC00020919A0630919B06232B09F480E0DF9154
:100ED000CF911F910F91FF90EF90DF9008956F9247
:100EE0007F928F929F92AF92BF92CF92DF92EF92BA
:100EF000FF920F931F93CF93DF93EC016B015A0185
:100F000039014801E12CF12C21E030E00E94D41499
:100F1000A501480D591D4150510901E010E0930110
:100F2000B601CE010E94D414B601660D771D615042
:100F30007109840121E030E0A501CE010E94D414A2
:100F400001E010E09301A501B601CE010E94D41486
:100F5000DF91CF911F910F91FF90EF90DF90CF9095
:100F6000BF90AF909F908F907F906F9008958F92D9
:100F70009F92AF92BF92CF92DF92EF92FF920F9328
:100F80001F93CF93DF93C0919C06D0919D068091D3
:100F9000A0069091A10600919E0610919F06C81789
:100FA000D90709F48EC0D093A106C093A006209162
:100FB000A4063091A5064091A6065091A706DE0131
:100FC0000E9450346B017C012091A8063091A90643
:100FD0004091AA065091AB06D8010E945034AB0153
:100FE000BC014C0D5D1D6E1D7F1D8091AC06909166
:100FF000AD06A091AE06B091AF066A017B01C80EA6
:10100000D91EEA1EFB1EC701B6012091BC06309115
:10101000BD064091BE065091BF060E941F34690173
:101020007A01DA01C90120919006309191062A35A2
:10103000310519F118F4232B41F03FC0243B310551
:1010400021F02E303140C9F038C020919206309105
:101050009306A901440F551F60E070E0C416D50641
:10106000E606F70638F5A90160E070E0C416D5067B
:10107000E606F70610F1C90117C040919406509199
:1010800095064A01880C991CA12CB12CC814D904CE
:10109000EA04FB0478F44A01A12CB12CC814D90449
:1010A000EA04FB0450F0CA010197092E000CAA0BB8
:1010B000BB0B03C080E090E0DC0190939706809327
:1010C00096068091A2069091A3060817190709F4C5
:1010D00079C01093A3060093A2062091B006309128
:1010E000B1064091B2065091B306DE010E94503421
:1010F0006B017C012091B4063091B5064091B60693
:101100005091B706D8010E945034AB01BC014C0D80
:101110005D1D6E1D7F1D8091B8069091B906A0914E
:10112000BA06B091BB066A017B01C80ED91EEA1E41
:10113000FB1EC701B6012091BC063091BD0640914F
:10114000BE065091BF060E941F34DA01C9016091AA
:101150009006709191066A35710581F018F4672B3D
:1011600041F02CC0643B710521F06E30714031F0CC
:1011700025C0609194067091950604C06091920616
:10118000709193066B01CC0CDD1CE12CF12C2C151D
:101190003D054E055F0578F46B01E12CF12C2C1513
:1011A0003D054E055F0550F0CB010197092E000C5F
:1011B000AA0BBB0B03C080E090E0DC019093990682
:1011C00080939806DF91CF911F910F91FF90EF9040
:1011D000DF90CF90BF90AF909F908F9008952F9207
:1011E0003F924F925F926F927F928F929F92AF92B7
:1011F000BF92CF92DF92EF92FF920F931F93CF9304
:10120000DF9300D000D0CDB7DEB76C017C836B8359
:101210007A01890184179507C9F4261737074CF41A
:1012200006271727AB01402751275C834B830427F0
:1012300015278B819C81081B190B0F5F1F4FE12C19
:1012400058EFF52E21E030E0AC011AC0EB81FC81B3
:10125000E217F307D9F44817590734F4E826F926BA
:10126000CE24DF24EC24FD2497012C193D092F5FA7
:101270003F4FE12C48EFF42E01E010E04B815C8100
:10128000B6018CE896E00E94D41499C02091920691
:10129000309193068217930724F06901F1E0CF1A89
:1012A000D10880919406909195064B815C814817F6
:1012B000590724F0FC013197FC83EB83E216F30617
:1012C00024F07901F1E0EF1AF108081719071CF072
:1012D0008C010150110947018C189D0858014B8160
:1012E0005C81A41AB50A97FE08C091948194910874
:1012F0008FEF9FEF9A83898304C0E1E0F0E0FA83E7
:10130000E983B7FE07C0B194A194B10844244A947C
:10131000542C03C044244394512C3401660C771C94
:101320001501220C331C20E038EF4B815C81B601A3
:101330008CE896E00E944715A814B90404F58101D1
:1013400008191909CE14DF04D1F117FD08C04B812B
:101350005C81440D551D5C834B83061917098981F7
:101360009A81C80ED91E020D131D20E038EF4B8163
:101370005C81B6018CE896E00E944715E3CF7301CB
:10138000EA18FB088B819C8180179107C1F0F7FC5C
:1013900006C0E981FA81CE0EDF1EE218F3084B8108
:1013A0005C81440D551D5C834B83E60CF71C20E0EB
:1013B00038EFB6018CE896E00E944715E3CF0F9016
:1013C0000F900F900F90DF91CF911F910F91FF9091
:1013D000EF90DF90CF90BF90AF909F908F907F90D5
:1013E0006F905F904F903F902F9008952F923F9273
:1013F0004F925F926F927F928F929F92AF92BF9225
:10140000CF92DF92EF92FF920F931F93CF93DF93D0
:101410006C015B018A01790166247724641A750ADC
:10142000C0E0D0E00C171D070CF460C04E018A0C20
:101430009B1C9701A4012601400E511EB2018CE8AD
:1014400096E00E9447159701A4011601201A310A5F
:10145000B1018CE896E00E94471545018C1A9D0A5F
:101460009701A401B2018CE896E00E94471597010C
:10147000A401B1018CE896E00E9447152E014C0CA6
:101480005D1C97014501800E911EA401B2018CE8FC
:1014900096E00E94471516012C1A3D0A9701A401F7
:1014A000B1018CE896E00E94471597014501801A2A
:1014B000910AA401B2018CE896E00E9447159701B9
:1014C000A401B1018CE896E00E944715CE01019677
:1014D0006C0E7D1E680E791E77FC06C00150110946
:1014E000601A710A601A710AEC019CCFDF91CF91EA
:1014F0001F910F91FF90EF90DF90CF90BF90AF9032
:101500009F908F907F906F905F904F903F902F9023
:1015100008951F920F920FB60F9211242F933F93AD
:101520004F935F936F937F938F939F93AF93BF93EB
:10153000EF93FF9388E995E00E942103FF91EF91DB
:10154000BF91AF919F918F917F916F915F914F91DB
:101550003F912F910F900FBE0F901F9018951F92E3
:101560000F920FB60F9211242F938F939F93EF93A7
:10157000FF93E091A805F091A9058081E091AE0567
:10158000F091AF0582FD12C090818091B1058F5F0F
:101590008F732091B205821751F0E091B105F0E010
:1015A000E856FA4F958F8093B10501C08081FF9175
:1015B000EF919F918F912F910F900FBE0F901F90E1
:1015C000189590E0FC01E454FF4F3491FC01E8557C
:1015D000FF4F2491FC01EC56FF4FE491EE2309F4F8
:1015E0003BC0332339F1333091F038F43130A9F076
:1015F000323001F584B58F7D12C0373091F038302C
:10160000A1F03430B9F4809180008F7D03C08091C7
:1016100080008F77809380000DC084B58F7784BD64
:1016200009C08091B0008F7703C08091B0008F7D9A
:101630008093B000F0E0EE0FFF1FE657FF4FA5913B
:10164000B4918FB7F894EC91611103C020952E23CB
:1016500001C02E2B2C938FBF0895CF93DF9390E082
:10166000FC01E855FF4F2491FC01EC56FF4F84919B
:10167000882361F190E0880F991FFC01E058FF4F2B
:10168000C591D491FC01E657FF4FA591B49161112A
:1016900009C09FB7F8948881209582238883EC91B4
:1016A0002E230BC0623061F49FB7F8943881822FEB
:1016B000809583238883EC912E2B2C939FBF06C0AB
:1016C0008FB7F894E8812E2B28838FBFDF91CF91BD
:1016D00008958F929F92AF92BF92CF92DF92EF9236
:1016E000FF926B017C010E94A30B4B015C01C114B2
:1016F000D104E104F104F1F00E94A30BDC01CB0161
:1017000088199909AA09BB09883E9340A105B1052A
:1017100070F321E0C21AD108E108F10888EE880EC2
:1017200083E0981EA11CB11CC114D104E104F10492
:1017300019F7DDCFFF90EF90DF90CF90BF90AF9083
:101740009F908F9008953FB7F8948091CB0290912D
:10175000CC02A091CD02B091CE0226B5A89B05C0C7
:101760002F3F19F00196A11DB11D3FBFBA2FA92F20
:10177000982F8827820F911DA11DB11DBC01CD019D
:1017800042E0660F771F881F991F4A95D1F7089589
:101790002FB7F8946091C7027091C8028091C90276
:1017A0009091CA022FBF08951F920F920FB60F9209
:1017B00011242F933F938F939F93AF93BF93809167
:1017C000C7029091C802A091C902B091CA0230919B
:1017D000C60223E0230F2D3720F40196A11DB11D71
:1017E00005C026E8230F0296A11DB11D2093C60255
:1017F0008093C7029093C802A093C902B093CA0213
:101800008091CB029091CC02A091CD02B091CE02FA
:101810000196A11DB11D8093CB029093CC02A093A1
:10182000CD02B093CE02BF91AF919F918F913F9126
:101830002F910F900FBE0F901F9018952F923F92EF
:101840004F925F926F927F928F929F92AF92BF92D0
:10185000CF92DF92EF92FF920F931F93CF93DF937C
:10186000CDB7DEB7CE59D1090FB6F894DEBF0FBEA3
:10187000CDBF2C014B013A015901A7961FAE1EAEF8
:10188000A79788EE93E0A0E0B0E0AB968CAF9DAF59
:10189000AEAFBFAFAB978AE291E0A5969FAF8EAF98
:1018A000A597EE961FAE1EAEEE97E0961FAEE097A0
:1018B0007E0129E2E20EF11C61E676E0C7010E949A
:1018C00093231C821B828AE491E09A8389831E827F
:1018D00062018E010F5F1F4FC756DF4FE882C95963
:1018E000D040C656DF4FF882CA59D04018016FE287
:1018F00070E0C6010E94B135009709F47AC0F60184
:1019000020812F3221F4FFEFCF1ADF0AF0CF8C199C
:101910008D3008F08CE0282F30E0C556DF4F39833A
:101920002883CB59D040A901B601CE0182589F4FE0
:101930000E94BC35EEE7F0E0EC0FFD1FC556DF4F0F
:1019400028813981CB59D040E20FF31F1082C801A2
:101950000E94AE1DF8018581882371F02A961FAE82
:101960001EAE2A978AE491E028969FAF8EAF289703
:101970002C961FAE2C9755C0AE0142585F4FC756EC
:10198000DF4F6881C959D040C656DF4F7881CA59A8
:10199000D040C8010E94AD03882301F3C556DF4F34
:1019A00028813981CB59D040C20ED31EC756DF4F94
:1019B0008881C959D040C656DF4F9881CA59D04056
:1019C0000E94AE1DC756DF4F9881C959D040C656F8
:1019D000DF4F8881CA59D040C756DF4F0883C959A5
:1019E000D040C656DF4F1883CA59D040092F182F50
:1019F0007ECFC60184199509C356DF4F998388832A
:101A0000CD59D040C756DF4F6881C959D040C6561E
:101A1000DF4F7881CA59D040CE018A5B9F4F0E9428
:101A20009323C356DF4FE881F981CD59D0404E0E44
:101A30005F1EF2018081811109C0BE016A5B7F4F88
:101A4000C1010E94932346ED51E048C01CA61BA68D
:101A50008AE491E09AA789A71EA62C968FAD2C97B1
:101A600081111EC0C058DF4F19821882C058D04063
:101A700088EE93E0A0E0B0E0CE57DF4F88839983F3
:101A8000AA83BB83C258D040C956DF4F198218823F
:101A9000C759D040C657DF4F1882CA58D04024C01B
:101AA0008250A201823040F461E676E0C7010E94D4
:101AB000AD0381110EC0D6CFBE016A5B7F4FC70157
:101AC0000E94AD03882371F2CE018A5B9F4F0E9472
:101AD000AE1DB701C1010E949323A201B101CE0145
:101AE00082589F4F0E94EE23C058DF4F8881998112
:101AF000C058D040A7969FAF8EAFA797CE57DF4F65
:101B000088819981AA81BB81C258D040AB968CAFA5
:101B10009DAFAEAFBFAFAB97CA57DF4F88819981FA
:101B2000AA81BB81C658D040AF968CAF9DAFAEAFF7
:101B3000BFAFAF978DE0EEE7F0E0EC0FFD1F3C96F6
:101B4000A3E6B0E0AC0FBD1F1C9601900D928A95E4
:101B5000E1F7C956DF4FE881F981C759D040EE96C9
:101B6000FFAFEEAFEE97309709F4BAC085818823B6
:101B700009F4B6C04EE050E0B101CE018D599F4F3F
:101B80000E94E4238981823409F056C08A818D3411
:101B900009F052C08B859C85AD85BE85C697A10591
:101BA000B10509F049C048E250E0B101CE018D59BC
:101BB0009F4F0E94E42389819A81AB81BC818897E1
:101BC000A105B105C9F58F8598894897A9F5898937
:101BD0009A89AB89BC89892B8A2B8B2B69F5CD809F
:101BE000DE80E984FA84C60164E070E00E940B3470
:101BF0002C01C756DF4F8883C959D040C80CD91C67
:101C0000F501868197818C159D053CF0E60CF71C4B
:101C1000808591858E159F05FCF4CC24C3948CE2BD
:101C2000E82E83E6F82E00E010E028ED31E0A30175
:101C3000B401C5010E949614EE968EAD9FADEE974D
:101C4000009709F44DC00E94AE1DEE968EAD9FAD7B
:101C5000EE970E94073544C081E0E81AF108870139
:101C6000960121503109A301B401C5010E94C91395
:101C70005524E614F70404F384010C151D05F4F44F
:101C800043E050E0B101CE018D599F4F0E94E42303
:101C90008B81887F2A812C7FF8E02F9F900111246F
:101CA000382B8981869586958695282BA701B801C2
:101CB000C5010E9447150F5F1F4FDFCFC756DF4F8B
:101CC0002881C959D040222339F0A201B101CE01A7
:101CD0008D599F4F0E94E42331E0E31AF108C9CFE8
:101CE000C256DF4F0FB6F894DEBF0FBECDBFDF91F7
:101CF000CF911F910F91FF90EF90DF90CF90BF9009
:101D0000AF909F908F907F906F905F904F903F909B
:101D10002F900895EF92FF920F931F93CF93DF932D
:101D2000CDB7DEB7C154D1090FB6F894DEBF0FBEF0
:101D3000CDBF182F062F7901BA01CE0101960E945E
:101D4000660284E1089FA001112484E1189FB0017C
:101D500011249E012F5F3F4FC7010E941E0CCF5BD5
:101D6000DF4F0FB6F894DEBF0FBECDBFDF91CF912E
:101D70001F910F91FF90EF900895AF92BF92CF9275
:101D8000DF92EF92FF920F931F93CF93DF93EC01BB
:101D900060E00E9414166CE273E6CE010E94851585
:101DA000CC24C3945CE2E52E53E6F52E00E010E06F
:101DB0002BEE31E045E050E065E070E0CE010E949E
:101DC00096145C01109242061092400610923D0655
:101DD00010923C0684E080933B060E94C80B8B0166
:101DE00061E080913B060E942D0B61E080913B06F3
:101DF0000E94E10A0E946E2482E5809335061092CB
:101E0000360680913506909136060E9490236AE04E
:101E1000F62E8FEF0E948623FA94F110FACF87E313
:101E200096E00E944B1A20E030E0A90160E087E3D1
:101E300096E00E94861AF82E8093410681E0F816FB
:101E400049F00E94C80B601B710B613D774058F34D
:101E500081E056C02AEA31E040E050E068E087E3E4
:101E600096E00E94861A82FF03C0F092420610C0DC
:101E700044E0F42E0E948D2380934106FA94F110E1
:101E8000F9CF8A3A11F082E03BC082E080934206AB
:101E900080914206823021F0C12CD12C760105C000
:101EA000C12CD12CE12C30E4F32E20E030E0A9014C
:101EB00067E387E396E00E94861AA701960169E22C
:101EC00087E396E00E94861A80934106882349F0B2
:101ED0000E94C80B601B710B613D774030F388E0B6
:101EE0000FC080914206823001F520E030E0A90168
:101EF0006AE387E396E00E94861A882341F086E031
:101F000080933C0687E396E00E94611A99C00E9484
:101F10008D23807C803C19F483E0809342060E94EC
:101F20008D230E948D230E948D2387E396E00E94DB
:101F3000611A80E5809335061092360681E00E9492
:101F4000A505882329F080916606882341F078C092
:101F500080E00E94A505882309F472C0F4CF809127
:101F60005A06803109F582E0809366061092780661
:101F70001092790610927A0610927B0680915B0689
:101F800090915C06A0E0B0E025E0880F991FAA1FA1
:101F9000BB1F2A95D1F78093740690937506A09382
:101FA0007606B09377061EC0803209F049C083E000
:101FB0008093660640915D0650915E0660915F06D3
:101FC00070916006409378065093790660937A0684
:101FD00070937B0624E736E083E496E00E94431882
:101FE000882371F183E496E090937D0680937C06CC
:101FF00081E0809365061092670610926806109241
:10200000690610926A0610926B0610926C06109286
:102010006D0610926E0610926F0610927006109266
:1020200071061092720610927306DF91CF911F9184
:102030000F91FF90EF90DF90CF90BF90AF900895F9
:10204000CC24C3948CE2E82E83E6F82E00E010E066
:102050002BEF31E045E050E0B501CE010E9496142F
:10206000FFCFAF92BF92CF92EF92FF920F931F9349
:10207000CF93DF93CDB7DEB7C154D1090FB6F89433
:10208000DEBF0FBECDBF5C016FEF7FEF0E948515F5
:1020900083E0C82EEE24EA94FE2C00E010E022E05B
:1020A00032E04AE050E06AE070E0C5010E94961418
:1020B000B501CE0101960E946602E12C28EFF22EB6
:1020C0000EE110E028E730E04CE350E064E170E01E
:1020D000CE0101960E94D41432E0C32EE12CF12CE3
:1020E0000FEF1FEF2FE032E041E450E06CE170E0D1
:1020F000CE0101960E949614B501CE0101960E9470
:1021000066020EE110E028E730E048E750E064E1C5
:1021100070E0CE0101960E94D4140FEF1FEF27E16B
:1021200032E04DE750E06CE170E0CE0101960E9494
:102130009614B501CE0101960E9466020EE110E0F0
:1021400028E730E044EB50E064E170E0CE01019616
:102150000E94D4140FEF1FEF2FE132E049EB50E063
:102160006CE170E0CE0101960E949614B501CE019B
:1021700001960E94660204E610E028E730E04CE396
:1021800050E064EB70E0CE0101960E946F0728E7F3
:1021900030E04CE350E064EB70E0CE0101960E9429
:1021A000D4140FEF1FEF27E232E041E450E06CEB74
:1021B00070E0CE0101960E9496142EE232E04AE5CC
:1021C00050E06CEB70E0CE0101960E94961424E37F
:1021D00032E049E650E06CEB70E0CE0101960E94DF
:1021E00096142AE332E042E850E06CEB70E0CE0156
:1021F00001960E949614CF5BDF4F0FB6F894DEBFB6
:102200000FBECDBFDF91CF911F910F91FF90EF9047
:10221000CF90BF90AF900895AF92BF92CF92EF92C0
:10222000FF920F931F93CF93DF93CDB7DEB7C154C7
:10223000D1090FB6F894DEBF0FBECDBF5C016FEFC2
:102240007FEF0E948515B501CE0101960E946602BE
:1022500002E310E020EA30E048E250E060E570E0A0
:10226000CE0101960E946F07E12CF12C20EA30E0AC
:1022700048E250E060E570E0CE0101960E94D4147F
:1022800083E0C82E0FEF1FEF2AE332E047E350E070
:1022900069E670E0CE0101960E949614B501CE0168
:1022A00001960E94660202E310E029EB30E040EA6A
:1022B00050E061E470E0CE0101960E946F0729EBC7
:1022C00030E040EA50E061E470E0CE0101960E9407
:1022D000D4140FEF1FEF20E432E04FEA50E060E546
:1022E00070E0CE0101960E949614CF5BDF4F0FB6CF
:1022F000F894DEBF0FBECDBFDF91CF911F910F913C
:10230000FF90EF90CF90BF90AF900895CF92EF9253
:10231000FF920F931F93CF93DF93EC016FEF7FEF4B
:102320000E94851583E0C82EEE24EA94FE2C00E07E
:1023300010E020E432E044E150E067E370E0CE01D9
:102340000E949614DF91CF911F910F91FF90EF9013
:10235000CF900895CF92EF92FF920F931F93CF9358
:10236000DF93EC016FEF7FEF0E94851583E0C82EAD
:10237000EE24EA94FE2C00E010E028E432E044E190
:1023800050E067E370E0CE010E94961422E0C22E76
:1023900022E532E040E550E06CE170E0CE010E94C1
:1023A0009614DF91CF911F910F91FF90EF90CF90F6
:1023B0000895CF93DF93EC0168E00E9414166FEF4D
:1023C0007FEFCE01DF91CF910C9485155F9A089530
:1023D000CF92EF92FF920F931F93CF93DF93EC0175
:1023E000262F6A3081F48EAD9FAD9BAF8AAF2CA9AA
:1023F0002F778CAD9DAD38E0239F800D911D11246A
:102400009DAF8CAF47C0862F8B7F893009F442C0C7
:102410006AAD7BAD203219F461157105D9F1E881FF
:10242000F981E8ACF9AC0EA91FA94CAD5DAD0088EF
:10243000F189E02DCCA8CE010995BC019BAF8AAFF4
:102440008DA9882339F12CA92F77822F90E048EFAE
:102450004203900111244E815F81420F531F4617A2
:102460005707C4F44EAD5FAD5BAF4AAF43E0880F92
:10247000991F4A95E1F74CAD5DAD840F951F9DAF57
:102480008CAF48855985240F351F2817390714F458
:102490001DAE1CAE81E090E0DF91CF911F910F91B6
:1024A000FF90EF90CF900895CF92EF92FF920F930D
:1024B0001F93DC01ED91FC910684F785E02D0995D1
:1024C0001F910F91FF90EF90CF9008952F923F9220
:1024D0004F925F926F927F928F929F92AF92BF9234
:1024E000CF92DF92EF92FF920F931F93CF93DF93E0
:1024F00000D01F92CDB7DEB79B838A83480188E066
:10250000280290011124D901A052B0405D01BC2DD8
:10251000BF77CB2EEA81FB8186819781F1E0FB17A3
:1025200008F463C06B0128E0C20ED11C8C159D0518
:102530000CF46EC0AA81BB811896ED91FC9119979D
:102540009A01285F3F4FE217F3070CF461C0AA819C
:10255000BB81ED91FC9111978A01095F1F4F9B018F
:10256000295F3F4F0680F781E02DCD010995AA81B3
:10257000BB81ED91FC9111970084F185E02DCD0197
:1025800009958501085F1F4FF5014490FFEFAF1AD1
:10259000BF0A98E0692E712C20E8522EAA81BB81D7
:1025A000ED91FC911197852D84210284F385E02D16
:1025B000882319F0B401CD0103C0B7018A819B8142
:1025C00009955694B1E06B1A710841F7A016B1064F
:1025D000D9F6AA81BB81ED91FC9111970484F58510
:1025E000E02DCD010995C60176C0B8E0CB9E8001F3
:1025F00011243B01600E711E861597054CF0040FE7
:10260000151FEA81FB81208531852017310714F4DD
:10261000019661C0AA81BB81ED91FC911197015097
:1026200011090680F781E02D930121503109CD0178
:102630000995AA81BB81ED91FC9111970084F185E8
:10264000E02DCD0109952501B8E04B0E511CF50197
:102650002490FFEFAF1ABF0A3C2C08E010E080E89E
:10266000D82E8D2D82212C2DA1F0AA81BB81ED9138
:10267000FC9111970284F385E02DB401CD012983EB
:1026800009952981215089F7D6940150110949F7FC
:1026900010C0AA81BB81ED91FC9111970284F38552
:1026A000E02DB701CD01298309952981215089F7B2
:1026B000EBCF3A943110D1CFA414B50409F0C7CFB1
:1026C000AA81BB81ED91FC9111970484F585E02DE1
:1026D000CD010995C3010F900F900F90DF91CF911D
:1026E0001F910F91FF90EF90DF90CF90BF90AF9030
:1026F0009F908F907F906F905F904F903F902F9022
:102700000895862F5F982B9A2D989CB59F7B9CBD32
:102710002D9A9CB590649CBD0E9486235F9A089573
:10272000CF93DF931F92CDB7DEB7872F5F982B9A99
:102730002D989CB59F7B9CBD2D9A9CB590649CBDAB
:1027400069830E9486232B9A2D989CB59F7B9CBD04
:102750002D9A9CB590649CBD6981862F0E9486232A
:102760005F9A0F90DF91CF910895862F5F982B98F5
:102770002D989CB59F7B9CBD2D9A9CB590649CBD6B
:102780000E9486235F9A08956CE20E94B5135F98B9
:102790000895AF92BF92CF92DF92EF92FF920F9384
:1027A0001F93CF93DF93EC015B017A0169016AE229
:1027B0000E94B513B501CE010E949013B601CE015F
:1027C0000E9490136BE2CE010E94B513B701CE01B7
:1027D0000E949013B801CE01DF91CF911F910F910C
:1027E000FF90EF90DF90CF90BF90AF900C9490133C
:1027F0000F931F93CF93DF93EC016930710519F0AC
:102800006A35710571F48AE590E09D838C8380EFD1
:1028100090E09F838E8380E491E09987888718E415
:1028200034C06231710519F0643B710571F484EBB9
:1028300090E09D838C8380E491E09F838E8380EF82
:1028400090E09987888718E320C06B31710521F0EB
:102850007E7F6E30710571F48EE091E09D838C83F4
:1028600080EF90E09F838E8380E491E09987888752
:1028700018E80BC01D821C8280E491E09F838E8348
:1028800080EF90E09987888718EE66E3CE010E947A
:10289000B513612FCE010E948113E881F98108856B
:1028A0001985015011092E813F812150310906807F
:1028B000F781E02D40E050E060E070E0CE01099546
:1028C000DF91CF911F910F910895CF93DF931F92C6
:1028D000CDB7DEB7872F2B9A2D989CB59F7B9CBDDB
:1028E0002D9A9CB590649CBD69830E9486232B9A87
:1028F0002D989CB59F7B9CBD2D9A9CB590649CBDEA
:102900006981862F0F90DF91CF910C9486239CB51F
:10291000282F23709C7F922B9CBD2DB582FB99277D
:1029200090F9822F8E7F892B8DBD08954F925F92F3
:102930006F927F928F929F92AF92BF92CF92DF92CF
:10294000EF92FF920F931F93CF93DF935C01CB0124
:102950004A0138012701DC2CE9012991222399F051
:10296000D501ED91FC910684F785E02DCD2C720107
:102970008301A401BC01C5010995F50126813781B8
:102980002817390754F7DF91CF911F910F91FF90CE
:10299000EF90DF90CF90BF90AF909F908F907F90FF
:1029A0006F905F904F9008958F929F92AF92BF92D9
:1029B000CF92DF92EF92FF920F931F93CF93DF930B
:1029C000EC01690158012E813F81621773071CF0E9
:1029D000B9016150710988859985481759071CF01C
:1029E000AC0141505109FB01EC0DFD1DE217F3074D
:1029F0001CF06901C61AD70A9A012A0D3B1D281737
:102A000039071CF05C01A41AB50AE881F9818A0132
:102A10000A0D1B1D015011099B012C0D3D1D21505C
:102A200031090680F781E02DCE010995E881F98111
:102A30000084F185E02DCE0109959501D6010E9413
:102A400041344B015C01E881F98181149104A104B6
:102A5000B10461F00284F385E02DB701CE01099540
:102A600081E0881A9108A108B108EDCF0484F585AA
:102A7000E02DCE01DF91CF911F910F91FF90EF904C
:102A8000DF90CF90BF90AF909F908F900994EF927E
:102A9000FF920F931F93CF93DF93EC018E819F8161
:102AA000681779075CF5888599854817590734F5C3
:102AB0007901E881F9810680F781E02D8A019B0187
:102AC000CE010995E881F9810084F185E02DCE01E0
:102AD0000995E881F9810284F385E02DB701CE01E3
:102AE0000995E881F9810484F585E02DCE01DF9117
:102AF000CF911F910F91FF90EF900994DF91CF91AB
:102B00001F910F91FF90EF9008958F929F92AF9237
:102B1000BF92EF92FF920F931F93CF93DF93EC013D
:102B20007B01E881F98108851985015011092E8101
:102B30003F81215031090680F781E02D40E050E0CF
:102B400060E070E00995E881F9810084F185E02D6D
:102B5000CE010995AE81BF81288539850E94413417
:102B60004B015C0183E0B694A794979487948A956F
:102B7000D1F7E881F98181149104A104B10409F429
:102B800044C00284F385E02DB701CE010995E881A8
:102B9000F9810284F385E02DB701CE010995E88122
:102BA000F9810284F385E02DB701CE010995E88112
:102BB000F9810284F385E02DB701CE010995E88102
:102BC000F9810284F385E02DB701CE010995E881F2
:102BD000F9810284F385E02DB701CE010995E881E2
:102BE000F9810284F385E02DB701CE010995E881D2
:102BF000F9810284F385E02DB701CE01099581E0CA
:102C0000881A9108A108B108B4CF0484F585E02D95
:102C1000CE01DF91CF911F910F91FF90EF90BF9068
:102C2000AF909F908F900994BF92CF92DF92EF92D6
:102C3000FF920F931F93CF93DF938C01D62F61E008
:102C400088E00E942D0B289861E089E00E942D0BFE
:102C500061E087E00E942D0B61E08DE00E942D0B6A
:102C600061E08BE00E942D0B60E08CE00E942D0B58
:102C700029985F9A61E086E00E942D0B5E9AF80128
:102C8000E05CFF4FD0838CB5837F8CBD8CB58F7D8E
:102C90008CBD0E946E2485E00E9487145F9A28985C
:102CA00062E370E080E090E00E94690B289A68E798
:102CB00070E080E090E00E94690BE0EEF3E07F01BD
:102CC0008FEFE81AF80A94919F3FA9F1892F807C31
:102CD0008038B1F0803C39F1803411F0F701EFCF4A
:102CE000C92FCF736F01BC2EFFEFCF1ADF0ABB20B5
:102CF000B9F0F6016491C8010E94B513BA94F4CFFB
:102D0000C92FCF736F01BC2EFFEFCF1ADF0ABB2094
:102D100039F0F6016491C8010E948113BA94F4CF8E
:102D2000EC0EF11CDBCF9F73692F70E080E090E028
:102D30000E94690BD3CF60E070E0C8010E94851546
:102D40008D2F0E94871461E089E00E942D0BE5EC35
:102D5000F0E0E491E33019F150F4E130D1F0E230E9
:102D6000E1F584B5806284BD8FE788BD43C0E7305C
:102D700011F1E83049F1E43081F580918000806202
:102D8000809380008FE790E090938B0080938A007F
:102D900031C084B5806884BD8FE787BD2BC080912A
:102DA00080008068809380008FE790E09093890096
:102DB000809388001FC08091B00080688093B0002D
:102DC0008FE78093B30016C08091B000806280933B
:102DD000B0008FE78093B4000DC060E089E0DF9120
:102DE000CF911F910F91FF90EF90DF90CF90BF9008
:102DF0000C94E10ADF91CF911F910F91FF90EF901A
:102E0000DF90CF90BF9008954F925F926F927F9224
:102E10008F929F92AF92BF92CF92DF92EF92FF92EA
:102E20000F931F93CF93DF93EC016A017B0128017D
:102E30003901423051056105710510F480E073C01D
:102E400089859A85AB85BC850196A11DB11D841726
:102E50009507A607B70790F38B889C88AD88BE8836
:102E60008F89803129F4BB27AF2D9E2D8D2D09C070
:102E7000DB01CA0147E0B695A795979587954A95D6
:102E8000D1F7880E991EAA1EBB1E80910201909157
:102E90000301A0910401B091050188169906AA06C4
:102EA000BB0679F48F898031A1F4DD24EE24FF2460
:102EB000C601880F991FFC01EB52FD4F51824082E1
:102EC00019C040E0C501B4010E94221C8111EACF63
:102ED000B5CFE894C7F8DD24EE24FF24C601880F9F
:102EE000991F880F991FFC01EB52FD4F40825182C0
:102EF000628273828091C50281608093C5028A8953
:102F0000823080F08D819E81AF81B885880E991EB8
:102F1000AA1EBB1E8092CF029092D002A092D10234
:102F2000B092D20281E0DF91CF911F910F91FF907B
:102F3000EF90DF90CF90BF90AF909F908F907F9059
:102F40006F905F904F9008958F929F92AF92BF9233
:102F5000CF92DF92EF92FF920F931F93CF93DF9365
:102F6000FC0181859285A385B4850196A11DB11DC3
:102F700084179507A607B70710F480E05CC0838923
:102F80009489A589B689C789C03129F4852E962EE2
:102F9000A72EBB2409C04A015B01C7E0B694A794E1
:102FA00097948794CA95D1F7E9016A017B018F0153
:102FB000BC01CD01680D791D8A1D9B1D8090020109
:102FC00090900301A0900401B09005016815790567
:102FD0008A059B0599F4F80187898031A9F4B70126
:102FE000A601552766277727440F551FFA01EB5294
:102FF000FD4F80819181A0E0B0E018C040E00E94C8
:10300000221C8111E8CFB9CFB701A6014F77552710
:1030100066277727440F551F440F551FFA01EB52BF
:10302000FD4F80819181A281B381BF708883998394
:10303000AA83BB8381E0DF91CF911F910F91FF9015
:10304000EF90DF90CF90BF90AF909F908F900895BA
:103050000F931F93CF93DF93EB010E94C80B8B015B
:103060000E948D238F3F49F00E94C80B601B710B9B
:103070006C177D07A8F380E001C081E0DF91CF915C
:103080001F910F9108954F925F926F927F92AF922E
:10309000BF92CF92DF92EF92FF920F931F93CF9345
:1030A000DF9300D000D0CDB7DEB78C0149835A83BF
:1030B0006B837C835901C12CD12C7601412C82E099
:1030C000582E612C712C49815A816B817C819E0123
:1030D0002F5F3F4FC8010E94A417882351F1D301ED
:1030E000C201F801058404C0880F991FAA1FBB1FE5
:1030F0000A94D2F7C80ED91EEA1EFB1E49815A81D6
:103100006B817C818789803129F088EF9FEFAFEF59
:10311000BFE004C088EF9FEFA0E0B0E04817590778
:103120006A077B0780F2F501C082D182E282F382D6
:1031300081E00F900F900F900F90DF91CF911F9132
:103140000F91FF90EF90DF90CF90BF90AF907F9066
:103150006F905F904F9008958F929F92AF92BF9221
:10316000CF92DF92EF92FF920F931F93CF93DF9353
:10317000EC018D81811102C080E077C00B891C8930
:103180002D893E890417150726073707A8F36A011A
:103190007B01823029F4CA86DB86EC86FD860DC071
:1031A000C114D104E104F10451F41E821F82188677
:1031B00019861A861B861C861D8681E056C08A8465
:1031C0009B84AC84BD84EB8DFC8D258530E0275F2E
:1031D0003F4FB501A4014150510961097109022E07
:1031E00004C076956795579547950A94D2F7D7010D
:1031F000C6010197A109B10904C0B695A795979595
:1032000087952A95D2F784179507A607B70720F068
:1032100089288A288B2849F44F89588D698D7A8DA1
:103220004E835F836887798704C0841B950BA60B48
:10323000B70B4C015D018E010A5F1F4F8114910491
:10324000A104B10409F4A7CF4E815F816885798517
:1032500098018B8D9C8D0E94A41791E0891A91088A
:10326000A108B1088111EACF87CFDF91CF911F91DB
:103270000F91FF90EF90DF90CF90BF90AF909F9015
:103280008F9008953F924F925F926F927F928F92AC
:103290009F92AF92BF92CF92DF92EF92FF920F93E5
:1032A0001F93CF93DF93CDB7DEB72C970FB6F8946B
:1032B000DEBF0FBECDBF5C01DC015B968D909C90A4
:1032C0005C971696CD90DD90ED90FC901997C11407
:1032D000D104E104F10439F0BFEFCB1ADB0AEB0AA9
:1032E000FB0A312C07C0F401C080D180E280F3805A
:1032F00033243394F40181859285A385B4859C01A0
:10330000AD012F5F3F4F4F4F5F4F29873A874B8764
:103310005C87260137011D821E821F821886F401F8
:1033200081859285A385B4852D813E814F81588505
:10333000281739074A075B0708F063C089859A8513
:10334000AB85BC858C159D05AE05BF0550F482E0AC
:10335000C82ED12CE12CF12C92E0492E512C612C5D
:10336000712C9E012F5F3F4FB701A601C4010E943F
:10337000A417882309F445C089819A81AB81BC8157
:10338000892B8A2B8B2B41F0260137019FEF491A9D
:10339000590A690A790A05C0C414D504E604F70479
:1033A00091F02D813E814F8158852F5F3F4F4F4FC8
:1033B0005F4F2D833E834F8358873FEFC31AD30A55
:1033C000E30AF30AACCF0FEF1FEF2FEF3FE0B3019B
:1033D000A201C4010E940417882399F0D501169612
:1033E0004D915D916D917C91199741155105610544
:1033F000710549F093018201C4010E9404178111F3
:1034000002C080E02AC0D50116964D925D926D9261
:103410007C921997332051F0D301C2010196A11D6E
:10342000B11DF40180839183A283B383F501878961
:10343000908DA18DB28D892B8A2B8B2B69F4D501B0
:1034400057964D925D926D927C925A9714968C91FC
:103450001497806814968C9381E02C960FB6F8949C
:10346000DEBF0FBECDBFDF91CF911F910F91FF90B7
:10347000EF90DF90CF90BF90AF909F908F907F9014
:103480006F905F904F903F9008958FB7F894809120
:10349000D3028FBF0895CF93DF93EC018091D402C4
:1034A000811109C081E08093D4028091350690910A
:1034B00036060E94902360E08C81DF91CF910C94BE
:1034C000E10A61E0FC0184810E94E10A8091D4025A
:1034D00081111092D4020895CF93DF93EC018E8175
:1034E000882389F08F8198859C012F5F3F4F388713
:1034F0002F838230924018F40E948D23F3CFCE01A7
:103500000E94611A1E82DF91CF910895CF92DF92BF
:10351000FF920F931F93CF93DF9300D000D0CDB7CE
:10352000DEB76C01F62E29833A834B835C830E94BD
:103530006C1AC6010E944B1A6CE271E0C6010E942F
:1035400028188F2D80640E94862308E110E05C819A
:103550004B813A812981DA01C901002E04C0B69558
:10356000A795979587950A94D2F729833A834B8339
:103570005C830E9486230850110929813A814B817E
:103580005C81083F8FEF180731F7FF2029F0E8E052
:10359000FE1204C087E803C085E901C08FEF0E94D6
:1035A000862310E00E948D23F601828787FF04C0E6
:1035B0001F3F11F01F5FF6CF0F900F900F900F90ED
:1035C000DF91CF911F910F91FF90DF90CF900895E1
:1035D000AF92BF92CF92DF92EF92FF920F931F9321
:1035E000CF93DF93EC016901C801820F931F8130F3
:1035F000924008F070C08E81882371F08881998193
:10360000AA81BB81481759076A077B0729F48F8174
:103610009885C816D906B0F5488359836A837B8399
:103620008B85833039F089E0440F551F661F771F63
:103630008A95D1F79A01AB0161E1CE010E94861A09
:10364000882319F083E08D8346C00E94C80B5B017C
:103650000E948D238A878F3F49F40E94C80B6A1904
:103660007B096D327140A0F38FE003C08E3F31F0D3
:103670008DE08D83CE010E94611A2DC018861F82B5
:1036800081E08E838F8198858C159D0540F40E9482
:103690008D238F819885019698878F83F3CF67015B
:1036A000E00EF11ECE14DF0431F00E948D23F601EE
:1036B00081936F01F7CF8F819885080F191F1887A5
:1036C0000F838985882319F00115124048F0CE0137
:1036D0000E946C1A05C0CE010E94611A80E001C0F0
:1036E00081E0DF91CF911F910F91FF90EF90DF90DC
:1036F000CF90BF90AF900895EF92FF920F931F93DA
:10370000CF93DF93EC0179014115510561057105F6
:1037100011F482E13CC08B85833039F089E0440F9D
:10372000551F661F771F8A95D1F79A01AB0168E193
:10373000CE010E94861A882311F084E028C08EEF03
:103740000E94862387018EEFF81AF80181918F017C
:103750000E9486230E151F05C1F78FEF0E94862356
:103760008FEF0E9486230E948D238A878F71853078
:1037700031F081E18D83CE010E94611A09C068E5B4
:1037800072E0CE010E942818811107C085E18D8367
:10379000CE010E94611A80E013C020E030E0A90150
:1037A0006DE0CE010E94861A811104C00E948D2313
:1037B000882311F084E1EBCFCE010E94611A81E0F1
:1037C000DF91CF911F910F91FF90EF90089580911D
:1037D000C5028823A9F14091020150910301609133
:1037E00004017091050125ED32E08091BF029091B6
:1037F000C0020E947C1B811102C080E008954091AC
:10380000CF025091D0026091D1027091D202411545
:1038100051056105710591F025ED32E08091BF02FF
:103820009091C0020E947C1B882339F31092CF0232
:103830001092D0021092D1021092D2021092C502C0
:1038400081E008958F929F92AF92BF92EF92FF9284
:103850000F931F93CF934B015C01C42F8091020102
:1038600090910301A0910401B0910501881599057B
:10387000AA05BB0501F10E94E71B811102C080E08F
:1038800020C085EDE82E82E0F82E00E012E020E076
:1038900030E0B501A4018091BF029091C0020E9466
:1038A000E81A882361F38092020190920301A092AA
:1038B0000401B09205018091C502C82BC093C502D6
:1038C00081E0CF911F910F91FF90EF90BF90AF904B
:1038D0009F908F9008952F923F924F925F926F9298
:1038E0007F928F929F92AF92BF92CF92DF92EF9290
:1038F000FF920F931F93CF93DF93EC016B014A016B
:103900008D81811103C08FEF9FEFD7C08C8180FF25
:10391000FACF4B885C886D887E884A855B856C858C
:103920007D85C401A0E0B0E093018201041B150B6A
:10393000260B370B081719072A073B0718F4420113
:10394000841A950A54011E0126E0220E311CA1148E
:10395000B10409F47EC04A855B856C857D852A01AA
:1039600081E05822ED818A019B0189E036952795F7
:10397000179507958A95D1F78B8D9C8DE23061F470
:10398000FC01828D938DA48DB58DBC01CD01600F9E
:10399000711F821F931F3FC0FC0174807A947022B4
:1039A00041145104C9F4711017C0452B462B472B05
:1039B00049F48F89988DA98DBA8D8E839F83A887AE
:1039C000B9870AC04E815F816885798591010E941F
:1039D000A417882309F497CFEB8DFC8D8E819F81EE
:1039E000A885B9850297A109B109058404C0880F8B
:1039F000991FAA1FBB1F0A94D2F746855785608975
:103A00007189840F951FA61FB71FBC01CD01670DDB
:103A1000711D811D911D20E032E024193509350109
:103A20002A153B0508F439012C8126FD04C06114D8
:103A3000F2E07F0681F400910201109103012091D0
:103A40000401309105016017710782079307B1F4F3
:103A500002C0C40132C040E00E94221C882309F445
:103A600052CFF201EB52FD4FD601CF01860D971DCB
:103A7000E817F90789F021912D93FACF7601830198
:103A80009201AB01BC018091BF029091C0020E94E3
:103A9000E81A882309F437CFC60CD71C8A859B8582
:103AA000AC85BD85860D971DA11DB11D8A879B879D
:103AB000AC87BD87A618B7084ACFDF91CF911F9179
:103AC0000F91FF90EF90DF90CF90BF90AF909F90BD
:103AD0008F907F906F905F904F903F902F900895C0
:103AE000CF93DF93EC018D818823A1F18C8187FF37
:103AF0002DC06E857F858889998941E00E94221CAE
:103B0000882341F1EA8980E2E89FF0011124DF0176
:103B1000AB52BD4F1097F1F08D81823050F44B893C
:103B20005C896D897E895C964D935D936D937C93E2
:103B30005F978F89988DA98DBA8DEB52FD4F938F2A
:103B4000828FB58BA48B8C818F778C83DF91CF9103
:103B50000C94E71B80E0DF91CF910895CF93DF9322
:103B6000EC010E94701D882311F01D8281E0DF911D
:103B7000CF9108952F923F924F925F926F927F92D2
:103B80008F929F92AF92BF92CF92DF92EF92FF926D
:103B90000F931F93CF93DF9300D000D0CDB7DEB744
:103BA0008C015B011A01DC0115968C91159781300F
:103BB000C9F414968C9181FF15C082FF1BC0F801D7
:103BC000438954896589768982859385A485B585DD
:103BD00084179507A607B70769F0C8010E94AC18BB
:103BE000811108C081E090E0F8019383828380E036
:103BF00090E039C1610183C0D8015B968D919C91A1
:103C00005C97FC01248121502A013B0139E0769424
:103C10006794579447943A95D1F7722E74207A019D
:103C2000F1E0FF22772009F476C080E092E08E195F
:103C30009F0946018C159D0508F44C01D8015B963F
:103C40002D913C915C9716968D919D910D90BC9114
:103C5000A02D0297A109B109F901058404C0880FBC
:103C6000991FAA1FBB1F0A94D2F746855785608902
:103C70007189840F951FA61FB71F9C01AD01270DE9
:103C8000311D411D511D29013A01811432E0930675
:103C900009F088C08091020190910301A091040174
:103CA000B091050184159505A605B70559F48FEF68
:103CB0009FEFDC018093020190930301A093040124
:103CC000B09305019501B301A2018091BF029091CB
:103CD000C0020E947C1B882309F484CF9EEFB91A8E
:103CE000C818D908F80182859385A485B585880D03
:103CF000991DA11DB11D82879387A487B587D8011F
:103D00001A964D915D916D917C911D97C114D104CE
:103D100009F072CF87C0E114F10409F086CF16963E
:103D20004D915D916D917C911997411551056105FA
:103D3000710559F457968D919D910D90BC91A02DD0
:103D40000097A105B10541F521C09E012F5F3F4FAE
:103D50000E94A417882309F44BCF89819A81AB81F3
:103D6000BC81F801238D348DF9012789203129F098
:103D700048EF5FEF6FEF7FE004C048EF5FEF60E078
:103D800070E084179507A607B70730F0C8010E94B6
:103D9000421981114ACF26CFF80186839783A087E5
:103DA000B18743CFE114F10429F5D8011A964D915A
:103DB0005D916D917C911D9753968D919D910D9084
:103DC000BC91A02D481759076A077B0798F00E94FD
:103DD000E71B882309F406CF4092020150920301A9
:103DE00060920401709205018091C5028160809308
:103DF000C50208C041E0C301B2010E94221C882311
:103E000009F4F0CED501F701EB52FD4FCF01880D3B
:103E1000991DE817F90719F02D912193FACFA80CF5
:103E2000B91C5ECF53968D919D910D90BC91A02DA4
:103E300084179507A607B70740F4F801438B548B06
:103E4000658B768B848180688483D80114968C91ED
:103E500083FD02C0C10107C0C8010E94701D8823F4
:103E600009F4C0CEF7CF0F900F900F900F90DF9115
:103E7000CF911F910F91FF90EF90DF90CF90BF9067
:103E8000AF909F908F907F906F905F904F903F90FA
:103E90002F900895CF93DF931F92CDB7DEB769833C
:103EA00041E050E0BE016F5F7F4F0E94BA1D0F904E
:103EB000DF91CF910895AF92BF92CF92DF92EF92B0
:103EC000FF920F931F93CF93DF93CDB7DEB7619728
:103ED0000FB6F894DEBF0FBECDBF209106012111B1
:103EE00044C0D62E5C014EE050E06EE672E088E9F8
:103EF00095E00E94C80242E050E06DE772E088E978
:103F000095E00E94C80260E070E0C5010E9485153E
:103F100083E0C82EE12CF12C0FEF1FEF20E832E0F8
:103F20004CE350E062E370E0C5010E949614CC249B
:103F3000C3942AE832E044E650E066E470E0C5014C
:103F40000E9496144AE0BE016F5F7F4F8D2D90E076
:103F50000E94CB359E012F5F3F4F44E650E068EC56
:103F600070E0C5010E949614FFCF809197058823C9
:103F700029F02150209306011092970561960FB603
:103F8000F894DEBF0FBECDBFDF91CF911F910F918F
:103F9000FF90EF90DF90CF90BF90AF9008956F9219
:103FA0007F928F929F92AF92BF92CF92DF92EF92C9
:103FB000FF920F931F93CF93DF934C0197ED692EE0
:103FC00094E0792EA12CB12C6301C0E0D0E0F60181
:103FD0008081873071F410828CE2E82E83E6F82E1F
:103FE00004E110E024E130E0A501BE01C4010E941B
:103FF000D414FCE0CF0ED11C6496C03481E0D80705
:1040000031F7EFEF6E1A7E0AF4E1AF0EB11C80EFCC
:10401000A816B104C9F6DF91CF911F910F91FF90BF
:10402000EF90DF90CF90BF90AF909F908F907F9058
:104030006F9008952F923F924F925F926F927F926E
:104040008F929F92AF92BF92CF92DF92EF92FF92A8
:104050000F931F93CF93DF93CDB7DEB729970FB69A
:10406000F894DEBF0FBECDBF6C013CE0439FA001C2
:10407000112449525B4F1986862F90E09C838B83D5
:10408000DA01A20FB11DBE83AD8387ED94E09A8360
:10409000898384E0482E512C812C912C94E1792E37
:1040A000682CB9852B2E312CE981FA81E20DF31DA4
:1040B0008081833009F08DC129E0208334E1B39FF2
:1040C0005001112484E0A80EB11C10EEE12E1BEF6C
:1040D000F12E0EE010E02EE030E0A501B201C601A5
:1040E0000E94D414AB81BC81A80DB91DB887AF83E1
:1040F000862D90E02F813885821793070CF050C0F1
:10410000ED81FE8120812750233018F4F1E0F093F7
:104110009705AC014F5F5F4F2CE0249FF001259F76
:10412000F00D1124E952FB4FE20DF31D20812223F3
:1041300021F039EF320F3330B8F439E03083019693
:10414000789EB001799E700D11246C5F7F4FB0EEA8
:10415000EB2EBBEFFB2E0EE010E02EE030E0A501D1
:10416000C6010E94D41426C0223011F589E0808354
:10417000749EB001759E700D11246C5F7F4FA0EE90
:10418000EA2EABEFFA2E0EE010E02EE030E0A501B3
:10419000C6010E94D4148091D5048F5F8093D5040A
:1041A000D401EB81FC81AE1BBF0BB887AF832FC05E
:1041B0002130B1F363949CCFAD81BE812C91275007
:1041C000233018F4B1E0B0939705F1012CE0629E22
:1041D000E00DF11D1124E553FB4F208121111FC07B
:1041E00039E030830197789EB001799E700D1124DB
:1041F0006C5F7F4FF0EEEF2EFBEFFF2E0EE010E036
:104200002EE030E0A501C6010E94D4146A94862DE8
:1042100090E0EF81F885E817F90774F221C039EFD3
:10422000320F3330E8F2223001F5A9E0A083019784
:10423000789EB001799E700D11246C5F7F4FE0EE87
:10424000EE2EEBEFFE2E0EE010E02EE030E0A501AA
:10425000C6010E94D4148091D5048F5F8093D50449
:10426000AB80BC80A20CB31C2CC0213079F6F8CFF7
:10427000AD81BE812C912750233018F4B1E0B0936A
:1042800097050196E981FA81E80FF91F2081211134
:104290001FC029E02083789EA001799E500D112433
:1042A0004C5F5F4F70EEE72E7BEFF72E0EE010E0D5
:1042B0002EE030E0B201C6010E94D41499859F5FC0
:1042C0009987A9858A2F90E08A159B058CF220C0DA
:1042D00039EF320F3330E8F2223001F539E0308324
:1042E000789EA001799E500D11244C5F5F4F60EEC7
:1042F000E62E6BEFF62E0EE010E02EE030E0B2017D
:10430000C6010E94D4148091D5048F5F8093D50498
:1043100051018B819C81A81AB90A2CC0213071F6F9
:10432000F7CFED81FE8120812750233018F4F1E092
:10433000F09397050197E981FA81E80FF91F208131
:1043400021111FC029E02083789EA001799E500D85
:1043500011244C5F5F4F30EEE32E3BEFF32E0EE067
:1043600010E02EE030E0B201C6010E94D41489852D
:1043700081508987A9858A2F90E0A816B9068CF20A
:1043800023C039EF320F3330E8F22230D9F439E06C
:104390003083789EA001799E500D11244C5F5F4FB1
:1043A00020EEE22E2BEFF22E0EE010E02EE030E0B9
:1043B000B201C6010E94D4148091D5048F5F80930E
:1043C000D50402C0213099F68091D60481508093A3
:1043D000D604BFEF8B1A9B0AE981FA813C96FA83D7
:1043E000E983F4E14F0E511C20E18216910409F09B
:1043F00057CE39853F5F39873C3008F446CE299641
:104400000FB6F894DEBF0FBECDBFDF91CF911F91E5
:104410000F91FF90EF90DF90CF90BF90AF909F9063
:104420008F907F906F905F904F903F902F90089566
:10443000CF93DF93EC016A8B80910201909103018D
:10444000A0910401B09105018E879F87A88BB98B3D
:1044500080E2689FF0011124EB52FD4F4489558999
:1044600060E070E0BA01552744274F8B588F698F61
:104470007A8F828D938DA0E0B0E0482B592B6A2B68
:104480007B2B4F8B588F698F7A8F8385887151F47E
:10449000848D958DA68DB78D8B8B9C8BAD8BBE8BB4
:1044A00081E00EC0803111F080E015C09E012D5ECC
:1044B0003F4F8B8D9C8D0E9443188823A9F384E085
:1044C0008D8381E08C831E821F82188619861A864E
:1044D0001B861C861D86DF91CF910895DC015996BD
:1044E000ED91FC915A973097B9F083899489A58909
:1044F000B6894285538564857585841B950BA60B0B
:10450000B70B811520E89207A105B10538F08FEFB0
:104510009FE7A0E0B0E0089580E090E00895CF9399
:10452000DF931F92CDB7DEB76983DC01ED91FC917B
:104530000280F381E02D41E050E0BE016F5F7F4FCC
:1045400009950F90DF91CF91089585ED8093BC0080
:104550008091BC0084FDFCCF109216070895409115
:104560006A07262F30E0240F311D21323105DCF49B
:10457000209116072430C9F4FC0180E090E08617F2
:1045800058F430916A072191DC01A85BB84FA30F62
:10459000B11D2C930196F3CF80916A07680F609349
:1045A0006A0780E0089581E0089582E00895089503
:1045B000E091140780911307E81730F4F0E0ED5014
:1045C000F94F808190E008958FEF9FEF08959091CB
:1045D000140780911307981750F4E92FF0E0ED507D
:1045E000F94F208130E09F5F9093140702C02FEFB6
:1045F0003FEFC90108958091130790E020911407BF
:10460000821B91090895CF92DF92EF92FF920F9350
:104610001F93CF93DF937C01262F972F8A018091E0
:10462000F206882391F0C62FD72F6E01C40ED51E37
:10463000CC15DD0571F06991D701ED91FC910190E8
:10464000F081E02DC7010995F3CF642F822F0E94DE
:10465000AF22C801DF91CF911F910F91FF90EF9092
:10466000DF90CF900895CF93DF931F92CDB7DEB741
:1046700069832091F2062223D1F02091F1062032A5
:1046800040F021E030E0FC013383228380E090E0C1
:1046900015C08091F006E82FF0E0E053F94F9981C2
:1046A00090838F5F8093F0068093F10605C061E0F0
:1046B000CE0101960E94AF2281E090E00F90DF9141
:1046C000CF910895FC01818D928D009711F00C948B
:1046D000701D0895CF93DF93EC01898D9A8D00971B
:1046E00039F481E090E09B838A8380E090E00BC006
:1046F000FC01138212820E94BA1DE98DFA8D22817B
:104700003381232B71F7DF91CF9108958EBD000087
:104710000DB407FEFDCF8EB508958FEF0C94862360
:104720008CBD9DBD0895FC01DB0112968D919C917D
:104730001397938382838AE491E091838083149614
:104740008C911497848315968C9115978583169672
:104750004D915D916D917C91199746835783608748
:1047600071871A964D915D916D917C911D9742874D
:104770005387648775871E964D915D916D917C91ED
:10478000519746875787608B718B52968C915297C1
:10479000828B53964D915D916D917C915697438B91
:1047A000548B658B768B57964D915D916D917C9175
:1047B0005A97478B508F618F728F5B968D919C912A
:1047C0005C97948F838F0895FC01818D928D009763
:1047D00011F00C946B1C80E090E00895EF92FF9232
:1047E0000F931F93CF93DF93EC017B018A011B8210
:1047F0001A8288EE93E0A0E0B0E08C839D83AE83C4
:10480000BF838AE291E0998388838DE190E00E94E2
:1048100072349A8F898F009779F02DE1F701DC01CE
:1048200001900D922A95E1F74CE050E0B801CE01DD
:104830000C960E94BC35188EDF91CF911F910F917D
:10484000FF90EF900895CF93DF931F92CDB7DEB71F
:1048500041E050E0BE016F5F7F4F0E946B1C0197EB
:1048600019F4898190E002C08FEF9FEF0F90DF91E4
:10487000CF910895FC01818D928D009711F00C94D9
:1048800023248FEF9FEF08950F931F93CF93DF9310
:10489000FC01818D928D0097B9F0EF010E942324D5
:1048A0008C010F3F8FEF180791F0898D9A8DFC01D5
:1048B00042855385648575854150510961097109A7
:1048C0000E94AC18C80105C080E090E002C08FEFE4
:1048D0009FEFDF91CF911F910F910895CF93CFB7A5
:1048E000F89480918F07811127C0EEE9F0E0849160
:1048F000E2EBF0E09491E82FF0E0EE0FFF1FE058BC
:10490000FF4FA591B491EC91E92321F461E08AE095
:104910000E94E10A61E08AE00E942D0B8CB5806163
:104920008CBD8CB580648CBD61E08DE00E942D0B48
:1049300061E08BE00E942D0B80918F078F5F809349
:104940008F07CFBFCF9108951F920F920FB60F928E
:1049500011242F933F934F935F936F937F938F9384
:104960009F93AF93BF93EF93FF938091B900887F9C
:10497000803609F49CC068F5883209F45BC090F475
:10498000803109F454C038F4882309F4F6C0883023
:1049900009F44DC0F6C0883109F44CC0803209F4E6
:1049A0005DC0EFC0803409F468C048F4803309F476
:1049B00055C0883309F0E5C080931507D8C080350D
:1049C00009F44FC0883509F45DC0883409F0D9C0B6
:1049D000D6C0883909F4C7C0A8F4883709F467C07D
:1049E00038F4883609F463C0803709F460C0C9C060
:1049F000883809F4B8C0803909F45FC0803809F0FC
:104A0000C0C05BC0803B09F486C038F4803A09F42A
:104A100066C0883A09F47FC0B4C0803C09F4A7C0DE
:104A2000883C09F4A4C0883B09F48AC0AAC08091DC
:104A30003B0710C090913A0780913907981770F59D
:104A4000E0913A0781E08E0F80933A07F0E0E75E4D
:104A5000F84F80818093BB0085EC86C0809315075A
:104A60008EC0E0913A0781E08E0F80933A078091E3
:104A7000BB00F0E0E75EF84F808390913A078091A9
:104A800039076EC0E0913A0781E08E0F80933A07B4
:104A90008091BB00F0E0E75EF84F808380911807BB
:104AA00081116DC081E08093170784EA61C083E0C3
:104AB0008093160710928E07CFCF80918E07803299
:104AC00008F051C0E0918E0781E08E0F80938E0731
:104AD0008091BB00F0E0E259F84F8083BDCF85ECB8
:104AE0008093BC001092160780918E07803230F4BC
:104AF000E0918E07F0E0E259F84F108260918E0746
:104B000070E0E0916C07F0916D078EE697E00995F3
:104B100010928E0736C084E08093160710926B07C0
:104B200010926A07E0916807F091690709958091F2
:104B30006A07811105C081E080936A0710924807D7
:104B4000E0916B0781E08E0F80936B07F0E0E85BEC
:104B5000F84F80818093BB0090916B0780916A072A
:104B6000981708F479CF85E88093BC000AC085ECDB
:104B70008093BC001092160704C0109215070E9483
:104B8000A522FF91EF91BF91AF919F918F917F915E
:104B90006F915F914F913F912F910F900FBE0F90AA
:104BA0001F9018951F920F920FB60F9211242F93FA
:104BB0003F938F939F93AF93BF93809144079091BE
:104BC0004507A0914607B0914707892B8A2B8B2B6D
:104BD00061F48091440790914507A0914607B091F8
:104BE00047079195819591090AC08091440790915A
:104BF0004507A0914607B0914707809590959093FF
:104C00004307809342071092440710924507109281
:104C10004607109247078091420790914307893CCD
:104C2000910530F010924107109240071092CD0686
:104C30008091420790914307029708F461C08091E8
:104C4000420790914307089708F05AC08091CD061B
:104C500081111092CD0680914207909143070597EC
:104C6000C0F08091420790914307089790F42091FB
:104C700040073091410781E090E002C0880F991F02
:104C80002A95E2F72091CE063091CF06822B932B06
:104C900032C08091420790914307029730F0809193
:104CA000420790914307059798F0809140079091B3
:104CB0004107409718F481E08093CD06809140072A
:104CC000909141070196909341078093400718C047
:104CD000209140073091410781E090E002C0880FA9
:104CE000991F2A95E2F7809590952091CE063091F4
:104CF000CF06822393239093CF068093CE06D5CF01
:104D0000BF91AF919F918F913F912F910F900FBEC7
:104D10000F901F9018951F920F920FB60F921124AB
:104D20000F900FBE0F901F9018951F920F920FB605
:104D30000F9211242F933F934F935F936F938F9311
:104D40009F93EF93FF9380913E0790913F078234AA
:104D50002FE0920750F190913C0780E08C30E1F019
:104D600020E030E0482F50E0F901E40FF51FE95250
:104D7000FB4F90816CEF690F633020F068EF690F93
:104D8000623010F491509083245F3F4F203C3105F6
:104D900059F78F5F90E1E2CF90933C0780933D07F6
:104DA00010923F0710923E0705C0019690933F076F
:104DB00080933E07FF91EF919F918F916F915F914B
:104DC0004F913F912F910F900FBE0F901F9018950C
:104DD000CF93DF93CDB7DEB7C159D1090FB6F894A1
:104DE000DEBF0FBECDBF789484B5826084BD84B52C
:104DF000816084BD85B5826085BD85B5816085BDD6
:104E000080916E00816080936E001092810080918D
:104E10008100826080938100809181008160809315
:104E20008100809180008160809380008091B1003A
:104E300084608093B1008091B00081608093B00065
:104E400080917A00846080937A0080917A008260F9
:104E500080937A0080917A00816080937A008091BB
:104E60007A00806880937A001092C100E091A805D2
:104E7000F091A90582E08083E091A405F091A50559
:104E80001082E091A605F091A7058FEC8083109227
:104E9000B005E091AC05F091AD0586E08083E0912E
:104EA000AA05F091AB05808180618083E091AA051D
:104EB000F091AB05808188608083E091AA05F09134
:104EC000AB05808180688083E091AA05F091AB05F5
:104ED00080818F7D80836CE876E0CE0101960E9410
:104EE0006602CE0101960E94D91188E1EDE0F1E061
:104EF000DE01AE5BBF4F01900D928A95E1F74090C5
:104F0000900650909106C257DF4F59824882CE5882
:104F1000D04060E070E08CE896E00E94F8136FEFFC
:104F20007FEF8CE896E00E948515A0909406B090E3
:104F30009506B7FE03C02FEFA21AB20AB594A79444
:104F40003AE0A31AB108809192069091930697FDDA
:104F5000019695958795C297E4E7F0E024914F017B
:104F60002223D1F0CC24C394EE24EA94FE2C00E05A
:104F700010E0A501BC018CE896E00E9466124FEF9C
:104F8000841A940A209192063091930628173907C3
:104F90001CF0F4012491E4CF0E94D4068111FCCFCF
:104FA0006B961FAE6B976B964FAC6B97F8E04F9E6E
:104FB0001001112402E410E00C0F1D1F020D131D3F
:104FC000780124E0E20EF11C6B963FAD6B97333015
:104FD00008F0DDC0D701CD90DC90F801A080B18051
:104FE00020E030E042E050E0B601C5010E94F60941
:104FF00020E030E045E050E0B601C5010E94F6092E
:1050000020E038EF4AE050E0B601C5010E94F60901
:105010000E94D4068823C1F2AEEF8A2E99249A9476
:1050200000E010E0B2E0EB2EF12CB8016C0D7D1D1C
:105030009B0135016E0C7F1CA30125014E185F08F2
:10504000C2010E94EF08B601601B710B9B01A30116
:10505000C2010E94EF0838016A0C7B1C2501401A2E
:10506000510AB6016E0D7F1D9B01A301C2010E9472
:10507000EF08B6016E197F099B01A301C2010E94CE
:10508000EF08C8010196800E911E880E991EFFEF51
:105090008F169F0639F021E0E21AF1088E189F085A
:1050A0008E189F088C01E816F9060CF0BECFE1E0DF
:1050B000F0E0EC0FFD1FE20DF31D80919C06909136
:1050C0009D06092E000CAA0BBB0B80839183A28343
:1050D000B38380919E0690919F06092E000CAA0B27
:1050E000BB0B84839583A683B7836B963FAD6B9789
:1050F0003F5F6B963FAF6B9764E670E080E090E0B7
:105100000E94690B6FEF7FEF8CE896E00E94851597
:105110006B964FAD6B97433009F445CFA090940642
:10512000B0909506B7FE03C05FEFA51AB50AB59417
:10513000A7948AE0A81AB1088091920690919306EC
:1051400097FD019695958795C297E8E6F0E0249142
:105150004F01222309F427CFCC24C394EE24EA94F0
:10516000FE2C00E010E0A501BC018CE896E00E9456
:105170006612FFEF8F1A9F0A2091920630919306D4
:10518000281739070CF40FCFF4012491E2CF89815D
:105190009A81AB81BC81A2968CAF9DAFAEAFBFAF01
:1051A000A29729893A894B895C896E962CAF3DAFCD
:1051B0004EAF5FAF6E97821B930BA40BB50BEA96B5
:1051C0008CAF9DAFAEAFBFAFEA978D859E85AF85A3
:1051D000B889EE968CAF9DAFAEAFBFAFEE972D897D
:1051E0003E894F89588DE6962CAF3DAF4EAF5FAFED
:1051F000E697821B930BA40BB50BC258DF4F888335
:105200009983AA83BB83CE57D04089859A85AB8585
:10521000BC85A6968CAF9DAFAEAFBFAFA6976E967E
:105220002CAD3DAD4EAD5FAD6E97821B930BA40BC5
:10523000B50BCE57DF4F88839983AA83BB83C258AF
:10524000D0408D819E81AF81B885CA57DF4F88835A
:105250009983AA83BB83C658D040E6962CAD3DAD5A
:105260004EAD5FADE697821B930BA40BB50BC657F3
:10527000DF4F88839983AA83BB83CA58D040C25822
:10528000DF4F288139814A815B81CE57D040EA9631
:105290006CAD7DAD8EAD9FADEA970E94FB336B0187
:1052A0007C01C657DF4F288139814A815B81CA580A
:1052B000D040CE57DF4F688179818A819B81C25867
:1052C000D0400E94FB33C61AD70AE80AF90AC092F6
:1052D000BC06D092BD06E092BE06F092BF06CD2875
:1052E000CE28CF2809F414C226968CAD9DADAEAD64
:1052F000BFAD2697AA968CAF9DAFAEAFBFAFAA97B2
:105300006696CCACDDACEEACFFAC66972C013D01F3
:105310004C185D086E087F082E962CAD3DAD4EAD45
:105320005FAD2E97AE962CAF3DAF4EAF5FAFAE9751
:105330002C193D094E095F09E2962CAF3DAF4EAFE7
:105340005FAFE297A3019201C258DF4F6881798174
:105350008A819B81CE57D0400E94FB334B015C0178
:10536000E2962CAD3DAD4EAD5FADE297C657DF4F37
:10537000688179818A819B81CA58D0400E94FB3321
:10538000861A970AA80AB90A8092A4069092A506DE
:10539000A092A606B092A706EA966CAD7DAD8EAD42
:1053A0009FADEA970E94FB334B015C01A301920180
:1053B000CE57DF4F688179818A819B81C258D04066
:1053C0000E94FB33861A970AA80AB90A8092A80697
:1053D0009092A906A092AA06B092AB06A7019601E8
:1053E000A2966CAD7DAD8EAD9FADA2970E94FB33B2
:1053F0004B015C01AA962CAD3DAD4EAD5FADAA97B9
:105400006E966CAD7DAD8EAD9FAD6E970E94FB33F9
:10541000A5019401261B370B480B590BEE966CAD7A
:105420007DAD8EAD9FADEE970E94FB332B013C010D
:10543000AE962CAD3DAD4EAD5FADAE976E966CADFC
:105440007DAD8EAD9FAD6E970E94FB334B015C012D
:10545000A7019601A6966CAD7DAD8EAD9FADA697CA
:105460000E94FB33A5019401261B370B480B590BF7
:10547000CA57DF4F688179818A819B81C658D040A5
:105480000E94FB33460E571E681E791EAA962CAD4D
:105490003DAD4EAD5FADAA97A6966CAD7DAD8EAD20
:1054A0009FADA6970E94FB336B017C01AE962CAD9D
:1054B0003DAD4EAD5FADAE97A2966CAD7DAD8EAD00
:1054C0009FADA2970E94FB33A7019601261B370BC5
:1054D000480B590BE6966CAD7DAD8EAD9FADE69752
:1054E0000E94FB33460E571E681E791E4092AC0682
:1054F0005092AD066092AE067092AF062A968CADC1
:105500009DADAEADBFAD2A97AA968CAF9DAFAEAFA5
:10551000BFAFAA976A96CCACDDACEEACFFAC6A9795
:105520002C013D014C185D086E087F0862962CAD79
:105530003DAD4EAD5FAD6297AE962CAF3DAF4EAF79
:105540005FAFAE972C193D094E095F09E2962CAF6B
:105550003DAF4EAF5FAFE297A3019201C258DF4F5C
:10556000688179818A819B81CE57D0400E94FB332C
:105570004B015C01E2962CAD3DAD4EAD5FADE297C7
:10558000C657DF4F688179818A819B81CA58D04094
:105590000E94FB33861A970AA80AB90A8092B006BD
:1055A0009092B106A092B206B092B306EA966CADA4
:1055B0007DAD8EAD9FADEA970E94FB334B015C0140
:1055C000A3019201CE57DF4F688179818A819B8147
:1055D000C258D0400E94FB33861A970AA80AB90A1B
:1055E0008092B4069092B506A092B606B092B70625
:1055F000A7019601A2966CAD7DAD8EAD9FADA29731
:105600000E94FB334B015C01AA962CAD3DAD4EAD23
:105610005FADAA976E966CAD7DAD8EAD9FAD6E976A
:105620000E94FB33A5019401261B370B480B590B35
:10563000EE966CAD7DAD8EAD9FADEE970E94FB33C7
:105640002B013C01AE962CAD3DAD4EAD5FADAE979E
:105650006E966CAD7DAD8EAD9FAD6E970E94FB33A7
:105660004B015C01A7019601A6966CAD7DAD8EAD98
:105670009FADA6970E94FB33A5019401261B370B13
:10568000480B590BCA57DF4F688179818A819B810A
:10569000C658D0400E94FB33460E571E681E791E26
:1056A000AA962CAD3DAD4EAD5FADAA97A6966CAD5A
:1056B0007DAD8EAD9FADA6970E94FB336B017C0143
:1056C000AE962CAD3DAD4EAD5FADAE97A2966CAD36
:1056D0007DAD8EAD9FADA2970E94FB33A7019601D1
:1056E000261B370B480B590BE6966CAD7DAD8EAD86
:1056F0009FADE6970E94FB33460E571E681E791E2B
:105700004092B8065092B9066092BA067092BB06F3
:10571000C257DF4F68817981CE58D0408CE896E03F
:105720000E94F8130E94D4068111FCCF6CE876E049
:10573000CE0101960E946602CE0101960E94AA1136
:105740000E94B707209190063091910621153105EE
:1057500029F480919606909197061AC02A35310552
:1057600029F4809198069091990612C08091920632
:1057700090919306243B310529F4209196063091AF
:10578000970604C02091980630919906821B930BCE
:105790009093BE028093BD020E94B707809190064D
:1057A00090919106009729F480919806909199061E
:1057B0001EC08A35910549F4809194069091950612
:1057C00020919606309197060BC0843B910559F4C1
:1057D00080919406909195062091980630919906B3
:1057E000821B930B04C0809196069091970690932C
:1057F000BC028093BB028091BA02811104C00E9456
:10580000D406811121C08091BA02813099F40E949E
:10581000D406882379F08091BD029091BE029C014C
:1058200020553109213A3105F8F0815491098E3C17
:10583000910570F11091BA02123009F081CF0E94E7
:10584000D40681113DC07CCF6CE876E0CE01019694
:105850000E946602CE0101960E940C118091BA024C
:105860008F5F8093BA02CFCF2091BB023091BC02F0
:105870002852310923333105C0F66CE876E0CE01B9
:1058800001960E946602CE0101960E94311012C05C
:105890008091BB029091BC02805A9109C39750F647
:1058A0006CE876E0CE0101960E946602CE01019678
:1058B0000E9486118091BA028F5F8093BA02BACF9C
:1058C0008091BD029091BE0244978536910508F003
:1058D00037CF8091BB029091BC02CC974F9708F0D4
:1058E0002FCF82EA91E090930101809300016CE850
:1058F00076E0CE0101960E946602CE0101960E94DA
:10590000BD0E809100019091010131E08A3A930728
:1059100009F01AC101E00093B9020093B8020093A4
:10592000C2020093C1020E9483051092FC041092EF
:105930000805109214051092200510922C05109263
:105940003805109244051092500510925C05109293
:10595000680510927405109280051092F10410925F
:10596000FD04109209051092150510922105109260
:105970002D0510923905109245051092510510928F
:105980005D051092690510927505109281051092BF
:10599000E6041092F2041092FE0410920A0510928E
:1059A00016051092220510922E0510923A051092BB
:1059B00046051092520510925E0510926A051092EB
:1059C0007605109282051092E7041092F30410926B
:1059D000FF0410920B0510921705109223051092E8
:1059E0002F0510923B051092470510925305109217
:1059F0005F0510926B051092770510928305109247
:105A0000E8041092F4041092000510920C05109214
:105A10001805109324050093300500933C0510935E
:105A20004805109254051092600510926C05109272
:105A30007805109284051092E9041092F5041092F2
:105A4000010510920D05109219051093250500937C
:105A5000310500933D0510934905109255051092AC
:105A6000610510926D0510927905109285051092CE
:105A7000EA041092F6041092020510920E0510929C
:105A80001A05109226051092320510923E051092CA
:105A90004A05109256051092620510926E051092FA
:105AA0007A05109286051092EB041092F70410927A
:105AB000030510920F0510921B05109227051092F6
:105AC000330510923F0510924B0510925705109226
:105AD000630510926F0510927B0510928705109256
