:100000000C94940B0C94760E0C94BC0B0C94BC0BBF
:100010000C94BC0B0C94BC0B0C94BC0B0C94410FBB
:100020000C94BC0B0C94BC0B0C94BC0B0C94BC0B34
:100030000C94BC0B0C94BC0B0C94BC0B0C94BC0B24
:100040000C94EF1D0C94BC0B0C94FB1C0C94D51C55
:100050000C94BC0B0C94BC0B0C94BC0B0C94BC0B04
:100060000C94480D0C94BC0B43616C696272617412
:10007000696F6E0043616C6962726174696F6E00D2
:1000800000000000000000003078783030003000C0
:100090006C6C6C00000000006C6CFE6CFE6C6C0004
:1000A000307CC0780CF8300000C6CC183066C60032
:1000B000386C3876DCCC76006060C0000000000050
:1000C0001830606060301800603018181830600018
:1000D00000663CFF3C660000003030FC3030000021
:1000E0000000000000703060000000FC0000000014
:1000F0000000000000303000060C183060C08000A6
:1001000078CCDCFCECCC780030F030303030FC00C7
:1001100078CC0C3860CCFC0078CC0C380CCC780057
:100120001C3C6CCCFE0C0C00FCC0F80C0CCC780019
:100130003860C0F8CCCC7800FCCC0C183060600083
:1001400078CCCC78CCCC780078CCCC7C0C187000F7
:10015000000030300030300000003030007030607F
:10016000183060C0603018000000FC00FC00000087
:100170006030180C1830600078CC0C18300030005B
:100180007CC6DEDEDEC078003078CCCCFCCCCC0087
:10019000FC66667C6666FC003C66C0C0C0663C00CF
:1001A000FC6C6666666CFC00FE6268786862FE0045
:1001B000FE6268786860F0003C66C0C0CE663E00B3
:1001C000CCCCCCFCCCCCCC0078303030303078008B
:1001D0001E0C0C0CCCCC7800E6666C786C66E600E5
:1001E000F06060606266FE00C6EEFED6C6C6C6005F
:1001F000C6E6F6DECEC6C600386CC6C6C66C38008B
:10020000FC66667C6060F00078CCCCCCDC781C00AE
:10021000FC66667C786CE60078CCE0381CCC780014
:10022000FCB4303030307800CCCCCCCCCCCCFC0022
:10023000CCCCCCCCCC783000C6C6C6D6FEEEC60040
:10024000C6C66C386CC6C600CCCCCC7830307800D2
:10025000FECC983062C6FE00786060606060780016
:10026000C06030180C0602007818181818187800AA
:1002700010386CC60000000000000000000000FF05
:1002800030301800000000000000780C7CCC7600B4
:10029000E0607C666666BC00000078CCC0CC78006C
:1002A0001C0C0C7CCCCC7600000078CCFCC0780018
:1002B000386C60F06060F000000076CCCC7C0CF80C
:1002C000E0606C766666E6003000703030307800B2
:1002D000180078181818D870E060666C786CE60022
:1002E00070303030303078000000ECFED6C6C600EA
:1002F0000000F8CCCCCCCC00000078CCCCCC780082
:100300000000DC66667C60F0000076CCCC7C0C1EC5
:100310000000D86C6C60F00000007CC0780CF80025
:1003200010307C30303418000000CCCCCCCC7600BF
:100330000000CCCCCC7830000000C6C6D6FE6C00E5
:100340000000C66C386CC6000000CCCCCC7C0CF82D
:100350000000FC983064FC001C3030E030301C00A1
:100360001818180018181800E030301C3030E00061
:1003700076DC00000000000010386CC6C6C6FE0027
:100380004128D441CF8300833041ED84640312813E
:1003900041E88385017941CB85392C00340241F74E
:1003A000812041EA82000041C0812641C181114182
:1003B000C582353E41C781BE41B182001B41F281F9
:1003C000084126810141E08F1F1A180A0F06458750
:1003D000320A070207050041E18F002527051009B1
:1003E0003A784D05180D383A1F41B6840A82270025
:1003F00041B78107413A8155413681E8412A82005F
:100400000082013F412B8200008200EF4111FCFC81
:100410004129D4FFFF66666666666666666666663E
:10042000666463626462606F6D6C73787B6B777F08
:1004300073818A6B767D7477796C6A6864626164B3
:100440006363666666666666666666666666666652
:1004500066666666666666666666646362788289F4
:100460006E7F8B617785576E7C7E8D97FFFFFF597E
:100470006D7B5A717F6379876E7F89767D82646335
:10048000636666666666666666666666666666660F
:10049000666666666666646363747A7E5A748468A8
:1004A0007F8D687F8D687E8CB7C1C86078876980D2
:1004B0008E677E8C5D778774757664646466666625
:1004C00066666666666666666666666666666666CC
:1004D00066666565656666666359550000000000DE
:1004E000000000000000000000000000000000000C
:1004F0006F645F63646466666666666666666666A3
:10050000666666666666666666666666666666668B
:1005100066585C5FF2C2A9D4A68E816557544239F1
:1005200046372F5A473D8E6F60E6B49ACAA6935C51
:1005300060626A6A6A666666666666666666666659
:1005400066666666666666666666666666585D5F69
:10055000E0B49DE0B097D9A88FDBA990EEBCA2E0F3
:10056000AF96D2A189E2B198C9A89755595B3C3B97
:100570003B6A6A6A6666666666666666666666663A
:10058000666666666666666666585D5FE0B49DDEB2
:10059000AD93C0ABA4D7B9AADAAA91E4BCA8B3A71B
:1005A000A5E1AE93C7A593676B6D1717176C6C6CBD
:1005B00066666666666666666666666666666666DB
:1005C0006666666666585D60DEB19ADDAD94C7A763
:1005D00098D6AE99DFAF95E3B79FBA9D92E1AF95FC
:1005E000C7A5936165671C1C1C737373656565669D
:1005F000666666666666666666666666666666669B
:1006000066585D5FE2B49DDCAD94D7A891B9928045
:10061000BB9685B89280DCAC93DEAE95C6A4925FA3
:1006200063653838385C5C5C676767666666666613
:1006300066666666666666666666666666575C5E7B
:10064000EEC0A9DBAD94D6A8925E464368545465CB
:100650004B47DCAD95DFAF96C6A4925C60625B5BF6
:100660005B3436386A6A6A666666666666666666B9
:10067000666666666666666666575C5EF5C4ABE58A
:10068000B297D7A68FA98D84C6B2AAA78B80DDACFE
:1006900093E8B499CCA491595D5F7A7B7B6C594502
:1006A00066686A65656566666666666666666666E7
:1006B00066666666665E6061A3958E8F837EA1899D
:1006C0007F9B7F738C6C5E9C7F73A28B81938781F1
:1006D000968C8763696D7C786B69553F696B6D6536
:1006E00065656666666666666666666666666565AE
:1006F000656F6D6C4E5B62374C583349564962707A
:100700001D2B34445D6A364B56384C5726363D28EF
:1007100038405662696667696767676565656666DA
:100720006666666666666665656568686857626877
:1007300029373E4D5D674A5B655367731B2327521C
:1007400066723E4E57626F776A6E70656C706B6949
:10075000696565656565656666666666666666663C
:100760006666666263638A8481253842676D70536A
:10077000636B495B655165712E3A41516571485A09
:10078000655C6A726765636665656565656666660C
:100790006666666666666666666666666666665E01
:1007A0006061BFA19187817E6A68675567715166F4
:1007B0007250657146565F5368754D626D5D6D751B
:1007C00067656466666666666666666666666666CB
:1007D00066666666666666666666666666665E60C7
:1007E000616263636D6D6D1B18190D0B0C1F1A1A76
:1007F0004E5C651C18171F1B1C514F4F68686866BC
:100800006666666666666666666666666666666688
:100810006666666666666666666666666666666678
:100820006B6B6B3333342621204B45427A7A7A281E
:10083000201D342F2F737474656565666666666661
:100840006666666666666666666666666666666648
:100850006666666666666666666666666464648D17
:100860008D8C221B194842426F7070352E2D342E0C
:100870002C79797A6565656666666666666666661B
:100880006666666666666666666666666666666608
:1008900066666666666565657272720303020000CD
:1008A000002C2C2C7575761212110000001A1A19E2
:1008B0006D6D6D66666666666666666666666666C3
:1008C00066666666666666666666666666666666C8
:1008D00066666666666666666666666666666666B8
:1008E00066666666666666666666666666666666A8
:1008F0006666666666666666666666666666666698
:100900006666666666666666666666666666666687
:100910006666666666666666666666666666666677
:100920006666666666666666646464606164626282
:10093000636666666666666262625B5B5D66666685
:100940006666666666666666666666666666666647
:100950006666666666666666666666666666666637
:10096000666464646468709A8D6E797B805F5F6191
:10097000626262828282C2C5BC66666666666666BE
:100980006666666666666666666666666666666607
:1009900066666666666666666666646464595C6317
:1009A000E1CB93BBAD88EFCE7875767A58595B94DE
:1009B00099A0FFD449666666666666666666666680
:1009C00066666666666666666666636363676767CD
:1009D0006565656666666A6A6B9B9995F4D9925AF5
:1009E0005F6A77797FF0CE76767A846A7080E6CE19
:1009F000816666666666666666666666666666667C
:100A00006464646161618989895C5C5C7A7A7A5C1E
:100A10005C5C8284874334128585836161625E5F9A
:100A2000617B7A77EACA79F0D081B6B0A066666653
:100A30006666666666666666666464647474748810
:100A400088882B2B2B1C1C1C0A0A0A000000A0A063
:100A5000A005060967676865656566666660616228
:100A600065686F676A715F6063666666666666661C
:100A700066666565656464647878783E3E3E4E4E91
:100A80004E4E4E4E38383815151500000005050538
:100A90005D5D5D76767664646466666664646464EF
:100AA00064646565656666666666666666666363F3
:100AB000638888883232327272727575757171719D
:100AC0005050502828280909090B0B0B000000750D
:100AD000757565656566666666666666666666669B
:100AE00066666666666666666666676767525252DF
:100AF0006A6A6A8181819797978A8A8A5C5C5C308E
:100B000030300A0A0A0B0B0B05050543434371718C
:100B1000716565656666666666666666666666666D
:100B2000666666666666686868565656363636661F
:100B300066668484847C7C7C5A5A5A2B2B2B08084A
:100B4000080B0B0B0808081F1F1F71717165656585
:100B50006666666666666666666666666666666635
:100B600066666969694242422F2F2F555555656562
:100B7000656161614949491616160E0E0E0B0B0B85
:100B80000707071D1D1D72727265656566666666DC
:100B900066666666666666666666666666666666F5
:100BA000666363631B1B1B3D3D3D4A4A4A4242420A
:100BB0002222221717171212120A0A0A0C0C0C4FC3
:100BC0004F4F6E6E6E6565656666666666666666DE
:100BD000666666666666666666666363638E8E8E46
:100BE0001B1B1B2C2C2C3232322727272222221CA3
:100BF0001C1C1212120E0E0E00000078787863632F
:100C00006366666666666666666666666666666687
:100C10006666666666666464646F6F6F6B6B6B1F97
:100C20001F1F2E2E2E29292922222219191923238A
:100C3000231616164848487979797272726464648A
:100C40006666666666666666666666666666666545
:100C50006565676767646464696969545454171704
:100C6000170F0F0F0C0C0C1212120F0F0F3C3C3C05
:100C700070707062626279797964646466666666CF
:100C80006666666666666666666666666666646408
:100C9000646262626464646767676E6E6E55555520
:100CA0004646464E4E4E6C6C6C6868686565656677
:100CB00066666464646666666666666666666666DA
:100CC000666666666666666565656E6E6E8A8A8A43
:100CD0007575757777776A6A6A6868686969696837
:100CE0006868666666898989636363656565666643
:100CF0006666666666666666666666666666666694
:100D00006666666666666565656262626363636E93
:100D10006E6E65656565656566666666666665656B
:100D20006562626265656566666666666666666673
:100D30006666666666666666666666666666666653
:100D40006666666666666666666666656565656548
:100D50006566666666666666666666666666666634
:100D60006666666666666666666666666666666623
:100D7000666666666600000000240027002A000000
:100D8000000000250028002B0004040404040404CF
:100D9000040202020202020303030303030102042A
:100DA00008102040800102040810200102040810ED
:100DB00020000000080002010000030407000000FA
:100DC000000000000091714BDFC094CDAC81C3A442
:100DD00078CCAC85ECD2B1E4C8A3E9C9A3DDBD965B
:100DE000E4C8A3F5D9B4E0C099E0C09AD4B891EBB7
:100DF000D1AED0B089C8A87FC9A980D8B88FC9A8FA
:100E00007FDBBB92B4926CCBA87ED7B68BAD8B5EEA
:100E1000CAA77DC5A47BA7845A9271488B6A3FA359
:100E2000825797764D967D5EC09F76D4B187BC9AE7
:100E30006DD3B287DCBB90BF9E71BE9C6FC6A57A96
:100E4000AB8A5FB3936ACAAA84C4A47DD4B99BDF7A
:100E5000CDB5D3C0A2C2AB82D2B68FD5B992DFC80E
:100E6000A8BDA57FCDAF8BD2B895C0A27CCBB495E1
:100E7000C4A380C19F72A9875AC3A478CBAA81C793
:100E8000A67DC2A27CCEAE87B19065917754A7862D
:100E90005DA3835D7456308B6E46B6956CB5956FC9
:100EA000A6845EA07F56846139B89A74583E23BDEB
:100EB0009C71B99970C7A77EAE8C5FC1A17AA380DF
:100EC00056D0B089D9B791B59469B29877BD9D765F
:100ED0007A593078552BE3C19BA18055B7966DB2F6
:100EE0009168916E44C7A78054391CB59268E3C5D8
:100EF0009FEAD0ADBC996FD8BA94C9A87DB390666B
:100F0000BF9F78D4B38AB08F66A08363A5845B97B4
:100F1000764DD5B58CBC9B7097764BB18E66987725
:100F20004EC6A67F563B1EC4A47DDEBE97DBBE9C8C
:100F3000B8976EEBD5BD8F734ECCAB80AF8C62D0C3
:100F4000B087C7AA88C2A279775B36907047DDC99F
:100F5000B0B19067A4835AAC895FA7865DC8AE899B
:100F6000523719BD9C73C3A277E7C7A0A9885FD782
:100F7000BB96AA8A63A48B6CC7A780BFA580CFB29B
:100F80008ACAA980BA9A73896C4AD7B790CFAE85BE
:100F9000AC8C65A8855B9B7B52BD9F79583F21AE89
:100FA0008D64CAA980D7B790A18057D0B691A2828C
:100FB00059BEA27D9A7D55D0B28C9D7A50B797705C
:100FC000B5946BC3A37CBEA684A4845DB08F66B6C3
:100FD000956C8D6F49AB8D67604729B39164DCBB1D
:100FE00092EBCDA78B6A3FDBBD99AD8D66D6BA95E6
:100FF000B18C609A805FE0C29CA38056BA9A73B2AB
:10100000926BC7A77E785C37B4946EB9986D7D5F9C
:1010100039BA9C7661482AB49167B19065F1D5AE32
:10102000846338D5B79386643EE3C7A2AD885BB9C5
:101030009972C2A887E0C39B926F45B09069B39341
:101040006CCBAB84977A58AE8D64846640AD8D6668
:10105000695032A9875AAF8C62D7B7909E7D54D21F
:10106000BEA37D5D37DBBD97997447D2BDA2DBC6B9
:10107000A9A98C6AE0C29CA27F55BC9D7EAC8C6302
:10108000C9A9827F6544856741C7AF95584122AEA3
:101090008C5FDAB990E6C6A0A98B67D7BE958B6A3C
:1010A00041DBBD97C29D71D0B389D9BB95C2A47EE7
:1010B0005E3C16E5C9A4B4936AB5956EA4845BCA78
:1010C000AD85684D2FBA9C76563F20AF8E63CDAB71
:1010D00085DDC19CB29168E3CAA288673ECBAB8430
:1010E0009C774BDBBD97CFAE83CEB189936E42C068
:1010F000A683E6CAA3BB9A71CEAC86AD8D66CCAC96
:10110000859C8364523A20BD9D74C6A57AEBD1B00C
:10111000BF9C72D5B992AC8C63CAAA818B683EDF42
:10112000C39EC2A178C8AB83A27D51CEB08A886B22
:1011300043D7BB94B7966DC8A77EAD8D66D9BC94D6
:1011400039250DC8A680DBBB94D0B087AC8A5DC4BE
:10115000A6809E7E58A4845B7B5A31D7B993D2B8BF
:1011600095D0B089C5A376DABC969E7C4FA68A65D9
:10117000F9DBB5CEAD84BB9973CBB293B8A07EB981
:10118000986DE2C49EC7A77ECFAE85D6C3A5A789BA
:101190006595754C6C4E28C5AB86A48358BD9F7968
:1011A000A9885DB89C77A78659D2B68FB19879E2A5
:1011B000C69FB5946BAD8D669D805EBD9C6FC1A1D1
:1011C00078CFAE83A8875CB7946AF9E9C8FCE7CA10
:1011D000FEEFD8FDF1D7FFF4DAFFFAE0FFF2D8FF17
:1011E000F0D7FFF3D9FFF2DBFFF8E2FFEDD5D0B483
:1011F0008FD6BA95B89A76C5A375AD8B5ED8B98BE4
:10120000B5926AAF8E65C1A075C6A175C2A176AE52
:101210008E67B3926798774EA78256A984578D6CD4
:1012200043AD8A60A6865FB59469C4A275BA976D0E
:10123000B19168BA9970B9986DD2B58DC7A57FCFB5
:10124000AE83D3B38CCBAB84E3C9A6E8CEABD4B426
:101250008DE7C9A3F2D4B0E8CAA4E6CAA3DDBD965F
:10126000EACEA9E8CEADD8B891CFAF86C9A980C6DD
:10127000A57CD5B48B3F3D3B413F3E3A38372726CE
:10128000263D3D3D3A3A3A3C3C3C3F403F2A2827E8
:101290003937364240404746444644422D2B2A2E99
:1012A0002B2A42403F42403F3F3B392523223D3BD2
:1012B0003A353332323130312F2E2B29273737361A
:1012C0003B3A393D3D3B34333325242337353436DF
:1012D000353431302F31302F1E1D1C262424353358
:1012E0003232312F373432201F1D31302F1311117C
:1012F0001C1A1922201E1514131D1B1B1C1B1B203E
:1013000020202222221716151A191815141421202C
:10131000202C2B2B2B2A2A2B292724212024232263
:101320003737352D2D2B28272629262533313135E2
:1013300033322A27263833323132313F413F3D3E66
:101340003C282626393837302E2E333232403E3F65
:101350003837363733303632302F2E2C3B3A383848
:1013600038353735331D1C1B2927272C2B2B1916F5
:101370001624212023232232333130312F21202003
:101380002423232221221F1F1E1D1C1C1D1C1C2C5C
:1013900028262622201B1A192C2D2B30302F2827E7
:1013A00025393634302E2D2322223434343938393D
:1013B0003636362E2D2C3C3B3A3D3C3B302E2D31E3
:1013C00030303F3D3D434141484746201F1E3C3E93
:1013D0003E4243423433312523213D3A3847464685
:1013E0004443442D2B2B4646484040423A393A2C40
:1013F0002B2B3E3C3D434141403E3D292828444360
:10140000423F3E3D3D3C3B2524234748464445441E
:10141000444644302E2C413F3E1B1A191A19171FFF
:101420001D1D1B1B1A1A19192524231B1A19201EEE
:101430001E1F1E1D1B1A191514131514131615142F
:101440001A19181B19181716152625242524231FC9
:101450001E1E2322223F3F413B3938484645454323
:101460004143413F2C2A2A3E3D3C413F3F353333E7
:101470002827262C2B2A211F1E33312F3A3735449B
:10148000403D1B1A194444464A4A4B44444644448E
:1014900046313132211F1F38373637363433323236
:1014A0002322223E3D3E414040312F303C3B3A43D7
:1014B0004241222120403E3D403E3E4A47462120B7
:1014C0001F47484A3E3E3F3C3C3E373739181819C3
:1014D0001D1D1E151516191717332F2C312D2A21F6
:1014E0001E1D1817171E1D1D232221201E1E3332FC
:1014F00033232324232324201F2012111016151513
:101500001A1A1A1615161312134547484142443E3B
:101510003F412B28263B36333E3835342E2B302F97
:101520002E403F3D3F3D3D2423234041423E3E402F
:101530004445463D3E3F2726253936333F3A37243A
:1015400022203D3E401717172525263030311B1924
:101550001734302D322E2C2B2725262525363533D2
:101560003735341B1A1A3435362C2D2E38383A2993
:101570002A2B211F1E2C2B2A33312F24211F171712
:10158000182625241B1A18161412302F2D2B292843
:101590003432301E1D1D393839343334343334205D
:1015A0002020211F1D1F1C1A19181731302F33310D
:1015B000303332301716152E2E2D3533332C2B2B7E
:1015C00044413E312F2D3A3837413F3E3E3C3B2887
:1015D00027273E3E3F3E3D3F4241432B2A2B3F3A89
:1015E000363F3935201E1D4645444E4C4B51504F19
:1015F0002A2928484746454443201E1E201F1E1AFC
:1016000019181818171C1C1B222120171615201F2B
:101610001F1E1D1D1B1A1A1615151A18171E1C1A27
:101620001716151D1C1C1E1C1D292828201F1E1ED8
:101630001D1D28272623201F3A37353C3937403CCB
:101640003A423F3C201F1E3633302D2A282E2C2BA9
:10165000413E3B44413E2523224A4A474A4A4644AA
:10166000454141413F1F1F1F2C2B2A2825222B2893
:10167000261E1C1C44423F42403E464342423F3DE0
:10168000201F1E3D3B393A3735353331413E3C470B
:1016900043402524224A4B48494A4846474443454B
:1016A0004323222044413F46423E3B373515151423
:1016B000232120211F1E2725251D1C1B12100F244E
:1016C000211F221F1D1413131E1E1E1C1C1B121172
:1016D0001122201F1816141C1C1B2426240E0C0C6F
:1016E0001614131C1B1923211F43413F4845433C3B
:1016F000393721201F3F3F3D3838373D3D3D383792
:10170000372C2A29444342434140413F3E41403E19
:101710002D2B2A2E2C2B3F3C3B3835333B383524A0
:101720002221403E3B007C3611241FBECFEFD8E083
:10173000DEBFCDBF12E0A0E0B1E0E0EAF0E702C01A
:1017400005900D92AA33B107D9F724E0AAE3B2E0DD
:1017500001C01D92AE3DB207E1F71BE0C4E9DBE03A
:1017600004C02197FE010E943137C339D107C9F760
:101770000E94612E0C944E380C94000085ED8093ED
:10178000BC008091BC0084FDFCCF1092050308953D
:101790004091B002262F30E0240F311D2132310557
:1017A000DCF4209105032430C9F4FC0180E090E0D2
:1017B000861758F43091B0022191DC01A257BD4F39
:1017C000A30FB11D2C930196F3CF8091B002680F47
:1017D0006093B00280E0089581E0089582E008956A
:1017E0000895E0918D0280918C02E81730F4F0E0CA
:1017F000E459FD4F808190E008958FEF9FEF0895A9
:1018000090918D0280918C02981750F4E92FF0E0AE
:10181000E459FD4F208130E09F5F90938D0202C01C
:101820002FEF3FEFC901089580918C0290E0209145
:101830008D02821B91090895CF92DF92EF92FF9261
:101840000F931F93CF93DF937C01262F972F8A014D
:1018500080910603882391F0C62FD72F6E01C40E06
:10186000D51ECC15DD0571F06991D701ED91FC9184
:101870000190F081E02DC7010995F3CF642F822FED
:101880000E94C80BC801DF91CF911F910F91FF906B
:10189000EF90DF90CF900895CF93DF931F92CDB755
:1018A000DEB76983209106032223D1F0209129031A
:1018B000203240F021E030E0FC013383228380E0DD
:1018C00090E015C080910703E82FF0E0E85FFC4F3F
:1018D000998190838F5F809307038093290305C0CC
:1018E00061E0CE0101960E94C80B81E090E00F906C
:1018F000DF91CF910895EF92FF920F931F93CF93B3
:10190000DF93EC018E819F81681779075CF58885EC
:1019100099854817590734F57901E881F9810680DE
:10192000F781E02D8A019B01CE010995E881F981BB
:101930000084F185E02DCE010995E881F9810284CA
:10194000F385E02DB701CE010995E881F981048482
:10195000F585E02DCE01DF91CF911F910F91FF9082
:10196000EF900994DF91CF911F910F91FF90EF902D
:1019700008958F929F92AF92BF92EF92FF920F9332
:101980001F93CF93DF93EC017B01E881F9810885F8
:101990001985015011092E813F812150310906809E
:1019A000F781E02D40E050E060E070E00995E881CB
:1019B000F9810084F185E02DCE010995AE81BF81CA
:1019C000288539850E940E374B015C0183E0B6946F
:1019D000A794979487948A95D1F7E881F981811427
:1019E0009104A104B10409F444C00284F385E02DFC
:1019F000B701CE010995E881F9810284F385E02DD4
:101A0000B701CE010995E881F9810284F385E02DC3
:101A1000B701CE010995E881F9810284F385E02DB3
:101A2000B701CE010995E881F9810284F385E02DA3
:101A3000B701CE010995E881F9810284F385E02D93
:101A4000B701CE010995E881F9810284F385E02D83
:101A5000B701CE010995E881F9810284F385E02D73
:101A6000B701CE01099581E0881A9108A108B10853
:101A7000B4CF0484F585E02DCE01DF91CF911F9185
:101A80000F91FF90EF90BF90AF909F908F9009942F
:101A90001F920F920FB60F9211242F933F934F93E3
:101AA0005F936F937F938F939F93AF93BF93EF93C6
:101AB000FF938091B900887F803609F49CC068F557
:101AC000883209F45BC090F4803109F454C038F4D2
:101AD000882309F4F6C0883009F44DC0F6C0883177
:101AE00009F44CC0803209F45DC0EFC0803409F4C1
:101AF00068C048F4803309F455C0883309F0E5C064
:101B000080930303D8C0803509F44FC0883509F4A9
:101B10005DC0883409F0D9C0D6C0883909F4C7C07F
:101B2000A8F4883709F467C038F4883609F463C02C
:101B3000803709F460C0C9C0883809F4B8C080395A
:101B400009F45FC0803809F0C0C05BC0803B09F475
:101B500086C038F4803A09F466C0883A09F47FC038
:101B6000B4C0803C09F4A7C0883C09F4A4C0883BF9
:101B700009F48AC0AAC08091E00210C090910203CB
:101B800080910103981770F5E091020381E08E0FB8
:101B900080930203F0E0EF51FD4F80818093BB0002
:101BA00085EC86C0809303038EC0E091020381E040
:101BB0008E0F809302038091BB00F0E0EF51FD4F48
:101BC000808390910203809101036EC0E091020333
:101BD00081E08E0F809302038091BB00F0E0EF5113
:101BE000FD4F80838091040381116DC081E080935B
:101BF000DF0284EA61C083E0809305031092D4027F
:101C0000CFCF8091D402803208F051C0E091D4024D
:101C100081E08E0F8093D4028091BB00F0E0EC5401
:101C2000FD4F8083BDCF85EC8093BC0010920503EF
:101C30008091D402803230F4E091D402F0E0EC5490
:101C4000FD4F10826091D40270E0E091B202F091F9
:101C5000B30284EB92E009951092D40236C084E07E
:101C6000809305031092B1021092B002E091AE028F
:101C7000F091AF0209958091B002811105C081E019
:101C80008093B00210928E02E091B10281E08E0F3B
:101C90008093B102F0E0E257FD4F80818093BB005A
:101CA0009091B1028091B002981708F479CF85E83D
:101CB0008093BC000AC085EC8093BC0010920503A1
:101CC00004C0109203030E94BE0BFF91EF91BF91DD
:101CD000AF919F918F917F916F915F914F913F91C4
:101CE0002F910F900FBE0F901F9018951F920F927B
:101CF0000FB60F9211242F933F934F935F936F93DF
:101D00007F938F939F93AF93BF938091680290913D
:101D10006902A0916A02B0916B02409162025091F7
:101D20006302609164027091650284179507A607AB
:101D3000B70750F0409162025091630260916402D3
:101D4000709165029C010BC0409162025091630248
:101D500060916402709165029C0121503109241B3D
:101D6000350B30936102209360028093620290935E
:101D70006302A0936402B093650280916002909127
:101D80006102893C910530F010925F0210925E0270
:101D900010925D028091600290916102029708F4B6
:101DA00061C08091600290916102089708F05AC06A
:101DB00080915D02811110925D028091600290918C
:101DC00061020597C0F080916002909161020897CE
:101DD00090F440915E0250915F0220916602309132
:101DE000670281E090E002C0880F991F4A95E2F7F0
:101DF000822B932B32C080916002909161020297F6
:101E000030F08091600290916102059798F0809186
:101E10005E0290915F02409718F481E080935D022A
:101E200080915E0290915F02019690935F02809391
:101E30005E0218C040915E0250915F0220916602DE
:101E40003091670281E090E002C0880F991F4A95A7
:101E5000E2F7809590958223932390936702809375
:101E60006602D5CFBF91AF919F918F917F916F9176
:101E70005F914F913F912F910F900FBE0F901F9048
:101E800018951F920F920FB60F9211240F931F9364
:101E90002F933F934F935F936F937F938F939F9372
:101EA000AF93BF9380915C028F5F80935C028A3016
:101EB00009F0A8C08091680290916902A0916A021D
:101EC000B0916B02AC01BD014F5F5F4F6F4F7F4F11
:101ED000409368025093690260936A0270936B02A8
:101EE00020915B02222309F483C020915A0222230D
:101EF000F1F080915802909159020A9771F4109272
:101F00005A021092540210925502109256021092E8
:101F100057021092590210925802809158029091E3
:101F200059020196909359028093580248C000913B
:101F300054021091550220915602309157024017D9
:101F400051076207730721F420915302211153C0F6
:101F5000409154025091550260915602709157027F
:101F6000452B462B472B59F52091510230915202B7
:101F700040914F025091500202C0369527954A95E4
:101F8000E2F720FF04C00796A11DB11D03C004960F
:101F9000A11DB11D8093540290935502A093560247
:101FA000B093570281E080935302539A80914F027D
:101FB0009091500201969093500280934F0280912D
:101FC0004F0290915002419799F410925302539806
:101FD0001092500210924F0210925B0210925A021D
:101FE000109254021092550210925602109257020B
:101FF00010925C0207C010925302539821E0209384
:102000005A02A6CFBF91AF919F918F917F916F910F
:102010005F914F913F912F911F910F910F900FBEA4
:102020000F901F901895CF93DF93EC0184E691E019
:1020300099838883FB01828193819B838A83848136
:1020400095819D838C83868197819F838E838085F4
:10205000918599878887828593859B878A878485E0
:1020600095859D878C87868597859F878E878089B4
:102070009189998B888B828993899B8B8A8B8489A0
:1020800095899D8B8C8B868997899F8B8E8B8CE114
:102090007896DE01589601900D928A95E1F7FB0142
:1020A00084A98CAB85A98DAB86A997A99FAB8EAB74
:1020B00080AD91AD99AF88AF82AD93AD9BAF8AAF44
:1020C00084AD95AD9DAF8CAF86AD97AD9FAF8EAF14
:1020D0008CE691E099838883E05CFF4F8081C05C4F
:1020E000DF4F8883DF91CF9108955F9A08959CB563
:1020F000282F23709C7F922B9CBD2DB582FB9927A6
:1021000090F9822F8E7F892B8DBD08958EBD0000A2
:102110000DB407FEFDCF8EB50895862F5F982B9ADC
:102120002D989CB59F7B9CBD2D9A9CB590649CBDC1
:102130000E9486105F9A0895CF93DF931F92CDB7C8
:10214000DEB7872F5F982B9A2D989CB59F7B9CBDFF
:102150002D9A9CB590649CBD69830E9486102B9A31
:102160002D989CB59F7B9CBD2D9A9CB590649CBD81
:102170006981862F0E9486105F9A0F90DF91CF9120
:102180000895862F5F982B982D989CB59F7B9CBDBA
:102190002D9A9CB590649CBD0E9486105F9A08950C
:1021A0006CE20E94C1105F980895AF92BF92CF92E7
:1021B000DF92EF92FF920F931F93CF93DF93EC0187
:1021C0005B017A0169016AE20E94C110B501CE018A
:1021D0000E949C10B601CE010E949C106BE2CE01C1
:1021E0000E94C110B701CE010E949C10B801CE011F
:1021F000DF91CF911F910F91FF90EF90DF90CF90E3
:10220000BF90AF900C949C100F931F93CF93DF93CC
:10221000EC016930710519F06A35710571F48AE5D0
:1022200090E09D838C8380EF90E09F838E8380E499
:1022300091E09987888718E434C06231710519F0FC
:10224000643B710571F484EB90E09D838C8380E4A2
:1022500091E09F838E8380EF90E09987888718E3D1
:1022600020C06B31710521F07E7F6E30710571F4F5
:102270008EE091E09D838C8380EF90E09F838E833E
:1022800080E491E09987888718E80BC01D821C8242
:1022900080E491E09F838E8380EF90E09987888728
:1022A00018EE66E3CE010E94C110612FCE010E949C
:1022B0008D10E881F98108851985015011092E8159
:1022C0003F81215031090680F781E02D40E050E048
:1022D00060E070E0CE010995DF91CF911F910F91E1
:1022E0000895CF93DF931F92CDB7DEB7872F2B9A38
:1022F0002D989CB59F7B9CBD2D9A9CB590649CBDF0
:1023000069830E9486102B9A2D989CB59F7B9CBD5B
:102310002D9A9CB590649CBD6981862F0F90DF91AA
:10232000CF910C9486104F925F926F927F928F9212
:102330009F92AF92BF92CF92DF92EF92FF920F9354
:102340001F93CF93DF93EC01E888F9888C899D89EE
:102350000A891B89E816F90609F474C0FD8AEC8A1B
:10236000288D398D4A8D5B8DD7010E9415384B0120
:102370005C012C8D3D8D4E8D5F8DD8010E941538EE
:10238000AB01BC01480D591D6A1D7B1D88A199A197
:10239000AAA1BBA15A016B01A80EB91ECA1EDB1E61
:1023A000C601B50128A939A94AA95BA90E941D380F
:1023B00049015A01DA01C9012C813D812A353105D3
:1023C00009F118F4232B41F03BC0243B310521F0E7
:1023D0002E303140B9F034C02E813F81A901440F25
:1023E000551F60E070E084169506A606B70628F52E
:1023F000A90160E070E084169506A606B70600F114
:10240000C90115C0488559852A01440C551C612C09
:10241000712C84149504A604B70478F42A01612C65
:10242000712C84149504A604B70450F0CA010197D6
:10243000092E000CAA0BBB0B03C080E090E0DC016E
:102440009B878A878E899F890817190709F45FC0BF
:102450001F8B0E8B2CA13DA14EA15FA1D7010E9425
:1024600015384B015C0128A539A54AA55BA5D80103
:102470000E941538AB01BC01480D591D6A1D7B1D1A
:102480008CA59DA5AEA5BFA55A016B01A80EB91ECE
:10249000CA1EDB1EC601B50128A939A94AA95BA934
:1024A0000E941D38DA01C9016C817D816A35710590
:1024B00071F018F4672B41F028C0643B710521F0DE
:1024C0006E30714021F021C06885798502C06E812F
:1024D0007F814B01880C991CA12CB12C2815390542
:1024E0004A055B0578F44B01A12CB12C2815390560
:1024F0004A055B0550F0CB010197092E000CAA0B91
:10250000BB0B03C080E090E0DC019D878C87DF91EE
:10251000CF911F910F91FF90EF90DF90CF90BF90E0
:10252000AF909F908F907F906F905F904F900895A5
:10253000CF92EF92FF920F931F93CF93DF93EC0113
:10254000262F6A3081F48EAD9FAD9BAF8AAF2CA948
:102550002F778CAD9DAD38E0239F800D911D112408
:102560009DAF8CAF47C0862F8B7F893009F442C066
:102570006AAD7BAD203219F461157105D9F1E8819E
:10258000F981E8ACF9AC0EA91FA94CAD5DAD00888E
:10259000F189E02DCCA8CE010995BC019BAF8AAF93
:1025A0008DA9882339F12CA92F77822F90E048EF4D
:1025B0004203900111244E815F81420F531F461741
:1025C0005707C4F44EAD5FAD5BAF4AAF43E0880F31
:1025D000991F4A95E1F74CAD5DAD840F951F9DAFF6
:1025E0008CAF48855985240F351F2817390714F4F7
:1025F0001DAE1CAE81E090E0DF91CF911F910F9155
:10260000FF90EF90CF900895CF92EF92FF920F93AB
:102610001F93DC01ED91FC910684F785E02D09956F
:102620001F910F91FF90EF90CF9008952F923F92BE
:102630004F925F926F927F928F929F92AF92BF92D2
:10264000CF92DF92EF92FF920F931F93CF93DF937E
:1026500000D01F92CDB7DEB79B838A83480188E004
:10266000280290011124D901A058B0405D01BC2D71
:10267000BF77CB2EEA81FB8186819781F1E0FB1742
:1026800008F463C06B0128E0C20ED11C8C159D05B7
:102690000CF46EC0AA81BB811896ED91FC9119973C
:1026A0009A01285F3F4FE217F3070CF461C0AA813B
:1026B000BB81ED91FC9111978A01095F1F4F9B012E
:1026C000295F3F4F0680F781E02DCD010995AA8152
:1026D000BB81ED91FC9111970084F185E02DCD0136
:1026E00009958501085F1F4FF5014490FFEFAF1A70
:1026F000BF0A98E0692E712C20E8522EAA81BB8176
:10270000ED91FC911197852D84210284F385E02DB4
:10271000882319F0B401CD0103C0B7018A819B81E0
:1027200009955694B1E06B1A710841F7A016B106ED
:10273000D9F6AA81BB81ED91FC9111970484F585AE
:10274000E02DCD010995C60176C0B8E0CB9E800191
:1027500011243B01600E711E861597054CF0040F85
:10276000151FEA81FB81208531852017310714F47C
:10277000019661C0AA81BB81ED91FC911197015036
:1027800011090680F781E02D930121503109CD0117
:102790000995AA81BB81ED91FC9111970084F18587
:1027A000E02DCD0109952501B8E04B0E511CF50136
:1027B0002490FFEFAF1ABF0A3C2C08E010E080E83D
:1027C000D82E8D2D82212C2DA1F0AA81BB81ED91D7
:1027D000FC9111970284F385E02DB401CD0129838A
:1027E00009952981215089F7D6940150110949F79B
:1027F00010C0AA81BB81ED91FC9111970284F385F1
:10280000E02DB701CD01298309952981215089F750
:10281000EBCF3A943110D1CFA414B50409F0C7CF4F
:10282000AA81BB81ED91FC9111970484F585E02D7F
:10283000CD010995C3010F900F900F90DF91CF91BB
:102840001F910F91FF90EF90DF90CF90BF90AF90CE
:102850009F908F907F906F905F904F903F902F90C0
:102860000895CF92DF92EF92FF920F931F93CF9331
:10287000DF938C0161E088E00E94791D289861E077
:1028800089E00E94791D61E087E00E94791D61E086
:102890008DE00E94791D61E08BE00E94791D60E06F
:1028A0008CE00E94791D29985F9A61E086E00E9481
:1028B000791D5E9AF801E05CFF4F88E080838CB55B
:1028C000837F8CBD8CB58F7D8CBDCFB7F894809104
:1028D000D502811127C0E3E9FDE08491E7EAFDE03C
:1028E0009491E82FF0E0EE0FFF1FEB58F24FA59107
:1028F000B491EC91E92321F461E08AE00E942D1D5E
:1029000061E08AE00E94791D8CB580618CBD8CB538
:1029100080648CBD61E08DE00E94791D61E08BE0F8
:102920000E94791D8091D5028F5F8093D502CFBF21
:1029300085E00E9477105F9A289862E370E080E05B
:1029400090E00E94B51D289A68E770E080E090E072
:102950000E94B51DE0E8F3E07F018FEFE81AF80A66
:1029600064916F3FA1F1862F807C8038B1F0803C6C
:1029700039F1803411F0F701EFCFC62FCF736F011B
:10298000DC2FFFEFCF1ADF0ADD23B9F0F6016491E7
:10299000C8010E94C110D150F4CFC62FCF736F0170
:1029A000DC2FFFEFCF1ADF0ADD2339F0F601649147
:1029B000C8010E948D10D150F4CFEC0EF11CDBCF7A
:1029C0006F7370E080E090E00E94B51DD4CF60E0AE
:1029D00070E0C8010E94B90C88E00E94771061E0A5
:1029E00089E00E94791DEAEBFDE0E491E33019F102
:1029F00050F4E130D1F0E230E1F584B5806284BD7D
:102A00008FE788BD3AC0E73011F1E83049F1E43092
:102A100081F5809180008062809380008FE790E054
:102A200090938B0080938A0028C084B5806884BD11
:102A30008FE787BD22C080918000806880938000EE
:102A40008FE790E0909389008093880016C0809172
:102A5000B00080688093B0008FE78093B3000DC012
:102A60008091B00080628093B0008FE78093B400C3
:102A700004C060E089E00E942D1D6CE273E6C8018D
:102A8000DF91CF911F910F91FF90EF90DF90CF904A
:102A90000C94B90CBF92CF92DF92EF92FF920F93FA
:102AA0001F93CF93DF938C01FCB4DDB585E00E94CA
:102AB00077105E9888EB0E94861080E00E94861056
:102AC000C82F88EC0E94861080E00E9486105E9AD3
:102AD00080958F77CF77C80FC63008F45EC05E98B8
:102AE00080E90E94861080E00E948610C82E80E057
:102AF0000E94861080E90E94861080E00E94861065
:102B0000D82E80E00E948610E82ECD1044C080EDC3
:102B10000E94861080E00E948610D82E80E00E94DD
:102B2000861080ED0E94861080E00E948610B82EEC
:102B300080E00E948610DB102EC094E0C99E9001B8
:102B400011244E2D50E096E0559547959A95E1F762
:102B5000422B532B6FEF73E0FB01E41BF50BAF012E
:102B6000A9F0F4E0DF9EB0011124282F30E086E0C8
:102B7000359527958A95E1F7262B372B21153105B9
:102B800029F0F801518B408B338B228B8C2F90E0F6
:102B9000F801978786875E9A03C0F8011786168624
:102BA000FCBCDDBD81E0F80126853785232B09F4C7
:102BB00080E0DF91CF911F910F91FF90EF90DF9018
:102BC000CF90BF900895CF93DF93EC010E949311B3
:102BD0008C819D81009719F48C859D8516C08A355E
:102BE000910529F4288539858A859B8507C0843B12
:102BF000910549F4288539858C859D85A901481B57
:102C0000590BCA0102C08A859B85DF91CF91089537
:102C1000CF93DF93EC010E9493118C819D810097EB
:102C200019F48A859B8514C08A35910519F48C8521
:102C30009D850EC02E813F81843B910519F48A85C4
:102C40009B8502C08C859D85A901481B590BCA0133
:102C5000DF91CF9108954F925F926F927F928F9202
:102C60009F92AF92BF92CF92DF92EF92FF920F931B
:102C70001F93CF93DF935C01CB014A0138012701F9
:102C8000DC2CE9012991222399F0D501ED91FC91E9
:102C90000684F785E02DCD2C72018301A401BC01CF
:102CA000C5010995F501268137812817390754F7A1
:102CB000DF91CF911F910F91FF90EF90DF90CF9018
:102CC000BF90AF909F908F907F906F905F904F904C
:102CD00008958F929F92AF92BF92CF92DF92EF9220
:102CE000FF920F931F93CF93DF93EC01690158017B
:102CF0002E813F81621773071CF0B9016150710981
:102D000088859985481759071CF0AC014150510935
:102D1000FB01EC0DFD1DE217F3071CF06901C61A5B
:102D2000D70A9A012A0D3B1D281739071CF05C01B0
:102D3000A41AB50AE881F9818A010A0D1B1D015008
:102D400011099B012C0D3D1D215031090680F78191
:102D5000E02DCE010995E881F9810084F185E02D0F
:102D6000CE0109959501D6010E940E374B015C01F9
:102D7000E881F98181149104A104B10461F0028415
:102D8000F385E02DB701CE01099581E0881A9108FD
:102D9000A108B108EDCF0484F585E02DCE01DF91C7
:102DA000CF911F910F91FF90EF90DF90CF90BF9048
:102DB000AF909F908F9009942F923F924F925F9285
:102DC0006F927F928F929F92AF92BF92CF92DF923B
:102DD000EF92FF920F931F93CF93DF93CDB7DEB7A0
:102DE00028970FB6F894DEBF0FBECDBF4C016B0124
:102DF00058874F83590162177307A1F40417150709
:102E000044F4042715274027512758874F83042768
:102E100015272F813885021B130B0F5F1F4F21E0F1
:102E200030E015C04F81588540175107B9F4261777
:102E3000370734F4A626B726CA24DB24AC24BD24E5
:102E400095012C193D092F5F3F4F01E010E04F81A4
:102E50005885B601C4010E946916A0C0FC012681F4
:102E600037816217730724F06901F1E0CF1AD108A6
:102E7000F401808591854F8158854817590724F0C2
:102E8000FC013197F887EF83A216B30624F05901AD
:102E9000F1E0AF1AB108081719071CF08C010150B6
:102EA000110935016C187D0828012F813885421AD7
:102EB000530A77FE08C07194619471084FEF5FEF79
:102EC0005A83498304C081E090E09A83898357FE46
:102ED00008C0519441945108EFEFFFEFFC83EB835E
:102EE00004C021E030E03C832B83A301440F551F35
:102EF0005E834D831201220C331C97014F8158854C
:102F0000B601C4010E947B0C461457041CF58101D4
:102F100006191709CA14DB0409F440C017FD0CC0D8
:102F20008F819885EB81FC818E0F9F1F98878F83FF
:102F30002D813E81021B130B49815A81C40ED51E7F
:102F4000020D131D97014F815885B601C4010E94DF
:102F50007B0CE0CFAD80BE80A418B5088F8198852A
:102F600080179107D9F0B7FC06C089819A81C80EF5
:102F7000D91EA218B308EF81F8852B813C81E20F9E
:102F8000F31FF887EF834D815E81A40EB51E970174
:102F9000AF01B601C4010E947B0CE0CF28960FB6AA
:102FA000F894DEBF0FBECDBFDF91CF911F910F917F
:102FB000FF90EF90DF90CF90BF90AF909F908F9059
:102FC0007F906F905F904F903F902F9008952F9239
:102FD0003F924F925F926F927F928F929F92AF92A9
:102FE000BF92CF92DF92EF92FF920F931F93CF93F6
:102FF000DF9300D000D000D0CDB7DEB76C012B013D
:103000005A013901480122243324221A330A1E822C
:103010001D828D819E81681679060CF456C04D8103
:103020005E814A0D5B1D74018A019201260D371DD8
:103030003A832983C201861997099C838B83BC013B
:10304000C6010E94DC16A501ED81FE814E1B5F0BBF
:103050008A0129813A816B817C81C6010E94DC163C
:103060002D813E81240D351D3C832B83C201ED81D2
:10307000FE818E1B9F0B9A838983A501460D571DE8
:103080008A01BC01C6010E94DC16A5014619570938
:103090008A012B813C8169817A81C6010E94DC16FC
:1030A0008D819E8101962D813E81220E331E280E38
:1030B000391E37FC07C031E0631A7108261837083B
:1030C000261837089E838D83A4CF26960FB6F894D2
:1030D000DEBF0FBECDBFDF91CF911F910F91FF904B
:1030E000EF90DF90CF90BF90AF909F908F907F90A8
:1030F0006F905F904F903F902F9008952F923F9246
:103100004F925F926F927F928F929F92AF92BF92F7
:10311000CF92DF92EF92FF920F931F93CF93DF93A3
:10312000CDB7DEB766970FB6F894DEBF0FBECDBF42
:1031300098878F832B013A013E8B2D8B4801B70175
:1031400016010417150774F4602671268624972447
:103150006824792442265326242535253E8B2D8B41
:10316000422653262814390484F42824392482243E
:103170009324282439242D893E8962277327262702
:1031800037273E8B2D8B622773278614970484F490
:103190006824792486249724682479244D895E89BB
:1031A00044265526442555255E8B4D8B44265526B1
:1031B00062147304F9F48D899E898415950534F0A1
:1031C0009D898E895E8A4D8A492E582EAD89BE8989
:1031D0006A177B0734F0461657060CF42B016D89ED
:1031E0007E89750183019201A3018F8198850E94D8
:1031F000DC16A4C0ED89FE89E419F509F88BEF8788
:103200009401261937093A8B298BAB0144195509CA
:103210005E834D83C101861997099C878B87DB01EB
:10322000ED89FE89AE1BBF0BBE87AD8791012819C2
:1032300039093C8B2B8B8214930431F0A40141504B
:1032400051095A87498702C09A86898663011C8280
:103250001B821A821982A985BA85AC15BD0574F145
:1032600089819A8169897A890E94FA36F201E60F8A
:10327000F71F8B819C816B857C850E94FA369201B9
:10328000260F371F89819A81AF85B8898A0F9B1FC6
:103290009A8389834B815C818D819E81480F591F60
:1032A0005C834B8375018601A601BF018F819885E0
:1032B0000E94DC169FEFC91AD90ACDCFC601881922
:1032C0009909ED85FE85E89F4001E99F900CF89FE4
:1032D000900C1124C601861997092D813E81289FE3
:1032E0003001299F700C389F700C11242C143D0460
:1032F0002CF1C4016B897C890E94FA36ED89FE8924
:10330000E60FF71FC3016B857C850E94FA36920198
:10331000260F371F4D855E85840E951E8D819E81FB
:10332000680E791E75018601A601BF018F819885FF
:103330000E94DC169FEFC91AD90AD8CF66960FB63D
:10334000F894DEBF0FBECDBFDF91CF911F910F91DB
:10335000FF90EF90DF90CF90BF90AF909F908F90B5
:103360007F906F905F904F903F902F900895CF92F5
:10337000DF92EF92FF920F931F93CF93DF936C0135
:103380007A018B01C0E0D0E0CE15DF0589F0D801CD
:103390006D918D01D601ED91FC910190F081E02DB0
:1033A000C6010995892B11F47E0102C02196ECCF4C
:1033B000C701DF91CF911F910F91FF90EF90DF90A8
:1033C000CF900895FC01918D828D981761F0828DC8
:1033D000DF01A80FB11D5D968C91928D9F5F9F7349
:1033E000928F90E008958FEF9FEF0895FC01918DEB
:1033F000828D981731F0828DE80FF11D858D90E058
:1034000008958FEF9FEF0895FC01918D228D892FF4
:1034100090E0805C9F4F821B91098F7399270895DC
:10342000FC01848DDF01A80FB11DA35ABF4F2C9161
:10343000848D90E001968F739927848FA689B78930
:103440002C93A089B1898C9180648C93938D848D09
:10345000981306C00288F389E02D80818F7D8083D8
:103460000895EF92FF920F931F93CF93DF93EC0198
:1034700081E0888F9B8D8C8D981305C0E889F98930
:10348000808185FD24C0F62E0B8D10E00F5F1F4F4D
:103490000F731127E02E8C8DE8120CC00FB607FCBD
:1034A000FACFE889F989808185FFF5CFCE010E94A6
:1034B000101AF1CF8B8DFE01E80FF11DE35AFF4F7B
:1034C000F0820B8FEA89FB898081806207C0EE89D8
:1034D000FF896083E889F98980818064808381E045
:1034E00090E0DF91CF911F910F91FF90EF900895A1
:1034F000CF93DF93EC01888D8823C9F0EA89FB899B
:10350000808185FD05C0A889B9898C9186FD0FC091
:103510000FB607FCF5CF808185FFF2CFA889B98966
:103520008C9185FFEDCFCE010E94101AE7CFDF917D
:10353000CF9108953FB7F8948091DB029091DC021F
:10354000A091DD02B091DE0226B5A89B05C02F3FF9
:1035500019F00196A11DB11D3FBFBA2FA92F982FB9
:103560008827820F911DA11DB11DBC01CD0142E034
:10357000660F771F881F991F4A95D1F70895CF923C
:10358000EF92FF920F931F93CF93DF93EC01E12C07
:10359000F12C0EE110E024E630E048EC50E064EB62
:1035A00070E00E94691682E0C82E0FEF1FEF2EE731
:1035B00031E04DEC50E06CEB70E0CE010E942B1638
:1035C000DF91CF911F910F91FF90EF90CF900895D1
:1035D0000E9437377F928F929F92AF92BF92CF9285
:1035E000DF92EF92FF920F931F93CF93DF93EC0143
:1035F0006FEE7BE70E94B90C34E0C32E4FEEE42E51
:103600004BE7F42E0FE010E023E831E048E250E011
:103610006FE070E0CE010E942B1600E010E020E188
:1036200030E046E350E06CE370E0CE010E94E71723
:103630000FEE1BE722E030E04EE250E066E370E080
:10364000CE010E94E71722E030E040E350E064E35F
:1036500070E0CE010E94E717E12CF12C05E010E0AC
:103660002FE030E043E250E065E370E0CE010E94DD
:10367000691650E8E52E5AE7F52E26E030E04EE1D7
:1036800050E06AE370E0CE010E94691626E030E067
:103690004CE150E068E370E0CE010E94691626E03C
:1036A00030E04AE150E066E370E0CE010E94691626
:1036B00026E030E048E150E064E370E0CE010E9493
:1036C000691699249394812C712CD12C2FEEE22E23
:1036D0002BE7F22E0BE010E02EE030E042E150E06C
:1036E0006CE270E0CE01DD20B9F10E946916F0E8CD
:1036F000EF2EFAE7FF2E05E010E026E030E048E18B
:1037000050E064E370E0CE010E946916A0EEAA2E9C
:10371000ABEFBA2EB6E1CB2ED12C19E3E12EF12C72
:1037200002E110E020E330E04CE150E060E370E0C3
:10373000CE010E947E18A12C88EFB82E9CE2E92EC3
:10374000F12C25E330E04CE150E065E370E0CE0180
:103750000E947E18D12C39C00E94691630E8E32EF1
:103760003AE7F32E05E010E026E030E048E150E0D3
:1037700064E370E0CE010E94691640EEA42E4BEF88
:10378000B42E59E1C52ED12C67E3E62EF12C09E1C8
:1037900010E02EE230E042E150E062E370E0CE0162
:1037A0000E947E18A12C78EFB72EE4E1CE2ED12C0A
:1037B00004E110E02EE230E04CE150E062E370E022
:1037C000CE010E947E18DD24D394711014C099207C
:1037D00019F192E0C92E2FEEE22E2BE7F22E0FE028
:1037E00010E02DE831E048EC50E069E170E0CE01F6
:1037F0000E942B1611C0992079F08FEEE82E8BE7EE
:10380000F82E0FE010E02CE031E048EC50E069E1E8
:1038100070E0CE010E94691684E6881528F4709441
:1038200099249394812C02C08394912CCE010E9400
:103830004A15882309F44ACF81E080932B03DF9156
:10384000CF911F910F91FF90EF90DF90CF90BF909D
:10385000AF909F908F907F9008952F923F924F92BC
:103860005F926F927F928F929F92AF92BF92CF9210
:10387000DF92EF92FF920F931F93CF93DF936C0130
:103880005B018A01790166247724641A750AC0E015
:10389000D0E00C171D070CF460C04E018A0C9B1C75
:1038A0009701A4012601400E511EB2018BE994E05C
:1038B0000E947B0C9701A4011601201A310AB10164
:1038C0008BE994E00E947B0C45018C1A9D0A9701BC
:1038D000A401B2018BE994E00E947B0C9701A40142
:1038E000B1018BE994E00E947B0C2E014C0C5D1C15
:1038F00097014501800E911EA401B2018BE994E06D
:103900000E947B0C16012C1A3D0A9701A401B101FB
:103910008BE994E00E947B0C97014501801A910A83
:10392000A401B2018BE994E00E947B0C9701A401F1
:10393000B1018BE994E00E947B0CCE0101966C0EE4
:103940007D1E680E791E77FC06C001501109601AB1
:10395000710A601A710AEC019CCFDF91CF911F911F
:103960000F91FF90EF90DF90CF90BF90AF909F901E
:103970008F907F906F905F904F903F902F90089521
:103980006115710579F0FB0101900020E9F731978D
:10399000AF01461B570BDC01ED91FC910280F381D6
:1039A000E02D099480E090E008951F920F920FB6E9
:1039B0000F9211242F933F934F935F936F937F93B5
:1039C0008F939F93AF93BF93EF93FF9382EF93E017
:1039D0000E94101AFF91EF91BF91AF919F918F912B
:1039E0007F916F915F914F913F912F910F900FBEFB
:1039F0000F901F9018951F920F920FB60F921124DF
:103A00002F938F939F93EF93FF93E0910204F09194
:103A100003048081E0910804F091090482FD12C042
:103A2000908180910B048F5F8F7320910C0482171B
:103A300051F0E0910B04F0E0EE50FC4F958F809335
:103A40000B0401C08081FF91EF919F918F912F9185
:103A50000F900FBE0F901F90189590E0FC01EF544F
:103A6000F24F3491FC01E356F24F2491FC01E757E9
:103A7000F24FE491EE2309F43BC0332339F13330A4
:103A800091F038F43130A9F0323001F584B58F7DF2
:103A900012C0373091F03830A1F03430B9F4809151
:103AA00080008F7D03C0809180008F77809380009D
:103AB0000DC084B58F7784BD09C08091B0008F7729
:103AC00003C08091B0008F7D8093B000F0E0EE0FD6
:103AD000FF1FE158F24FA591B4918FB7F894EC9184
:103AE000611103C020952E2301C02E2B2C938FBF74
:103AF0000895CF93DF9390E0FC01E356F24F2491B9
:103B0000FC01E757F24F8491882361F190E0880F20
:103B1000991FFC01EB58F24FC591D491FC01E1587B
:103B2000F24FA591B491611109C09FB7F8948881B3
:103B3000209582238883EC912E230BC0623061F4A0
:103B40009FB7F8943881822F809583238883EC91E6
:103B50002E2B2C939FBF06C08FB7F894E8812E2B95
:103B600028838FBFDF91CF9108958F929F92AF925C
:103B7000BF92CF92DF92EF92FF926B017C010E9485
:103B80009A1A4B015C01C114D104E104F104F1F073
:103B90000E949A1ADC01CB0188199909AA09BB096C
:103BA000883E9340A105B10570F321E0C21AD10807
:103BB000E108F10888EE880E83E0981EA11CB11C74
:103BC000C114D104E104F10419F7DDCFFF90EF90A7
:103BD000DF90CF90BF90AF909F908F9008951F92ED
:103BE0000F920FB60F9211242F933F938F939F93B1
:103BF000AF93BF938091D7029091D802A091D90240
:103C0000B091DA023091D60223E0230F2D3720F451
:103C10000196A11DB11D05C026E8230F0296A11D26
:103C2000B11D2093D6028093D7029093D802A0931F
:103C3000D902B093DA028091DB029091DC02A0916C
:103C4000DD02B091DE020196A11DB11D8093DB0261
:103C50009093DC02A093DD02B093DE02BF91AF919E
:103C60009F918F913F912F910F900FBE0F901F90BA
:103C700018952F923F924F925F926F927F928F9200
:103C80009F92AF92BF92CF92DF92EF92FF920F93EB
:103C90001F93CF93DF935C0184E1689F600111243F
:103CA00094E1499F80011124412C512C320176016D
:103CB000C0E0D0E042019FEF891A990A120182E028
:103CC000280E311CFE01E40DF51DEB53F74F8491D6
:103CD000FE01E80DF91DEB53F74F2491FE01E20DB3
:103CE000F31DEB53F74FE491887F2C7F98E0299FD9
:103CF00090011124382BE695E695E6952E2BA80128
:103D0000B701C5010E947B0C23968FEFE81AF80AD1
:103D1000CC33D105B9F69CE3490E511C611C711CD2
:103D20000F5F1F4F80EB481684E058066104710452
:103D300009F0BDCFDF91CF911F910F91FF90EF90D0
:103D4000DF90CF90BF90AF909F908F907F906F90BB
:103D50005F904F903F902F9008952F923F924F92F7
:103D60005F926F927F928F929F92AF92BF92CF920B
:103D7000DF92EF92FF920F931F93CF93DF935C013B
:103D800084E1689F6001112494E1499F800111241E
:103D9000412C512C32017601C0E0D0E042019FEF6E
:103DA000891A990A120182E0280E311CFE01E40DE5
:103DB000F51DEB5EFB4F8491FE01E80DF91DEB5EF6
:103DC000FB4F2491FE01E20DF31DEB5EFB4FE491EE
:103DD000887F2C7F98E0299F90011124382BE6954D
:103DE000E695E6952E2BA801B701C5010E947B0C34
:103DF00023968FEFE81AF80ACC33D105B9F69CE385
:103E0000490E511C611C711C0F5F1F4F80EB48163F
:103E100084E058066104710409F0BDCFDF91CF91B1
:103E20001F910F91FF90EF90DF90CF90BF90AF90D8
:103E30009F908F907F906F905F904F903F902F90CA
:103E4000089560917800709179006F5F7F4F76954B
:103E500067957695679570E080E090E04AE00E9473
:103E600067266FE971E082EF93E00C94C01CAF927B
:103E7000BF92CF92EF92FF920F931F93CF93DF9356
:103E8000CDB7DEB7C258D1090FB6F894DEBF0FBE6A
:103E9000CDBF5C0110E0B501CE0101960E94131068
:103EA000CE0101960E94211F11116FC0B501CE01F4
:103EB0008E5B9F4F0E9413106FEF7FEFCE018E5BE2
:103EC0009F4F0E94B90CBE016E5B7F4FCE010196E1
:103ED0000E941310E12CF12C02E310E020EA30E004
:103EE00044E150E060E570E0CE0101960E94691661
:103EF00073E0C72E0FEF1FEF22EA31E043E250E0FC
:103F000069E670E0CE0101960E942B16BE016E5B41
:103F10007F4FCE0101960E94131002E310E02AEFBA
:103F200030E044E650E068E270E0CE0101960E9485
:103F300069160FEF1FEF28EA31E043E750E062E334
:103F400070E0CE0101960E942B16BE016E5B7F4F82
:103F5000CE0101960E94131002E310E029EB30E03D
:103F600044EB50E061E470E0CE0101960E946916D6
:103F70000FEF1FEF23EB31E043EC50E060E570E022
:103F8000CE0101960E942B1602C0113031F4C501FA
:103F90000E944A1581110AC0D4C1123009F053C1E0
:103FA000C5010E944A15811157C1C9C1C5010E94AE
:103FB00008168C01C5010E94E315980120553109AE
:103FC000213A310508F0D0C09C0124513109233336
:103FD000310508F0C9C0B501CE018E5B9F4F0E942C
:103FE00013106FEF7FEFCE018E5B9F4F0E94B90CD5
:103FF00043E0C42EEE24EA94FE2C00E010E02BEB0C
:1040000031E04AE050E06AE070E0CE018E5B9F4F05
:104010000E942B16BE016E5B7F4FCE0101960E945F
:104020001310E12CF12C0EE110E028E730E04CE316
:1040300050E064E170E0CE0101960E94691662E0F2
:10404000C62E0FEF1FEF28EC31E041E450E06CE1A9
:1040500070E0CE0101960E942B16BE016E5B7F4F71
:10406000CE0101960E9413100EE110E028E730E027
:1040700048E750E064E170E0CE0101960E946916C5
:104080000FEF1FEF20ED31E04DE750E06CE170E005
:10409000CE0101960E942B16BE016E5B7F4FCE01B2
:1040A00001960E9413100EE110E028E730E044EB87
:1040B00050E064E170E0CE0101960E9469160FEFB6
:1040C0001FEF28ED31E049EB50E06CE170E0CE01EC
:1040D00001960E942B16BE016E5B7F4FCE010196AA
:1040E0000E94131004E610E028E730E04CE350E0B3
:1040F00064EB70E0CE0101960E9469160FEF1FEF8E
:1041000020EE31E041E450E06CEB70E0CE0101962E
:104110000E942B1627EE31E04AE550E06CEB70E090
:10412000CE0101960E942B162DEE31E049E650E0BB
:104130006CEB70E0CE0101960E942B1622EA31E072
:1041400042E850E06CEB70E0CE0101960E942B1625
:10415000BE016E5B7F4FCE0101960E941310CE010F
:1041600001960E94BF1A1CCF9801215431092E3CA0
:10417000310590F59C01245B31092333310560F54D
:10418000B501CE018E5B9F4F0E9413106FEF7FEF42
:10419000CE018E5B9F4F0E94B90C23E0C22EEE240D
:1041A000EA94FE2C00E010E023EB31E044E150E023
:1041B00067E370E0CE018E5B9F4F0E942B16BE011D
:1041C0006E5B7F4FCE0101960E941310CE010196C7
:1041D0000E94BF1A13E03AC0085211090B3F1105A3
:1041E00008F0AFC084569109C39708F0AAC0B50182
:1041F000CE018E5B9F4F0E9413106FEF7FEFCE01B9
:104200008E5B9F4F0E94B90C83E0C82EEE24EA9487
:10421000FE2C00E010E028EA31E044E150E068E2E2
:1042200070E0CE018E5B9F4F0E942B16BE016E5B2D
:104230007F4FCE0101960E941310CE0101960E947D
:10424000BF1A14E003C0133009F060C0C5010E941A
:104250004A1581115FC01FCEC5010E9408168C014E
:10426000C5010E94E3159C01C8014497853691055C
:1042700078F5C901CC974F9750F482E080932B03D7
:104280006CE273E6C5010E94B90C81E01EC0C90151
:10429000885791094F9758F412E010932B036CE262
:1042A00073E6C5010E94B90C109304014CC0C9010A
:1042B000845B91094F9760F482E080932B036CE25A
:1042C00073E6C5010E94B90C83E0809304013BC0F2
:1042D000045B11090937110590F5C901CC978536A2
:1042E000910558F482E080932B036CE273E6C501DC
:1042F0000E94B90C1092040126C007341105F8F48D
:10430000285C31092F313105D0F4C4CD143009F4C3
:104310009DCFC1CDC5010E9408167C01C5010E9438
:10432000E31524EBE21AF10827E4E216F10408F0A1
:10433000B2CD885C91094F9708F0ADCDABCD12E0BE
:10434000AACD11E0A8CDCE57DF4F0FB6F894DEBF4F
:104350000FBECDBFDF91CF911F910F91FF90EF90D6
:10436000CF90BF90AF9008950F931F93CF93DF939B
:10437000CDB7DEB7C154D1090FB6F894DEBF0FBE7A
:10438000CDBF182F062FBA01CE0101960E9413103F
:10439000402F612FCE0101960E94AD1ECF5BDF4FF3
:1043A0000FB6F894DEBF0FBECDBFDF91CF911F9146
:1043B0000F9108956F927F928F929F92AF92BF92CA
:1043C000CF92EF92FF920F931F93CF93DF93CDB7CE
:1043D000DEB761970FB6F894DEBF0FBECDBF5C01AC
:1043E0004B013A01C9014AE0BE016F5F7F4F0E9455
:1043F0009837CC24C394E12CF12C0FEF1FEF9E01D2
:104400002F5F3F4FA301B401C5010E942B16619697
:104410000FB6F894DEBF0FBECDBFDF91CF911F91D5
:104420000F91FF90EF90CF90BF90AF909F908F90A3
:104430007F906F900895E2EFF3E0A089B18982E068
:104440008C93A485B5851C92A685B7858FEC8C933B
:10445000108EA489B58986E08C93A289B3898C914A
:1044600080618C93A289B3898C9188608C93A28996
:10447000B3898C9180688C930288F389E02D8081C8
:104480008F7D80830895EF92FF920F931F93CF93B8
:10449000DF93CDB7DEB7C154D1090FB6F894DEBFB4
:1044A0000FBECDBF962FF090F103FF2001F1E090F9
:1044B000F003EE20E1F08F1102C06E15C1F0BA01D9
:1044C0008C01CE0101960E9413104E2D6F2DCE014E
:1044D00001960E94391E8091F103081721F0809106
:1044E000F003181304C01092F1031092F003CF5B95
:1044F000DF4F0FB6F894DEBF0FBECDBFDF91CF9177
:104500001F910F91FF90EF900895AF92BF92CF92BD
:10451000DF92EF92FF920F931F93CF93DF93CDB76C
:10452000DEB7C154D1090FB6F894DEBF0FBECDBFC0
:10453000D62E90912E0360912F039D1102C0681713
:1045400021F15A01C82E84E1989FA001112484E131
:10455000689FB00111248CE2E82E83E6F82E04E176
:1045600010E024E130E0C5010E946916B501CE01DA
:1045700001960E9413104D2D6C2DCE0101960E94C4
:10458000AD1EC0922F03D0922E03CF5BDF4F0FB62C
:10459000F894DEBF0FBECDBFDF91CF911F910F9179
:1045A000FF90EF90DF90CF90BF90AF900895CF92A3
:1045B000EF92FF920F931F93CF93DF93209105010A
:1045C0002111CDC0EC0183E080932B0380E090E0CB
:1045D0000E94C23760912C0370E08617970720F481
:1045E00080E090E00E94C83780E090E00E94C237EF
:1045F000909309018093080182E090E00E94C23705
:1046000090930D0180930C0160E070E0CE010E9458
:10461000B90C209108013091090180910C01909111
:104620000D0143E0C42EE12CF12C0FEF1FEF821798
:10463000930718F423EF31E002C02DEF31E04CE393
:1046400050E062E370E0CE010E942B16CC24C394AC
:10465000E12CF12C0FEF1FEF27E032E044E650E0B1
:1046600068E770E0CE010E942B1623E132E048E7B4
:1046700050E068E770E0CE010E942B162091060101
:1046800030910701BC01772748E750E0CE010E9436
:10469000DA21BC0177272BE132E048E750E0CE0178
:1046A0000E942B162091080130910901BC01772747
:1046B00048E750E0CE010E94DA2123E132E04CE8E5
:1046C00050E068E770E0CE010E942B1620910A01AD
:1046D00030910B01BC0177274CE850E0CE010E94DD
:1046E000DA21BC0177272BE132E04CE850E0CE0123
:1046F0000E942B1620910C0130910D01BC017727EF
:104700004CE850E0CE010E94DA2182E0C82E2DE86C
:1047100031E048EC50E06EE170E0CE010E942B16D3
:10472000CE010E944A158823D9F310922C0383E00E
:104730008093050181E080932B0380E393E04CE0BC
:10474000480F20E030E0FC01E20FF31F1082245FED
:104750003F4F203C3105B9F701964813F2CF8091C5
:104760002D03882349F080910501882329F0815089
:104770008093050110922D03DF91CF911F910F912E
:10478000FF90EF90CF9008952F923F924F925F92BB
:104790006F927F928F929F92AF92BF92CF92DF9251
:1047A000EF92FF920F931F93CF93DF93CDB7DEB7B6
:1047B000C354D1090FB6F894DEBF0FBECDBF3C0184
:1047C000362E242E2CE0629FC0011124805D9C4F68
:1047D00020E3422E23E0522E812C912CFC01E40F89
:1047E000F11D2496FFAFEEAF24975201C12CD12CBE
:1047F000F50180818730E9F52496EEADFFAD249771
:104800008081873039F56EE172E082EF93E00E949B
:10481000C01C6FE971E082EF93E00E94C01C9CE233
:10482000E92E93E6F92E04E110E024E130E0A40142
:10483000B601C3010E946916B301CE0101960E9420
:104840001310422D632DCE0101960E94AD1EF5017D
:1048500010820FC0F50110828CE2E82E83E6F82E5C
:1048600004E110E024E130E0A401B601C3010E949C
:104870006916FCE0AF0EB11C24E1C20ED11C30E47D
:10488000C31631E0D30609F0B3CF8FEF481A580AA8
:10489000E4E18E0E911CF0EF8F16910409F0A5CF84
:1048A000CD5BDF4F0FB6F894DEBF0FBECDBFDF91FB
:1048B000CF911F910F91FF90EF90DF90CF90BF901D
:1048C000AF909F908F907F906F905F904F903F90B0
:1048D0002F9008952CE0829FC0011124FC01E05D1F
:1048E000FC4FE60FF11D80818750833018F481E082
:1048F00080932D0308952F923F924F925F926F9273
:104900007F928F929F92AF92BF92CF92DF92EF925F
:10491000FF920F931F93CF93DF93CDB7DEB7299705
:104920000FB6F894DEBF0FBECDBF6C01A42E722E61
:104930001986262F30E03E832D8304E1B02E20E33C
:1049400033E03C832B8384E0482E512C212C312CE6
:10495000622C9985892F90E09A838983EB81FC8171
:10496000E80FF91F8081833009F082C1A9E0A0839C
:10497000E985B4E1EB9F40011124F4E08F0E911C16
:1049800010EEE12E1BEFF12E0EE010E02EE030E0F5
:10499000A401B201C6010E9469162D813E81220D3B
:1049A000331D38872F83062D10E0EF81F8850E1711
:1049B0001F070CF04BC0672D8A2D0E946A24C80186
:1049C00001963CE0389FF001399FF00D1124E05D25
:1049D000FC4FA981BA81EA0FFB1F2081222321F01D
:1049E00039EF320F3330B0F4B9E0B083B89EB00184
:1049F000B99E700D11246C5F7F4FB0EEEB2EBBEFB4
:104A0000FB2E0EE010E02EE030E0A401C6010E9473
:104A1000691626C0223011F529E02083B89EB00126
:104A2000B99E700D11246C5F7F4FA0EEEA2EABEFA4
:104A3000FA2E0EE010E02EE030E0A401C6010E9444
:104A4000691680912C038F5F80932C03C101AD8187
:104A5000BE818A1B9B0B98878F832CC02130B1F3BA
:104A60006394A1CF672D8A2D0E946A24E981FA817F
:104A70002CE0629EE00DF11D1124EC5DFC4F808165
:104A8000811120C039E0308301501109B09EB0017E
:104A9000B19E700D11246C5F7F4FF0EEEF2EFBEF97
:104AA000FF2E0EE010E02EE030E0A401C6010E94CF
:104AB00069166A94062D10E0EF81F885E017F1077A
:104AC0008CF222C099EF980F9330E0F2823019F502
:104AD00089E0808301501109B09EB001B19E700D34
:104AE00011246C5F7F4FE0EEEE2EEBEFFE2E0EE01A
:104AF00010E02EE030E0A401C6010E94691680910A
:104B00002C038F5F80932C0389809A80AD81BE81B6
:104B10008A0E9B1E28C0813061F6F6CF672D8A2D44
:104B20000E946A24C8010196EB81FC81E80FF91FFD
:104B3000208121111FC029E02083B89EA001B99EC9
:104B4000500D11244C5F5F4F60EEE62E6BEFF62E9A
:104B50000EE010E02EE030E0B201C6010E946916BE
:104B600099859F5F9987A9850A2F10E00815190577
:104B7000ACF220C039EF320F3330E8F2223009F5C1
:104B800039E03083B89EA001B99E500D11244C5FCE
:104B90005F4F30EEE32E3BEFF32E0EE010E02EE001
:104BA00030E0B201C6010E94691680912C038F5F2C
:104BB00080932C0389809A808D819E81881A990A1E
:104BC00028C0213069F6F6CF672D8A2D0E946A240D
:104BD000C8010197EB81FC81E80FF91F20812111A9
:104BE0001FC0B9E0B083B89EA001B99E500D11243A
:104BF0004C5F5F4F20EEE22E2BEFF22E0EE010E026
:104C00002EE030E0B201C6010E94691639853150AC
:104C100039878985082F10E080169106ACF223C0F1
:104C200039EF320F3330E8F22230D9F429E0208313
:104C3000B89EA001B99E500D11244C5F5F4F90EEBD
:104C4000E92E9BEFF92E0EE010E02EE030E0B201ED
:104C5000C6010E94691680912C038F5F80932C03FC
:104C600002C0213099F680912A03815080932A0353
:104C70009FEF291A390AAB81BC811C96BC83AB8398
:104C8000B4E14B0E511CE0E12E16310409F060CE68
:104C9000F985FF5FF987FC3008F451CE29960FB6ED
:104CA000F894DEBF0FBECDBFDF91CF911F910F9162
:104CB000FF90EF90DF90CF90BF90AF909F908F903C
:104CC0007F906F905F904F903F902F9008958F92BC
:104CD0009F92AF92BF920F931F93CF93DF93CDB765
:104CE000DEB7A1970FB6F894DEBF0FBECDBF19A2F5
:104CF000423008F44AE08E010F5D1F4F842E912C44
:104D0000A12CB12CA50194010E941D38E62FB901F8
:104D1000CA0101501109EA3014F4E05D01C0E95CF8
:104D2000D801EC93232B242B252B61F7B80182EFBC
:104D300093E00E94C01CA1960FB6F894DEBF0FBE90
:104D4000CDBFDF91CF911F910F91BF90AF909F90FA
:104D50008F900895EF92FF920F931F93CF93DF935D
:104D60000E941B22C0E3D3E0F12CEC2E8CE0E80E75
:104D700000E010E0FE01E00FF11F8EE0608170E0C6
:104D80008F1538F080E090E04AE00E946726F394A7
:104D90000CC080E090E04AE00E9467266FE971E075
:104DA00082EF93E00E94C01CF12C82EF93E00E94FE
:104DB000781A045F1F4F003C1105E1F62196EC12B2
:104DC000D7CFDF91CF911F910F91FF90EF90089572
:104DD000382F2091290390912803213208F049C0EF
:104DE000809105038111FCCF42E04093050330938D
:104DF00004033FEF30930303109202032093010357
:104E0000A8E0B3E041EE52E0FA013E2F341B321726
:104E100018F43D913193F9CF1092E0022091E00215
:104E2000990F922B9093E0029091DF02913061F400
:104E30001092DF029091E0029093BB009091BC0031
:104E400093FDF8CF95EC01C095EE9093BC00909146
:104E500005039230E1F3909103039F3F79F0809135
:104E60000303803241F080910303803331F084E00A
:104E700005C081E003C082E001C083E01092070317
:104E800010922903109206030895CF93DF93E0E375
:104E9000F3E080E091E020E030E0DF01AC54BF4F70
:104EA000882311F08B3029F4EF01C20FD31F9883B0
:104EB00002C090839C93245F3F4F203C310581F7D3
:104EC0008F5F31968C3039F7DF91CF9108952F9213
:104ED0003F924F925F926F927F928F929F92AF928A
:104EE000BF92CF92DF92EF92FF920F931F93CF93D7
:104EF000DF93CDB7DEB728970FB6F894DEBF0FBEAD
:104F0000CDBF7C016CE273E60E94B90C20E333E074
:104F10003A83298300E010E0812C912C212C312C44
:104F2000E981FA81E20DF31D8081813009F055C0DD
:104F30005801412C512C3201640118861F829201C4
:104F40002F5F3F4F3C832B83A2014E5F5F4F5E83F9
:104F50004D83EF81F885E40DF51DEB58FD4E8491EE
:104F6000EB81FC814F815885E40FF51FEB58FD4E16
:104F70002491ED81FE81E40FF51FEB58FD4EE49185
:104F8000887F2C7F58E0259F90011124382BE695CF
:104F9000E695E6952E2BA501B601C7010E947B0C74
:104FA0008F819885039698878F839FEFC91AD90AB6
:104FB000AF81B885DC9769F6BCE34B0E511C611CD0
:104FC000711CEFEFAE1ABE0AF0EB4F16F4E05F066D
:104FD0006104710409F0B0CF56C0823009F053C0AB
:104FE0005401412C512C3201680118861F82C201E4
:104FF00001969C838B83D2011296BE83AD83EF8191
:10500000F885E40DF51DEB53F24F8491EB81FC81A3
:10501000AF81B885EA0FFB1FEB53F24F2491ED816E
:10502000FE81EA0FFB1FEB53F24FE491887F2C7F48
:10503000B8E02B9F90011124382BE695E695E69574
:105040002E2BA601B501C7010E947B0CEF81F885CC
:105050003396F887EF83FFEFCF1ADF0A2F81388569
:105060002C33310561F63CE3430E511C611C711C6D
:105070004FEFA41AB40A50EB451654E055066104EC
:10508000710409F0B1CFBCE02B0E311CE4E18E0EAF
:10509000911CF0EC2F16310409F042CF0C5E1F4F2B
:1050A00029813A812F5F3F4F3A832983003F1105C1
:1050B00009F032CF28960FB6F894DEBF0FBECDBFF1
:1050C000DF91CF911F910F91FF90EF90DF90CF90E4
:1050D000BF90AF909F908F907F906F905F904F9018
:1050E0003F902F900895EF92FF920F931F93CF93CD
:1050F000DF93C82F811138C08EE290E00E948D3777
:105100000E94452781E08093DD048093DC04809336
:105110002F0380932E0380E090E023E0E22EF12C19
:1051200000E010E0EC0121960E948837F801EC0FB6
:10513000FD1FE05DFC4FB7010E94FA368487045FD3
:105140001F4F083A110581F7CE012A9749F71092AF
:105150003D0310923E03109249031092E103109216
:10516000E2031092D603A6C5813009F01AC18093DC
:10517000DD048093DC0480932F0380932E030E9430
:10518000452782E0809355038093610380936D03EC
:1051900080937903809385038093910380939D038B
:1051A0008093A9038093B5038093C1038093CD03BB
:1051B0008093D903C0934A0380935603C09362033C
:1051C00080936E03C0937A03809386038093920347
:1051D000C0939E038093AA03C093B6038093C20337
:1051E000C093CE038093DA0380933F0380934B03F5
:1051F000109257038093630310926F0380937B0395
:10520000809387038093930380939F031092AB0353
:105210008093B7031092C3038093CF038093DB0383
:1052200080934003C0934C0380935803C09364035E
:1052300080937003C0937C038093880380939403CE
:10524000C093A0038093AC03C093B8038093C403BE
:10525000C093D0038093DC038093410380934D037C
:1052600080935903809365038093710380937D033A
:1052700080938903809395038093A1038093AD036A
:105280008093B9038093C5038093D1038093DD039A
:105290008093420380934E0380935A038093660366
:1052A0008093720380937E0380938A038093960396
:1052B0008093A2038093AE038093BA038093C603C6
:1052C0008093D2038093DE0380934303C0934F0304
:1052D00080935B03C093670380937303C0937F0342
:1052E00080938B0380939703C093A3038093AF03B2
:1052F000C093BB038093C703C093D3038093DF03A2
:10530000809344038093500310925C03809368035E
:10531000109274038093800380938C03809398038E
:105320008093A4031092B0038093BC031092C8032F
:105330008093D4038093E00380934503C09351038B
:1053400080935D03C093690380937503C0938103C9
:1053500080938D0380939903C093A5038093B10339
:10536000C093BD038093C903C093D5031092E1039A
:10537000809346038093520380935E0380936A0375
:10538000809376038093820380938E0380939A03A5
:105390008093A6038093B2038093BE038093CA03D5
:1053A00085C4823009F019C187E08093DD04C09381
:1053B000DC0480932F03C0932E030E944527C093E3
:1053C0003D03C0934903C0935503C0936103C09349
:1053D0006D03C09379031092850310929103C093DB
:1053E0009D03C093A903C093B503C093C103C093A9
:1053F000CD03C093D903C0933E0381E080934A0359
:10540000C093560380936203C0936E0380937A0324
:10541000109286031092920380939E03C093AA0376
:105420008093B603C093C2038093CE03C093DA0384
:10543000C0933F03C0934B0310925703C093630381
:1054400010926F03C0937B03C0938703C0939303B1
:10545000C0939F031092AB03C093B7031092C30392
:10546000C093CF03C093DB03C093400380934C03EE
:10547000C093580380936403C093700380937C03AC
:10548000C0938803C09394038093A003C093AC039C
:105490008093B803C093C4038093D003C093DC030C
:1054A000C0934103C0934D03C0935903C093650358
:1054B000C0937103C0937D03C0938903C093950388
:1054C000C093A103C093AD03C093B903C093C503B8
:1054D000C093D103C093DD03C0934203C0934E0336
:1054E000C0935A03C0936603C0937203C0937E03B4
:1054F000C0938A03C0939603C093A203C093AE03E4
:10550000C093BA03C093C603C093D203C093DE0313
:10551000C093430380934F03C0935B03809367035F
:10552000C093730380937F03C0938B03C09397034F
:105530008093A303C093AF038093BB03C093C703BF
:105540008093D303C093DF03C0934403C0935003FD
:1055500010925C03C093680310927403C09380039D
:10556000C0938C03C0939803C093A4031092B0031C
:10557000C093BC031092C803C093D403C093E0034C
:10558000C093450380935103C0935D0380936903E7
:10559000C09375038093810310928D031092990339
:1055A0008093A503C093B1038093BD03C093C90347
:1055B0008093D503C093E103C0934603C093520385
:1055C000C0935E03C0936A03C0937603C0938203C3
:1055D00010928E0310929A033FC2833009F021C1CA
:1055E000C1E0C093DD04C093DC04C0932F03C093DB
:1055F0002E030E94452710923D0310924903C09349
:105600005503C0936103C0936D03C093790382E097
:10561000809385038093910380939D038093A903D6
:10562000C093B5038093C1038093CD038093D903C6
:1056300010923E03C0934A03C0935603C093620383
:10564000C0936E03C0937A03809386038093920382
:10565000C0939E038093AA03C093B6038093C203B2
:10566000C093CE038093DA0380933F03C0934B0330
:10567000809357038093630380936F03C0937B03EE
:105680008093870380939303C0939F038093AB031E
:10569000C093B7038093C303C093CF038093DB030E
:1056A00080934003C0934C0380935803C0936403DA
:1056B00080937003C0937C0380938803809394034A
:1056C000C093A0038093AC03C093B8038093C4033A
:1056D000C093D0038093DC0380934103C0934D03B8
:1056E00080935903C093650380937103C0937D0336
:1056F0008093890380939503C093A1038093AD03A6
:10570000C093B9038093C503C093D1038093DD0395
:1057100080934203C0934E0380935A03C093660361
:1057200080937203C0937E0380938A0380939603D1
:10573000C093A2038093AE03C093BA038093C603C1
:10574000C093D2038093DE0380934303C0934F033F
:1057500080935B03C093670380937303C0937F03BD
:1057600080938B0380939703C093A3038093AF032D
:10577000C093BB038093C703C093D3038093DF031D
:1057800080934403C093500380935C03C0936803E9
:1057900080937403C093800380938C038093980359
:1057A000C093A4038093B0038093BC038093C80389
:1057B000C093D4038093E00380934503C0935103C7
:1057C00080935D03C093690380937503C093810345
:1057D00080938D0380939903C093A503C093B10375
:1057E000C093BD03C093C903C093D5031092E103D6
:1057F000809346038093520380935E03C0936A03B1
:10580000809376038093820380938E0380939A0320
:10581000C093A603C093B203C093BE03C093CA0350
:1058200045C2843009F025C1C2E0C093DD04C093B5
:10583000DC04C0932F03C0932E030E944527C0931E
:105840003D03C0934903C0935503C0936103C093C4
:105850006D03C093790381E0809385038093910366
:10586000C0939D03C093A903C093B503C093C10324
:10587000C093CD03C093D903C0933E0310924A0353
:1058800010925603C0936203C0936E0380937A0311
:10589000C0938603C093920380939E03C093AA0390
:1058A000C093B6031092C2031092CE03C093DA03E2
:1058B000C0933F0310924B03C0935703C0936303FD
:1058C00080936F03C0937B03C0938703C0939303BC
:1058D000C0939F038093AB03C093B703C093C303EC
:1058E0001092CF03C093DB03C0934003C0934C03DB
:1058F000C093580380936403C0937003C0937C03E8
:10590000C0938803C0939403C093A003C093AC03D7
:105910008093B803C093C403C093D003C093DC0347
:10592000C0934103C0934D0380935903C093650313
:10593000C0937103C0937D03809389038093950383
:10594000C093A103C093AD03C093B9038093C50373
:10595000C093D103C093DD03C0934203C0934E03B1
:1059600080935A03C0936603C0937203C0937E036F
:1059700080938A0380939603C093A203C093AE03DF
:10598000C093BA038093C603C093D203C093DE03CF
:10599000C0934303C0934F03C0935B03809367039B
:1059A000C0937303C0937F03C0938B03C09397038B
:1059B000C093A303C093AF038093BB03C093C703FB
:1059C000C093D303C093DF03C093440310925003EA
:1059D000C0935C03C093680380937403C0938003F7
:1059E000C0938C03C0939803C093A4038093B00327
:1059F000C093BC03C093C8031092D403C093E003C8
:105A0000C09345031092510310925D03C093690344
:105A1000C093750380938103C0938D03C093990352
:105A20008093A503C093B103C093BD031092C90333
:105A30001092D503C093E103C0934603C093520371
:105A4000C0935E03C0936A03C0937603C09382033E
:105A500080938E0380939A03C093A603C093B203EE
:105A6000C093BE03C093CA03C093D603C093E2039E
:105A700021C18F3F09F01EC1C1E0C093DD04C09376
:105A8000DC04C0932F03C0932E030E94452710927D
:105A900055031092610310926D03109279031092D6
:105AA00085031092910310929D031092A903109206
:105AB000B5031092C1031092CD031092D903109236
:105AC0004A03109256031092620310926E031092D2
:105AD0007A03109286031092920310929E03109202
