:100000000C9430020C9445040C9458020C94580241
:100010000C9458020C9458020C9458020C9410053D
:100020000C9458020C94E2050C9458020C9458025B
:100030000C9458020C9458020C9458020C945802D8
:100040000C9476080C9458020C94EC060C948014D2
:100050000C9458020C9458020C9458020C945802B8
:100060000C9417030C945802000000002400270091
:100070002A0000000000250028002B0004040404CE
:100080000404040402020202020203030303030342
:10009000010204081020408001020408102001021F
:1000A00004081020000000080002010000030407FB
:1000B00000000000000000007C3C3E5E2B3D3F2F16
:1000C0005B5D3B2C2A225C00000000000000000069
:1000D00030787830300030006C6C6C00000000002C
:1000E0006C6CFE6CFE6C6C00307CC0780CF83000E0
:1000F00000C6CC183066C600386C3876DCCC76008A
:100100006060C000000000001830606060301800BF
:10011000603018181830600000663CFF3C66000034
:10012000003030FC30300000000000000070306013
:10013000000000FC00000000000000000030300063
:10014000060C183060C0800078CCDCFCECCC780069
:1001500030F030303030FC0078CC0C3860CCFC0013
:1001600078CC0C380CCC78001C3C6CCCFE0C0C0011
:10017000FCC0F80C0CCC78003860C0F8CCCC78000F
:10018000FCCC0C183060600078CCCC78CCCC7800FB
:1001900078CCCC7C0C18700000003030003030007F
:1001A0000000303000703060183060C060301800DF
:1001B0000000FC00FC0000006030180C18306000EB
:1001C00078CC0C18300030007CC6DEDEDEC0780053
:1001D0003078CCCCFCCCCC00FC66667C6666FC003F
:1001E0003C66C0C0C0663C00FC6C6666666CFC0089
:1001F000FE6268786862FE00FE6268786860F000FF
:100200003C66C0C0CE663E00CCCCCCFCCCCCCC0096
:1002100078303030303078001E0C0C0CCCCC7800AC
:10022000E6666C786C66E600F06060606266FE0010
:10023000C6EEFED6C6C6C600C6E6F6DECEC6C6000A
:10024000386CC6C6C66C3800FC66667C6060F00020
:1002500078CCCCCCDC781C00FC66667C786CE60044
:1002600078CCE0381CCC7800FCB4303030307800EA
:10027000CCCCCCCCCCCCFC00CCCCCCCCCC78300016
:10028000C6C6C6D6FEEEC600C6C66C386CC6C6006C
:10029000CCCCCC7830307800FECC983062C6FE00F2
:1002A0007860606060607800C06030180C06020002
:1002B000781818181818780010386CC6000000005C
:1002C00000000000000000FF3030180000000000B7
:1002D0000000780C7CCC7600E0607C666666BC0032
:1002E000000078CCC0CC78001C0C0C7CCCCC760008
:1002F000000078CCFCC07800386C60F06060F000E2
:10030000000076CCCC7C0CF8E0606C766666E6008B
:100310003000703030307800180078181818D87015
:10032000E060666C786CE600703030303030780019
:100330000000ECFED6C6C6000000F8CCCCCCCC0049
:10034000000078CCCCCC78000000DC66667C60F0E5
:10035000000076CCCC7C0C1E0000D86C6C60F000E9
:1003600000007CC0780CF80010307C30303418006D
:100370000000CCCCCCCC76000000CCCCCC783000CB
:100380000000C6C6D6FE6C000000C66C386CC60005
:100390000000CCCCCC7C0CF80000FC983064FC0055
:1003A0001C3030E030301C001818180018181800E5
:1003B000E030301C3030E00076DC0000000000004F
:1003C00010386CC6C6C6FE004128D441CF830083D6
:1003D0003041ED846403128141E88385017941CB8A
:1003E00085392C00340241F7812041EA8200004126
:1003F000C0812641C1811141C582353E41C781BEC0
:1004000041B182001B41F281084126810141E08F08
:100410001F1A180A0F064587320A0702070500410E
:10042000E18F0025270510093A784D05180D383A57
:100430001F41B6840A82270041B78107413A81559E
:10044000413681E8412A82000082013F412B82002F
:10045000008200EF4111FCFC4129D4FFFF008D26F2
:1004600011241FBECFEFD8E0DEBFCDBF12E0A0E069
:10047000B1E0E4EEF1E502C005900D92A630B107BF
:10048000D9F726E0A6E0B2E001C01D92A63FB20770
:10049000E1F712E0C0E3D2E004C02197FE010E9420
:1004A0004D27CF32D107C9F70E94E8220C94F028DB
:1004B0000C94000085ED8093BC008091BC0084FD0D
:1004C000FCCF1092CA02089540917402262F30E0AA
:1004D000240F311D21323105DCF42091CA02243071
:1004E000C9F4FC0180E090E0861758F43091740262
:1004F0002191DC01AE5ABD4FA30FB11D2C93019683
:10050000F3CF80917402680F6093740280E00895C5
:1005100081E0089582E008950895E091510280916C
:100520005002E81730F4F0E0E05DFD4F808190E08C
:1005300008958FEF9FEF089590915102809150029E
:10054000981750F4E92FF0E0E05DFD4F208130E096
:100550009F5F9093510202C02FEF3FEFC9010895B2
:100560008091500290E020915102821B91090895E0
:10057000CF92DF92EF92FF920F931F93CF93DF936F
:100580007C01262F972F8A018091CB02882391F03E
:10059000C62FD72F6E01C40ED51ECC15DD0571F008
:1005A0006991D701ED91FC910190F081E02DC70197
:1005B0000995F3CF642F822F0E946402C801DF9156
:1005C000CF911F910F91FF90EF90DF90CF90089502
:1005D000CF93DF931F92CDB7DEB769832091CB0213
:1005E0002223D1F02091EE02203240F021E030E0D1
:1005F000FC013383228380E090E015C08091CC021F
:10060000E82FF0E0E353FD4F998190838F5F809353
:10061000CC028093EE0205C061E0CE0101960E94FB
:10062000640281E090E00F90DF91CF9108951F92D6
:100630000F920FB60F9211242F933F934F935F9316
:100640006F937F938F939F93AF93BF93EF93FF939A
:100650008091B900887F803609F49CC068F58832A3
:1006600009F45BC090F4803109F454C038F4882355
:1006700009F4F6C0883009F44DC0F6C0883109F499
:100680004CC0803209F45DC0EFC0803409F468C00A
:1006900048F4803309F455C0883309F0E5C08093ED
:1006A000C802D8C0803509F44FC0883509F45DC050
:1006B000883409F0D9C0D6C0883909F4C7C0A8F475
:1006C000883709F467C038F4883609F463C0803786
:1006D00009F460C0C9C0883809F4B8C0803909F489
:1006E0005FC0803809F0C0C05BC0803B09F486C0A1
:1006F00038F4803A09F466C0883A09F47FC0B4C07F
:10070000803C09F4A7C0883C09F4A4C0883B09F4E4
:100710008AC0AAC08091A50210C09091C7028091A2
:10072000C602981770F5E091C70281E08E0F8093A2
:10073000C702F0E0EA55FD4F80818093BB0085EC55
:1007400086C08093C8028EC0E091C70281E08E0F00
:100750008093C7028091BB00F0E0EA55FD4F808393
:100760009091C7028091C6026EC0E091C70281E0FD
:100770008E0F8093C7028091BB00F0E0EA55FD4FD9
:1007800080838091C90281116DC081E08093A402B1
:1007900084EA61C083E08093CA0210929802CFCFAE
:1007A00080919802803208F051C0E091980281E077
:1007B0008E0F809398028091BB00F0E0E858FD4FC7
:1007C0008083BDCF85EC8093BC001092CA028091DB
:1007D0009802803230F4E0919802F0E0E858FD4F42
:1007E00010826091980270E0E0917602F0917702B9
:1007F00088E792E009951092980236C084E08093D1
:10080000CA021092750210927402E0917202F09185
:100810007302099580917402811105C081E0809373
:10082000740210925202E091750281E08E0F809363
:100830007502F0E0EE5AFD4F80818093BB009091ED
:10084000750280917402981708F479CF85E8809337
:10085000BC000AC085EC8093BC001092CA0204C0A0
:100860001092C8020E945A02FF91EF91BF91AF917E
:100870009F918F917F916F915F914F913F912F91B8
:100880000F900FBE0F901F9018951F920F920FB6EA
:100890000F9211242F933F934F935F936F937F9306
:1008A0008F939F93AF93BF9380912C0290912D02D1
:1008B000A0912E02B0912F02409126025091270262
:1008C000609128027091290284179507A607B7073F
:1008D00050F04091260250912702609128027091B9
:1008E00029029C010BC04091260250912702609181
:1008F0002802709129029C0121503109241B350BDB
:10090000309325022093240280932602909327029D
:10091000A0932802B093290280912402909125028D
:10092000893C910520F010922302109222028091BE
:10093000240290912502839708F463C080912402D9
:10094000909125028234910508F05BC080912102CC
:100950008111109221028091240290912502C79763
:10096000C8F080912402909125028234910590F480
:10097000209122023091230281E090E002C0880F92
:10098000991F2A95E2F720912A0230912B02822B9F
:10099000932B32C08091240290912502839730F0EE
:1009A00080912402909125028E9798F080912202E6
:1009B00090912302409718F481E080932102809166
:1009C00022029091230201969093230280932202A7
:1009D00018C0209122023091230281E090E002C0F1
:1009E000880F991F2A95E2F78095909520912A0209
:1009F00030912B028223932390932B0280932A021F
:100A0000D5CFBF91AF919F918F917F916F915F9162
:100A10004F913F912F910F900FBE0F901F901895FF
:100A20001F920F920FB60F921124CF92DF92EF9286
:100A3000FF922F933F934F935F936F937F938F9387
:100A40009F93AF93BF93EF93FF93C0902C02D090EE
:100A50002D02E0902E02F0902F02D701C6010196E0
:100A6000A11DB11D80932C0290932D02A0932E0204
:100A7000B0932F0220911502222309F48EC02091F9
:100A800020022223F1F080911E0290911F020A970A
:100A900071F41092200210921A0210921B0210920E
:100AA0001C0210921D0210921F0210921E028091D1
:100AB0001E0290911F02019690931F0280931E02C6
:100AC0004DC040911A0250911B0260911C0270911E
:100AD0001D0284179507A607B70721F48091F10638
:100AE000811155C080911A0290911B02A0911C02A5
:100AF000B0911D02892B8A2B8B2B81F580911802D6
:100B000090911902209116023091170202C0969519
:100B100087952A95E2F780FF06C08DE3C80ED11CA9
:100B2000E11CF11C05C089E2C80ED11CE11CF11CBE
:100B3000C0921A02D0921B02E0921C02F0921D0297
:100B400081E08093F1062D9A539A8091160290913C
:100B50001702019690931702809316028091160255
:100B6000909117024197C9F40E94862010921702B3
:100B700010921602109215021092200210921A0280
:100B800010921B0210921C0210921D0206C00E94BD
:100B9000862081E080932002A5CFFF91EF91BF9145
:100BA000AF919F918F917F916F915F914F913F9105
:100BB0002F91FF90EF90DF90CF900F900FBE0F908E
:100BC0001F9018951F920F920FB60F9211242F931A
:100BD0003F934F935F936F938F939F93EF93FF9305
:100BE000809113029091140282342FE0920750F109
:100BF0009091110280E08C30E1F020E030E0482F4D
:100C000050E0F901E40FF51FEB50FB4F90816CEFC2
:100C1000690F633020F068EF690F623010F4915073
:100C20009083245F3F4F203C310559F78F5F90E15F
:100C3000E2CF90931102809312021092140210924C
:100C4000130205C001969093140280931302FF9142
:100C5000EF919F918F916F915F914F913F912F9164
:100C60000F900FBE0F901F901895CF93DF93EC015C
:100C700084E791E099838883FB01828193819B8340
:100C80008A83848195819D838C83868197819F83CC
:100C90008E838085918599878887828593859B87B8
:100CA0008A87848595859D878C87868597859F878C
:100CB0008E8780899189998B888B828993899B8B78
:100CC0008A8B848995899D8B8C8B868997899F8B4C
:100CD0008E8B8CE17896DE01589601900D928A9564
:100CE000E1F7FB0184A98CAB85A98DAB86A997A9F7
:100CF0009FAB8EAB80AD91AD99AF88AF82AD93AD18
:100D00009BAF8AAF84AD95AD9DAF8CAF86AD97ADEF
:100D10009FAF8EAF8CE791E099838883E05CFF4FB3
:100D20008081C05CDF4F8883DF91CF910895FC0103
:100D3000918D828D981761F0828DDF01A80FB11D12
:100D40005D968C91928D9F5F9F73928F90E0089536
:100D50008FEF9FEF0895FC01918D828D981731F0F0
:100D6000828DE80FF11D858D90E008958FEF9FEF44
:100D70000895FC01918D228D892F90E0805C9F4F1A
:100D8000821B91098F73992708953FB7F89480913A
:100D90009E0290919F02A091A002B091A10226B55F
:100DA000A89B05C02F3F19F00196A11DB11D3FBFA3
:100DB000BA2FA92F982F8827820F911DA11DB11D31
:100DC000BC01CD0142E0660F771F881F991F4A952D
:100DD000D1F708950E9480281F920F920FB60F92AC
:100DE00011242F938F939F93EF93FF93E091C50569
:100DF000F091C6058081E091CB05F091CC0582FD94
:100E000012C090818091CE058F5F8F732091CF05A6
:100E1000821751F0E091CE05F0E0EB54FA4F958F38
:100E20008093CE0501C08081FF91EF919F918F91BA
:100E30002F910F900FBE0F901F901895FC01848D7D
:100E4000DF01A80FB11DA35ABF4F2C91848D90E0F4
:100E500001968F739927848FA689B7892C93A089CF
:100E6000B1898C9180648C93938D848D981306C086
:100E70000288F389E02D80818F7D80830895EF9231
:100E8000FF920F931F93CF93DF93EC0181E0888F44
:100E90009B8D8C8D981305C0E889F989808185FD2B
:100EA00024C0F62E0B8D10E00F5F1F4F0F7311271C
:100EB000E02E8C8DE8120CC00FB607FCFACFE88943
:100EC000F989808185FFF5CFCE010E941E07F1CF01
:100ED0008B8DFE01E80FF11DE35AFF4FF0820B8F5F
:100EE000EA89FB898081806207C0EE89FF8960837F
:100EF000E889F98980818064808381E090E0DF91D6
:100F0000CF911F910F91FF90EF900895CF93DF93B2
:100F1000EC01888D8823C9F0EA89FB89808185FDF1
:100F200005C0A889B9898C9186FD0FC00FB607FC52
:100F3000F5CF808185FFF2CFA889B9898C9185FF93
:100F4000EDCFCE010E941E07E7CFDF91CF9108952C
:100F500090E0FC01EC55FF4F3491FC01E057FF4F4E
:100F60002491FC01E458FF4FE491EE2309F43BC0C7
:100F7000332339F1333091F038F43130A9F0323085
:100F800001F584B58F7D12C0373091F03830A1F073
:100F90003430B9F4809180008F7D03C0809180004F
:100FA0008F77809380000DC084B58F7784BD09C092
:100FB0008091B0008F7703C08091B0008F7D8093C7
:100FC000B000F0E0EE0FFF1FEE58FF4FA591B49177
:100FD0008FB7F894EC91611103C020952E2301C0C6
:100FE0002E2B2C938FBF0895CF93DF9390E0FC01BD
:100FF000E057FF4F2491FC01E458FF4F8491882370
:1010000061F190E0880F991FFC01E859FF4FC591ED
:10101000D491FC01EE58FF4FA591B491611109C024
:101020009FB7F8948881209582238883EC912E23A2
:101030000BC0623061F49FB7F8943881822F80959D
:1010400083238883EC912E2B2C939FBF06C08FB7F0
:10105000F894E8812E2B28838FBFDF91CF910895DC
:101060008F929F92AF92BF92CF92DF92EF92FF92B8
:101070006B017C010E94C5064B015C01C114D104C7
:10108000E104F104F1F00E94C506DC01CB018819EE
:101090009909AA09BB09883E9340A105B10570F3DF
:1010A00021E0C21AD108E108F10888EE880E83E039
:1010B000981EA11CB11CC114D104E104F10419F75C
:1010C000DDCFFF90EF90DF90CF90BF90AF909F90DB
:1010D0008F9008952FB7F89460919A0270919B02B7
:1010E00080919C0290919D022FBF08951F920F92B4
:1010F0000FB60F9211242F933F938F939F93AF932B
:10110000BF9380919A0290919B02A0919C02B09112
:101110009D023091990223E0230F2D3720F4019690
:10112000A11DB11D05C026E8230F0296A11DB11D0A
:101130002093990280939A0290939B02A0939C0221
:10114000B0939D0280919E0290919F02A091A00277
:10115000B091A1020196A11DB11D80939E029093B2
:101160009F02A093A002B093A102BF91AF919F9163
:101170008F913F912F910F900FBE0F901F90189558
:101180002F923F924F925F926F927F928F929F9297
:10119000AF92BF92CF92DF92EF92FF920F931F9385
:1011A000CF93DF93CDB7DEB7CE59D1090FB6F89400
:1011B000DEBF0FBECDBF1C014B013A015901A796FE
:1011C0001FAE1EAEA79788EE93E0A0E0B0E0AB960E
:1011D0008CAF9DAFAEAFBFAFAB9784E191E0A5966A
:1011E0009FAF8EAFA597EE961FAE1EAEEE97E09620
:1011F0001FAEE0977E0129E2E20EF11C6EE776E079
:10120000C7010E94C51C1C821B8286E391E09A8361
:1012100089831E8261018E010F5F1F4FC656DF4F0B
:10122000E882CA59D040C756DF4FF882C959D0402A
:1012300028016FE270E0C6010E949228009709F42D
:101240007BC0D6012C912F3221F4BFEFCB1ADB0AE1
:10125000F0CF8C198D3008F08CE0282F30E0C55687
:10126000DF4F39832883CB59D040A901B601CE0185
:1012700082589F4F0E949D28EEE7F0E0EC0FFD1F83
:10128000C556DF4F28813981CB59D040E20FF31F7B
:101290001082C8010E94F41AD80115968C918823F7
:1012A00071F02A961FAE1EAE2A9786E391E028962B
:1012B0009FAF8EAF28972C961FAE2C9755C0AE01CE
:1012C00042585F4FC656DF4F6881CA59D040C75653
:1012D000DF4F7881C959D040C8010E947F0E882312
:1012E00001F3C556DF4F28813981CB59D040C20E5A
:1012F000D31EC656DF4F8881CA59D040C756DF4F2C
:101300009881C959D0400E94F41AC656DF4F98817F
:10131000CA59D040C756DF4F8881C959D040C656F8
:10132000DF4F0883CA59D040C756DF4F1883C959C9
:10133000D040092F182F7DCFC60182199309C356BB
:10134000DF4F99838883CD59D040C656DF4F6881DF
:10135000CA59D040C756DF4F7881C959D040CE0115
:101360008A5B9F4F0E94C51CC356DF4F08811981BD
:10137000CD59D040020D131DD8018C91811109C0A7
:10138000BE016A5B7F4FC2010E94C51C4EEB51E05B
:1013900048C01CA61BA686E391E09AA789A71EA6B3
:1013A0002C968FAD2C9781111EC0C058DF4F19822B
:1013B0001882C058D04088EE93E0A0E0B0E0CE574D
:1013C000DF4F88839983AA83BB83C258D040C95614
:1013D000DF4F19821882C759D040C657DF4F188295
:1013E000CA58D04024C08250A801823040F46EE731
:1013F00076E0C7010E947F0E81110EC0D6CFBE01DC
:101400006A5B7F4FC7010E947F0E882371F2CE0175
:101410008A5B9F4F0E94F41AB701C2010E94C51C4B
:10142000A801B201CE0182589F4F0E94201DC058D2
:10143000DF4F88819981C058D040A7969FAF8EAF6B
:10144000A797CE57DF4F88819981AA81BB81C25867
:10145000D040AB968CAF9DAFAEAFBFAFAB97CA5786
:10146000DF4F88819981AA81BB81C658D040AF9651
:101470008CAF9DAFAEAFBFAFAF978DE0EEE7F0E0C2
:10148000EC0FFD1F3C96A3E6B0E0AC0FBD1F1C9611
:1014900001900D928A95E1F7C956DF4FE881F981F5
:1014A000C759D040EE96FFAFEEAFEE97309709F4F4
:1014B0000CC18581882309F408C14EE050E0B201D7
:1014C000CE018D599F4F0E94161D8981823409F0EB
:1014D00055C08A818D3409F051C08B859C85AD85BE
:1014E000BE85C697A105B10509F048C048E250E0A5
:1014F000B201CE018D599F4F0E94161D89819A819C
:10150000AB81BC818897A105B105C1F58F8598890C
:101510004897A1F589899A89AB89BC89892B8A2B3F
:101520008B2B61F54D805E80E984FA84C20164E012
:1015300070E00E9416276C01C656DF4F8883CA5997
:10154000D040480C591CF50186819781841595057A
:101550003CF0E60CF71C808591858E159F05F4F410
:10156000CC24C394EE24EA94FE2C00E010E020EC9E
:1015700031E0A301B401C5010E948B20EE968EAD2F
:101580009FADEE97009709F4A0C00E94F41AEE9662
:101590008EAD9FADEE970E94E82797C021E0E21A3A
:1015A000F1088701920121503109A301B401C5015D
:1015B0000E94C81F16013324E614F704FCF26401EC
:1015C000C414D5040CF06DC043E050E0BE016F5F61
:1015D0007F4FCE018D599F4F0E94161DFB81C7562C
:1015E000DF4FF883C959D0402A81C556DF4F288381
:1015F000CB59D0403981C356DF4F3883CD59D040C5
:10160000D50116968D919C911797C816D9060CF0A6
:1016100044C018968D919C911997E816F906ECF53F
:10162000ED91FC910680F781E02D87019601A701DD
:10163000B601C5010995D501ED91FC910084F185B4
:10164000E02DC5010995D501ED91FC91C556DF4FFF
:101650006881CB59D0406C7FB8E06B9FB0011124FA
:10166000C756DF4F8881C959D040887F782BC35631
:10167000DF4F8881CD59D040869586958695682B19
:101680000284F385E02DC5010995D501ED91FC910A
:101690000484F585E02DC5010995BFEFCB1ADB0A5F
:1016A0008FCFC656DF4FE881CA59D040EE2349F0AC
:1016B000A101BE016F5F7F4FCE018D599F4F0E94E8
:1016C000161DF1E0EF1AF10877CFC256DF4F0FB6C3
:1016D000F894DEBF0FBECDBFDF91CF911F910F9168
:1016E000FF90EF90DF90CF90BF90AF909F908F9042
:1016F0007F906F905F904F903F902F9008950F9341
:101700001F93CF93DF93CDB7DEB7C154D1090FB686
:10171000F894DEBF0FBECDBF182F062FBA01CE0141
:1017200001960E94350684E1089FA001112484E1FE
:10173000189FB00111249E012F5F3F4F83ED91E070
:101740000E94C008CF5BDF4F0FB6F894DEBF0FBE1C
:10175000CDBFDF91CF911F910F910895AF92BF92AE
:10176000CF92DF92EF92FF920F931F93CF93DF936D
:10177000EC0160E00E9458216FEF7FEFCE010E94E4
:10178000C920CC24C394EE24EA94FE2C00E010E09F
:101790002FED31E045E050E065E070E0CE010E94C1
:1017A0008B205C0110925F0610925D0610925A0623
:1017B0001092590684E0809358060E946A088B01B3
:1017C00061E0809158060E94F40761E0809158061C
:1017D0000E94A8070E94A01D82E5809352061092E5
:1017E000530680915206909153060E942D156AE08F
:1017F000F62E8FEF0E94EE14FA94F110FACF84E5E2
:1018000096E00E94301520E030E0A90160E084E518
:1018100096E00E944615F82E80935E0681E0F81649
:1018200049F00E946A08601B710B613D774058F3D4
:1018300081E056C02AEA31E040E050E068E084E50B
:1018400096E00E94461582FF03C0F0925F0610C02A
:1018500044E0F42E0E94F51480935E06FA94F11091
:10186000F9CF8A3A11F082E03BC082E080935F06B4
:1018700080915F06823021F0C12CD12C760105C009
:10188000C12CD12CE12C30E4F32E20E030E0A90172
:1018900067E384E596E00E944615A701960169E298
:1018A00084E596E00E94461580935E06882349F001
:1018B0000E946A08601B710B613D774030F388E03D
:1018C0000FC080915F06823001F520E030E0A90171
:1018D0006AE384E596E00E944615882341F086E09D
:1018E0008093590684E596E00E94E31499C00E9413
:1018F000F514807C803C19F483E080935F060E949D
:10190000F5140E94F5140E94F51484E596E00E94F7
:10191000E31480E5809352061092530681E00E9402
:101920002F13882329F080918306882341F078C003
:1019300080E00E942F13882309F472C0F4CF8091B5
:101940007706803109F582E0809383061092950630
:10195000109296061092970610929806809178063B
:1019600090917906A0E0B0E025E0880F991FAA1FAA
:10197000BB1F2A95D1F78093910690939206A0936E
:101980009306B09394061EC0803209F049C083E0EC
:101990008093830640917A0650917B0660917C0685
:1019A00070917D0640939506509396066093970636
:1019B0007093980621E936E080E696E00E94AF1722
:1019C000882371F180E696E090939A0680939906B9
:1019D00081E0809382061092840610928506109210
:1019E0008606109287061092880610928906109239
:1019F0008A0610928B0610928C0610928D06109219
:101A00008E0610928F0610929006DF91CF911F9153
:101A10000F91FF90EF90DF90CF90BF90AF9008951F
:101A2000CC24C394EE24EA94FE2C00E010E02FEEC8
:101A300031E045E050E0B501CE010E948B20FFCFA0
:101A4000CF93DF93EC0168E00E9458216FEF7FEFA6
:101A5000CE01DF91CF910C94C920CF92DF92EF920B
:101A6000FF920F931F93CF93DF93EC01EE80FF80E3
:101A70006E157F051CF0B701615071092885398505
:101A8000421753071CF0A90141505109CB0144965C
:101A90008E159F051CF0E61AF70A03C094E1E92EA3
:101AA000F12CCA0144968217930724F06901C41AE5
:101AB000D50A03C084E1C82ED12CE881F9818A01BE
:101AC0000C0D1D1D015011099B012E0D3F1D2150B4
:101AD00031090680F781E02DCE010995E881F98171
:101AE0000084F185E02DCE0109959601D7010E9471
:101AF0002A276B017C01E881F981C114D104E1043A
:101B0000F10469F00284F385E02D6FEF7FEFCE01E1
:101B1000099581E0C81AD108E108F108ECCF0484E6
:101B2000F585E02DCE01DF91CF911F910F91FF90B0
:101B3000EF90DF90CF900994CF92DF92EF92FF92D7
:101B40000F931F93CF93DF936C017A018B01C0E059
:101B5000D0E0CE15DF0589F0D8016D918D01D60159
:101B6000ED91FC910190F081E02DC6010995892B42
:101B700011F47E0102C02196ECCFC701DF91CF9115
:101B80001F910F91FF90EF90DF90CF900895CF932A
:101B9000DF93EC016A8B8091050190910601A09181
:101BA0000701B09108018E879F87A88BB98B80E2CF
:101BB000689FF0011124EB50FD4F4489558960E086
:101BC00070E0BA01552744274F8B588F698F7A8F61
:101BD000828D938DA0E0B0E0482B592B6A2B7B2B94
:101BE0004F8B588F698F7A8F8385887151F4848DDC
:101BF000958DA68DB78D8B8B9C8BAD8BBE8B81E02D
:101C00000EC0803111F080E015C09E012D5E3F4F67
:101C10008B8D9C8D0E94AF178823A9F384E08D8360
:101C200081E08C831E821F82188619861A861B8685
:101C30001C861D86DF91CF910895E5EBF5E0A08924
:101C4000B18982E08C93A485B5851C92A685B78561
:101C50008FEC8C93108EA489B58986E08C93A28931
:101C6000B3898C9180618C93A289B3898C918860AF
:101C70008C93A289B3898C9180688C930288F389B4
:101C8000E02D80818F7D80830895AF92BF92CF92A7
:101C9000DF92EF92FF920F931F93CF93DF935C013C
:101CA00085EFC82E84E0D82EE12CF12C8601C0E00F
:101CB000D0E0F8018081873031F41082A701BE01A5
:101CC000C5010E942D0D045F1F4F6496C034F1E0E2
:101CD000DF0779F78FEFC81AD80AE4E1EE0EF11C9E
:101CE000F0EFEF16F10411F7DF91CF911F910F91F3
:101CF000FF90EF90DF90CF90BF90AF900895AF929C
:101D0000BF92CF92DF92EF92FF920F931F93CF93E8
:101D1000DF93CDB7DEB72B970FB6F894DEBF0FBEBB
:101D2000CDBF7C01CE0101966C01FC0190E28BE0FD
:101D30008C0D91938E13FDCFDA0120E037E09D9159
:101D4000992339F19E3219F0E8EBF0E00AC03A30FD
:101D500009F4AAC028E03AE0F2CF3196891709F4D5
:101D6000A3C084918111F9CF321708F49DC08FED83
:101D7000890F8E3508F098C081E0820FF601E20FDE
:101D8000F11D2FE9290F2A3108F490529083282F52
:101D9000D6CF8981803209F487C08B01FB01838D06
:101DA000948DF701948F838FFB0116821782108622
:101DB00011861286138614861586A12CF801828559
:101DC0009385A485B5854389548965897689841767
:101DD0009507A607B70708F067C025E0B695A79551
:101DE000979587952A95D1F7F82FFF70BF2EF801A8
:101DF0008581823008F458C0C8010E94551D97FDA6
:101E000053C0F80182859385A485B5854F96A11DA1
:101E1000B11D82879387A487B587F0E2BF9EC0017A
:101E20001124BC016B507D4F61157105E9F1FB0177
:101E300020812223B9F1253EE1F04BE050E0C601BC
:101E40000E948528892B09F0B9CF6B2DC7012B96ED
:101E50000FB6F894DEBF0FBECDBFDF91CF911F91BB
:101E60000F91FF90EF90DF90CF90BF90AF900C94C8
:101E7000C70DA11014C0F701B28A4091050150911D
:101E80000601609107017091080146875787608BB2
:101E9000718BFC01EB50FD4F8081882329F0AA242F
:101EA000A3948CCFAA2039F380E02B960FB6F89438
:101EB000DEBF0FBECDBFDF91CF911F910F91FF907D
:101EC000EF90DF90CF90BF90AF9008952F923F9208
:101ED0004F925F926F927F928F929F92AF92BF923A
:101EE000CF92DF92EF92FF920F931F93CF93DF93E6
:101EF000CDB7DEB7CB54D1090FB6F894DEBF0FBE15
:101F0000CDBF6C01042FE22E10E089E0782E262F41
:101F100030E028963FAF2EAF289794E1692E25EF49
:101F200034E026963FAF2EAF2697A12CB12C2496F5
:101F30001FAE1EAE2497F12C412E512C2696AEAD2D
:101F4000BFAD2697A40DB51D8C91833009F0ECC16F
:101F50003CE0039FF0011124EB50FB4FEE0DF11D0F
:101F60008081833019F486E08C93DEC17C92B601C7
:101F7000CE0101960E94350684E1189F400111248C
:101F80009E012F5F3F4FA401B50186EF91E00E94B3
:101F9000C0083F2C24962EAD3FAD249728968EADD9
:101FA0009FAD2897280F391F2A963FAF2EAF2A974B
:101FB000232D30E02A968EAD9FAD2A97281739073A
:101FC0000CF059C02F5F3F4F9CE0929FF001939F10
:101FD000F00D1124EB50FB4FE40DF51D808188239B
:101FE00021F099EF980F933000F57082B601CE0181
:101FF00001962B962FAF2B972C963FAF2C970E94D4
:1020000035062B962FAD2B972C963FAD2C97629EC5
:10201000B001639E700D11249E012F5F3F4FA401FC
:1020200086EF91E00E94C00837C0823099F5708237
:10203000B601CE0101962B962FAF2B972C963FAF72
:102040002C970E9435062B962FAD2B972C963FADE3
:102050002C97629EB001639E700D11249E012F5F2C
:102060003F4FA40186EF91E00E94C0088091F202E8
:102070008F5F8093F20224962EAD3FAD2497289671
:102080008EAD9FAD2897281B390B2A963FAF2EAFF8
:102090002A973DC0813079F333948ACF9CE0099F21
:1020A000F0011124EB50FB4FEE0DF11D80818750A4
:1020B0008330C0F1F2018CE0389EE00DF11D112457
:1020C000E751FB4F8081811134C07082B601CE018F
:1020D00001962B962FAF2B972C963FAF2C970E94F3
:1020E00035062B962FAD2B972C963FAD2C97215074
:1020F0003109629EB001639E700D11249E012F5F15
:102100003F4FA40186EF91E00E94C0083A94232D2E
:1021100030E02A968EAD9FAD2A97821793070CF474
:10212000BDCF33C0332019F0E12E032DC3CF00E023
:10213000C1CF99EF980F933040F2823069F57082E9
:10214000B601CE0101962B962FAF2B972C963FAF61
:102150002C970E9435062B962FAD2B972C963FADD2
:102160002C9721503109629EB001639E700D11249D
:102170009E012F5F3F4FA40186EF91E00E94C008AF
:102180008091F2028F5F8093F20228968EAC9FAC12
:102190002897840C951C31C0813009F0B7CFF5CF5A
:1021A0009CE0099FF0011124EB50FB4FEE0DF11D57
:1021B00080818750833038F119018FEF281A380A4F
:1021C0002696EEADFFAD2697E20DF31D80818111BD
:1021D00022C07082B601CE0101960E943506629C33
:1021E000A001639C500D11249E012F5F3F4FB5014C
:1021F00086EF91E00E94C0081F5F212F30E0281574
:10220000390574F226C0FF2009F4CCC01111C5C0F5
:10221000E12C0F2DD1CF99EF980F9330D0F282306F
:1022200001F57082B601CE0101960E943506629CCE
:10223000A001639C500D11249E012F5F3F4FB501FB
:1022400086EF91E00E94C0088091F2028F5F809338
:10225000F202420128962EAD3FAD2897821A930ACA
:102260002FC0813049F6F5CF3CE0039FF0011124E7
:10227000EB50FB4FEE0DF11D80818750833030F124
:1022800081E0481A51082696EEADFFAD2697E40D81
:10229000F51D8081811122C07082B601CE010196A8
:1022A0000E943506649CA001659C500D11249E017E
:1022B0002F5F3F4FB50186EF91E00E94C00811509B
:1022C000412E512C841495047CF229C0FF2009F47E
:1022D00070C0111169C0E12C0F2DD2CF99EF980F6A
:1022E0009330D0F28230C9F47082B601CE010196EB
:1022F0000E943506649CA001659C500D11249E012E
:102300002F5F3F4FB50186EF91E00E94C00880919A
:10231000F2028F5F8093F20202C0813081F68091D9
:10232000F30281508093F302F39424962EAD3FADD7
:1023300024972F5F3F4F24963FAF2EAF24972696CA
:102340008EAD9FAD26970C9626969FAF8EAF2697A3
:1023500094E1A90EB11C2031310509F0EDCD1F5FCC
:102360001C3008F4DCCDC55BDF4F0FB6F894DEBF40
:102370000FBECDBFDF91CF911F910F91FF90EF90D6
:10238000DF90CF90BF90AF909F908F907F906F9095
:102390005F904F903F902F90089581E08093F102DD
:1023A000E12E37CF00E008CF91E09093F102E12ECB
:1023B00093CF00E065CFCF93DF93CDB7DEB7C154A5
:1023C000D1090FB6F894DEBF0FBECDBF2091F00249
:1023D000222321F19091EF02992301F1821302C08F
:1023E0006917E1F0BA01CE0101960E9435064091CD
:1023F000EF026091F00284E1489FA001112484E182
:10240000689FB00111249E012F5F3F4F8DEF91E037
:102410000E94C0081092F0021092EF02CF5BDF4FD3
:102420000FB6F894DEBF0FBECDBFDF91CF910895F8
:10243000EF92FF920F931F93CF93DF93CDB7DEB749
:10244000C154D1090FB6F894DEBF0FBECDBF162F11
:102450009091020160910301911302C0681729F164
:102460007A01082F84E1989FA001112484E1689FDC
:10247000B0011124C7010E942D0DB701CE010196B4
:102480000E94350684E1189FA001112484E1089F71
:10249000B00111249E012F5F3F4F83ED91E00E9418
:1024A000C0080093030110930201CF5BDF4F0FB60A
:1024B000F894DEBF0FBECDBFDF91CF911F910F917A
:1024C000FF90EF900895382F2091EE029091ED0249
:1024D000213208F049C08091CA028111FCCF42E04C
:1024E0004093CA023093C9023FEF3093C802109262
:1024F000C7022093C602ADECB2E046EA52E0FA0110
:102500003E2F341B321718F43D913193F9CF1092BE
:10251000A5022091A502990F922B9093A50290916C
:10252000A402913061F41092A4029091A5029093BC
:10253000BB009091BC0093FDF8CF95EC01C095EEE7
:102540009093BC009091CA029230E1F39091C8023E
:102550009F3F79F08091C802803241F08091C8029B
:10256000803331F084E005C081E003C082E001C027
:1025700083E01092CC021092EE021092CB020895EA
:102580004F925F926F927F928F929F92AF92BF9283
:10259000CF92DF92EF92FF920F931F93CF93DF932F
:1025A000CDB7DEB7C154D1090FB6F894DEBF0FBE68
:1025B000CDBF4C012B013A0185EFA82E84E0B82E47
:1025C000E12CF12C650100E010E0F6018081813002
:1025D00061F4B401CE0101960E9435069E012F5F81
:1025E0003F4FA701B801C2010DC0823069F4B401A8
:1025F000CE0101960E9435069E012F5F3F4FA70135
:10260000B801C3010E94C008FCE0CF0ED11C0C5ED3
:102610001F4F003481E01807C1F6E4E1EE0EF11C13
:10262000FFEFAF1ABF0A80EFE816F10459F6CF5B4F
:10263000DF4F0FB6F894DEBF0FBECDBFDF91CF9155
:102640001F910F91FF90EF90DF90CF90BF90AF90D0
:102650009F908F907F906F905F904F9008958F9292
:102660009F92AF92BF92CF92DF92EF92FF92CF9361
:10267000DF93C82F84E596E09093A3028093A20293
:10268000CC2369F1C53010F080E00DC140E060E07E
:1026900070E0CB010E94E2168823B1F320E1C29FD3
:1026A000C00111248B519D4FFC01E254FE4F20814B
:1026B0002F7751F73C964081518162817381443676
:1026C00051056105710500F33497C080D180E28027
:1026D000F380C114D104E104F10421F4D5CFC12C5D
:1026E000D12C760140E0C701B6010E94E216882392
:1026F00059F280910003909101038115924021F6D7
:10270000A0910503AA2309F4BFCF60910303709140
:1027100004036115710509F4B7CF20910203222348
:1027200009F4B2CFA09372062093640680E030E0F3
:10273000E1E0F0E0C82FAF01082E02C0440F551FA2
:102740000A94E2F72417350741F0982F8F5F9830ED
:1027500089F789E080936D0697CF80936D0620916D
:102760000B0330910C032115310519F040E050E0C6
:1027700008C02091190330911A0340911B03509116
:102780001C032093650630936606409367065093BA
:10279000680646015701860E971EA11CB11C809247
:1027A000730690927406A0927506B0927606E09138
:1027B0000603F0910703F0937906E0937806B0E002
:1027C0000E94D628860E971EA81EB91E80927A06F1
:1027D00090927B06A0927C06B0927D0685E0EE0F7B
:1027E000FF1F8A95E1F7E150FE4FEF2FFF27E69597
:1027F0008E0E9F1EA11CB11C80926E0690926F06D9
:10280000A0927006B09271062091080330910903DE
:102810002115310521F0A90160E070E008C0409168
:102820001503509116036091170370911803D70197
:10283000C60188199909AA09BB09840F951FA61F0B
:10284000B71F04C0B695A79597958795CA95D2F7F7
:102850008093690690936A06A0936B06B0936C060A
:10286000853F2FE09207A105B10510F48CE018C058
:10287000853F9F4FA105B10510F480E111C0809103
:10288000210390912203A0912303B091240380930C
:102890007A0690937B06A0937C06B0937D0680E237
:1028A0008093770681E0DF91CF91FF90EF90DF90EA
:1028B000CF90BF90AF909F908F900895CF93DF936C
:1028C000E5EFF4E080E091E020E030E0DF01AC549F
:1028D000BF4F882311F08B3029F4EF01C20FD31FB3
:1028E000988302C090839C93245F3F4F203C310526
:1028F00081F78F5F31968C3039F7DF91CF91089552
:102900001F920F920FB60F9211242F933F934F9364
:102910005F936F937F938F939F93AF93BF93EF9347
:10292000FF9385EB95E00E941E07FF91EF91BF9109
:10293000AF919F918F917F916F915F914F913F9157
:102940002F910F900FBE0F901F901895DC01599694
:10295000ED91FC915A973097B9F083899489A589B4
:10296000B6894285538564857585841B950BA60BB6
:10297000B70B811520E89207A105B10538F08FEF5C
:102980009FE7A0E0B0E0089580E090E00895CF9345
:10299000DF931F92CDB7DEB76983DC01ED91FC9127
:1029A0000280F381E02D41E050E0BE016F5F7F4F78
:1029B00009950F90DF91CF9108958FB7F89480918A
:1029C000EC068FBF089561E0FC0184810E94A80796
:1029D0008091EB0681111092EB0608958EBD0000E8
:1029E0000DB407FEFDCF8EB508958FEF0C94EE1455
:1029F0000F931F93CF93DF93EB010E946A088B0123
:102A00000E94F5148F3F49F00E946A08601B710B09
:102A10006C177D07A8F380E001C081E0DF91CF91C2
:102A20001F910F910895CF93DF93EC018E8188233E
:102A300089F08F8198859C012F5F3F4F38872F83C6
:102A40008230924018F40E94F514F3CFCE010E9418
:102A5000E3141E82DF91CF9108958CBD9DBD089532
:102A6000CF93DF93EC018091EB06811109C081E0E7
:102A70008093EB0680915206909153060E942D158B
:102A800060E08C81DF91CF910C94A807CF92DF9208
:102A9000FF920F931F93CF93DF9300D000D0CDB759
:102AA000DEB76C01F62E29833A834B835C830E9448
:102AB0001315C6010E9430156CE271E0C6010E9438
:102AC000F8148F2D80640E94EE1408E110E05C8100
:102AD0004B813A812981DA01C901002E04C0B695E3
:102AE000A795979587950A94D2F729833A834B83C4
:102AF0005C830E94EE140850110929813A814B81B0
:102B00005C81083F8FEF180731F7FF2029F0E8E0DC
:102B1000FE1204C087E803C085E901C08FEF0E9460
:102B2000EE1410E00E94F514F601828787FF04C0BE
:102B30001F3F11F01F5FF6CF0F900F900F900F9077
:102B4000DF91CF911F910F91FF90DF90CF9008956B
:102B5000AF92BF92CF92DF92EF92FF920F931F93AB
:102B6000CF93DF93EC016901C801820F931F81307D
:102B7000924008F070C08E81882371F0888199811D
:102B8000AA81BB81481759076A077B0729F48F81FF
:102B90009885C816D906B0F5488359836A837B8324
:102BA0008B85833039F089E0440F551F661F771FEE
:102BB0008A95D1F79A01AB0161E1CE010E944615D9
:102BC000882319F083E08D8346C00E946A085B0168
:102BD0000E94F5148A878F3F49F40E946A086A1997
:102BE0007B096D327140A0F38FE003C08E3F31F05E
:102BF0008DE08D83CE010E94E3142DC018861F82C4
:102C000081E08E838F8198858C159D0540F40E940C
:102C1000F5148F819885019698878F83F3CF67018C
:102C2000E00EF11ECE14DF0431F00E94F514F6011F
:102C300081936F01F7CF8F819885080F191F18872F
:102C40000F838985882319F00115124048F0CE01C1
:102C50000E94131505C0CE010E94E31480E001C05C
:102C600081E0DF91CF911F910F91FF90EF90DF9066
:102C7000CF90BF90AF900895EF92FF920F931F9364
:102C8000CF93DF93EC017901411551056105710581
:102C900011F482E13CC08B85833039F089E0440F28
:102CA000551F661F771F8A95D1F79A01AB0168E11E
:102CB000CE010E944615882311F084E028C08EEFD3
:102CC0000E94EE1487018EEFF81AF80181918F01AE
:102CD0000E94EE140E151F05C1F78FEF0E94EE142F
:102CE0008FEF0E94EE140E94F5148A878F71853051
:102CF00031F081E18D83CE010E94E31409C068E5C3
:102D000072E0CE010E94F814811107C085E18D8325
:102D1000CE010E94E31480E013C020E030E0A9015E
:102D20006DE0CE010E944615811104C00E94F51489
:102D3000882311F084E1EBCFCE010E94E31481E0FF
:102D4000DF91CF911F910F91FF90EF9008958091A7
:102D5000F4028823A9F14091050150910601609188
:102D600007017091080125EF32E08091A202909155
:102D7000A3020E943C16811102C080E00895409198
:102D8000ED065091EE066091EF067091F006411548
:102D900051056105710591F025EF32E08091A202A5
:102DA0009091A3020E943C16882339F31092ED06FD
:102DB0001092EE061092EF061092F0061092F402B6
:102DC00081E008958F929F92AF92BF92EF92FF920F
:102DD0000F931F93CF934B015C01C42F809105018A
:102DE00090910601A0910701B091080188159905FD
:102DF000AA05BB0501F10E94A716811102C080E05F
:102E000020C085EFE82E82E0F82E00E012E020E0FE
:102E100030E0B501A4018091A2029091A3020E942A
:102E2000A815882361F38092050190920601A09273
:102E30000701B09208018091F402C82BC093F402FC
:102E400081E0CF911F910F91FF90EF90BF90AF90D5
:102E50009F908F9008958F929F92AF92BF92CF9242
:102E6000DF92EF92FF920F931F93CF93DF93FC01BA
:102E700081859285A385B4850196A11DB11D841716
:102E80009507A607B70710F480E05CC08389948992
:102E9000A589B689C789C03129F4852E962EA72E1B
:102EA000BB2409C04A015B01C7E0B694A79497947C
:102EB0008794CA95D1F7E9016A017B018F01BC01B2
:102EC000CD01680D791D8A1D9B1D80900501909094
:102ED0000601A0900701B0900801681579058A05E0
:102EE0009B0599F4F80187898031A9F4B701A601FF
:102EF000552766277727440F551FFA01EB50FD4FE2
:102F000080819181A0E0B0E018C040E00E94E2160C
:102F10008111E8CFB9CFB701A6014F7755276627B2
:102F20007727440F551F440F551FFA01EB50FD4FF3
:102F300080819181A281B381BF7088839983AA83A4
:102F4000BB8381E0DF91CF911F910F91FF90EF90B4
:102F5000DF90CF90BF90AF909F908F9008954F9249
:102F60005F926F927F92AF92BF92CF92DF92EF9279
:102F7000FF920F931F93CF93DF9300D000D0CDB774
:102F8000DEB78C0149835A836B837C835901C12C42
:102F9000D12C7601412C82E0582E612C712C498174
:102FA0005A816B817C819E012F5F3F4FC8010E9437
:102FB0002B17882351F1D301C201F801058404C005
:102FC000880F991FAA1FBB1F0A94D2F7C80ED91EDB
:102FD000EA1EFB1E49815A816B817C818789803181
:102FE00029F088EF9FEFAFEFBFE004C088EF9FEFBD
:102FF000A0E0B0E0481759076A077B0780F2F501A7
:10300000C082D182E282F38281E00F900F900F9014
:103010000F90DF91CF911F910F91FF90EF90DF9074
:10302000CF90BF90AF907F906F905F904F9008953A
:103030008F929F92AF92BF92CF92DF92EF92FF92C8
:103040000F931F93CF93DF93EC018D81811102C009
:1030500080E077C00B891C892D893E8904171507EC
:1030600026073707A8F36A017B01823029F4CA8654
:10307000DB86EC86FD860DC0C114D104E104F104A9
:1030800051F41E821F82188619861A861B861C869A
:103090001D8681E056C08A849B84AC84BD84EB8D00
:1030A000FC8D258530E0275F3F4FB501A4014150DD
:1030B000510961097109022E04C0769567955795EB
:1030C00047950A94D2F7D701C6010197A109B10922
:1030D00004C0B695A795979587952A95D2F784173A
:1030E0009507A607B70720F089288A288B2849F476
:1030F0004F89588D698D7A8D4E835F836887798774
:1031000004C0841B950BA60BB70B4C015D018E010F
:103110000A5F1F4F81149104A104B10409F4A7CFE1
:103120004E815F816885798598018B8D9C8D0E9489
:103130002B1791E0891A9108A108B1088111EACFF3
:1031400087CFDF91CF911F910F91FF90EF90DF908C
:10315000CF90BF90AF909F908F9008953F924F92E5
:103160005F926F927F928F929F92AF92BF92CF9217
:10317000DF92EF92FF920F931F93CF93DF93CDB720
:10318000DEB72C970FB6F894DEBF0FBECDBF5C0143
:10319000DC015B968D909C905C971696CD90DD90AF
:1031A000ED90FC901997C114D104E104F10439F0B9
:1031B000BFEFCB1ADB0AEB0AFB0A312C07C0F40184
:1031C000C080D180E280F38033243394F401818580
:1031D0009285A385B4859C01AD012F5F3F4F4F4F72
:1031E0005F4F29873A874B875C87260137011D820D
:1031F0001E821F821886F40181859285A385B4857D
:103200002D813E814F815885281739074A075B0772
:1032100008F063C089859A85AB85BC858C159D05B2
:10322000AE05BF0550F482E0C82ED12CE12CF12C64
:1032300092E0492E512C612C712C9E012F5F3F4F43
:10324000B701A601C4010E942B17882309F445C0C9
:1032500089819A81AB81BC81892B8A2B8B2B41F090
:10326000260137019FEF491A590A690A790A05C0F0
:10327000C414D504E604F70491F02D813E814F81FA
:1032800058852F5F3F4F4F4F5F4F2D833E834F83B6
:1032900058873FEFC31AD30AE30AF30AACCF0FEF04
:1032A0001FEF2FEF3FE0B301A201C4010E944822AB
:1032B000882399F0D50116964D915D916D917C9181
:1032C0001997411551056105710549F09301820176
:1032D000C4010E944822811102C080E02AC0D501A9
:1032E00016964D925D926D927C921997332051F013
:1032F000D301C2010196A11DB11DF4018083918308
:10330000A283B383F5018789908DA18DB28D892B1E
:103310008A2B8B2B69F4D50157964D925D926D9255
:103320007C925A9714968C911497806814968C937B
:1033300081E02C960FB6F894DEBF0FBECDBFDF91B3
:10334000CF911F910F91FF90EF90DF90CF90BF90A2
:10335000AF909F908F907F906F905F904F903F9035
:1033600008952F923F924F925F926F927F928F9229
:103370009F92AF92BF92CF92DF92EF92FF920F9304
:103380001F93CF93DF93EC016B014A018D81811173
:1033900003C08FEF9FEFD7C08C8180FFFACF4B889F
:1033A0005C886D887E884A855B856C857D85C401D7
:1033B000A0E0B0E093018201041B150B260B370B34
:1033C000081719072A073B0718F44201841A950ABF
:1033D00054011E0126E0220E311CA114B10409F48F
:1033E0007EC04A855B856C857D852A0181E05822F7
:1033F000ED818A019B0189E0369527951795079500
:103400008A95D1F78B8D9C8DE23061F4FC01828D21
:10341000938DA48DB58DBC01CD01600F711F821FEE
:10342000931F3FC0FC0174807A94702241145104B0
:10343000C9F4711017C0452B462B472B49F48F89CF
:10344000988DA98DBA8D8E839F83A887B9870AC06E
:103450004E815F816885798591010E942B178823B1
:1034600009F497CFEB8DFC8D8E819F81A885B9855E
:103470000297A109B109058404C0880F991FAA1FEA
:10348000BB1F0A94D2F74685578560897189840FDE
:10349000951FA61FB71FBC01CD01670D711D811DB2
:1034A000911D20E032E02419350935012A153B052C
:1034B00008F439012C8126FD04C06114F2E07F0676
:1034C00081F40091050110910601209107013091CE
:1034D00008016017710782079307B1F402C0C401A5
:1034E00032C040E00E94E216882309F452CFF20174
:1034F000EB50FD4FD601CF01860D971DE817F90758
:1035000089F021912D93FACF760183019201AB01CD
:10351000BC018091A2029091A3020E94A815882369
:1035200009F437CFC60CD71C8A859B85AC85BD8531
:10353000860D971DA11DB11D8A879B87AC87BD870E
:10354000A618B7084ACFDF91CF911F910F91FF9036
:10355000EF90DF90CF90BF90AF909F908F907F9033
:103560006F905F904F903F902F900895CF93DF938F
:10357000EC018D818823A1F18C8187FF2DC06E85A0
:103580007F858889998941E00E94E216882341F16C
:10359000EA8980E2E89FF0011124DF01AB50BD4FC2
:1035A0001097F1F08D81823050F44B895C896D89E0
:1035B0007E895C964D935D936D937C935F978F8925
:1035C000988DA98DBA8DEB50FD4F938F828FB58B5F
:1035D000A48B8C818F778C83DF91CF910C94A7166D
:1035E00080E0DF91CF910895CF93DF93EC010E94AB
:1035F000B61A882311F01D8281E0DF91CF910895E2
:10360000FC01818D928D009711F00C94B61A0895EB
:103610002F923F924F925F926F927F928F929F92E2
:10362000AF92BF92CF92DF92EF92FF920F931F93D0
:10363000CF93DF9300D000D0CDB7DEB78C015B0114
:103640001A01DC0115968C9115978130C9F41496F6
:103650008C9181FF15C082FF1BC0F80143895489FA
:103660006589768982859385A485B58584179507B4
:10367000A607B70769F0C8010E941818811108C091
:1036800081E090E0F8019383828380E090E039C18B
:10369000610183C0D8015B968D919C915C97FC0180
:1036A000248121502A013B0139E076946794579494
:1036B00047943A95D1F7722E74207A01F1E0FF22F7
:1036C000772009F476C080E092E08E199F094601C8
:1036D0008C159D0508F44C01D8015B962D913C9109
:1036E0005C9716968D919D910D90BC91A02D02979F
:1036F000A109B109F901058404C0880F991FAA1F07
:10370000BB1F0A94D2F74685578560897189840F5B
:10371000951FA61FB71F9C01AD01270D311D411D2F
:10372000511D29013A01811432E0930609F088C045
:103730008091050190910601A0910701B0910801C7
:1037400084159505A605B70559F48FEF9FEFDC01A9
:103750008093050190930601A0930701B09308019F
:103760009501B301A2018091A2029091A3020E944F
:103770003C16882309F484CF9EEFB91AC818D908DB
:10378000F80182859385A485B585880D991DA11DB5
:10379000B11D82879387A487B587D8011A964D916A
:1037A0005D916D917C911D97C114D10409F072CF88
:1037B00087C0E114F10409F086CF16964D915D9112
:1037C0006D917C911997411551056105710559F469
:1037D00057968D919D910D90BC91A02D0097A105BC
:1037E000B10541F521C09E012F5F3F4F0E942B176D
:1037F000882309F44BCF89819A81AB81BC81F80180
:10380000238D348DF9012789203129F048EF5FEFAE
:103810006FEF7FE004C048EF5FEF60E070E0841777
:103820009507A607B70730F0C8010E94AE188111AE
:103830004ACF26CFF80186839783A087B18743CFED
:10384000E114F10429F5D8011A964D915D916D911D
:103850007C911D9753968D919D910D90BC91A02DBB
:10386000481759076A077B0798F00E94A716882314
:1038700009F406CF409205015092060160920701BB
:10388000709208018091F40281608093F40208C074
:1038900041E0C301B2010E94E216882309F4F0CE90
:1038A000D501F701EB50FD4FCF01880D991DE817A9
:1038B000F90719F02D912193FACFA80CB91C5ECF0E
:1038C00053968D919D910D90BC91A02D84179507D5
:1038D000A607B70740F4F801438B548B658B768BB2
:1038E000848180688483D80114968C9183FD02C002
:1038F000C10107C0C8010E94B61A882309F4C0CECE
:10390000F7CF0F900F900F900F90DF91CF911F91F5
:103910000F91FF90EF90DF90CF90BF90AF909F906E
:103920008F907F906F905F904F903F902F90089571
:10393000CF93DF931F92CDB7DEB7698341E050E0AC
:10394000BE016F5F7F4F0E94081B0F90DF91CF91E8
:103950000895CF93DF93EC01898D9A8D009739F408
:1039600081E090E09B838A8380E090E00BC0FC01C3
:10397000138212820E94081BE98DFA8D2281338105
:10398000232B71F7DF91CF910895FC01DB01129693
:103990008D919C9113979383828386E391E0918329
:1039A000808314968C911497848315968C91159727
:1039B000858316964D915D916D917C911997468303
:1039C0005783608771871A964D915D916D917C91B7
:1039D0001D9742875387648775871E964D915D9129
:1039E0006D917C91519746875787608B718B52966A
:1039F0008C915297828B53964D915D916D917C91F4
:103A00005697438B548B658B768B57964D915D9172
:103A10006D917C915A97478B508F618F728F5B9617
:103A20008D919C915C97948F838F0895FC01818D7B
:103A3000928D009711F00C94B11980E090E00895F8
:103A4000EF92FF920F931F93CF93DF93EC017B01D3
:103A50008A011B821A8288EE93E0A0E0B0E08C839A
:103A60009D83AE83BF8384E191E0998388838DE158
:103A700090E00E9453279A8F898F009779F02DE16B
:103A8000F701DC0101900D922A95E1F74CE050E03E
:103A9000B801CE010C960E949D28188EDF91CF911F
:103AA0001F910F91FF90EF900895CF93DF931F9296
:103AB000CDB7DEB741E050E0BE016F5F7F4F0E949F
:103AC000B119019719F4898190E002C08FEF9FEF3F
:103AD0000F90DF91CF910895FC01818D928D009719
:103AE00011F00C94551D8FEF9FEF08950F931F93C6
:103AF000CF93DF93FC01818D928D0097B9F0EF0198
:103B00000E94551D8C010F3F8FEF180791F0898D92
:103B10009A8DFC0142855385648575854150510914
:103B2000610971090E941818C80105C080E090E081
:103B300002C08FEF9FEFDF91CF911F910F910895FA
:103B4000CF93CFB7F8948091EA06811127C0E6E8B9
:103B5000F0E08491EAE9F0E09491E82FF0E0EE0FD4
:103B6000FF1FE859FF4FA591B491EC91E92321F48F
:103B700061E08AE00E94A80761E08AE00E94F40701
:103B80008CB580618CBD8CB580648CBD61E08DE0AE
:103B90000E94F40761E08BE00E94F4078091EA063E
:103BA0008F5F8093EA06CFBFCF9108955F9A089503
:103BB0009CB5282F23709C7F922B9CBD2DB582FB3A
:103BC000992790F9822F8E7F892B8DBD0895CF92F2
:103BD000EF92FF920F931F93CF93DF93EC01262F69
:103BE0006A3081F48EAD9FAD9BAF8AAF2CA92F7741
:103BF0008CAD9DAD38E0239F800D911D11249DAFAC
:103C00008CAF47C0862F8B7F893009F442C06AADE4
:103C10007BAD203219F461157105D9F1E881F98184
:103C2000E8ACF9AC0EA91FA94CAD5DAD0088F189D7
:103C3000E02DCCA8CE010995BC019BAF8AAF8DA920
:103C4000882339F12CA92F77822F90E048EF420387
:103C5000900111244E815F81420F531F4617570771
:103C6000C4F44EAD5FAD5BAF4AAF43E0880F991F20
:103C70004A95E1F74CAD5DAD840F951F9DAF8CAFBC
:103C800048855985240F351F2817390714F41DAEB0
:103C90001CAE81E090E0DF91CF911F910F91FF90DA
:103CA000EF90CF900895CF92EF92FF920F931F93D2
:103CB000DC01ED91FC910684F785E02D09951F91BB
:103CC0000F91FF90EF90CF9008952F923F924F92D7
:103CD0005F926F927F928F929F92AF92BF92CF929C
:103CE000DF92EF92FF920F931F93CF93DF9300D059
:103CF0001F92CDB7DEB79B838A83480188E02802F4
:103D000090011124D901A853B0405D01BC2DBF77AB
:103D1000CB2EEA81FB8186819781F1E0FB1708F4C5
:103D200063C06B0128E0C20ED11C8C159D050CF4FC
:103D30006EC0AA81BB811896ED91FC9119979A01EA
:103D4000285F3F4FE217F3070CF461C0AA81BB81E3
:103D5000ED91FC9111978A01095F1F4F9B01295F2B
:103D60003F4F0680F781E02DCD010995AA81BB81E7
:103D7000ED91FC9111970084F185E02DCD0109951D
:103D80008501085F1F4FF5014490FFEFAF1ABF0A8E
:103D900098E0692E712C20E8522EAA81BB81ED910A
:103DA000FC911197852D84210284F385E02D8823D1
:103DB00019F0B401CD0103C0B7018A819B81099537
:103DC0005694B1E06B1A710841F7A016B106D9F606
:103DD000AA81BB81ED91FC9111970484F585E02DBA
:103DE000CD010995C60176C0B8E0CB9E80011124B3
:103DF0003B01600E711E861597054CF0040F151FD0
:103E0000EA81FB81208531852017310714F4019662
:103E100061C0AA81BB81ED91FC91119701501109FC
:103E20000680F781E02D930121503109CD010995DC
:103E3000AA81BB81ED91FC9111970084F185E02D61
:103E4000CD0109952501B8E04B0E511CF5012490D8
:103E5000FFEFAF1ABF0A3C2C08E010E080E8D82E34
:103E60008D2D82212C2DA1F0AA81BB81ED91FC9199
:103E700011970284F385E02DB401CD0129830995C2
:103E80002981215089F7D6940150110949F710C0B2
:103E9000AA81BB81ED91FC9111970284F385E02DFD
:103EA000B701CD01298309952981215089F7EBCFED
:103EB0003A943110D1CFA414B50409F0C7CFAA8128
:103EC000BB81ED91FC9111970484F585E02DCD0126
:103ED0000995C3010F900F900F90DF91CF911F9123
:103EE0000F91FF90EF90DF90CF90BF90AF909F9099
:103EF0008F907F906F905F904F903F902F9008959C
:103F0000862F5F982B9A2D989CB59F7B9CBD2D9AF0
:103F10009CB590649CBD0E94EE145F9A0895CF9367
:103F2000DF931F92CDB7DEB7872F5F982B9A2D981E
:103F30009CB59F7B9CBD2D9A9CB590649CBD69836C
:103F40000E94EE142B9A2D989CB59F7B9CBD2D9AB8
:103F50009CB590649CBD6981862F0E94EE145F9A87
:103F60000F90DF91CF910895862F5F982B982D9811
:103F70009CB59F7B9CBD2D9A9CB590649CBD0E9476
:103F8000EE145F9A08956CE20E94B41F5F98089542
:103F9000AF92BF92CF92DF92EF92FF920F931F9357
:103FA000CF93DF93EC015B017A0169016AE20E9421
:103FB000B41FB501CE010E948F1FB601CE010E9431
:103FC0008F1F6BE2CE010E94B41FB701CE010E9489
:103FD0008F1FB801CE01DF91CF911F910F91FF90FC
:103FE000EF90DF90CF90BF90AF900C948F1F0F9306
:103FF0001F93CF93DF93EC016930710519F06A3597
:10400000710571F48AE590E09D838C8380EF90E0E8
:104010009F838E8380E491E09987888718E434C079
:104020006231710519F0643B710571F484EB90E025
:104030009D838C8380E491E09F838E8380EF90E06A
:104040009987888718E320C06B31710521F07E7F46
:104050006E30710571F48EE091E09D838C8380EF6A
:1040600090E09F838E8380E491E09987888718E8A9
:104070000BC01D821C8280E491E09F838E8380EFC1
:1040800090E09987888718EE66E3CE010E94B41FFE
:10409000612FCE010E94801FE881F9810885198572
:1040A000015011092E813F81215031090680F7818D
:1040B000E02D40E050E060E070E0CE010995DF9136
:1040C000CF911F910F910895CF93DF931F92CDB79A
:1040D000DEB7872F2B9A2D989CB59F7B9CBD2D9A80
:1040E0009CB590649CBD69830E94EE142B9A2D9818
:1040F0009CB59F7B9CBD2D9A9CB590649CBD6981AD
:10410000862F0F90DF91CF910C94EE141092F10650
:104110002D98539808954F925F926F927F928F924D
:104120009F92AF92BF92CF92DF92EF92FF920F9346
:104130001F93CF93DF935C01CB014A013801270124
:10414000DC2CE9012991222399F0D501ED91FC9114
:104150000684F785E02DCD2C72018301A401BC01FA
:10416000C5010995F501268137812817390754F7CC
:10417000DF91CF911F910F91FF90EF90DF90CF9043
:10418000BF90AF909F908F907F906F905F904F9077
:1041900008958F929F92AF92BF92EF92FF920F93EA
:1041A0001F93CF93DF93EC017B01E881F9810885B0
:1041B0001985015011092E813F8121503109068056
:1041C000F781E02D40E050E060E070E00995E88183
:1041D000F9810084F185E02DCE010995AE81BF8182
:1041E000288539850E942A274B015C0183E0B6941B
:1041F000A794979487948A95D1F7E881F9818114DF
:104200009104A104B10409F444C00284F385E02DB3
:10421000B701CE010995E881F9810284F385E02D8B
:10422000B701CE010995E881F9810284F385E02D7B
:10423000B701CE010995E881F9810284F385E02D6B
:10424000B701CE010995E881F9810284F385E02D5B
:10425000B701CE010995E881F9810284F385E02D4B
:10426000B701CE010995E881F9810284F385E02D3B
:10427000B701CE010995E881F9810284F385E02D2B
:10428000B701CE01099581E0881A9108A108B1080B
:10429000B4CF0484F585E02DCE01DF91CF911F913D
:1042A0000F91FF90EF90BF90AF909F908F900994E7
:1042B000BF92CF92DF92EF92FF920F931F93CF9313
:1042C000DF938C01D62F61E088E00E94F4072898E4
:1042D00061E089E00E94F40761E087E00E94F40752
:1042E00061E08DE00E94F40761E08BE00E94F4073A
:1042F00060E08CE00E94F40729985F9A61E086E014
:104300000E94F4075E9AF801E05CFF4FD0838CB501
:10431000837F8CBD8CB58F7D8CBD0E94A01D85E0F8
:104320000E94D81D5F9A289862E370E080E090E0D8
:104330000E943008289A68E770E080E090E00E94D0
:104340003008E8ECF3E07F018FEFE81AF80A949167
:104350009F3FA9F1892F807C8038B1F0803C39F1F2
:10436000803411F0F701EFCFC92FCF736F01BC2E4E
:10437000FFEFCF1ADF0ABB20B9F0F6016491C80144
:104380000E94B41FBA94F4CFC92FCF736F01BC2E13
:10439000FFEFCF1ADF0ABB2039F0F6016491C801A4
:1043A0000E94801FBA94F4CFEC0EF11CDBCF9F73F8
:1043B000692F70E080E090E00E943008D3CF60E089
:1043C00070E0C8010E94C9208D2F0E94D81D61E0B5
:1043D00089E00E94F407EDEAF0E0E491E33019F19E
:1043E00050F4E130D1F0E230E1F584B5806284BD73
:1043F0008FE788BD43C0E73011F1E83049F1E43080
:1044000081F5809180008062809380008FE790E04A
:1044100090938B0080938A0031C084B5806884BDFE
:104420008FE787BD2BC080918000806880938000DB
:104430008FE790E090938900809388001FC080915F
:10444000B00080688093B0008FE78093B30016C0FF
:104450008091B00080628093B0008FE78093B400B9
:104460000DC060E089E0DF91CF911F910F91FF9027
:10447000EF90DF90CF90BF900C94A807DF91CF9181
:104480001F910F91FF90EF90DF90CF90BF90089514
:104490004F925F926F927F928F929F92AF92BF9254
:1044A000CF92DF92EF92FF920F931F93CF93DF9300
:1044B000EC016A017B012801390142305105610597
:1044C000710510F480E073C089859A85AB85BC8541
:1044D0000196A11DB11D84179507A607B70790F394
:1044E0008B889C88AD88BE888F89803129F4BB2752
:1044F000AF2D9E2D8D2D09C0DB01CA0147E0B69579
:10450000A795979587954A95D1F7880E991EAA1E6B
:10451000BB1E8091050190910601A0910701B09109
:10452000080188169906AA06BB0679F48F8980319E
:10453000A1F4DD24EE24FF24C601880F991FFC019D
:10454000EB50FD4F5182408219C040E0C501B401DB
:104550000E94E2168111EACFB5CFE894C7F8DD24B6
:10456000EE24FF24C601880F991F880F991FFC01B4
:10457000EB50FD4F40825182628273828091F4023F
:1045800081608093F4028A89823080F08D819E81DF
:10459000AF81B885880E991EAA1EBB1E8092ED06BB
:1045A0009092EE06A092EF06B092F00681E0DF91C5
:1045B000CF911F910F91FF90EF90DF90CF90BF9020
:1045C000AF909F908F907F906F905F904F900895E5
:1045D000CF93DF93CDB7DEB7C354D1090FB6F894AC
:1045E000DEBF0FBECDBF789484B5826084BD84B534
:1045F000816084BD85B5826085BD85B5816085BDDE
:1046000080916E00816080936E0010928100809195
:10461000810082608093810080918100816080931D
:104620008100809180008160809380008091B10042
:1046300084608093B1008091B00081608093B0006D
:1046400080917A00846080937A0080917A00826001
:1046500080937A0080917A00816080937A008091C3
:104660007A00806880937A001092C1000E941D0E2B
:104670001092B0001092B1001092700080E180930F
:10468000B0008091B10082608093B1008091700091
:1046900083608093700085E38093B40012E01093F0
:1046A000B3001092B200789452985A9AE89A809186
:1046B0006900816080936900259A539A0E94862040
:1046C0000E941D0E01E00093010100930001009380
:1046D0000301009302010E945E1410931A051093C7
:1046E00026051093320510933E0510934A0510934A
:1046F00056051093620510936E0510937A0510937A
:1047000086051093920510939E0500930F05109354
:104710001B05009327051093330500933F05109365
:104720004B05109357050093630510936F05009395
:104730007B05109387050093930510939F051093B5
:1047400004051093100510921C0510932805109273
:1047500034051093400510934C05109358051093A1
:1047600064051092700510937C05109288051093D3
:1047700094051093A005109305050093110510935F
:104780001D050093290510933505009341051093ED
:104790004D0510935905009365051093710500931D
:1047A0007D0510938905009395051093A10510933D
:1047B00006051093120510931E0510932A051093F9
:1047C00036051093420510934E0510935A05109329
:1047D00066051093720510937E0510938A05109359
:1047E00096051093A20510930705109313051093D7
:1047F0001F0510932B051093370510934305109355
:104800004F0510935B051093670510937305109384
:104810007F0510938B05109397051093A3051093B4
:104820000805009314051093200500932C051093A0
:104830003805009344051093500510935C050093D0
:104840006805109374050093800510938C05009300
:1048500098051093A405109309051093150510925F
:10486000210510932D0510923905109345051093DD
:10487000510510935D05109369051092750510930D
:10488000810510928D05109399051093A50510933D
:104890000A05009316051093220500932E05109328
:1048A0003A05009346051093520510935E05009358
:1048B0006A05109376050093820510938E05009388
:1048C0009A051092A60510930B05109317051093E7
:1048D000230510932F0510933B0510934705109364
:1048E000530510935F0510936B0510937705109394
:1048F000830510938F0510929B051092A70569EA16
:1049000076E0CE0101960E943506CE0101960E9406
:10491000200D88B1806388B9109251021092500224
:104920001092CC021092EE021092CA020093C902B9
:104930001092A40261E082E10E94A80761E083E195
:104940000E94A8078091B9008E7F8093B900809162
:10495000B9008D7F8093B90088E48093B80085E426
:104960008093BC000093CB0282E58093ED0210920D
:10497000CC021092EE0260E48DE996E00E94E8021B
:1049800060E08DE996E00E94E80281E00E946312F7
:1049900069EA76E0CE0101960E943506CE010196C5
:1049A0000E94AE0B69EA76E0CE0101960E943506C0
:1049B000AE014F5F5F4F60910001809101010E9445
:1049C0007F0B69EA76E0CE0101960E9435064EE83B
:1049D00051E069E971E0CE0101960E94C01211E038
:1049E0000FEF35E0F32E45EEE42E55ECB52E66E0E4
:1049F000A62E70E3C72E72E0D72EE7E19E2EF2E5D9
:104A00008F2EACE07A2E8091CA028111FCCF1093D8
:104A1000CA021093C9020093C8021092C702F09212
:104A2000C6021093A5028091A502846A8093A50214
:104A30008091A402813069F41092A4028091A502B1
:104A40008093BB008091BC0083FDF8CFB092BC0086
:104A500002C0E092BC008091CA028130E1F38091F3
:104A6000C702863018F46090C70202C026E0622EAA
:104A7000A6EAB2E0E0E3F2E08E2F8C19861518F476
:104A80008D918193F9CF10925102609250029BE078
:104A9000492E92E0592E80915102681651F08DE90D
:104AA00096E00E949C028925895EF20181932F0184
:104AB000F2CF1093CB028092ED021092CC021092B2
:104AC000EE0260E08DE996E00E94E80281E00E943B
:104AD000631220910B0220930A0230910C02309352
:104AE000090290910101809100012D38D8F02091A8
:104AF0000802211133C0492F50E04F5F5F4F749E71
:104B0000F001759EF00D1124EB50FB4FE80FF11DE5
:104B10002081222329F0233019F02750233008F573
:104B20009F5F17C02237E8F420910802211116C0B8
:104B30002CE0929FF0011124E751FB4FE80FF11D8B
:104B40002081222329F0233019F02750233048F404
:104B50009150909301011092080203C02F5F20939F
:104B60000802909101013D38B8F02091070221110F
:104B70002FC03CE0939FF0011124EB50FB4FE80F56
:104B8000F11D31972081222329F0233019F027507D
:104B9000233008F5815017C03237E8F4209107021E
:104BA000211116C02CE0929FF0011124EB50FB4F15
:104BB000E80FF11D2181222329F0233019F027501D
:104BC000233048F48F5F809300011092070203C0E6
:104BD0002F5F20930702209100018091100280FD39
:104BE0001BC08091F3028530B9F03091060231305C
:104BF000A9F03CE0939FF0011124EB50FB4FE20F32
:104C0000F11DA082109306029093F0022093EF0210
:104C10008F5F8093F30202C01092060269EA76E089
:104C2000CE0101960E943506AE014F5F5F4F609145
:104C30000001809101010E94181269EA76E0CE011C
:104C400001960E943506AE014F5F5F4F60910001F3
:104C5000809101010E94DB1120910001409101012E
:104C600069EA76E0CE01019623962FAF239724962A
:104C70004FAF24970E94350623962FAD2397249695
:104C80004FAD249765E0CE0101960E94660F69EA58
:104C900076E0CE0101960E943506CE0101960E9473
:104CA000450E8091F102882309F4ADCE60E070E0FA
:104CB00089EA96E00E94C92083E0C82EE12CF12CFD
:104CC0000FEF1FEF23EA31E04CE350E062E370E0C6
:104CD00089EA96E00E948B20CC24C3942DEA31E02F
:104CE00044E650E066E470E089EA96E00E948B209A
:104CF0008091F2024AE0BE016F5F7F4F90E00E9418
:104D0000AC289E012F5F3F4F44E650E068EC70E016
:104D100089EA96E00E948B20FFCFE5EBF5E0138255
:104D2000128288EE93E0A0E0B0E084839583A683AE
:104D3000B78326E231E03183208325EC30E03587EC
:104D4000248724EC30E03787268720EC30E0318B55
:104D5000208B21EC30E0338B228B22EC30E0358B42
:104D6000248B26EC30E0378B268B118E128E138E1F
:104D7000148EE2E5F6E020E520831182E4E5F6E01A
:104D8000158216821186138642E050E060E070E0E2
:104D9000448755876687778713A215A614A626E34E
:104DA00031E033A722A717A6EDE9F6E013821282BD
:104DB00084839583A683B7838EE391E09183808378
:104DC000E9EAF6E0138212821582148280E491E00F
:104DD0009783868380EF90E0918780871786168679
:104DE0001586148613861286178A168A158A148ADF
:104DF000138A128A118A108A10AA11AA12AA13AA57
:104E000081E084AB85AB17AA16AA8FEF9FEF91AF15
:104E100080AF1092E8061092E70615AE14AE13AEFE
:104E200012AE8CE791E091838083089597FB072E63
:104E300016F4009407D077FD09D00E94392707FCAB
:104E400005D03EF4909581959F4F0895709561959A
:104E50007F4F08950E94E128332312F48A1B9B0B95
:104E60000C9434270E94E128B7FF0895821B930B0E
:104E70000895AA1BBB1B51E107C0AA1FBB1FA617A1
:104E8000B70710F0A61BB70B881F991F5A95A9F7F3
:104E900080959095BC01CD010895EE0FFF1F059000
:104EA000F491E02D0994CF93DF938230910510F4B3
:104EB00082E090E0E091F406F091F50620E030E029
:104EC000C0E0D0E0309711F1408151814817590777
:104ED000C0F04817590761F482819381209719F037
:104EE0009B838A832BC09093F5068093F40626C09B
:104EF0002115310519F04217530718F49A01BE0124
:104F0000DF01EF010280F381E02DDCCF21153105B7
:104F100009F1281B390B2430310590F412968D913C
:104F20009C9113976115710521F0FB019383828396
:104F300004C09093F5068093F406FD01329644C0B8
:104F4000FD01E20FF31F81939193225031092D93BC
:104F50003C933AC02091F2063091F306232B41F4A2
:104F600020910B0130910C013093F3062093F2064F
:104F70002091090130910A012115310541F42DB725
:104F80003EB740910D0150910E01241B350BE0916D
:104F9000F206F091F306E217F307A0F42E1B3F0B85
:104FA0002817390778F0AC014E5F5F4F241735079B
:104FB00048F04E0F5F1F5093F3064093F206819323
:104FC000919302C0E0E0F0E0CF01DF91CF9108952E
:104FD0000F931F93CF93DF93009709F48CC0FC01CC
:104FE0003297138212820091F4061091F506011592
:104FF000110581F420813181820F931F2091F206E7
:105000003091F3062817390779F5F093F306E0930A
:10501000F20671C0D80140E050E0AE17BF0750F46F
:1050200012962D913C911397AD012115310509F18F
:10503000D901F3CF9D01DA0133832283608171812D
:10504000860F971F8217930769F4EC012881398135
:10505000260F371F2E5F3F4F318320838A819B812C
:1050600093838283452B29F4F093F506E093F406AD
:1050700042C01396FC93EE931297ED01499159911A
:105080009E01240F351FE217F30771F4808191818F
:10509000840F951F029611969C938E938281938123
:1050A00013969C938E931297E0E0F0E0D80112964D
:1050B0008D919C911397009719F0F8018C01F6CF10
:1050C0008D919C9198012E5F3F4F820F931F2091ED
:1050D000F2063091F3062817390769F4309729F45E
:1050E0001092F5061092F40602C0138212821093F9
:1050F000F3060093F206DF91CF911F910F9108956F
:1051000081E090E0F8940C94F028FB01DC0104C0ED
:105110008D910190801921F441505040C8F7881BAF
:10512000990B0895FC018191861721F08823D9F706
:10513000992708953197CF010895FB01DC01415073
:10514000504048F001900D920020C9F701C01D9217
:1051500041505040E0F70895BB27FB015527AA278F
:10516000880F991FAA1FA41710F0A41B83955051F4
:10517000B9F7A05DAA3308F0A95DA193009779F76C
:10518000B111B1931192CB010C94C628DC01FC0142
:10519000672F71917723E1F7329704C07C916D936B
:1051A00070836291AE17BF07C8F308950E94E1288B
:1051B000A59F900DB49F900DA49F800D911D11246B
:1051C0000895A29FB001B39FC001A39F700D811DE0
:1051D0001124911DB29F700D811D1124911D089500
:0451E000F894FFCF71
:1051E4000207020701FFFFFFFF0000F60680000030
:1051F40000000000C714A91CA6146C1D761D001B1A
:105204000000000000003F079C0DB9069706AB069E
:10521400860700000000981C9C0D00000000E802B6
:10522400B802B0029C028D028C0200000000EA0663
:105234009C0DEA06EA06EA06EA0600000000E71DFD
:105244009C0DEA06EA06EA06EA06EA06651E531E0D
:1052540000000000EA069C0D00000000E71D9C0D04
:10526400F71FC81FC31F6420D61D651E531E63721B
:10527400617465332E626D700077616C6C332E62DD
:105284006D700047616D65206F7665720053636FC2
:10529400726520706C6179657220313A20002F00AC
:1052A400506963206F7574206F662073637265653F
:1052B4006E2100706C61796572312E626D700049E7
:1052C4006E69742053442D436172642E2E2E006641
:1052D40061696C65640065782E626D7000626F6D43
:0652E4002E626D70000057
:00000001FF
