:100000000C9428020C9477060C9450020C94500225
:100010000C9450020C9450020C9450020C94110752
:100020000C9450020C94D1070C9450020C94500282
:100030000C9450020C9450020C9450020C945002F8
:100040000C94F60D0C9450020C94020D0C94DC0CE4
:100050000C9450020C9450020C9450020C945002D8
:100060000C9449050C945002000000002400270065
:100070002A0000000000250028002B0004040404CE
:100080000404040402020202020203030303030342
:10009000010204081020408001020408102001021F
:1000A00004081020000000080002010000030407FB
:1000B0000000000000000000000000000000000040
:1000C00030787830300030006C6C6C00000000003C
:1000D0006C6CFE6CFE6C6C00307CC0780CF83000F0
:1000E00000C6CC183066C600386C3876DCCC76009A
:1000F0006060C000000000001830606060301800D0
:10010000603018181830600000663CFF3C66000044
:10011000003030FC30300000000000000070306023
:10012000000000FC00000000000000000030300073
:10013000060C183060C0800078CCDCFCECCC780079
:1001400030F030303030FC0078CC0C3860CCFC0023
:1001500078CC0C380CCC78001C3C6CCCFE0C0C0021
:10016000FCC0F80C0CCC78003860C0F8CCCC78001F
:10017000FCCC0C183060600078CCCC78CCCC78000B
:1001800078CCCC7C0C18700000003030003030008F
:100190000000303000703060183060C060301800EF
:1001A0000000FC00FC0000006030180C18306000FB
:1001B00078CC0C18300030007CC6DEDEDEC0780063
:1001C0003078CCCCFCCCCC00FC66667C6666FC004F
:1001D0003C66C0C0C0663C00FC6C6666666CFC0099
:1001E000FE6268786862FE00FE6268786860F0000F
:1001F0003C66C0C0CE663E00CCCCCCFCCCCCCC00A7
:1002000078303030303078001E0C0C0CCCCC7800BC
:10021000E6666C786C66E600F06060606266FE0020
:10022000C6EEFED6C6C6C600C6E6F6DECEC6C6001A
:10023000386CC6C6C66C3800FC66667C6060F00030
:1002400078CCCCCCDC781C00FC66667C786CE60054
:1002500078CCE0381CCC7800FCB4303030307800FA
:10026000CCCCCCCCCCCCFC00CCCCCCCCCC78300026
:10027000C6C6C6D6FEEEC600C6C66C386CC6C6007C
:10028000CCCCCC7830307800FECC983062C6FE0002
:100290007860606060607800C06030180C06020012
:1002A000781818181818780010386CC6000000006C
:1002B00000000000000000FF3030180000000000C7
:1002C0000000780C7CCC7600E0607C666666BC0042
:1002D000000078CCC0CC78001C0C0C7CCCCC760018
:1002E000000078CCFCC07800386C60F06060F000F2
:1002F000000076CCCC7C0CF8E0606C766666E6009C
:100300003000703030307800180078181818D87025
:10031000E060666C786CE600703030303030780029
:100320000000ECFED6C6C6000000F8CCCCCCCC0059
:10033000000078CCCCCC78000000DC66667C60F0F5
:10034000000076CCCC7C0C1E0000D86C6C60F000F9
:1003500000007CC0780CF80010307C30303418007D
:100360000000CCCCCCCC76000000CCCCCC783000DB
:100370000000C6C6D6FE6C000000C66C386CC60015
:100380000000CCCCCC7C0CF80000FC983064FC0065
:100390001C3030E030301C001818180018181800F5
:1003A000E030301C3030E00076DC0000000000005F
:1003B00010386CC6C6C6FE004128D441CF830083E6
:1003C0003041ED846403128141E88385017941CB9A
:1003D00085392C00340241F7812041EA8200004136
:1003E000C0812641C1811141C582353E41C781BED0
:1003F00041B182001B41F281084126810141E08F19
:100400001F1A180A0F064587320A0702070500411E
:10041000E18F0025270510093A784D05180D383A67
:100420001F41B6840A82270041B78107413A8155AE
:10043000413681E8412A82000082013F412B82003F
:10044000008200EF4111FCFC4129D4FFFF00261679
:1004500011241FBECFEFD8E0DEBFCDBF11E0A0E07A
:10046000B1E0EEE7FDE202C005900D92A835B107BC
:10047000D9F723E0A8E5B1E001C01D92AA3EB2077A
:10048000E1F712E0C8E2D2E004C02197FE010E9429
:10049000A316C732D107C9F70E9494120C94BD1657
:1004A0000C940000EF92FF920F931F93CF93DF9372
:1004B000EC018E819F81681779075CF588859985A5
:1004C0004817590734F57901E881F9810680F781E9
:1004D000E02D8A019B01CE010995E881F981008414
:1004E000F185E02DCE010995E881F9810284F3853B
:1004F000E02DB701CE010995E881F9810484F585E5
:10050000E02DCE01DF91CF911F910F91FF90EF90E1
:100510000994DF91CF911F910F91FF90EF90089573
:1005200085ED8093BC008091BC0084FDFCCF1092CF
:100530000D0208954091C201262F30E0240F311D95
:1005400021323105DCF420910D022430C9F4FC0184
:1005500080E090E0861758F43091C2012191DC01CF
:10056000A056BE4FA30FB11D2C930196F3CF8091DF
:10057000C201680F6093C20180E0089581E0089590
:1005800082E008950895E0919F0180919E01E8170F
:1005900030F4F0E0E258FE4F808190E008958FEF54
:1005A0009FEF089590919F0180919E01981750F4BC
:1005B000E92FF0E0E258FE4F208130E09F5F9093FA
:1005C0009F0102C02FEF3FEFC901089580919E0166
:1005D00090E020919F01821B91090895CF92DF92B4
:1005E000EF92FF920F931F93CF93DF937C01262FFF
:1005F000972F8A0180910E02882391F0C62FD72F62
:100600006E01C40ED51ECC15DD0571F06991D701C0
:10061000ED91FC910190F081E02DC7010995F3CF98
:10062000642F822F0E949A02C801DF91CF911F91FF
:100630000F91FF90EF90DF90CF900895CF93DF93CD
:100640001F92CDB7DEB7698320910E022223D1F02D
:1006500020913102203240F021E030E0FC01338370
:10066000228380E090E015C080910F02E82FF0E037
:10067000E05FFD4F998190838F5F80930F0280939D
:10068000310205C061E0CE0101960E949A0281E02C
:1006900090E00F90DF91CF910895CF93DF93EC011D
:1006A0008EE391E099838883FB01828193819B8310
:1006B0008A83848195819D838C83868197819F83A2
:1006C0008E838085918599878887828593859B878E
:1006D0008A87848595859D878C87868597859F8762
:1006E0008E8780899189998B888B828993899B8B4E
:1006F0008A8B848995899D8B8C8B868997899F8B22
:100700008E8B8CE17896DE01589601900D928A9539
:10071000E1F7FB0184A98CAB85A98DAB86A997A9CC
:100720009FAB8EAB80AD91AD99AF88AF82AD93ADED
:100730009BAF8AAF84AD95AD9DAF8CAF86AD97ADC5
:100740009FAF8EAF86E491E099838883E05CFF4F92
:100750008081C05CDF4F8883DF91CF9108952F9215
:100760003F924F925F926F927F928F929F92AF9241
:10077000BF92CF92DF92EF92FF920F931F93CF938E
:10078000DF93CDB7DEB728970FB6F894DEBF0FBE64
:10079000CDBF4C016B0158874F8359016217730716
:1007A000A1F40417150744F40427152740275127FF
:1007B00058874F83042715272F813885021B130B79
:1007C0000F5F1F4F21E030E015C04F815885401763
:1007D0005107B9F42617370734F4A626B726CA24DA
:1007E000DB24AC24BD2495012C193D092F5F3F4F1C
:1007F00001E010E04F815885B601C4010E9421122A
:10080000A0C0FC01268137816217730724F06901BB
:10081000F1E0CF1AD108F401808591854F81588588
:100820004817590724F0FC013197F887EF83A21687
:10083000B30624F05901F1E0AF1AB10808171907FF
:100840001CF08C010150110935016C187D0828013C
:100850002F813885421A530A77FE08C0719461943B
:1008600071084FEF5FEF5A83498304C081E090E045
:100870009A83898357FE08C0519441945108EFEF41
:10088000FFEFFC83EB8304C021E030E03C832B834B
:10089000A301440F551F5E834D831201220C331CAC
:1008A00097014F815885B601C4010E945202461437
:1008B00057041CF5810106191709CA14DB0409F451
:1008C00040C017FD0CC08F819885EB81FC818E0F95
:1008D0009F1F98878F832D813E81021B130B4981B7
:1008E0005A81C40ED51E020D131D97014F815885E4
:1008F000B601C4010E945202E0CFAD80BE80A418B0
:10090000B5088F81988580179107D9F0B7FC06C08C
:1009100089819A81C80ED91EA218B308EF81F88583
:100920002B813C81E20FF31FF887EF834D815E81BD
:10093000A40EB51E9701AF01B601C4010E94520278
:10094000E0CF28960FB6F894DEBF0FBECDBFDF9183
:10095000CF911F910F91FF90EF90DF90CF90BF90BC
:10096000AF909F908F907F906F905F904F903F904F
:100970002F9008958F929F92AF92BF92EF92FF9225
:100980000F931F93CF93DF93EC017B01E881F981F3
:1009900008851985015011092E813F8121503109A7
:1009A0000680F781E02D40E050E060E070E00995BE
:1009B000E881F9810084F185E02DCE010995AE81B1
:1009C000BF81288539850E9494164B015C0183E024
:1009D000B694A794979487948A95D1F7E881F98182
:1009E00081149104A104B10409F444C00284F38584
:1009F000E02DB701CE010995E881F9810284F385E4
:100A0000E02DB701CE010995E881F9810284F385D3
:100A1000E02DB701CE010995E881F9810284F385C3
:100A2000E02DB701CE010995E881F9810284F385B3
:100A3000E02DB701CE010995E881F9810284F385A3
:100A4000E02DB701CE010995E881F9810284F38593
:100A5000E02DB701CE010995E881F9810284F38583
:100A6000E02DB701CE01099581E0881A9108A1080F
:100A7000B108B4CF0484F585E02DCE01DF91CF918C
:100A80001F910F91FF90EF90BF90AF909F908F902C
:100A900009941F920F920FB60F9211242F933F9338
:100AA0004F935F936F937F938F939F93AF93BF9376
:100AB000EF93FF938091B900887F803609F49CC042
:100AC00068F5883209F45BC090F4803109F454C0B1
:100AD00038F4882309F4F6C0883009F44DC0F6C014
:100AE000883109F44CC0803209F45DC0EFC0803415
:100AF00009F468C048F4803309F455C0883309F01C
:100B0000E5C080930B02D8C0803509F44FC088350A
:100B100009F45DC0883409F0D9C0D6C0883909F419
:100B2000C7C0A8F4883709F467C038F4883609F4D8
:100B300063C0803709F460C0C9C0883809F4B8C000
:100B4000803909F45FC0803809F0C0C05BC0803BC9
:100B500009F486C038F4803A09F466C0883A09F48A
:100B60007FC0B4C0803C09F4A7C0883C09F4A4C08D
:100B7000883B09F48AC0AAC08091E80110C0909116
:100B80000A0280910902981770F5E0910A0281E04B
:100B90008E0F80930A02F0E0E751FE4F8081809330
:100BA000BB0085EC86C080930B028EC0E0910A02E8
:100BB00081E08E0F80930A028091BB00F0E0E75144
:100BC000FE4F808390910A02809109026EC0E091ED
:100BD0000A0281E08E0F80930A028091BB00F0E050
:100BE000E751FE4F808380910C0281116DC081E03E
:100BF0008093E70184EA61C083E080930D02109244
:100C0000E601CFCF8091E601803208F051C0E0913B
:100C1000E60181E08E0F8093E6018091BB00F0E059
:100C2000EA53FE4F8083BDCF85EC8093BC001092C9
:100C30000D028091E601803230F4E091E601F0E0AF
:100C4000EA53FE4F10826091E60170E0E091C4012A
:100C5000F091C50186EC91E009951092E60136C04D
:100C600084E080930D021092C3011092C201E091C2
:100C7000C001F091C10109958091C201811105C0A7
:100C800081E08093C2011092A001E091C30181E054
:100C90008E0F8093C301F0E0E056FE4F8081809379
:100CA000BB009091C3018091C201981708F479CFDD
:100CB00085E88093BC000AC085EC8093BC0010924C
:100CC0000D0204C010920B020E949002FF91EF915E
:100CD000BF91AF919F918F917F916F915F914F9154
:100CE0003F912F910F900FBE0F901F9018951F925C
:100CF0000F920FB60F9211242F933F934F935F9350
:100D00006F937F938F939F93AF93BF9380917A015B
:100D100090917B01A0917C01B0917D014091740183
:100D20005091750160917601709177019C01241BAF
:100D3000350B30937301209372018093740190936B
:100D40007501A0937601B093770180917201909123
:100D50007301893C910510F010927101809172012C
:100D6000909173014E9708F44DC08091720190915B
:100D700073018135910508F045C080917201909111
:100D80007301CC97B8F08091720190917301813515
:100D9000910580F42091710181E090E002C0880FFC
:100DA000991F2A95E2F72091780130917901822BE1
:100DB000932B23C080917201909173014E9730F074
:100DC0008091720190917301C39730F0809171010D
:100DD0008F5F8093710116C02091710181E090E0D6
:100DE00002C0880F991F2A95E2F78095909520916F
:100DF0007801309179018223932390937901809334
:100E00007801E4CFBF91AF919F918F917F916F91C6
:100E10005F914F913F912F910F900FBE0F901F90B8
:100E200018951F920F920FB60F921124CF92DF9256
:100E3000EF92FF922F933F934F935F936F937F9324
:100E40008F939F93AF93BF93EF93FF93C0907A01DB
:100E5000D0907B01E0907C01F0907D01D701C6012C
:100E60000196A11DB11D80937A0190937B01A093FF
:100E70007C01B0937D0120916701222309F47CC09D
:100E8000209170012223B1F080916F018A3061F4CA
:100E90001092700110926B0110926C0110926D0112
:100EA00010926E0110926F0180916F018F5F80939D
:100EB0006F0147C040916B0150916C0160916D01D1
:100EC00070916E0184179507A607B70721F48091EA
:100ED000E80381114BC080916B0190916C01A0914E
:100EE0006D01B0916E01892B8A2B8B2B51F580916E
:100EF000690190916A012091680102C096958795D9
:100F00002A95E2F780FF06C087E4C80ED11CE11CD9
:100F1000F11C05C089E2C80ED11CE11CF11CC09275
:100F20006B01D0926C01E0926D01F0926E0181E054
:100F30008093E8032D9A539A809168018F5F809384
:100F40006801809168018131B9F40E941C121092ED
:100F50006801109267011092700110926B0110925B
:100F60006C0110926D0110926E0106C00E941C125D
:100F700081E080937001AFCFFF91EF91BF91AF916E
:100F80009F918F917F916F915F914F913F912F91A1
:100F9000FF90EF90DF90CF900F900FBE0F901F90BB
:100FA00018951F920F920FB60F9211242F933F9313
:100FB0004F935F936F938F939F93EF93FF938091E2
:100FC00065019091660182342FE0920750F1909173
:100FD000630180E08C30E1F020E030E0482F50E009
:100FE000F901E40FF51FEB5CFD4F90816CEF690F89
:100FF000633020F068EF690F623010F491509083F5
:10100000245F3F4F203C310559F78F5F90E1E2CFDD
:1010100090936301809364011092660110926501C0
:1010200005C001969093660180936501FF91EF9151
:101030009F918F916F915F914F913F912F910F9061
:101040000FBE0F901F901895CF92DF92EF92FF92F4
:101050000F931F93CF93DF936C017A018B01C0E054
:10106000D0E0CE15DF0589F0D8016D918D01D60154
:10107000ED91FC910190F081E02DC6010995892B3D
:1010800011F47E0102C02196ECCFC701DF91CF9110
:101090001F910F91FF90EF90DF90CF900895FC018A
:1010A000918D828D981761F0828DDF01A80FB11D9F
:1010B0005D968C91928D9F5F9F73928F90E00895C3
:1010C0008FEF9FEF0895FC01918D828D981731F07D
:1010D000828DE80FF11D858D90E008958FEF9FEFD1
:1010E0000895FC01918D228D892F90E0805C9F4FA7
:1010F000821B91098F7399270895FC01848DDF016C
:10110000A80FB11DA35ABF4F2C91848D90E001967A
:101110008F739927848FA689B7892C93A089B18969
:101120008C9180648C93938D848D981306C0028873
:10113000F389E02D80818F7D80830895EF92FF9267
:101140000F931F93CF93DF93EC0181E0888F9B8DEA
:101150008C8D981305C0E889F989808185FD24C0AC
:10116000F62E0B8D10E00F5F1F4F0F731127E02E2F
:101170008C8DE8120CC00FB607FCFACFE889F9890C
:10118000808185FFF5CFCE010E947D08F1CF8B8D48
:10119000FE01E80FF11DE35AFF4FF0820B8FEA8941
:1011A000FB898081806207C0EE89FF896083E889BE
:1011B000F98980818064808381E090E0DF91CF9124
:1011C0001F910F91FF90EF900895CF93DF93EC0163
:1011D000888D8823C9F0EA89FB89808185FD05C057
:1011E000A889B9898C9186FD0FC00FB607FCF5CF91
:1011F000808185FFF2CFA889B9898C9185FFEDCFD9
:10120000CE010E947D08E7CFDF91CF9108953FB7CF
:10121000F8948091E4039091E503A091E603B091E6
:10122000E70326B5A89B05C02F3F19F00196A11D25
:10123000B11D3FBFBA2FA92F982F8827820F911D6C
:10124000A11DB11DBC01CD0142E0660F771F881FB3
:10125000991F4A95D1F708952F923F924F925F922E
:101260006F927F928F929F92AF92BF92CF92DF92B6
:10127000EF92FF920F931F93CF93DF9300D000D094
:1012800000D0CDB7DEB76C012B015A01490187EFC1
:10129000282E33243A941E821D8299E0692E712CE7
:1012A0004D815E814A0D5B1D74018A019201260DFC
:1012B000371D3A832983C201861997099C838B8342
:1012C000BC01C6010E94AF03A501ED81FE814E1B4A
:1012D0005F0B8A0129813A816B817C81C6010E9462
:1012E000AF032D813E81240D351D3C832B83C2012C
:1012F000ED81FE818E1B9F0B9A838983A501460D8C
:10130000571D8A01BC01C6010E94AF03A501461901
:1013100057098A012B813C8169817A81C6010E942B
:10132000AF038D819E8101962D813E81220E331E59
:10133000280E391E37FC07C031E0631A71082618E1
:101340003708261837089E838D83681679060CF0B7
:10135000A7CF26960FB6F894DEBF0FBECDBFDF91A4
:10136000CF911F910F91FF90EF90DF90CF90BF90A2
:10137000AF909F908F907F906F905F904F903F9035
:101380002F9008950E94A9166F927F928F929F923C
:10139000AF92BF92CF92DF92EF92FF920F931F9383
:1013A000CF93DF934C0195E3692E92E0792EA12C27
:1013B000B12C6301C0E0D0E0F6018081873069F490
:1013C0001082EE24EA94FE2C04E110E024E130E0E7
:1013D000A501BE01C4010E942112FCE0CF0ED11C68
:1013E0006496C03481E0D80739F7EFEF6E1A7E0AB1
:1013F000F4E1AF0EB11C80EFA816B104D1F6DF9175
:10140000CF911F910F91FF90EF90DF90CF90BF9001
:10141000AF909F908F907F906F9008952F923F9202
:101420004F925F926F927F928F929F92AF92BF92F4
:10143000CF92DF92EF92FF920F931F93CF93DF93A0
:10144000CDB7DEB727970FB6F894DEBF0FBECDBF7E
:101450006C011F82262F30E03C832B8304E1702E29
:1014600085E392E09A83898384E0A82EB12C412CF5
:10147000512C642C3F81232E312CE981FA81E20D1D
:10148000F31D8081833009F052C189E0808394E1AB
:10149000399F40011124A4E08A0E911C10EEE12E28
:1014A0001BEFF12E0EE010E02EE030E0A401B501BC
:1014B000C6010E942112EB81FC81E40DF51DFE8323
:1014C000ED83862D90E0AD81BE818A179B070CF0DD
:1014D0003FC001962CE0289FF001299FF00D1124B8
:1014E000EB5CFD4FE20DF31D2081222321F039EF4B
:1014F000320F3330B0F439E03083789EB001799EFA
:10150000700D11246C5F7F4FB0EEEB2EBBEFFB2E06
:101510000EE010E02EE030E0A401C6010E9421128E
:1015200021C02230E9F4A9E0A083789EB001799E21
:10153000700D11246C5F7F4FA0EEEA2EABEFFA2EF8
:101540000EE010E02EE030E0A401C6010E9421125E
:10155000F2012B813C81E21BF30BFE83ED8326C05D
:101560002130B1F36394ADCFF101BCE06B9EE00D8F
:10157000F11D1124E75DFD4F208121111FC029E0DD
:1015800020830197789EB001799E700D11246C5FC5
:101590007F4FF0EEEF2EFBEFFF2E0EE010E02EE07F
:1015A00030E0A401C6010E9421126A94862D90E0C9
:1015B000AD81BE81A817B907BCF21CC039EF320F4C
:1015C0003330E8F22230D9F439E030830197789E45
:1015D000B001799E700D11246C5F7F4FE0EEEE2E0E
:1015E000EBEFFE2E0EE010E02EE030E0A401C6018D
:1015F0000E9421128B809C80820C931C23C021307E
:10160000A1F6F8CF0196E981FA81E80FF91F208150
:1016100021111FC0B9E0B083789EA001799E500DC2
:1016200011244C5F5F4F60EEE62E6BEFF62E0EE05E
:1016300010E02EE030E0B501C6010E9421129F812A
:101640009F5F9F83AF818A2F90E088159905D4F220
:101650001BC039EF320F3330E8F22230D9F429E0E1
:101660002083789EA001799E500D11244C5F5F4F1E
:1016700030EEE32E3BEFF32E0EE010E02EE030E0F4
:10168000B501C6010E94211241018B819C81881AFB
:10169000990A23C0213099F6F7CF0197E981FA81A1
:1016A000E80FF91F208121111FC0B9E0B083789E97
:1016B000A001799E500D11244C5F5F4F20EEE22E69
:1016C0002BEFF22E0EE010E02EE030E0B501C60167
:1016D0000E9421123F8131503F83AF818A2F90E0D9
:1016E00088169906D4F21EC039EF320F3330E8F273
:1016F0002230B1F429E02083789EA001799E500D1C
:1017000011244C5F5F4F90EEE92E9BEFF92E0EE017
:1017100010E02EE030E0B501C6010E94211202C0A7
:101720002130C1F680913402815080933402BFEFA2
:101730004B1A5B0AE981FA813C96FA83E983F4E16A
:10174000AF0EB11C20E14216510409F092CE3F8148
:101750003F5F3F833C3008F483CE27960FB6F89462
:10176000DEBF0FBECDBFDF91CF911F910F91FF90D4
:10177000EF90DF90CF90BF90AF909F908F907F9031
:101780006F905F904F903F902F900895EF92FF924F
:101790000F931F9390913302992319F120913202F4
:1017A0002223F9F0891302C06217D9F0FA0184E10B
:1017B000289FA00111244C5F5F4F84E1989FB001E6
:1017C00011246C5F7F4FE12C80EBF82E0EE010E0CF
:1017D0002EE030E0CF010E942112109233021092CD
:1017E00032021F910F91FF90EF9008950F931F9376
:1017F000CF93DF932091020190910301261302C041
:10180000981749F1EA01162F082F84E1289FA001BB
:101810001124465F5F4F84E1989FB0011124665FF9
:101820007F4F2FEF3FEFCE010E942C0984E1189FDC
:10183000A0011124465F5F4F84E1089FB00111248D
:10184000665F7F4F20E038EFCE010E942C090093A5
:10185000030110930201DF91CF911F910F91089521
:10186000382F2091310290913002213208F049C086
:1018700080910D028111FCCF42E040930D02309324
:101880000C023FEF30930B0210920A0220930902E0
:10189000A0E1B2E049EE51E0FA013E2F341B3217CD
:1018A00018F43D913193F9CF1092E8012091E801AD
:1018B000990F922B9093E8019091E701913061F498
:1018C0001092E7019091E8019093BB009091BC00C9
:1018D00093FDF8CF95EC01C095EE9093BC009091EC
:1018E0000D029230E1F390910B029F3F79F08091CD
:1018F0000B02803241F080910B02803331F084E0A2
:1019000005C081E003C082E001C083E010920F02B5
:101910001092310210920E0208956F927F928F9270
:101920009F92AF92BF92CF92DF92EF92FF920F936E
:101930001F93CF93DF934C0195E3A92E92E0B92E2C
:10194000612C712C6501C0E0D0E0F601808181300E
:1019500019F4E12CF12C06C0823069F480EDE82EF8
:101960008DEDF82E04E110E024E130E0A301BE018A
:10197000C4010E942112FCE0CF0ED11C6496C03439
:1019800081E0D80711F7E4E16E0E711CFFEFAF1A8A
:10199000BF0A80EF68167104A9F6DF91CF911F91FD
:1019A0000F91FF90EF90DF90CF90BF90AF909F90FE
:1019B0008F907F906F9008951F920F920FB60F92A5
:1019C00011242F933F934F935F936F937F938F9344
:1019D0009F93AF93BF93EF93FF9385EF92E00E94A5
:1019E0007D08FF91EF91BF91AF919F918F917F9172
:1019F0006F915F914F913F912F910F900FBE0F907C
:101A00001F9018951F920F920FB60F9211242F93CB
:101A10008F939F93EF93FF93E0910503F09106035B
:101A20008081E0910B03F0910C0382FD12C0908144
:101A300080910E038F5F8F7320910F03821751F0F7
:101A4000E0910E03F0E0EB50FD4F958F80930E0375
:101A500001C08081FF91EF919F918F912F910F9005
:101A60000FBE0F901F90189590E0FC01EC55FF4FB2
:101A70003491FC01E057FF4F2491FC01E458FF4FE3
:101A8000E491EE2309F43BC0332339F1333091F074
:101A900038F43130A9F0323001F584B58F7D12C0B1
:101AA000373091F03830A1F03430B9F480918000B3
:101AB0008F7D03C0809180008F77809380000DC060
:101AC00084B58F7784BD09C08091B0008F7703C043
:101AD0008091B0008F7D8093B000F0E0EE0FFF1F8B
:101AE000EE58FF4FA591B4918FB7F894EC91611126
:101AF00003C020952E2301C02E2B2C938FBF089559
:101B0000CF93DF9390E0FC01E057FF4F2491FC015D
:101B1000E458FF4F8491882361F190E0880F991F6A
:101B2000FC01E859FF4FC591D491FC01EE58FF4FDD
:101B3000A591B491611109C09FB7F894888120954F
:101B400082238883EC912E230BC0623061F49FB70F
:101B5000F8943881822F809583238883EC912E2BF3
:101B60002C939FBF06C08FB7F894E8812E2B288353
:101B70008FBFDF91CF9108958F929F92AF92BF92C6
:101B8000CF92DF92EF92FF926B017C010E940709D6
:101B90004B015C01C114D104E104F104F1F00E9495
:101BA0000709DC01CB0188199909AA09BB09883EFC
:101BB0009340A105B10570F321E0C21AD108E108F4
:101BC000F10888EE880E83E0981EA11CB11CC11498
:101BD000D104E104F10419F7DDCFFF90EF90DF901D
:101BE000CF90BF90AF909F908F9008951F920F92CB
:101BF0000FB60F9211242F933F938F939F93AF9320
:101C0000BF938091E0039091E103A091E203B09132
:101C1000E3033091DF0323E0230F2D3720F40196F7
:101C2000A11DB11D05C026E8230F0296A11DB11DFF
:101C30002093DF038093E0039093E103A093E203FA
:101C4000B093E3038091E4039091E503A091E60350
:101C5000B091E7030196A11DB11D8093E403909319
:101C6000E503A093E603B093E703BF91AF919F9183
:101C70008F913F912F910F900FBE0F901F9018954D
:101C8000FA0124E1629FB0011124AB01465F5F4F6E
:101C900024E1829FC0011124BC01665F7F4F20E0D8
:101CA00038EFCF010C942C095F9A08958EBD000087
:101CB0000DB407FEFDCF8EB50895862F5F982B9A41
:101CC0002D989CB59F7B9CBD2D9A9CB590649CBD26
:101CD0000E94560E5F9A0895CF93DF931F92CDB75F
:101CE000DEB7872F5F982B9A2D989CB59F7B9CBD64
:101CF0002D9A9CB590649CBD69830E94560E2B9AC8
:101D00002D989CB59F7B9CBD2D9A9CB590649CBDE5
:101D10006981862F0E94560E5F9A0F90DF91CF91B6
:101D20000895862F5F982B982D989CB59F7B9CBD1E
:101D30002D9A9CB590649CBD0E94560E5F9A0895A2
:101D40006CE20E94910E5F980895AF92BF92CF927D
:101D5000DF92EF92FF920F931F93CF93DF93EC01EB
:101D60005B017A0169016AE20E94910EB501CE0120
:101D70000E946C0EB601CE010E946C0E6BE2CE0189
:101D80000E94910EB701CE010E946C0EB801CE01E7
:101D9000DF91CF911F910F91FF90EF90DF90CF9047
:101DA000BF90AF900C946C0E0F931F93CF93DF9363
:101DB000EC016930710519F06A35710571F48AE535
:101DC00090E09D838C8380EF90E09F838E8380E4FE
:101DD00091E09987888718E434C06231710519F061
:101DE000643B710571F484EB90E09D838C8380E407
:101DF00091E09F838E8380EF90E09987888718E336
:101E000020C06B31710521F07E7F6E30710571F459
:101E10008EE091E09D838C8380EF90E09F838E83A2
:101E200080E491E09987888718E80BC01D821C82A6
:101E300080E491E09F838E8380EF90E0998788878C
:101E400018EE66E3CE010E94910E612FCE010E9432
:101E50005D0EE881F98108851985015011092E81EF
:101E60003F81215031090680F781E02D40E050E0AC
:101E700060E070E0CE010995DF91CF911F910F9145
:101E80000895CF93DF931F92CDB7DEB7872F2B9A9C
:101E90002D989CB59F7B9CBD2D9A9CB590649CBD54
:101EA00069830E94560E2B9A2D989CB59F7B9CBDF2
:101EB0002D9A9CB590649CBD6981862F0F90DF910F
:101EC000CF910C94560ECF92EF92FF920F931F93E7
:101ED000CF93DF93EC01262F6A3081F48EAD9FAD56
:101EE0009BAF8AAF2CA92F778CAD9DAD38E0239F97
:101EF000800D911D11249DAF8CAF47C0862F8B7F25
:101F0000893009F442C06AAD7BAD203219F4611505
:101F10007105D9F1E881F981E8ACF9AC0EA91FA9E6
:101F20004CAD5DAD0088F189E02DCCA8CE010995BE
:101F3000BC019BAF8AAF8DA9882339F12CA92F77DB
:101F4000822F90E048EF4203900111244E815F817F
:101F5000420F531F46175707C4F44EAD5FAD5BAF3A
:101F60004AAF43E0880F991F4A95E1F74CAD5DAD4C
:101F7000840F951F9DAF8CAF48855985240F351F61
:101F80002817390714F41DAE1CAE81E090E0DF91F4
:101F9000CF911F910F91FF90EF90CF900895CF9226
:101FA000EF92FF920F931F93DC01ED91FC91068459
:101FB000F785E02D09951F910F91FF90EF90CF903D
:101FC00008952F923F924F925F926F927F928F92DD
:101FD0009F92AF92BF92CF92DF92EF92FF920F93B8
:101FE0001F93CF93DF9300D01F92CDB7DEB79B83B3
:101FF0008A83480188E0280290011124D901A8545D
:10200000B0405D01BC2DBF77CB2EEA81FB8186817C
:102010009781F1E0FB1708F463C06B0128E0C20E62
:10202000D11C8C159D050CF46EC0AA81BB8118963D
:10203000ED91FC9119979A01285F3F4FE217F30742
:102040000CF461C0AA81BB81ED91FC9111978A01CA
:10205000095F1F4F9B01295F3F4F0680F781E02DED
:10206000CD010995AA81BB81ED91FC911197008466
:10207000F185E02DCD0109958501085F1F4FF50120
:102080004490FFEFAF1ABF0A98E0692E712C20E848
:10209000522EAA81BB81ED91FC911197852D84214F
:1020A0000284F385E02D882319F0B401CD0103C02B
:1020B000B7018A819B8109955694B1E06B1A71082A
:1020C00041F7A016B106D9F6AA81BB81ED91FC912A
:1020D00011970484F585E02DCD010995C60176C0E0
:1020E000B8E0CB9E800111243B01600E711E861565
:1020F00097054CF0040F151FEA81FB81208531857F
:102100002017310714F4019661C0AA81BB81ED91BB
:10211000FC911197015011090680F781E02D930180
:1021200021503109CD010995AA81BB81ED91FC9126
:1021300011970084F185E02DCD0109952501B8E0C6
:102140004B0E511CF5012490FFEFAF1ABF0A3C2C37
:1021500008E010E080E8D82E8D2D82212C2DA1F0F2
:10216000AA81BB81ED91FC9111970284F385E02D4A
:10217000B401CD01298309952981215089F7D6948D
:102180000150110949F710C0AA81BB81ED91FC9162
:1021900011970284F385E02DB701CD0129830995BC
:1021A0002981215089F7EBCF3A943110D1CFA41473
:1021B000B50409F0C7CFAA81BB81ED91FC911197BD
:1021C0000484F585E02DCD010995C3010F900F9092
:1021D0000F90DF91CF911F910F91FF90EF90DF90C3
:1021E000CF90BF90AF909F908F907F906F905F90B7
:1021F0004F903F902F900895CF92DF92EF92FF92F1
:102200000F931F93CF93DF938C0161E088E00E94CE
:10221000800D289861E089E00E94800D61E087E0F0
:102220000E94800D61E08DE00E94800D61E08BE0F6
:102230000E94800D60E08CE00E94800D29985F9ADA
:1022400061E086E00E94800D5E9AF801E05CFF4F3D
:1022500088E080838CB5837F8CBD8CB58F7D8CBDF1
:10226000CFB7F8948091E903811127C0E6E8F0E048
:102270008491EAE9F0E09491E82FF0E0EE0FFF1F7F
:10228000E859FF4FA591B491EC91E92321F461E065
:102290008AE00E94340D61E08AE00E94800D8CB5D6
:1022A00080618CBD8CB580648CBD61E08DE00E9446
:1022B000800D61E08BE00E94800D8091E9038F5FCB
:1022C0008093E903CFBF8CB58C7F81608CBD8DB5C9
:1022D00081608DBD5F9A289862E370E080E090E0B5
:1022E0000E94BC0D289A68E770E080E090E00E94B0
:1022F000BC0DE8EBF3E07F018FEFE81AF80A649178
:102300006F3FA1F1862F807C8038B1F0803C39F19D
:10231000803411F0F701EFCFC62FCF736F01DC2FA0
:10232000FFEFCF1ADF0ADD23B9F0F6016491C8018F
:102330000E94910ED150F4CFC62FCF736F01DC2FC6
:10234000FFEFCF1ADF0ADD2339F0F6016491C801EF
:102350000E945D0ED150F4CFEC0EF11CDBCF6F73F9
:1023600070E080E090E00E94BC0DD4CF60E070E0AF
:10237000C8010E94BA048CB58C7F8CBD8DB58E7F50
:102380008DBD61E089E00E94800DEDEAF0E0E4910E
:10239000E33019F150F4E130D1F0E230E1F584B5E9
:1023A000806284BD8FE788BD3AC0E73011F1E83024
:1023B00049F1E43081F58091800080628093800053
:1023C0008FE790E090938B0080938A0028C084B5BB
:1023D000806884BD8FE787BD22C0809180008068BF
:1023E000809380008FE790E090938900809388002D
:1023F00016C08091B00080688093B0008FE7809312
:10240000B3000DC08091B00080628093B0008FE770
:102410008093B40004C060E089E00E94340D6FEF47
:102420007FEFC801DF91CF911F910F91FF90EF9047
:10243000DF90CF900C94BA041092E8032D98539833
:1024400008958F929F92AF92BF92CF92DF92EF92B8
:10245000FF920F931F93CF93DF93EC016901580113
:102460002E813F81621773071CF0B9016150710919
:1024700088859985481759071CF0AC0141505109CE
:10248000FB01EC0DFD1DE217F3071CF06901C61AF4
:10249000D70A9A012A0D3B1D281739071CF05C0149
:1024A000A41AB50AE881F9818A010A0D1B1D0150A1
:1024B00011099B012C0D3D1D215031090680F7812A
:1024C000E02DCE010995E881F9810084F185E02DA8
:1024D000CE0109959501D6010E9494164B015C012D
:1024E000E881F98181149104A104B10461F00284AE
:1024F000F385E02DB701CE01099581E0881A910896
:10250000A108B108EDCF0484F585E02DCE01DF915F
:10251000CF911F910F91FF90EF90DF90CF90BF90E0
:10252000AF909F908F900994CF93DF93CDB7DEB794
:10253000C154D1090FB6F894DEBF0FBECDBF789459
:1025400084B5826084BD84B5816084BD85B58260B8
:1025500085BD85B5816085BD80916E008160809369
:102560006E001092810080918100826080938100D2
:1025700080918100816080938100809180008160E2
:10258000809380008091B10084608093B10080913D
:10259000B00081608093B00080917A008460809365
:1025A0007A0080917A00826080937A0080917A002C
:1025B000816080937A0080917A00806880937A00AD
:1025C0001092C100E0910503F091060392E0908320
:1025D000E0910103F09102031082E0910303F09176
:1025E00004038FEC808310920D03E0910903F091B6
:1025F0000A0386E08083E0910703F091080380815D
:1026000080618083E0910703F091080380818860F6
:102610008083E0910703F0910803808180688083C4
:10262000E0910703F091080380818F7D80831092F1
:10263000B0001092B1001092700080E18093B00061
:102640008091B10082608093B100809170008360BE
:102650008093700085E38093B4009093B300109250
:10266000B200789452985A9AE89A809169008160F1
:1026700080936900259A539A0E941C12E5E3F2E0C8
:1026800080E091E020E030E0BF016C547F4F882370
:1026900011F08B3029F4AF01420F531FDA0102C051
:1026A0009083DB019C93245F3F4F203C310579F7F9
:1026B0008F5F31968C3031F782E080935A0280939D
:1026C00066028093720280937E0280938A028093D6
:1026D00096028093A2028093AE028093BA02809306
:1026E000C6028093D2028093DE0211E010934F0263
:1026F00080935B02109367028093730210937F02B2
:1027000080938B02809397021093A3028093AF0271
:102710001093BB028093C7021093D3028093DF0211
:10272000809344028093500210925C02809368026E
:10273000109274028093800280938C02809398029E
:102740008093A4021092B0028093BC021092C8023F
:102750008093D4028093E00280934502109351024B
:1027600080935D0210936902809375021093810239
:1027700080938D02809399021093A5028093B102F9
:102780001093BD028093C9021093D5028093E10299
:10279000809346028093520280935E0280936A0285
:1027A000809376028093820280938E0280939A02B5
:1027B0008093A6028093B2028093BE028093CA02E5
:1027C0008093D6028093E202809347028093530263
:1027D00080935F0280936B028093770280938302E1
:1027E00080938F0280939B028093A7028093B30211
:1027F0008093BF028093CB028093D7028093E30241
:1028000080934802109354028093600210936C02EC
:1028100080937802109384028093900280939C02AC
:102820001093A8028093B4021093C0028093CC024C
:102830001093D8028093E40280934902809355025A
:102840001092610280936D0210927902809385024A
:102850008093910280939D028093A9021092B50209
:102860008093C1021092CD028093D9028093E50239
:1028700080934A02109356028093620210936E0274
:1028800080937A02109386028093920280939E0234
:102890001093AA028093B6021093C2028093CE02D4
:1028A0001093DA021092E60280934B028093570253
:1028B0008093630280936F0280937B0280938702F0
:1028C0008093930280939F028093AB028093B70220
:1028D0008093C3028093CF021092DB021092E70232
:1028E0006EE973E0CE0101960E944D03CE01019680
:1028F0000E94FC1088B1806388B910929F011092E9
:102900009E0110920F021092310210920D0210934C
:102910000C021092E70161E082E10E94340D61E057
:1029200083E10E94340D8091B9008E7F8093B900BD
:102930008091B9008D7F8093B90088E48093B800BE
:1029400085E48093BC0010930E0282E580933002F0
:1029500010920F021092310260E482E993E00E942B
:102960001E0360E082E993E00E941E0381E00E9462
:10297000300C6EE973E0CE0101960E944D03AE016A
:102980004F5F5F4F60910101809100010E94400EF6
:102990006EE973E0CE0101960E944D03CE010196CF
:1029A0000E948D0C772473941FEF05E025EED22E44
:1029B00035ECC32E46E0B42E5EE7E52E51E0F52E51
:1029C00067E1A62E72E5972EECE08E2E80910D0227
:1029D0008111FCCF70920D0270920C0210930B02C9
:1029E00010920A02009309027092E8018091E801B6
:1029F000846A8093E8018091E701813069F4109244
:102A0000E7018091E8018093BB008091BC0083FDC9
:102A1000F8CFC092BC0002C0D092BC0080910D02E1
:102A20008130E1F380910A02863018F460900A0246
:102A300002C096E0692EA9EEB1E0EEE7F1E08E2F3C
:102A40008E19861518F48D918193F9CF10929F01FC
:102A500060929E018DE5482E81E0582E80919F0165
:102A6000681651F082E993E00E94D2028A25895EBD
:102A7000F20181932F01F2CF70920E0290923002F8
:102A800010920F021092310260E082E993E00E94FE
:102A90001E0381E00E94300C20915D0120935C01B7
:102AA00060915E0160935B01909100018091010152
:102AB0002D38E0F020915A012E31A1F5492F50E038
:102AC0004F5F5F4F849E9001859E300D11242B5CDB
:102AD0003D4FF901E80FF11D2081222329F0233019
:102AE00019F02750233008F59F5F17C02237E8F40C
:102AF00020915A012E31B1F42CE0929FF001112463
:102B0000E75DFD4FE80FF11D2081222329F02330DE
:102B100019F02750233048F49150909300011092FF
:102B20005A0103C02F5F20935A01909100016D3824
:102B3000B8F0209159012E3179F53CE0939FF001D6
:102B40001124EB5CFD4FE80FF11D3197208122230A
:102B500029F0233019F02750233008F5815017C091
:102B60006237E8F4209159012E31B1F4ACE09A9F1C
:102B7000F0011124EB5CFD4FE80FF11D21812223B0
:102B800029F0233019F02750233048F48F5F8093C9
:102B900001011092590103C02F5F20935901209128
:102BA00001018091620180FD1BC08091340285305B
:102BB000B9F0309158013130A9F0BCE09B9FF00191
:102BC0001124EB5CFD4FE20FF11DB08270925801B1
:102BD00090933302209332028F5F8093340202C0BD
:102BE000109258016EE973E0CE0101960E944D03E8
:102BF000AE014F5F5F4F60910101809100010E9423
:102C0000F60B6EE973E0CE0101960E944D03AE0112
:102C10004F5F5F4F60910101809100010E94C60BE0
:102C20006EE973E0CE0101960E944D0361E0CE0192
:102C300001960E940E0A6EE973E0CE0101960E9491
:102C40004D03CE0101960E94C409C0CEE5EFF2E02B
:102C50001382128288EE93E0A0E0B0E08483958333
:102C6000A683B78328E031E03183208325EC30E070
:102C70003587248724EC30E03787268720EC30E046
:102C8000318B208B21EC30E0338B228B22EC30E037
:102C9000358B248B26EC30E0378B268B118E128EF1
:102CA000138E148EE2E9F3E01382128284839583FB
:102CB000A683B78388E191E091838083EEE9F3E016
:102CC000138212821582148280E491E097838683B6
:102CD00080EF90E091878087178616861586148688
:102CE00013861286178A168A158A148A138A128AFC
:102CF000118A108A10AA11AA12AA13AA81E084AB21
:102D000085AB17AA16AA8FEF9FEF91AF80AF1092F5
:102D1000DD031092DC0315AE14AE13AE12AE86E4E2
:102D200091E09183808308950E94AE16332312F4BC
:102D30008A1B9B0B0C949E160E94AE16B7FF08953B
:102D4000821B930B0895EE0FFF1F0590F491E02D69
:102D5000099481E090E0F8940C94BD16A29FB00114
:102D6000B39FC001A39F700D811D1124911DB29FBF
:0E2D7000700D811D1124911D0895F894FFCF60
:102D7E0001010101000000009E08240871084F089F
:102D8E006308E508000000001E03EE02E602D20210
:102D9E00C302C20200000000630F2408C209C20968
:102DAE00C209C209C209E10FCF0F00000000C2091B
:102DBE00240800000000630F2408D40EA50EA00EF8
:082DCE00410F540EE10FCF0F7D
:00000001FF
