:100000000C94880B0C94911C0C94B00B0C94B00BBA
:100010000C94B00B0C94B00B0C94B00B0C94631DAF
:100020000C94B00B0C94B00B0C94B00B0C94B00B64
:100030000C94B00B0C94B00B0C94B00B0C94B00B54
:100040000C9438240C94B00B0C9480230C945A23F9
:100050000C94B00B0C94B00B0C94B00B0C94B00B34
:100060000C94631B0C94B00B000000000000000017
:1000700030787830300030006C6C6C00000000008C
:100080006C6CFE6CFE6C6C00307CC0780CF8300040
:1000900000C6CC183066C600386C3876DCCC7600EA
:1000A0006060C00000000000183060606030180020
:1000B000603018181830600000663CFF3C66000095
:1000C000003030FC30300000000000000070306074
:1000D000000000FC000000000000000000303000C4
:1000E000060C183060C0800078CCDCFCECCC7800CA
:1000F00030F030303030FC0078CC0C3860CCFC0074
:1001000078CC0C380CCC78001C3C6CCCFE0C0C0071
:10011000FCC0F80C0CCC78003860C0F8CCCC78006F
:10012000FCCC0C183060600078CCCC78CCCC78005B
:1001300078CCCC7C0C1870000000303000303000DF
:100140000000303000703060183060C0603018003F
:100150000000FC00FC0000006030180C183060004B
:1001600078CC0C18300030007CC6DEDEDEC07800B3
:100170003078CCCCFCCCCC00FC66667C6666FC009F
:100180003C66C0C0C0663C00FC6C6666666CFC00E9
:10019000FE6268786862FE00FE6268786860F0005F
:1001A0003C66C0C0CE663E00CCCCCCFCCCCCCC00F7
:1001B00078303030303078001E0C0C0CCCCC78000D
:1001C000E6666C786C66E600F06060606266FE0071
:1001D000C6EEFED6C6C6C600C6E6F6DECEC6C6006B
:1001E000386CC6C6C66C3800FC66667C6060F00081
:1001F00078CCCCCCDC781C00FC66667C786CE600A5
:1002000078CCE0381CCC7800FCB43030303078004A
:10021000CCCCCCCCCCCCFC00CCCCCCCCCC78300076
:10022000C6C6C6D6FEEEC600C6C66C386CC6C600CC
:10023000CCCCCC7830307800FECC983062C6FE0052
:100240007860606060607800C06030180C06020062
:10025000781818181818780010386CC600000000BC
:1002600000000000000000FF303018000000000017
:100270000000780C7CCC7600E0607C666666BC0092
:10028000000078CCC0CC78001C0C0C7CCCCC760068
:10029000000078CCFCC07800386C60F06060F00042
:1002A000000076CCCC7C0CF8E0606C766666E600EC
:1002B0003000703030307800180078181818D87076
:1002C000E060666C786CE60070303030303078007A
:1002D0000000ECFED6C6C6000000F8CCCCCCCC00AA
:1002E000000078CCCCCC78000000DC66667C60F046
:1002F000000076CCCC7C0C1E0000D86C6C60F0004A
:1003000000007CC0780CF80010307C3030341800CD
:100310000000CCCCCCCC76000000CCCCCC7830002B
:100320000000C6C6D6FE6C000000C66C386CC60065
:100330000000CCCCCC7C0CF80000FC983064FC00B5
:100340001C3030E030301C00181818001818180045
:10035000E030301C3030E00076DC000000000000AF
:1003600010386CC6C6C6FE004128D441CF83008336
:100370003041ED846403128141E88385017941CBEA
:1003800085392C00340241F7812041EA8200004186
:10039000C0812641C1811141C582353E41C781BE20
:1003A00041B182001B41F281084126810141E08F69
:1003B0001F1A180A0F064587320A0702070500416F
:1003C000E18F0025270510093A784D05180D383AB8
:1003D0001F41B6840A82270041B78107413A8155FF
:1003E000413681E8412A82000082013F412B820090
:1003F000008200EF4111FCFC4129D4FFFF666666D4
:100400006666666666666666666463626462606F98
:100410006D6C73787B6B777F73818A6B767D747775
:10042000796C6A6864626164636366666666666660
:10043000666666666666666666666666666666665C
:1004400066666463627882896E7F8B617785576E9A
:100450007C7E8D97FFFFFF596D7B5A717F63798793
:100460006E7F89767D8264636366666666666666AD
:100470006666666666666666666666666666646321
:1004800063747A7E5A7484687F8D687F8D687E8CF1
:10049000B7C1C860788769808E677E8C5D77877406
:1004A00075766464646666666666666666666666D3
:1004B00066666666666666666666656565666666DF
:1004C000635955000000000000000000000000001B
:1004D00000000000000000006F645F6364646666F3
:1004E00066666666666666666666666666666666AC
:1004F000666666666666666666585C5FF2C2A9D422
:10050000A68E81655754423946372F5A473D8E6F24
:1005100060E6B49ACAA6935C60626A6A6A666666B6
:10052000666666666666666666666666666666666B
:100530006666666666585D5FE0B49DE0B097D9A8D0
:100540008FDBA990EEBCA2E0AF96D2A189E2B19870
:10055000C9A89755595B3C3B3B6A6A6A6666666602
:10056000666666666666666666666666666666662B
:1005700066585D5FE0B49DDEAD93C0ABA4D7B9AA69
:10058000DAAA91E4BCA8B3A7A5E1AE93C7A5936787
:100590006B6D1717176C6C6C6666666666666666CA
:1005A00066666666666666666666666666585D6008
:1005B000DEB19ADDAD94C7A798D6AE99DFAF95E3CB
:1005C000B79FBA9D92E1AF95C7A5936165671C1C63
:1005D0001C737373656565666666666666666666E1
:1005E000666666666666666666585D5FE2B49DDC52
:1005F000AD94D7A891B99280BB9685B89280DCACB7
:1006000093DEAE95C6A4925F63653838385C5C5C57
:100610006767676666666666666666666666666677
:100620006666666666575C5EEEC0A9DBAD94D6A8CA
:10063000925E4643685454654B47DCAD95DFAF96F8
:10064000C6A4925C60625B5B5B3436386A6A6A6639
:10065000666666666666666666666666666666663A
:1006600066575C5EF5C4ABE5B297D7A68FA98D84BB
:10067000C6B2AAA78B80DDAC93E8B499CCA49159FB
:100680005D5F7A7B7B6C594566686A656565666601
:10069000666666666666666666666666665E60610D
:1006A000A3958E8F837EA1897F9B7F738C6C5E9CCC
:1006B0007F73A28B81938781968C8763696D7C7829
:1006C0006B69553F696B6D656565666666666666EE
:1006D0006666666666666565656F6D6C4E5B6237FD
:1006E0004C583349564962701D2B34445D6A364B71
:1006F00056384C5726363D28384056626966676939
:10070000676767656565666666666666666666658A
:10071000656568686857626829373E4D5D674A5B62
:10072000655367731B23275266723E4E57626F777D
:100730006A6E70656C706B6969656565656565662F
:1007400066666666666666666666666263638A8411
:1007500081253842676D7053636B495B65516571E4
:100760002E3A41516571485A655C6A7267656366E5
:10077000656565656566666666666666666666661E
:10078000666666666666665E6061BFA19187817E09
:100790006A686755677151667250657146565F5356
:1007A00068754D626D5D6D756765646666666666E3
:1007B00066666666666666666666666666666666D9
:1007C0006666666666665E60616263636D6D6D1B1C
:1007D00018190D0B0C1F1A1A4E5C651C18171F1BDD
:1007E0001C514F4F68686866666666666666666630
:1007F0006666666666666666666666666666666699
:1008000066666666666666666B6B6B333334262196
:10081000204B45427A7A7A28201D342F2F73747426
:10082000656565666666666666666666666666666B
:100830006666666666666666666666666666666658
:10084000666666666464648D8D8C221B194842421C
:100850006F7070352E2D342E2C79797A656565662A
:100860006666666666666666666666666666666628
:10087000666666666666666666666666666565651B
:100880007272720303020000002C2C2C7575761214
:1008900012110000001A1A196D6D6D6666666666A3
:1008A00066666666666666666666666666666666E8
:1008B00066666666666666666666666666666666D8
:1008C00066666666666666666666666666666666C8
:1008D00066666666666666666666666666666666B8
:1008E00066666666666666666666666666666666A8
:1008F0006666666666666666666666666666666698
:100900006666666666666666666666666666666687
:100910006464646061646262636666666666666299
:1009200062625B5B5D66666666666666666666668E
:100930006666666666666666666666666666666657
:100940006666666666666666666464646468709A0F
:100950008D6E797B805F5F61626262828282C2C5D6
:10096000BC666666666666666666666666666666D1
:100970006666666666666666666666666666666617
:100980006666646464595C63E1CB93BBAD88EFCE6B
:100990007875767A58595B9499A0FFD44966666653
:1009A00066666666666666666666666666666666E7
:1009B00066666363636767676565656666666A6AD8
:1009C0006B9B9995F4D9925A5F6A77797FF0CE76CE
:1009D000767A846A7080E6CE81666666666666664A
:1009E0006666666666666666646464616161898976
:1009F000895C5C5C7A7A7A5C5C5C828487433412C2
:100A00008585836161625E5F617B7A77EACA79F08E
:100A1000D081B6B0A066666666666666666666661D
:100A2000666464647474748888882B2B2B1C1C1C6B
:100A30000A0A0A000000A0A0A00506096767686509
:100A4000656566666660616265686F676A715F604A
:100A50006366666666666666666665656564646442
:100A60007878783E3E3E4E4E4E4E4E4E38383815D3
:100A700015150000000505055D5D5D7676766464FC
:100A80006466666664646464646465656566666617
:100A90006666666666666363638888883232327229
:100AA0007272757575717171505050282828090936
:100AB000090B0B0B0000007575756565656666664C
:100AC00066666666666666666666666666666666C6
:100AD00066666767675252526A6A6A818181979730
:100AE000978A8A8A5C5C5C3030300A0A0A0B0B0BEE
:100AF0000505054343437171716565656666666604
:100B00006666666666666666666666666666686881
:100B1000685656563636366666668484847C7C7C97
:100B20005A5A5A2B2B2B0808080B0B0B0808081FC6
:100B30001F1F7171716565656666666666666666C5
:100B400066666666666666666666696969424242A8
:100B50002F2F2F55555565656561616149494916C6
:100B600016160E0E0E0B0B0B0707071D1D1D7272BE
:100B7000726565656666666666666666666666660C
:100B80006666666666666666666363631B1B1B3D18
:100B90003D3D4A4A4A424242222222171717121268
:100BA000120A0A0A0C0C0C4F4F4F6E6E6E6565658B
:100BB00066666666666666666666666666666666D5
:100BC00066666363638E8E8E1B1B1B2C2C2C32324D
:100BD000322727272222221C1C1C1212120E0E0E54
:100BE00000000078787863636366666666666666AA
:100BF0006666666666666666666666666666646499
:100C0000646F6F6F6B6B6B1F1F1F2E2E2E29292990
:100C10002222221919192323231616164848487927
:100C20007979727272646464666666666666666620
:100C3000666666666666666565656767676464645A
:100C40006969695454541717170F0F0F0C0C0C12C5
:100C500012120F0F0F3C3C3C707070626262797927
:100C60007964646466666666666666666666666617
:100C7000666666666666646464626262646464672B
:100C800067676E6E6E5555554646464E4E4E6C6CB9
:100C90006C686868656565666666646464666666F1
:100CA00066666666666666666666666666666665E5
:100CB00065656E6E6E8A8A8A7575757777776A6AEA
:100CC0006A68686869696968686866666689898942
:100CD00063636365656566666666666666666666C0
:100CE00066666666666666666666666666666565A6
:100CF000656262626363636E6E6E65656565656598
:100D00006666666666666565656262626565656695
:100D10006666666666666666666666666666666673
:100D20006666666666666666666666666666666663
:100D30006666666565656565656666666666666659
:100D40006666666666666666666666666666666643
:100D50006666666666666666666666666691714B18
:100D6000DFC094CDAC81C3A478CCAC85ECD2B1E427
:100D7000C8A3E9C9A3DDBD96E4C8A3F5D9B4E0C012
:100D800099E0C09AD4B891EBD1AED0B089C8A87F11
:100D9000C9A980D8B88FC9A87FDBBB92B4926CCBAD
:100DA000A87ED7B68BAD8B5ECAA77DC5A47BA78472
:100DB0005A9271488B6A3FA3825797764D967D5E13
:100DC000C09F76D4B187BC9A6DD3B287DCBB90BF8D
:100DD0009E71BE9C6FC6A57AAB8A5FB3936ACAAA9E
:100DE00084C4A47DD4B99BDFCDB5D3C0A2C2AB82ED
:100DF000D2B68FD5B992DFC8A8BDA57FCDAF8BD2B3
:100E0000B895C0A27CCBB495C4A380C19F72A987BA
:100E10005AC3A478CBAA81C7A67DC2A27CCEAE87D6
:100E2000B19065917754A7865DA3835D7456308B2E
:100E30006E46B6956CB5956FA6845EA07F568461AC
:100E400039B89A74583E23BD9C71B99970C7A77E72
:100E5000AE8C5FC1A17AA38056D0B089D9B791B5C5
:100E60009469B29877BD9D767A593078552BE3C155
:100E70009BA18055B7966DB29168916E44C7A780CB
:100E800054391CB59268E3C59FEAD0ADBC996FD8C0
:100E9000BA94C9A87DB39066BF9F78D4B38AB08F47
:100EA00066A08363A5845B97764DD5B58CBC9B709B
:100EB00097764BB18E6698774EC6A67F563B1EC47A
:100EC000A47DDEBE97DBBE9CB8976EEBD5BD8F735D
:100ED0004ECCAB80AF8C62D0B087C7AA88C2A27953
:100EE000775B36907047DDC9B0B19067A4835AAC88
:100EF000895FA7865DC8AE89523719BD9C73C3A2AE
:100F000077E7C7A0A9885FD7BB96AA8A63A48B6C32
:100F1000C7A780BFA580CFB28ACAA980BA9A7389B1
:100F20006C4AD7B790CFAE85AC8C65A8855B9B7BB0
:100F300052BD9F79583F21AE8D64CAA980D7B79022
:100F4000A18057D0B691A28259BEA27D9A7D55D07C
:100F5000B28C9D7A50B79770B5946BC3A37CBEA634
:100F600084A4845DB08F66B6956C8D6F49AB8D6738
:100F7000604729B39164DCBB92EBCDA78B6A3FDB62
:100F8000BD99AD8D66D6BA95B18C609A805FE0C28E
:100F90009CA38056BA9A73B2926BC7A77E785C37CF
:100FA000B4946EB9986D7D5F39BA9C7661482AB465
:100FB0009167B19065F1D5AE846338D5B7938664F7
:100FC0003EE3C7A2AD885BB99972C2A887E0C39B14
:100FD000926F45B09069B3936CCBAB84977A58AE5F
:100FE0008D64846640AD8D66695032A9875AAF8C96
:100FF00062D7B7909E7D54D2BEA37D5D37DBBD978F
:10100000997447D2BDA2DBC6A9A98C6AE0C29CA292
:101010007F55BC9D7EAC8C63C9A9827F6544856782
:1010200041C7AF95584122AE8C5FDAB990E6C6A0B1
:10103000A98B67D7BE958B6A41DBBD97C29D71D0E6
:10104000B389D9BB95C2A47E5E3C16E5C9A4B4930E
:101050006AB5956EA4845BCAAD85684D2FBA9C763F
:10106000563F20AF8E63CDAB85DDC19CB29168E366
:10107000CAA288673ECBAB849C774BDBBD97CFAED3
:1010800083CEB189936E42C0A683E6CAA3BB9A7190
:10109000CEAC86AD8D66CCAC859C8364523A20BDC7
:1010A0009D74C6A57AEBD1B0BF9C72D5B992AC8CB9
:1010B00063CAAA818B683EDFC39EC2A178C8AB8396
:1010C000A27D51CEB08A886B43D7BB94B7966DC8CA
:1010D000A77EAD8D66D9BC9439250DC8A680DBBB33
:1010E00094D0B087AC8A5DC4A6809E7E58A4845BF1
:1010F0007B5A31D7B993D2B895D0B089C5A376DAE7
:10110000BC969E7C4FA68A65F9DBB5CEAD84BB99B3
:1011100073CBB293B8A07EB9986DE2C49EC7A77E88
:10112000CFAE85D6C3A5A7896595754C6C4E28C5ED
:10113000AB86A48358BD9F79A9885DB89C77A786A4
:1011400059D2B68FB19879E2C69FB5946BAD8D66D2
:101150009D805EBD9C6FC1A178CFAE83A8875CB730
:10116000946AF9E9C8FCE7CAFEEFD8FDF1D7FFF4AD
:10117000DAFFFAE0FFF2D8FFF0D7FFF3D9FFF2DB96
:10118000FFF8E2FFEDD5D0B48FD6BA95B89A76C500
:10119000A375AD8B5ED8B98BB5926AAF8E65C1A0D1
:1011A00075C6A175C2A176AE8E67B3926798774E69
:1011B000A78256A984578D6C43AD8A60A6865FB519
:1011C0009469C4A275BA976DB19168BA9970B998CB
:1011D0006DD2B58DC7A57FCFAE83D3B38CCBAB8497
:1011E000E3C9A6E8CEABD4B48DE7C9A3F2D4B0E886
:1011F000CAA4E6CAA3DDBD96EACEA9E8CEADD8B8AA
:1012000091CFAF86C9A980C6A57CD5B48B3F3D3BA5
:10121000413F3E3A38372726263D3D3D3A3A3A3C53
:101220003C3C3F403F2A282739373642404047461A
:10123000444644422D2B2A2E2B2A42403F42403F17
:101240003F3B392523223D3B3A3533323231303171
:101250002F2E2B29273737363B3A393D3D3B343348
:101260003325242337353436353431302F31302F80
:101270001E1D1C26242435333232312F37343220C0
:101280001F1D31302F1311111C1A1922201E151485
:10129000131D1B1B1C1B1B2020202222221716158E
:1012A0001A19181514142120202C2B2B2B2A2A2B29
:1012B00029272421202423223737352D2D2B282799
:1012C000262926253331313533322A272638333241
:1012D0003132313F413F3D3E3C28262639383730B8
:1012E0002E2E333232403E3F3837363733303632A7
:1012F000302F2E2C3B3A383838353735331D1C1BF0
:101300002927272C2B2B19161624212023232232A0
:10131000333130312F2120202423232221221F1F6B
:101320001E1D1C1C1D1C1C2C28262622201B1A19C5
:101330002C2D2B30302F282725393634302E2D23D5
:1013400022223434343938393636362E2D2C3C3B73
:101350003A3D3C3B302E2D3130303F3D3D43414105
:10136000484746201F1E3C3E3E424342343331250F
:1013700023213D3A384746464443442D2B2B4646CD
:10138000484040423A393A2C2B2B3E3C3D434141A8
:10139000403E3D2928284443423F3E3D3D3C3B25BD
:1013A0002423474846444544444644302E2C413F7C
:1013B0003E1B1A191A19171F1D1D1B1B1A1A191962
:1013C0002524231B1A19201E1E1F1E1D1B1A19154A
:1013D00014131514131615141A19181B19181716A7
:1013E000152625242524231F1E1E2322223F3F418C
:1013F0003B393848464545434143413F2C2A2A3E24
:101400003D3C413F3F3533332827262C2B2A211FD3
:101410001E33312F3A373544403D1B1A1944444698
:101420004A4A4B444446444446313132211F1F3816
:1014300037363736343332322322223E3D3E414066
:1014400040312F303C3B3A434241222120403E3D37
:10145000403E3E4A474621201F47484A3E3E3F3CC9
:101460003C3E3737391818191D1D1E15151619174A
:1014700017332F2C312D2A211E1D1817171E1D1D45
:10148000232221201E1E333233232324232324200E
:101490001F201211101615151A1A1A1615161312E6
:1014A000134547484142443E3F412B28263B3633B3
:1014B0003E3835342E2B302F2E403F3D3F3D3D24CE
:1014C00023234041423E3E404445463D3E3F272681
:1014D000253936333F3A372422203D3E401717172F
:1014E0002525263030311B191734302D322E2C2B68
:1014F00027252625253635333735341B1A1A34353A
:10150000362C2D2E38383A292A2B211F1E2C2B2A17
:1015100033312F24211F1717182625241B1A1816BC
:101520001412302F2D2B29283432301E1D1D39382E
:1015300039343334343334202020211F1D1F1C1A2A
:1015400019181731302F3331303332301716152E2A
:101550002E2D3533332C2B2B44413E312F2D3A3851
:1015600037413F3E3E3C3B2827273E3E3F3E3D3FE6
:101570004241432B2A2B3F3A363F3935201E1D4628
:1015800045444E4C4B51504F2A2928484746454424
:1015900043201E1E201F1E1A19181818171C1C1B6A
:1015A000222120171615201F1F1E1D1D1B1A1A167B
:1015B00015151A18171E1C1A1716151D1C1C1E1C93
:1015C0001D292828201F1E1E1D1D28272623201FF9
:1015D0003A37353C3937403C3A423F3C201F1E36B3
:1015E00033302D2A282E2C2B413E3B44413E2523CF
:1015F000224A4A474A4A4644454141413F1F1F1F2C
:101600002C2B2A2825222B28261E1C1C44423F4214
:10161000403E464342423F3D201F1E3D3B393A3744
:1016200035353331413E3C4743402524224A4B481F
:10163000494A4846474443454323222044413F46C4
:10164000423E3B3735151514232120211F1E272527
:10165000251D1C1B12100F24211F221F1D141313E4
:101660001E1E1E1C1C1B12111122201F1816141CDA
:101670001C1B2426240E0C0C1614131C1B192321CE
:101680001F43413F4845433C393721201F3F3F3DE1
:101690003838373D3D3D3837372C2A2944434243BB
:1016A0004140413F3E41403E2D2B2A2E2C2B3F3CBA
:1016B0003B3835333B3835242221403E3B00000087
:1016C0000800020100000304070000000000000001
:1016D0000000000000250028002B0000000000246E
:1016E0000027002A00040404040404040402020283
:1016F0000202020303030303030102040810204053
:10170000800102040810200102040810200088361D
:1017100011241FBECFEFD8E0DEBFCDBF12E0A0E0A6
:10172000B1E0E6E8F0E702C005900D92AE34B107F3
:10173000D9F724E0AEE4B2E001C01D92AB3CB207A1
:10174000E1F71BE0C8E8DBE004C02197FE010E943E
:101750001937C738D107C9F70E94DB320C944138DA
:101760000C9400002F923F924F925F926F927F9263
:101770008F929F92AF92BF92CF92DF92EF92FF92A1
:101780000F931F93CF93DF93CDB7DEB7E3970FB6D9
:10179000F894DEBF0FBECDBF6C016BABA4E04A2E48
:1017A000CE01899698AB8FA7B2E03B2EBB24B394B1
:1017B00043E0842E57E0252E65E0A62E7AE0772EB2
:1017C000E9E06E2EF6E05F2E60E572E081E592E0E2
:1017D0000E943A28909150029AABE0915102E9ABF5
:1017E000B601CE0101960E94351EFBA9F11106C07B
:1017F00061E070E080E090E00E94FE238091520260
:10180000813009F035C190915502913009F026C11F
:1018100090900001981231C030E2E32E3DEFF32E9C
:1018200008E310E025E930E048E050E068E070E0CF
:10183000CE0101960E944C1A9092550299A99239B4
:10184000E8F190900001E1E09E121AC03092000190
:10185000E12CF12C25E930E048E050E068E070E050
:10186000CE0101960E944C1A20E2E22E2DEFF22EBC
:1018700025E930E048E050E01EC099A99239F0F027
:10188000F3E09F125EC040920001E12CF12C08E3CE
:1018900010E025E930E046E450E068E070E0CE0179
:1018A00001960E944C1A90E2E92E9DEFF92E25E94F
:1018B00030E046E450E063EA70E03DC089A98E362E
:1018C00008F03FC0809100018230C9F4B09200015D
:1018D000E12CF12C08E310E025E930E048E050E08D
:1018E00063EA70E0CE0101960E944C1A80E2E82E75
:1018F0008DEFF82E25E930E048E050E01AC0843042
:1019000001F580920001E12CF12C08E310E025E9BB
:1019100030E046E450E063EA70E0CE0101960E94B8
:101920004C1AB0E2EB2EBDEFFB2E25E930E046E489
:1019300050E068E070E0CE0101960E944C1A1092CF
:1019400055029AA99E3608F043C08091000181306B
:10195000D9F480920001E12CF12C08E310E025E994
:1019600030E048E050E068E070E0CE0101960E946F
:101970004C1AA0E2EA2EADEFFA2E25E930E046E45B
:1019800050E068E070E01DC0823009F071C0409204
:101990000001E12CF12C08E310E025E930E048E0FB
:1019A00050E063EA70E0CE0101960E944C1AF0E22A
:1019B000EF2EFDEFFF2E25E930E046E450E063EA2C
:1019C00070E0CE0101960E944C1A1092550250C050
:1019D000EAA9E23908F44CC0809100018330D9F4BF
:1019E000B0920001E12CF12C08E310E025E930E091
:1019F00046E450E068E070E0CE0101960E944C1A87
:101A0000E0E2EE2EEDEFFE2E25E930E048E050E07A
:101A100068E070E01CC0843059F530920001E12C80
:101A2000F12C08E310E025E930E046E450E063EAF9
:101A300070E0CE0101960E944C1A70E2E72E7DEF15
:101A4000F72E25E930E048E050E063EA70E0CE018F
:101A500001960E944C1AB09255020AC09AA9935757
:101A6000993130F499A99357993110F48093550224
:101A700080915202823009F0A3C190905502F1E0AA
:101A80009F1294C180910001853029F560E2E62E15
:101A90006DEFF62E08E310E02CE430E046E450E071
:101AA00068E070E0CE0101960E944C1A90925502B7
:101AB00089A9823908F45CC080910001853079F4ED
:101AC00050920001E12CF12C2CE430E046E450E08F
:101AD00068E070E07EC0E9A9E23908F449C08630C8
:101AE00069F420920001E12CF12C08E310E02CE4D1
:101AF00030E046E450E060E570E04EC08730E1F44D
:101B000088E080930001E12CF12C08E310E02CE444
:101B100030E046E450E063EA70E0CE0101960E94B6
:101B20004C1A50E2E52E5DEFF52E2CE430E046E451
:101B300050E06BEE70E093C0893009F096C070926F
:101B40000001E12CF12C08E310E025E930E044E845
:101B500050E068E070E0CE0101960E944C1A40E22D
:101B6000E42E4DEFF42E25E930E044E850E020C0AB
:101B700099A99E3608F079C0809100018830D9F487
:101B800020920001E12CF12C08E310E02CE430E07D
:101B900046E450E06BEE70E0CE0101960E944C1AD4
:101BA00030E2E32E3DEFF32E2CE430E046E450E04B
:101BB00063EA70E054C08730D9F450920001E12C00
:101BC000F12C08E310E02CE430E046E450E063EA56
:101BD00070E0CE0101960E944C1A20E2E22E2DEF19
:101BE000F22E2CE430E046E450E060E570E037C0CF
:101BF0008630C9F4A0920001E12CF12C08E310E03A
:101C00002CE430E046E450E060E570E0CE0101965F
:101C10000E944C1A90E2E92E9DEFF92E2CE430E060
:101C200046E450E01AC08A3001F560920001E12CD0
:101C3000F12C08E310E025E930E044E850E063EAE5
:101C400070E0CE0101960E944C1A80E2E82E8DEFE2
:101C5000F82E25E930E044E850E068E070E0CE017D
:101C600001960E944C1A10925502EAA9EE3608F02D
:101C700057C080910001853069F460920001E12C29
:101C8000F12C08E310E02CE430E046E450E068E09A
:101C900070E00EC08630C9F460920001E12CF12C96
:101CA00008E310E02CE430E046E450E060E570E04A
:101CB000CE0101960E944C1AB0E2EB2EBDEFFB2E36
:101CC00025E930E044E850E04BC0873069F4709279
:101CD0000001E12CF12C08E310E02CE430E046E4B4
:101CE00050E063EA70E00FC0883009F069C070927C
:101CF0000001E12CF12C08E310E02CE430E046E494
:101D000050E06BEE70E0CE0101960E944C1AA0E20A
:101D1000EA2EADEFFA2E25E930E044E850E043C06A
:101D2000FAA9F23908F44CC080910001893009F514
:101D3000A0920001E12CF12C08E310E025E930E04D
:101D400044E850E068E070E0CE0101960E944C1A31
:101D5000F0E2EF2EFDEFFF2E2CE430E046E450E001
:101D600068E070E0CE0101960E944C1A1092550274
:101D700027C08A3029F520920001E12CF12C08E3DC
:101D800010E025E930E044E850E063EA70E0CE017D
:101D900001960E944C1AE0E2EE2EEDEFFE2E2CE4AE
:101DA00030E046E450E063EA70E0DCCF8AA9835774
:101DB000893130F489A98357893110F4B0925502E2
:101DC00080915202833009F070C1809155028130B8
:101DD00009F061C1809100018B3089F570E2E72E36
:101DE0007DEFF72E08E310E02CE430E046E450E00D
:101DF00068E070E0CE0101960E944C1A10925502E4
:101E000089A98239F0F1809100018B30D9F48CE0FE
:101E100080930001E12CF12C2CE430E046E450E00A
:101E200068E070E0CE0101960E944C1A60E2E62E56
:101E30006DEFF62E2CE430E046E450E01FC0F9A927
:101E4000F239F8F08D3009F061C08EE08093000126
:101E5000E12CF12C08E310E02CE430E044E850E001
:101E600068E070E0CE0101960E944C1A50E2E52E27
:101E70005DEFF52E2CE430E044E850E06BEE70E0CE
:101E80003FC099A99E3608F041C0809100018C3076
:101E9000D1F48BE080930001E12CF12C08E310E0F9
:101EA0002CE430E046E450E06BEE70E0CE010196A9
:101EB0000E944C1A40E2E42E4DEFF42E2CE430E068
:101EC00046E450E01BC08E3009F58DE080930001A0
:101ED000E12CF12C08E310E02CE430E044E850E081
:101EE0006BEE70E0CE0101960E944C1A30E2E32EB8
:101EF0003DEFF32E2CE430E044E850E068E070E081
:101F0000CE0101960E944C1A10925502EAA9EE36B3
:101F100008F05DC0809100018B3071F48DE08093FA
:101F20000001E12CF12C08E310E02CE430E046E461
:101F300050E068E070E0A2C08C30D1F48EE0809375
:101F40000001E12CF12C08E310E02CE430E046E441
:101F500050E06BEE70E0CE0101960E944C1A20E238
:101F6000E22E2DEFF22E2CE430E044E850E074C075
:101F70008E3071F48FE080930001E12CF12C08E3A6
:101F800010E02CE430E044E850E06BEE70E010C06C
:101F90008D3009F08AC08FE080930001E12CF12C94
:101FA00008E310E02CE430E044E850E068E070E042
:101FB000CE0101960E944C1A90E2E92E9DEFF92E77
:101FC00025E930E042EC50E065E570E023C0FAA975
:101FD000F23908F46AC0809100018D3011F58BE070
:101FE00080930001E12CF12C08E310E02CE430E0B8
:101FF00044E850E068E070E0CE0101960E944C1A7F
:1020000080E2E82E8DEFF82E2CE430E046E450E03C
:1020100068E070E0CE0101960E944C1A10925502C1
:1020200044C08E30E1F48CE080930001E12CF12C6F
:1020300008E310E02CE430E044E850E06BEE70E0A0
:10204000CE0101960E944C1AB0E2EB2EBDEFFB2EA2
:102050002CE430E046E450E06BEE70E0DBCF8F30F4
:1020600021F58DE080930001E12CF12C08E310E0D4
:1020700025E930E042EC50E065E570E0CE010196E4
:102080000E944C1AA0E2EA2EADEFFA2E2CE430E0CA
:1020900044E850E0BDCF8AA98357893130F489A93B
:1020A0008357893110F4B0925502809152028430E6
:1020B00009F071C080915502813009F062C08091B1
:1020C0000001803191F5F0E2EF2EFDEFFF2E08E3E5
:1020D00010E025E930E046E450E065E570E0CE012F
:1020E00001960E944C1A109255028AA98E3600F56C
:1020F00080910001803109F04EC081E180930001A0
:10210000E12CF12C25E930E046E450E065E570E093
:10211000CE0101960E944C1AE0E2EE2EEDEFFE2E6B
:1021200025E930E042EC50E023C08AA98E3698F1D0
:102130009AA9923980F180910001813161F580E1A5
:1021400080930001E12CF12C08E310E025E930E058
:1021500042EC50E065E570E0CE0101960E944C1A19
:1021600070E2E72E7DEFF72E25E930E046E450E0FF
:1021700065E570E0CE0101960E944C1A109255025E
:102180000AC08AA98357893130F489A983578931D4
:1021900010F4B092550280915202853009F0D6C0F9
:1021A00080915502813009F0C7C0809100018231D1
:1021B000D1F560E2E62E6DEFF62E08E310E02CE498
:1021C00030E046E450E068E070E0CE0101960E9405
:1021D0004C1A10925502E9A9E23940F180910001B0
:1021E000823109F04CC083E180930001E12CF12C95
:1021F0002CE430E046E450E068E070E0CE01019667
:102200000E944C1A50E2E52E5DEFF52E2CE430E0F2
:1022100046E450E06BEE70E0CE0101960E944C1A4D
:10222000109255022CC099A9923948F5F9A9FE36A9
:1022300030F580910001833111F582E18093000136
:10224000E12CF12C08E310E02CE430E046E450E00F
:102250006BEE70E0CE0101960E944C1A40E2E42E33
:102260004DEFF42E2CE430E046E450E068E070E0FE
:10227000CE0101960E944C1A1092550234C08AA9D0
:102280008E3688F580910001823171F484E180936B
:102290000001E12CF12C08E310E02CE430E046E4EE
:1022A00050E068E070E010C0833109F04FC084E175
:1022B00080930001E12CF12C08E310E02CE430E0E5
:1022C00046E450E06BEE70E0CE0101960E944C1A9D
:1022D00030E2E32E3DEFF32E25E930E042EC50E012
:1022E00065E570E022C09AA9923980F180910001E1
:1022F000843161F582E180930001E12CF12C08E347
:1023000010E025E930E042EC50E065E570E0CE01F8
:1023100001960E944C1A20E2E22E2DEFF22E2CE4C0
:1023200030E046E450E068E070E0CE0101960E94A3
:102330004C1A109255020AC08AA98357893130F489
:1023400089A98357893110F4B092550280914E02C9
:102350008823C9F080915302909154020E9447262D
:10236000633089F47F3719F41092ED0201C085E0E3
:102370008093030182E08093C8026CE273E6C60199
:102380000E94D41A91C580915202811186C0809119
:10239000ED02882309F481C0B09200011092ED0291
:1023A000B601CE0101960E94351E60E070E0CE01BC
:1023B00001960E94D41A11E3E12E13E6F12E04E3F4
:1023C00010E021E930E04AE050E06AE070E0CE0140
:1023D00001960E944C1A21E930E04AE050E065EA9B
:1023E00070E0CE0101960E944C1A02E0E02E00E05F
:1023F00010E025E631E04EE150E06AE270E0CE0107
:1024000001960E94CB282BE631E04EE150E061EBD3
:1024100070E0CE0101960E94CB2881E3E82E83E68E
:10242000F82E04E310E021E930E048E450E06AE0EF
:1024300070E0CE0101960E944C1A21E930E048E498
:1024400050E065EA70E0CE0101960E944C1A92E0DD
:10245000E92E00E010E020ED31E04CE550E063E2D1
:1024600070E0CE0101960E94CB2824E731E04CE5D4
:1024700050E063EC70E0CE0101960E94CB28EE2480
:10248000E3942AE731E043EE50E060E070E0CE01F3
:1024900001960E94CB28B092520280915202813064
:1024A00009F0D8C280910001813009F0BDC080914F
:1024B000ED02882309F4CEC21092ED02B601CE01DE
:1024C00001960E94351E60E070E0CE0101960E94E8
:1024D000D41A73E0E72E00E010E020E931E04FE08D
:1024E00050E06FE070E0CE0101960E94CB28E1E35E
:1024F000EE2EE3E6FE2E04E310E028E430E048E4AC
:1025000050E06AE070E0CE0101960E944C1A28E487
:1025100030E048E450E062E570E0CE0101960E94B0
:102520004C1A28E430E048E450E065EA70E0CE015F
:1025300001960E944C1A28E430E048E450E06DEE29
:1025400070E0CE0101960E944C1AF2E0EF2E00E0FE
:1025500010E02EE831E04CE550E063E270E0CE019F
:1025600001960E94CB2823EF31E04CE550E06BE66A
:1025700070E0CE0101960E94CB282DE931E04CE5B8
:1025800050E063EC70E0CE0101960E94CB282FE969
:1025900031E04CE550E06BE071E0CE0101960E9425
:1025A000CB28A1E3EA2EA3E6FA2E04E310E021E90A
:1025B00030E046E850E06AE070E0CE0101960E940B
:1025C0004C1A21E930E046E850E065EA70E0CE01BF
:1025D00001960E944C1AB2E0EB2E00E010E021EAD6
:1025E00031E04AE950E063E270E0CE0101960E94DA
:1025F000CB2828EA31E04AE950E068EC70E0CE01EF
:1026000001960E94CB28EE24E3942AE731E043EEC2
:1026100050E060E070E0CE0101960E94CB2830923D
:102620005202A092000116C2823009F04FC180917F
:10263000ED02882309F40EC21092ED022BE0922ED7
:1026400090920001B601CE0101960E94351E60E015
:1026500070E0CE0101960E94D41A33E0E32E00E030
:1026600010E02BE631E04FE050E067E370E0CE0190
:1026700001960E94CB2841E3E42E43E6F42E04E3C6
:1026800010E028E430E048E450E06AE070E0CE0179
:1026900001960E944C1A52E0E52E58EFF52E28E4E0
:1026A00030E048E450E06AE070E0CE0101960E941C
:1026B000D91961E3E62E63E6F62E21E930E048E41D
:1026C00050E067E570E0CE0101960E944C1A28E4C4
:1026D00030E048E450E06DEE70E0CE0101960E94DB
:1026E0004C1A70E4E72E76E6F72E28E430E048E452
:1026F00050E06DEE70E0CE0101960E94D919E2E043
:10270000EE2E02E018EF2DEA31E04CE550E068E2F1
:1027100070E0CE0101960E94CB28EE24E39400E005
:1027200010E02FEA31E042E550E06BE670E0CE01C8
:1027300001960E94CB28F1E3EF2EF3E6FF2E05E091
:1027400010E025E530E046E650E060E770E0CE01BD
:1027500001960E944C1A8091020125E530E0281B69
:102760003109A0E2EA2EADEFFA2E46E650E060E72E
:1027700070E0CE0101960E94D919B2E0EB2E00E480
:1027800016E62CEB31E04CE550E06BE071E0CE0159
:1027900001960E94CB2811E3E12E13E6F12E04E30B
:1027A00010E028E430E046E850E06AE070E0CE0156
:1027B00001960E944C1A82E0E82E88EFF82E28E459
:1027C00030E046E850E06AE070E0CE0101960E94F9
:1027D000D91991E3E92E93E6F92E21E930E046E894
:1027E00050E067E570E0CE0101960E944C1A28E4A3
:1027F00030E046E850E06DEE70E0CE0101960E94B8
:102800004C1A20E4E22E26E6F22E28E430E046E8D8
:1028100050E06DEE70E0CE0101960E94D91932E0D1
:10282000E32E02E018EF2DEA31E04AE950E068E2D9
:1028300070E0CE0101960E94CB28EE24E39400E0E4
:1028400010E02EEB31E040E950E06BE670E0CE01A5
:1028500001960E94CB282091010144EA50E068E9EA
:1028600070E0CE0101960E94052942E0E42E00E4CA
:1028700016E62CEB31E04AE950E06BE071E0CE0166
:1028800001960E94CB2851E3E52E53E6F52E04E392
:1028900010E021E930E044EC50E067E570E0CE0163
:1028A00001960E944C1A62E0E62E00E010E028EA51
:1028B00031E043ED50E06FE770E0CE0101960E94F9
:1028C000CB288092520290920001C4C0833009F05C
:1028D000BAC08091ED02882309F4BCC01092ED02C9
:1028E000B601CE0101960E94351E60E070E0CE0177
:1028F00001960E94D41A83E0E82E00E010E02BEC51
:1029000031E04FE050E069E170E0CE0101960E94B5
:10291000CB2891E3E92E93E6F92E04E310E021E9B8
:1029200030E048E450E067E570E0CE0101960E9497
:102930004C1AEFA5F8A9852D11928A95E9F782E046
:1029400090E00E94B53789A783E090E00E94B537F8
:102950008AA784E090E00E94B5378BA785E090E0DD
:102960000E94B5378CA786E090E00E94B5378DA70E
:10297000EE24E39400E010E09E01275D3F4F47E521
:1029800050E062E770E0CE0101960E94CB28BC01C6
:10299000772727ED31E047E550E0CE0101960E9410
:1029A000CB288C0180E090E00E94B5374AE0BE0160
:1029B000685E7F4F0E948B37B801772700E010E0F8
:1029C0009E01285E3F4F47E550E0CE0101960E94F0
:1029D000CB288091C702882391F02AED31E046E6AA
:1029E00050E06CE570E0CE0101960E94CB2882E0B9
:1029F00090E00E94B537C19711F01092C70211E321
:102A0000E12E13E6F12E04E310E021E930E044EC7E
:102A100050E067E570E0CE0101960E944C1A02E09A
:102A2000E02E00E010E028EA31E043ED50E06FE7EF
:102A300070E0CE0101960E94CB284092520280E1C4
:102A40008093000107C0843029F48091ED02811148
:102A50001092ED0210915202123009F083C0809161
:102A600000018530C9F48091ED02882309F47AC011
:102A70006CEE71E087E094E00E9446231092ED0234
:102A80001093C8026CE273E6C6010E94D41A81E07A
:102A90008093030141E057C08630C1F48091ED027C
:102AA000882309F45FC060EF71E087E094E00E9442
:102AB00046231092ED021093C8026CE273E6C60141
:102AC0000E94D41A1093030142E03DC0873091F474
:102AD0008091ED02882309F445C01092ED02109315
:102AE000C8026CE273E6C6010E94D41A8092030108
:102AF00043E012C08830A9F48091ED02882391F15F
:102B00001092ED021093C8026CE273E6C6010E94B7
:102B1000D41AA092030145E06FE783E00E94782673
:102B200021C08930A9F48091ED028823D9F0109258
:102B3000ED021093C8026CE273E6C6010E94D41A3B
:102B40001092030140E06FE783E00E947826ACC159
:102B50008A3041F48091ED02882321F01092ED0239
:102B60001092520280915202833009F0BFC08091CE
:102B700000018B30D9F58091ED02882309F4B6C0AD
:102B80001092ED0280910201853508F0AFC08F5F91
:102B900080930201E12CF12C05E010E025E530E006
:102BA00046E650E060E770E0C6010E94D919A1E353
:102BB000EA2EA3E6FA2E25E530E046E650E060E78F
:102BC00070E0C6010E944C1A8091020125E530E0B8
:102BD000281B3109B0E2EB2EBDEFFB2E46E650E09C
:102BE00060E770E0C6010E94D91980C08C30F1F511
:102BF0008091ED02882309F479C01092ED02809152
:102C000002018150853508F071C0E12CF12C05E0FE
:102C100010E025E530E046E650E060E770E0C601F0
:102C20000E94D919E1E3EE2EE3E6FE2E25E530E021
:102C300046E650E060E770E0C6010E944C1A8091C1
:102C4000020126E530E0281B3109F0E2EF2EFDEF0E
:102C5000FF2E46E650E060E770E0C6010E94D919F9
:102C60008091020181508093020140C08D3011F5A6
:102C70008091ED028823D1F11092ED0280914F02F4
:102C800081110EC020910101223050F0215020937B
:102C9000010144EA50E068E970E0C6010E9405299C
:102CA00080914F028F5F80934F028C3FF9F4109216
:102CB0004F021CC08E3081F48091ED028823B1F068
:102CC0001092ED0280914F028111EACF2091010113
:102CD000253030F72F5FDBCF8F3041F48091ED024C
:102CE000882321F01092ED0210925202809152023C
:102CF000843009F0B3C080910001803109F0A4C094
:102D00008091ED02882309F4A9C0B601CE01019695
:102D10000E94351E60E070E0CE0101960E94D41A38
:102D200081E3E82E83E6F82E04E310E028E430E0A7
:102D300048E450E06AE070E0CE0101960E944C1A2F
:102D400092E0E92E98EFF92E28E430E048E450E0D4
:102D50006AE070E0CE0101960E94D91921E3E22ECB
:102D600023E6F22E21E930E048E450E067E570E028
:102D7000CE0101960E944C1A28E430E048E450E06D
:102D80006DEE70E0CE0101960E944C1A30E4E32E05
:102D900036E6F32E28E430E048E450E06DEE70E0D3
:102DA000CE0101960E94D91942E0E42E02E018EF0C
:102DB0002DEA31E04CE550E068E270E0CE0101968A
:102DC0000E94CB28EE24E39400E010E025EF31E0F0
:102DD00042E550E06BE670E0CE0101960E94CB2800
:102DE00052E0E52E00E416E62CEB31E04CE550E035
:102DF0006BE071E0CE0101960E94CB2861E3E62EE4
:102E000063E6F62E04E310E021E930E044EC50E004
:102E100067E570E0CE0101960E944C1A72E0E72E41
:102E200000E010E028EA31E043ED50E06FE770E0A9
:102E3000CE0101960E94CB28A092520282E180939B
:102E400000011092ED020AC0813141F48091ED023F
:102E5000882321F01092ED021092520280915202CA
:102E6000853011F00C94E40B80910001823111F057
:102E7000833151F48091ED02882311F40C94D80B26
:102E80001092ED020C94D80B843111F00C94D80BF5
:102E90008091ED02882311F40C94D80B1092ED026E
:102EA000109252020C94D80BE3960FB6F894DEBF42
:102EB0000FBECDBFDF91CF911F910F91FF90EF908B
:102EC000DF90CF90BF90AF909F908F907F906F904A
:102ED0005F904F903F902F900895CF92EF92FF9286
:102EE0000F931F93CF93DF93EC01262F6A3081F469
:102EF0008C899D89998B888B2A852F778A899B89D4
:102F000038E0239F800D911D11249B8B8A8B47C035
:102F1000862F8B7F893009F442C0688979892032F5
:102F200019F461157105D9F1E881F981EE84FF8406
:102F30000C851D854A895B890088F189E02DCA844A
:102F4000CE010995BC01998B888B8B85882339F13B
:102F50002A852F77822F90E048EF420390011124B9
:102F60004E815F81420F531F46175707C4F44C89A7
:102F70005D89598B488B43E0880F991F4A95E1F78B
:102F80004A895B89840F951F9B8B8A8B488559855D
:102F9000240F351F2817390714F41B8A1A8A81E079
:102FA00090E0DF91CF911F910F91FF90EF90CF9024
:102FB0000895CF92EF92FF920F931F93DC01ED9152
:102FC000FC910684F785E02D09951F910F91FF90E4
:102FD000EF90CF9008952F923F924F925F926F9211
:102FE0007F928F929F92AF92BF92CF92DF92EF9299
:102FF000FF920F931F93CF93DF9300D01F92CDB713
:10300000DEB79B838A83480188E02802900111245F
:10301000D901A859B0405D01BC2DBF77CB2EEA8104
:10302000FB8186819781F1E0FB1708F463C06B0197
:1030300028E0C20ED11C8C159D050CF46EC0AA812F
:10304000BB811896ED91FC9119979A01285F3F4F2B
:10305000E217F3070CF461C0AA81BB81ED91FC91EA
:1030600011978A01095F1F4F9B01295F3F4F06801F
:10307000F781E02DCD010995AA81BB81ED91FC91ED
:1030800011970084F185E02DCD0109958501085F38
:103090001F4FF5014490FFEFAF1ABF0A98E0692E69
:1030A000712C20E8522EAA81BB81ED91FC911197E1
:1030B000852D84210284F385E02D882319F0B40145
:1030C000CD0103C0B7018A819B8109955694B1E077
:1030D0006B1A710841F7A016B106D9F6AA81BB8117
:1030E000ED91FC9111970484F585E02DCD010995B2
:1030F000C60176C0B8E0CB9E800111243B01600E72
:10310000711E861597054CF0040F151FEA81FB818F
:10311000208531852017310714F4019661C0AA81FA
:10312000BB81ED91FC911197015011090680F78147
:10313000E02D930121503109CD010995AA81BB8170
:10314000ED91FC9111970084F185E02DCD01099559
:103150002501B8E04B0E511CF5012490FFEFAF1A8A
:10316000BF0A3C2C08E010E080E8D82E8D2D82218B
:103170002C2DA1F0AA81BB81ED91FC9111970284C5
:10318000F385E02DB401CD012983099529812150D2
:1031900089F7D6940150110949F710C0AA81BB8163
:1031A000ED91FC9111970284F385E02DB701CD01DB
:1031B000298309952981215089F7EBCF3A94311061
:1031C000D1CFA414B50409F0C7CFAA81BB81ED917A
:1031D000FC9111970484F585E02DCD010995C3017B
:1031E0000F900F900F90DF91CF911F910F91FF9053
:1031F000EF90DF90CF90BF90AF909F908F907F9097
:103200006F905F904F903F902F90089585ED809341
:10321000BC008091BC0084FDFCCF10921B0308957C
:1032200040919802262F30E0240F311D21323105C4
:10323000DCF420911B032430C9F4FC0180E090E011
:10324000861758F4309198022191DC01AA58BD4F9D
:10325000A30FB11D2C930196F3CF80919802680FB4
:103260006093980280E0089581E0089582E00895D7
:103270000895E091CC028091CB02E81730F4F0E0A1
:10328000E353FD4F808190E008958FEF9FEF089505
:103290009091CC028091CB02981750F4E92FF0E086
:1032A000E353FD4F208130E09F5F9093CC0202C03A
:1032B0002FEF3FEFC90108958091CB0290E020915C
:1032C000CC02821B91090895CF92DF92EF92FF9278
:1032D0000F931F93CF93DF937C01262F972F8A01A3
:1032E00080911C03882391F0C62FD72F6E01C40E46
:1032F000D51ECC15DD0571F06991D701ED91FC91DA
:103300000190F081E02DC7010995F3CF642F822F42
:103310000E941019C801DF91CF911F910F91FF906A
:10332000EF90DF90CF900895CF93DF931F92CDB7AA
:10333000DEB7698320911C032223D1F020913F0343
:10334000203240F021E030E0FC013383228380E032
:1033500090E015C080911D03E82FF0E0E25EFC4F85
:10336000998190838F5F80931D0380933F0305C0F5
:1033700061E0CE0101960E94101981E090E00F906B
:10338000DF91CF91089580E090E00E94B537609181
:10339000C90270E08617970758F480910A018111DD
:1033A00007C080E090E00E94BB3781E08093C702B5
:1033B00008958F929F92AF92BF92CF92DF92EF9239
:1033C000FF920F931F93CF93DF93EC016901580194
:1033D0002E813F81621773071CF0B901615071099A
:1033E00088859985481759071CF0AC01415051094F
:1033F000FB01EC0DFD1DE217F3071CF06901C61A75
:10340000D70A9A012A0D3B1D281739071CF05C01C9
:10341000A41AB50AE881F9818A010A0D1B1D015021
:1034200011099B012C0D3D1D215031090680F781AA
:10343000E02DCE010995E881F9810084F185E02D28
:10344000CE0109959501D6010E940A374B015C0116
:10345000E881F98181149104A104B10461F002842E
:10346000F385E02DB701CE01099581E0881A910816
:10347000A108B108EDCF0484F585E02DCE01DF91E0
:10348000CF911F910F91FF90EF90DF90CF90BF9061
:10349000AF909F908F9009944F925F926F927F921E
:1034A0008F929F92AF92BF92CF92DF92EF92FF9254
:1034B0000F931F93CF93DF93EC016B015A01290106
:1034C000380121E030E00E94D919A501460D571DB1
:1034D0004150510901E010E09201B601CE010E9475
:1034E000D919B601640D751D61507109830121E080
:1034F00030E0A501CE010E94D91901E010E092014F
:10350000A501B601CE010E94D919DF91CF911F917B
:103510000F91FF90EF90DF90CF90BF90AF909F9072
:103520008F907F906F905F904F900895EF92FF92F1
:103530000F931F93CF93DF93EC018E819F816817C8
:1035400079075CF5888599854817590734F579011D
:10355000E881F9810680F781E02D8A019B01CE0187
:103560000995E881F9810084F185E02DCE01099566
:10357000E881F9810284F385E02DB701CE01099538
:10358000E881F9810484F585E02DCE01DF91CF91AA
:103590001F910F91FF90EF900994DF91CF911F91B0
:1035A0000F91FF90EF9008958F929F92AF92BF92EC
:1035B000EF92FF920F931F93CF93DF93EC017B0168
:1035C000E881F98108851985015011092E813F8113
:1035D000215031090680F781E02D40E050E060E0A5
:1035E00070E00995E881F9810084F185E02DCE0134
:1035F0000995AE81BF81288539850E940A374B0124
:103600005C0183E0B694A794979487948A95D1F748
:10361000E881F98181149104A104B10409F444C042
:103620000284F385E02DB701CE010995E881F98187
:103630000284F385E02DB701CE010995E881F98177
:103640000284F385E02DB701CE010995E881F98167
:103650000284F385E02DB701CE010995E881F98157
:103660000284F385E02DB701CE010995E881F98147
:103670000284F385E02DB701CE010995E881F98137
:103680000284F385E02DB701CE010995E881F98127
:103690000284F385E02DB701CE01099581E0881AF7
:1036A0009108A108B108B4CF0484F585E02DCE01BE
:1036B000DF91CF911F910F91FF90EF90BF90AF904E
:1036C0009F908F9009941F920F920FB60F92112422
:1036D0002F933F934F935F936F937F938F939F931A
:1036E000AF93BF93EF93FF938091B900887F8036AB
:1036F00009F49CC068F5883209F45BC090F480310D
:1037000009F454C038F4882309F4F6C0883009F469
:103710004DC0F6C0883109F44CC0803209F45DC058
:10372000EFC0803409F468C048F4803309F455C010
:10373000883309F0E5C080931903D8C0803509F4B7
:103740004FC0883509F45DC0883409F0D9C0D6C0AF
:10375000883909F4C7C0A8F4883709F467C038F479
:10376000883609F463C0803709F460C0C9C088385E
:1037700009F4B8C0803909F45FC0803809F0C0C0CE
:103780005BC0803B09F486C038F4803A09F466C017
:10379000883A09F47FC0B4C0803C09F4A7C0883CD3
:1037A00009F4A4C0883B09F48AC0AAC08091F6023B
:1037B00010C09091180380911703981770F5E0914D
:1037C000180381E08E0F80931803F0E0E950FD4F5D
:1037D00080818093BB0085EC86C0809319038EC0E6
:1037E000E091180381E08E0F809318038091BB0055
:1037F000F0E0E950FD4F808390911803809117030A
:103800006EC0E091180381E08E0F809318038091C1
:10381000BB00F0E0E950FD4F808380911A038111D5
:103820006DC081E08093F50284EA61C083E08093FB
:103830001B031092BC02CFCF8091BC02803208F0F3
:1038400051C0E091BC0281E08E0F8093BC02809158
:10385000BB00F0E0E456FD4F8083BDCF85EC809344
:10386000BC0010921B038091BC02803230F4E091C6
:10387000BC02F0E0E456FD4F10826091BC0270E0A3
:10388000E0919A02F0919B028CE992E009951092E6
:10389000BC0236C084E080931B0310929902109200
:1038A0009802E0919602F091970209958091980212
:1038B000811105C081E08093980210927602E09118
:1038C000990281E08E0F80939902F0E0EA58FD4F53
:1038D00080818093BB009091990280919802981703
:1038E00008F479CF85E88093BC000AC085EC80930A
:1038F000BC0010921B0304C0109219030E94061909
:10390000FF91EF91BF91AF919F918F917F916F91B7
:103910005F914F913F912F910F900FBE0F901F908D
:1039200018951F920F920FB60F9211242F933F9369
:103930004F935F936F937F938F939F93AF93BF93B7
:10394000809104048111B0C08091C7049091C80493
:10395000A091C904B091CA044091710250917202C1
:10396000609173027091740284179507A607B707D8
:1039700050F0409171025091720260917302709107
:1039800074029C010BC040917102509172026091CF
:103990007302709174029C0121503109241B350B74
:1039A0003093700220936F028093710290937202A1
:1039B000A0937302B093740280916F029091700291
:1039C000893C910530F010926E0210926D021092B7
:1039D0004E0280916F0290917002029708F464C0C9
:1039E00080916F0290917002089708F05DC08091FD
:1039F0004E02811110924E0280916F0290917002DE
:103A00000597C0F080916F0290917002089790F432
:103A100040916D0250916E022091530230915402F8
:103A200081E090E002C0880F991F4A95E2F7822B4F
:103A3000932B35C080916F0290917002029730F005
:103A400080916F02909170020597B0F080916D02A5
:103A500090916E02409730F481E080934E0282E3B1
:103A60008093750280916D0290916E020196909301
:103A70006E0280936D0218C040916D0250916E02EB
:103A8000209153023091540281E090E002C0880FEF
:103A9000991F4A95E2F780959095822393239093FE
:103AA000540280935302D2CFBF91AF919F918F91D7
:103AB0007F916F915F914F913F912F910F900FBE2A
:103AC0000F901F9018951F920F920FB60F9211240E
:103AD0000F931F932F933F934F935F936F937F9316
:103AE0008F939F93AF93BF9380916C028F5F80936E
:103AF0006C028A3009F0A8C08091C7049091C80474
:103B0000A091C904B091CA04AC01BD014F5F5F4FE1
:103B10006F4F7F4F4093C7045093C8046093C9040C
:103B20007093CA0420910404222309F483C02091D5
:103B30006B022223F1F08091690290916A020A9748
:103B400071F410926B02109265021092660210924C
:103B500067021092680210926A02109269028091C4
:103B6000690290916A02019690936A0280936902B9
:103B700048C0009165021091660220916702309161
:103B80006802401751076207730721F4209164020D
:103B9000211153C040916502509166026091670205
:103BA00070916802452B462B472B59F5209105044F
:103BB00030910604409162025091630202C0369532
:103BC00027954A95E2F720FF04C00796A11DB11D75
:103BD00003C00496A11DB11D8093650290936602F7
:103BE000A0936702B093680281E080936402539AC5
:103BF0008091620290916302019690936302809398
:103C000062028091620290916302419799F410924E
:103C1000640253981092630210926202109204049C
:103C200010926B0210926502109266021092670267
:103C30001092680210926C0207C0109264025398AE
:103C400021E020936B02A6CFBF91AF919F918F91FE
:103C50007F916F915F914F913F912F911F910F91A4
:103C60000F900FBE0F901F901895FC01DB018BE4A5
:103C700091E09183808312968D919C911397938309
:103C8000828314968D919C911597958384831696C3
:103C90008D919C9117979783868318968D919C910F
:103CA0001997918780871A968C911A9782871B960D
:103CB0008C911B9783871C968D919C911D9795875E
:103CC00084871E968D919C911F9797878687509623
:103CD0008D919C915197918B808B52968D919C9157
:103CE0005397938B828B54968D919C915597958B7E
:103CF000848B83E591E09183808356968C91868BAB
:103D00000895CF92DF92EF92FF920F931F93CF937C
:103D1000DF936C017A018B01C0E0D0E0CE15DF05A6
:103D200089F0D8016D918D01D601ED91FC91019042
:103D3000F081E02DC6010995892B11F47E0102C0A6
:103D40002196ECCFC701DF91CF911F910F91FF908A
:103D5000EF90DF90CF900895FC01918D828D9817A0
:103D600061F0828DDF01A80FB11D5D968C91928D5F
:103D70009F5F9F73928F90E008958FEF9FEF08955C
:103D8000FC01918D828D981731F0828DE80FF11D25
:103D9000858D90E008958FEF9FEF0895FC01918D40
:103DA000228D892F90E0805C9F4F821B91098F7339
:103DB00099270895FC01848DDF01A80FB11DA35A36
:103DC000BF4F2C91848D90E001968F739927848F3B
:103DD000A689B7892C93A089B1898C9180648C9332
:103DE000938D848D981306C00288F389E02D80811D
:103DF0008F7D80830895EF92FF920F931F93CF934F
:103E0000DF93EC0181E0888F9B8D8C8D981305C02A
:103E1000E889F989808185FD24C0F62E0B8D10E09C
:103E20000F5F1F4F0F731127E02E8C8DE8120CC00F
:103E30000FB607FCFACFE889F989808185FFF5CFB5
:103E4000CE010E94DA1EF1CF8B8DFE01E80FF11D2D
:103E5000E35AFF4FF0820B8FEA89FB8980818062F1
:103E600007C0EE89FF896083E889F98980818064D1
:103E7000808381E090E0DF91CF911F910F91FF90BF
:103E8000EF900895CF93DF93EC01888D8823C9F0DC
:103E9000EA89FB89808185FD05C0A889B9898C9153
:103EA00086FD0FC00FB607FCF5CF808185FFF2CFEE
:103EB000A889B9898C9185FFEDCFCE010E94DA1EC9
:103EC000E7CFDF91CF9108953FB7F8948091C30277
:103ED0009091C402A091C502B091C60226B5A89BDC
:103EE00005C02F3F19F00196A11DB11D3FBFBA2F8C
:103EF000A92F982F8827820F911DA11DB11DBC01EC
:103F0000CD0142E0660F771F881F991F4A95D1F7B0
:103F100008955F9A08958EBD00000DB407FEFDCF91
:103F20008EB50895862F5F982B9A2D989CB59F7B10
:103F30009CBD2D9A9CB590649CBD0E948B1F5F9A7E
:103F40000895CF93DF931F92CDB7DEB7872F5F9889
:103F50002B9A2D989CB59F7B9CBD2D9A9CB5906407
:103F60009CBD69830E948B1F2B9A2D989CB59F7BCB
:103F70009CBD2D9A9CB590649CBD6981862F0E9442
:103F80008B1F5F9A0F90DF91CF910895862F5F98D6
:103F90002B982D989CB59F7B9CBD2D9A9CB59064C9
:103FA0009CBD0E948B1F5F9A08956CE20E94C61F01
:103FB0005F980895AF92BF92CF92DF92EF92FF92F7
:103FC0000F931F93CF93DF93EC015B017A0169019B
:103FD0006AE20E94C61FB501CE010E94A11FB60170
:103FE000CE010E94A11F6BE2CE010E94C61FB70145
:103FF000CE010E94A11FB801CE01DF91CF911F9188
:104000000F91FF90EF90DF90CF90BF90AF900C9406
:10401000A11F0F931F93CF93DF93EC0169307105BC
:1040200019F06A35710571F48AE590E09D838C83FF
:1040300080EF90E09F838E8380E491E0998788876A
:1040400018E434C06231710519F0643B710571F4F4
:1040500084EB90E09D838C8380E491E09F838E834A
:1040600080EF90E09987888718E320C06B31710555
:1040700021F07E7F6E30710571F48EE091E09D83BA
:104080008C8380EF90E09F838E8380E491E099871A
:10409000888718E80BC01D821C8280E491E09F8312
:1040A0008E8380EF90E09987888718EE66E3CE01D3
:1040B0000E94C61F612FCE010E94921FE881F981E4
:1040C00008851985015011092E813F812150310940
:1040D0000680F781E02D40E050E060E070E0CE0126
:1040E0000995DF91CF911F910F910895CF93DF93A1
:1040F0001F92CDB7DEB7872F2B9A2D989CB59F7B4B
:104100009CBD2D9A9CB590649CBD69830E948B1FB9
:104110002B9A2D989CB59F7B9CBD2D9A9CB5906445
:104120009CBD6981862F0F90DF91CF910C948B1FDE
:104130002F923F924F925F926F927F928F929F92B7
:10414000AF92BF92CF92DF92EF92FF920F931F93A5
:10415000CF93DF9300D000D000D0CDB7DEB75C01A5
:104160006B015E834D83790162177307C1F40417F5
:10417000150744F404271527402751275E834D83F4
:10418000042715272D813E81021B130B0F5F1F4F44
:104190005FEEE52E5BE7F52E21E030E019C04D81A2
:1041A0005E8140175107D9F42617370734F4E62605
:1041B000F726CE24DF24EC24FD2497012C193D0999
:1041C0002F5F3F4F4FEEE42E4BE7F42E01E010E05F
:1041D0004D815E81B601C5010E94D9199AC0FC01CA
:1041E000268137816217730724F06901F1E0CF1A45
:1041F000D108F501808591854D815E814817590769
:1042000024F0FC013197FE83ED83E216F30624F0DF
:104210007901F1E0EF1AF108081719071CF08C0179
:104220000150110947018C189D0838012D813E81EC
:10423000621A730A97FE08C09194819491084FEF17
:104240005FEF5C834B8304C081E090E09C838B83B1
:1042500077FE08C0719461947108EFEFFFEFFA8365
:10426000E98304C021E030E03A8329832401440C2F
:10427000551C1301220C331C2FEE3BE74D815E8150
:10428000B601C5010E94961A681479040CF58101E3
:1042900008191909CE14DF04E1F117FD0AC04D8198
:1042A0005E8189819A81480F591F5E834D8304196D
:1042B0001509EB81FC81CE0EDF1E020D131D2FEEC2
:1042C0003BE74D815E81B601C5010E94961AE2CF9F
:1042D0007201E618F708ED81FE81E017F107C9F0D9
:1042E000F7FC06C02B813C81C20ED31EE218F308F6
:1042F0004D815E8189819A81480F591F5E834D836C
:10430000E40CF51C2FEE3BE7B601C5010E94961A9E
:10431000E2CF26960FB6F894DEBF0FBECDBFDF9179
:10432000CF911F910F91FF90EF90DF90CF90BF90B2
:10433000AF909F908F907F906F905F904F903F9045
:104340002F9008952F923F924F925F926F927F929B
:104350008F929F92AF92BF92CF92DF92EF92FF9295
:104360000F931F93CF93DF936C015B014A018EEF94
:10437000682E77247A94C0E0D0E092E0E92EF12C08
:10438000AE01480D591D8A0125014E0C5F1C92019A
:1043900015012E183F08B101C6010E949820A40102
:1043A0004C1B5D0B8A019201B101C6010E9498204D
:1043B0002E014A0C5B1C15012C1A3D0AA4014E0D5E
:1043C0005F1D8A019201B101C6010E949820A401DB
:1043D0004E195F098A019201B101C6010E9498201D
:1043E000CE0101966C0E7D1E680E791E2FEF6216AF
:1043F000720639F021E0E21AF1086E187F086E1893
:104400007F08EC01E816F9060CF0BACFDF91CF91E6
:104410001F910F91FF90EF90DF90CF90BF90AF90E2
:104420009F908F907F906F905F904F903F902F90D4
:1044300008956115710579F0FB0101900020E9F7FD
:104440003197AF01461B570BDC01ED91FC910280C7
:10445000F381E02D099480E090E008950E941F37D9
:104460002F923F924F925F926F927F928F929F9284
:10447000AF92BF92CF92DF92EF92FF920F931F9372
:10448000CF93DF93EC0160E070E00E94D41A34E037
:10449000E32E00E010E021E032E048E250E06FE07F
:1044A00070E0CE010E94CB2840EFE42EFF24FA9466
:1044B00000E110E0C12CD12C5CE3252E312C66E309
:1044C000462E512C460186E3880E911C2CE233E6E1
:1044D000A40158018CE3A80EB11CB501CE010E94C5
:1044E000961A2CE233E6A4013101601A710AB30175
:1044F000CE010E94961A42018C189D082CE233E6E8
:10450000A401B501CE010E94961A2CE233E6A40163
:10451000B301CE010E94961A46018CE3880E911CCD
:104520002CE233E6580186E3A80EB11CA501B401C4
:10453000CE010E94961A31016C187D082CE233E6F8
:10454000A501B301CE010E94961A2CE233E6520176
:10455000A01AB10AA501B401CE010E94961A2CE25C
:1045600033E6A501B301CE010E94961AC601019659
:10457000EC0CFD1CE80EF91EF7FC06C001501109F9
:10458000E01AF10AE01AF10A6C01081719070CF099
:1045900099CF4EE250E066E370E0CE010E94A22186
:1045A00040E350E064E370E0CE010E94A2219CE26F
:1045B000E92E93E6F92E05E010E02FE030E043E22B
:1045C00050E065E370E0CE010E944C1AE12CF12C22
:1045D0002FE030E043E250E065E370E0CE010E945E
:1045E000D91920E8E22E2AE7F22E26E030E04EE14B
:1045F00050E06AE370E0CE010E94D91926E030E075
:104600004CE150E068E370E0CE010E94D91926E049
:1046100030E04AE150E066E370E0CE010E94D91933
:1046200026E030E048E150E064E370E0CE010E9413
:10463000D91960E572E081E592E00E943A2882E0B3
:10464000E82E00E010E02BE032E048EC50E069E1B9
:1046500070E0CE010E94CB288091ED02882349F3BF
:1046600081E08093C802DF91CF911F910F91FF905D
:10467000EF90DF90CF90BF90AF909F908F907F9002
:104680006F905F904F903F902F9008950F931F93DE
:10469000CF93DF93EC010E9419228C016CE172E050
:1046A000CE010E941922800F911FDF91CF911F919F
:1046B0000F9108951F920F920FB60F9211242F930E
:1046C0003F934F935F936F937F938F939F93AF939A
:1046D000BF93EF93FF9387E094E00E94DA1EFF916F
:1046E000EF91BF91AF919F918F917F916F915F916A
:1046F0004F913F912F910F900FBE0F901F901895E3
:104700001F920F920FB60F9211242F938F939F93A6
:10471000EF93FF93E0911704F09118048081E091EA
:104720001D04F0911E0482FD12C09081809120042E
:104730008F5F8F7320912104821751F0E091200444
:10474000F0E0E95FFB4F958F8093200401C08081EA
:10475000FF91EF919F918F912F910F900FBE0F902E
:104760001F90189590E0FC01E354F94E3491FC0140
:10477000E750F94E2491FC01EB51F94EE491EE2300
:1047800009F43BC0332339F1333091F038F4313040
:10479000A9F0323001F584B58F7D12C0373091F029
:1047A0003830A1F03430B9F4809180008F7D03C09F
:1047B000809180008F77809380000DC084B58F77C3
:1047C00084BD09C08091B0008F7703C08091B00094
:1047D0008F7D8093B000F0E0EE0FFF1FEF52F94E97
:1047E000A591B4918FB7F894EC91611103C0209515
:1047F0002E2301C02E2B2C938FBF08958F929F9252
:10480000AF92BF92CF92DF92EF92FF926B017C0149
:104810000E94641F4B015C01C114D104E104F10446
:10482000F1F00E94641FDC01CB0188199909AA09E3
:10483000BB09883E9340A105B10570F321E0C21A7F
:10484000D108E108F10888EE880E83E0981EA11CCB
:10485000B11CC114D104E104F10419F7DDCFFF90BC
:10486000EF90DF90CF90BF90AF909F908F90089582
:104870001F920F920FB60F9211242F933F938F9395
:104880009F93AF93BF938091BF029091C002A0917C
:10489000C102B091C2023091BE0223E0230F2D3736
:1048A00020F40196A11DB11D05C026E8230F029634
:1048B000A11DB11D2093BE028093BF029093C00240
:1048C000A093C102B093C2028091C3029091C4022E
:1048D000A091C502B091C6020196A11DB11D8093A1
:1048E000C3029093C402A093C502B093C602BF91C5
:1048F000AF919F918F913F912F910F900FBE0F908D
:104900001F9018952F923F924F925F926F927F92D5
:104910008F929F92AF92BF92CF92DF92EF92FF92CF
:104920000F931F93CF93DF935C0184E1689F600135
:10493000112494E1499F80011124412C512C320112
:104940007601C0E0D0E042019FEF891A990A120176
:1049500082E0280E311CFE01E40DF51DE355F74FF2
:104960008491FE01E80DF91DE355F74F2491FE01F6
:10497000E20DF31DE355F74FE491887F2C7F98E01B
:10498000299F90011124382BE695E695E6952E2B6C
:10499000A801B701C5010E94961A23968FEFE81A65
:1049A000F80ACC33D105B9F69CE3490E511C611CC1
:1049B000711C0F5F1F4F80EB481684E0580661049E
:1049C000710409F0BDCFDF91CF911F910F91FF903E
:1049D000EF90DF90CF90BF90AF909F908F907F909F
:1049E0006F905F904F903F902F9008952F923F923D
:1049F0004F925F926F927F928F929F92AF92BF92EF
:104A0000CF92DF92EF92FF920F931F93CF93DF939A
:104A10005C0184E1689F6001112494E1499F800159
:104A20001124412C512C32017601C0E0D0E042012A
:104A30009FEF891A990A120182E0280E311CFE01AB
:104A4000E40DF51DE350FC4F8491FE01E80DF91DC6
:104A5000E350FC4F2491FE01E20DF31DE350FC4FA7
:104A6000E491887F2C7F98E0299F90011124382BB6
:104A7000E695E695E6952E2BA801B701C5010E94A3
:104A8000961A23968FEFE81AF80ACC33D105B9F6B7
:104A90009CE3490E511C611C711C0F5F1F4F80EB82
:104AA000481684E058066104710409F0BDCFDF9117
:104AB000CF911F910F91FF90EF90DF90CF90BF901B
:104AC000AF909F908F907F906F905F904F903F90AE
:104AD0002F9008950F931F93CF93DF93CDB7DEB739
:104AE00067970FB6F894DEBF0FBECDBF182F062F05
:104AF000BA01CE0101960E94351E402F612FCE01D2
:104B000001960E94F62467960FB6F894DEBF0FBE9A
:104B1000CDBFDF91CF911F910F910895CF92DF927A
:104B2000EF92FF920F931F93CF93DF938C01219A03
:104B30002898219A579A259A239A249829985F9A17
:104B400084E0F801868B8CB5837F8CBD8CB58F7D1E
:104B50008CBDCFB7F8948091BD02811124C0EFEED7
:104B6000F6E18491E3E0F7E19491E82FF0E0EE0FB5
:104B7000FF1FE552F94EA591B491EC91E92321F480
:104B800061E08AE00E94B2238AE00E94C02B8CB5CB
:104B900080618CBD8CB580648CBD8DE00E94C02B83
:104BA0008BE00E94C02B8091BD028F5F8093BD027D
:104BB000CFBF8CB58C7F8CBD8DB58E7F8DBD5F9A40
:104BC000289862E370E080E090E00E94FE23289A3B
:104BD00068E770E080E090E00E94FE23E8E6F3E002
:104BE0007F018FEFE81AF80A64916F3FA1F1862FD9
:104BF000807C8038B1F0803C39F1803411F0F701CD
:104C0000EFCFC62FCF736F01DC2FFFEFCF1ADF0A74
:104C1000DD23B9F0F6016491C8010E94C61FD1508E
:104C2000F4CFC62FCF736F01DC2FFFEFCF1ADF0A4F
:104C3000DD2339F0F6016491C8010E94921FD15022
:104C4000F4CFEC0EF11CDBCF6F7370E080E090E0EE
:104C50000E94FE23D4CF60E070E0C8010E94D41A05
:104C60008CB58C7F8CBD8DB581608DBD8FE790E05C
:104C70000E94DF2B6CE273E6C801DF91CF911F9198
:104C80000F91FF90EF90DF90CF900C94D41AFC011D
:104C9000682F637020E030E070E080E0A9014E5F93
:104CA0005F4FDF0102C0B695A7954A95E2F7AD01C7
:104CB00041705527022E01C0440F0A94EAF7742B65
:104CC000A901475F5F4FDF0102C0B695A7954A95DE
:104CD000E2F7AD0141705527022E01C0440F0A943E
:104CE000EAF7842B2F5F3F4F27303105B9F608953F
:104CF0001F93CF93DF93837090E020E030E050E08B
:104D000070E0FA01022E02C0F595E7950A94E2F7E9
:104D1000E170FF27D9011996EF0102C0CC0FDD1F0A
:104D2000AA95E2F7DE01FB01022E02C0F595E79598
:104D30000A94E2F7E170FF27E901229602C0EE0F24
:104D4000FF1FCA95E2F7EA2BFB2B8E2B9F2B2F5FC1
:104D50003F4F27303105A9F6909306048093050450
:104D600081E080930404DF91CF911F910895EF9229
:104D7000FF920F931F93CF93DF93CDB7DEB7679763
:104D80000FB6F894DEBF0FBECDBF962FF090030490
:104D9000FF2001F1E0900204EE20E1F08F1102C04B
:104DA0006E15C1F0BA018C01CE0101960E94351E2C
:104DB0004E2D6F2DCE0101960E9482248091030416
:104DC000081721F080910204181304C01092030404
:104DD0001092020467960FB6F894DEBF0FBECDBFE7
:104DE000DF91CF911F910F91FF90EF900895AF92B7
:104DF000BF92CF92DF92EF92FF920F931F93CF93C8
:104E0000DF93CDB7DEB767970FB6F894DEBF0FBE5E
:104E1000CDBFD62E90914003609141039D1102C0F9
:104E2000681721F15A01C82E84E1989FA00111242E
:104E300084E1689FB00111248CE2E82E83E6F82E0D
:104E400004E110E024E130E0C5010E94D919B50168
:104E5000CE0101960E94351E4D2D6C2DCE0101967E
:104E60000E94F624C0924103D092400367960FB689
:104E7000F894DEBF0FBECDBFDF91CF911F910F9190
:104E8000FF90EF90DF90CF90BF90AF900895382FB4
:104E900020913F0390913E03213208F049C0809158
:104EA0001B038111FCCF42E040931B0330931A0394
:104EB0003FEF309319031092180320931703AEE1CC
:104EC000B3E047EF52E0FA013E2F341B321718F4DB
:104ED0003D913193F9CF1092F6022091F602990F8D
:104EE000922B9093F6029091F502913061F410921A
:104EF000F5029091F6029093BB009091BC0093FD57
:104F0000F8CF95EC01C095EE9093BC0090911B03F7
:104F10009230E1F3909119039F3F79F0809119034A
:104F2000803241F080911903803331F084E005C074
:104F300081E003C082E001C083E010921D03109263
:104F40003F0310921C0308952F923F924F925F925D
:104F50006F927F928F929F92AF92BF92CF92DF9289
:104F6000EF92FF920F931F93CF93DF93CDB7DEB7EE
:104F700069970FB6F894DEBF0FBECDBF3C01362E49
:104F8000242E2CE0629FC00111248E5B9C4F22E4F2
:104F9000422E23E0522E812C912CFC01E40FF11DB6
:104FA000F98FE88F5201C12CD12CF5018081873017
:104FB00089F51092F402E88DF98D80818730D9F45B
:104FC0009CE2E92E93E6F92E04E110E024E130E0C2
:104FD000A401B601C3010E94D919B301CE01019603
:104FE0000E94351E422D632DCE0101960E94F624AB
:104FF000F50110820FC0F50110828CE2E82E83E6E5
:10500000F82E04E110E024E130E0A401B601C30170
:105010000E94D919FCE0AF0EB11C24E1C20ED11CD4
:1050200030E4C31631E0D30609F0BFCF8FEF481A42
:10503000580AE4E18E0E911CF0EF8F16910409F0EE
:10504000B1CF69960FB6F894DEBF0FBECDBFDF912A
:10505000CF911F910F91FF90EF90DF90CF90BF9075
:10506000AF909F908F907F906F905F904F903F9008
:105070002F900895CF92DF92EF92FF920F931F939C
:10508000CF93DF938C017B0180911B038111FCCFB7
:1050900081E080931B0380931A039FEF9093190381
:1050A0001092180395E0909317038093F602909165
:1050B000F602946A9093F6028091F502813061F4D1
:1050C0001092F5028091F6028093BB008091BC00A3
:1050D00083FDF8CF85EC01C085EE8093BC00809104
:1050E0001B038130E1F380911803863018F4C091DE
:1050F000180301C0C6E0A7EFB2E02DEC32E0F901E1
:105100008E2F821B8C1718F48D918193F9CF1092FA
:10511000CC02C093CB028EEEC82E82E0D82ED7E10F
:105120008091CC02C81759F084EA94E00E94481993
:105130008D2797E1980FF60191936F01F1CFC1E0B0
:10514000C0931C0382E580933E0310921D031092CE
:105150003F0360E084EA94E00E94941981E00E9499
:1051600047278091EE02F80180838091EF02F701DA
:1051700080838091F30280FD03C0C093ED0202C0E2
:105180001092ED02DF91CF911F910F91FF90EF9060
:10519000DF90CF9008956F927F928F929F92AF92FF
:1051A000BF92CF92DF92EF92FF920F931F93CF9314
:1051B000DF935C014A013801DE2CE90129912223A9
:1051C000A1F0D501ED91FC910684F785E02DCD2C61
:1051D00073010FEF1FEFA401C5010995BC01F50193
:1051E00086819781861797074CF7CB01DF91CF9186
:1051F0001F910F91FF90EF90DF90CF90BF90AF90F5
:105200009F908F907F906F9008958F929F92AF9212
:10521000BF92CF92DF92EF920F931F93CF93DF93C2
:10522000CDB7DEB761970FB6F894DEBF0FBECDBF26
:105230006C015B014A014AE0BE016F5F7F4F822F24
:1052400090E00E948B37EE24E39400E010E09E0192
:105250002F5F3F4FA401B501C6010E94CB28619684
:105260000FB6F894DEBF0FBECDBFDF91CF911F9177
:105270000F91EF90DF90CF90BF90AF909F908F9065
:105280000895CF92DF92EF920F931F93CF93DF9306
:10529000CDB7DEB761970FB6F894DEBF0FBECDBFB6
:1052A00020910A0121118AC06C0183E08093C80219
:1052B00060E070E0C6010E94D41A83E0E82E00E0AE
:1052C00010E02FE132E04CE350E062E370E0C60111
:1052D0000E94CB28EE24E39429E232E044E650E039
:1052E00068E770E0C6010E94CB2820E332E048E77F
:1052F00050E068E770E0C6010E94CB288C014AE0CC
:10530000BE016F5F7F4F81E090E00E948037B8015F
:10531000772700E010E09E012F5F3F4F48E750E005
:10532000C6010E94CB28BC01772727ED31E048E772
:1053300050E0C6010E94CB28BC0177272091C9020A
:1053400048E750E0C6010E94052992E0E92E28E3D3
:1053500032E048EC50E06EE170E0C6010E94CB28DC
:1053600060E070E080E090E00E943A286AE472E039
:1053700087E094E00E9446238091ED02882381F328
:105380001092ED021092C90283E080930A0181E03D
:105390008093C8021092F40282E493E04CE0480F3C
:1053A00020E030E0FC01E20FF31F1082245F3F4F4A
:1053B000203C3105B9F701964813F2CF8091CA021B
:1053C000882349F080910A01882329F08150809335
:1053D0000A011092CA0261960FB6F894DEBF0FBEA2
:1053E000CDBFDF91CF911F910F91EF90DF90CF90C4
:1053F00008952F923F924F925F926F927F928F9279
:105400009F92AF92BF92CF92DF92EF92FF920F9353
:105410001F93CF93DF93CDB7DEB727970FB6F894DE
:10542000DEBF0FBECDBF6C011F82262F30E03C8354
:105430002B8304E1702E82E493E09A83898384E0D5
:10544000A82EB12C412C512C642C3F81232E312CC1
:10545000E981FA81E20DF31D8081833009F061C199
:1054600089E0808394E1399F40011124A4E08A0EF1
:10547000911C10EEE12E1BEFF12E0EE010E02EE05D
:1054800030E0A401B501C6010E94D919EB81FC816D
:10549000E40DF51DFE83ED83862D90E0AD81BE8188
:1054A0008A179B070CF044C001962CE0289FF0015E
:1054B000299FF00D1124EE5BFC4FE20DF31D2081BE
:1054C000222321F039EF320F3330B0F439E030834A
:1054D000789EB001799E700D11246C5F7F4FB0EE05
:1054E000EB2EBBEFFB2E0EE010E02EE030E0A4012F
:1054F000C6010E94D91926C0223011F5A9E0A08367
:10550000789EB001799E700D11246C5F7F4FA0EEE4
:10551000EA2EABEFFA2E0EE010E02EE030E0A40110
:10552000C6010E94D9198091C9028F5F8093C90278
:10553000F2012B813C81E21BF30BFE83ED8326C03D
:105540002130B1F36394A8CFF101BCE06B9EE00D74
:10555000F11D1124EA5CFC4F208121111FC029E0BC
:1055600020830197789EB001799E700D11246C5FA5
:105570007F4FF0EEEF2EFBEFFF2E0EE010E02EE05F
:1055800030E0A401C6010E94D9196A94862D90E0EA
:10559000AD81BE81A817B907BCF221C039EF320F27
:1055A0003330E8F2223001F539E030830197789EFC
:1055B000B001799E700D11246C5F7F4FE0EEEE2EEE
:1055C000EBEFFE2E0EE010E02EE030E0A401C6016D
:1055D0000E94D9198091C9028F5F8093C9028B8084
:1055E0009C80820C931C23C0213079F6F8CF019661
:1055F000E981FA81E80FF91F208121111FC0B9E06C
:10560000B083789EA001799E500D11244C5F5F4FAE
:1056100060EEE62E6BEFF62E0EE010E02EE030E0AE
:10562000B501C6010E94D9199F819F5F9F83AF81F9
:105630008A2F90E088159905D4F220C039EF320FF7
:105640003330E8F2223001F529E02083789EA00172
:10565000799E500D11244C5F5F4F30EEE32E3BEFEF
:10566000F32E0EE010E02EE030E0B501C6010E94FE
:10567000D9198091C9028F5F8093C90241018B8142
:105680009C81881A990A23C0213071F6F7CF0197BF
:10569000E981FA81E80FF91F208121111FC0B9E0CB
:1056A000B083789EA001799E500D11244C5F5F4F0E
:1056B00020EEE22E2BEFF22E0EE010E02EE030E096
:1056C000B501C6010E94D9193F8131503F83AF8196
:1056D0008A2F90E088169906D4F223C039EF320F52
:1056E0003330E8F22230D9F429E02083789EA001FB
:1056F000799E500D11244C5F5F4F90EEE92E9BEF89
:10570000F92E0EE010E02EE030E0B501C6010E9457
:10571000D9198091C9028F5F8093C90202C02130DC
:1057200099F6BFEF4B1A5B0AE981FA813C96FA833E
:10573000E983F4E1AF0EB11C20E14216510409F0F7
:1057400083CE3F813F5F3F833C3008F474CE279681
:105750000FB6F894DEBF0FBECDBFDF91CF911F9182
:105760000F91FF90EF90DF90CF90BF90AF909F9000
:105770008F907F906F905F904F903F902F90089503
:1057800090E0FC01E750F94E2491FC01EB51F94EF9
:105790008491882399F090E0880F991FFC01E552CD
:1057A000F94EA591B491FC01EF52F94E8591949177
:1057B0008FB7F894EC91E22BEC938FBF0895CF93C1
:1057C000DF93EC0189E00E94C02B209711F460E088
:1057D00004C0CF3FD10531F461E089E0DF91CF9182
:1057E0000C94B223E6ECF6E1E491E330F9F048F4EE
:1057F000E130B9F0E230A1F584B5806284BDC8BD66
:1058000034C0E730E9F0E83019F1E43049F580912F
:105810008000806280938000D0938B00C0938A00C8
:1058200024C084B5806884BDC7BD1FC0809180003E
:10583000806880938000D0938900C093880015C051
:105840008091B00080688093B000C093B3000DC019
:105850008091B00080628093B000C093B40005C016
:10586000C038D1050CF0B8CFB2CFDF91CF910895F9
:10587000809178009091790001966BE070E00E9431
:10588000E236611103C0299829980895643618F00A
:10589000299A299A08952FEF629FC001112464E686
:1058A00070E00E94E236CB010C94DF2B2F923F92E6
:1058B0004F925F926F927F928F929F92AF92BF9220
:1058C000CF92DF92EF92FF920F931F93CF93DF93CC
:1058D000CDB7DEB728970FB6F894DEBF0FBECDBFA9
:1058E0009E838D8382E4A82E83E0B82E00E010E032
:1058F000812C912C212C312CF501E20DF31D80819E
:10590000813009F058C06801412C512C32017401DA
:1059100018861F8292012F5F3F4F3A832983A2018D
:105920004E5F5F4F5C834B83EF81F885E40DF51D7F
:10593000E35FFD4E8491E981FA812F813885E20F82
:10594000F31FE35FFD4E2491EB81FC814F8158856D
:10595000E40FF51FE35FFD4EE491887F2C7F58E054
:10596000259F90011124382BE695E695E6952E2B80
:10597000A601B7018D819E810E94961A8F8198851C
:10598000039698878F839FEFE91AF90AAF81B8854C
:10599000DC9751F6BCE34B0E511C611C711CEFEF00
:1059A000CE1ADE0AF0EB4F16F4E05F0661047104D4
:1059B00009F0ADCF57C0823009F054C06401412CCA
:1059C000512C3201780118861F82C20101969A83F8
:1059D0008983D2011296BC83AB83EF81F885E40DF5
:1059E000F51DE35AF24F8491E981FA81AF81B885C0
:1059F000EA0FFB1FE35AF24F2491EB81FC81EA0F7F
:105A0000FB1FE35AF24FE491887F2C7FB8E02B9F75
:105A100090011124382BE695E695E6952E2BA701EB
:105A2000B6018D819E810E94961AEF81F88533968A
:105A3000F887EF83FFEFEF1AFF0A2F8138852C33A9
:105A4000310559F63CE3430E511C611C711C4FEFAC
:105A5000C41AD40A50EB451654E05506610471048B
:105A600009F0B0CFBCE02B0E311CE4E18E0E911C8E
:105A7000F0EC2F16310409F03FCF0C5E1F4F2FEFD3
:105A8000A21AB20A003F110509F032CF28960FB6CC
:105A9000F894DEBF0FBECDBFDF91CF911F910F9164
:105AA000FF90EF90DF90CF90BF90AF909F908F903E
:105AB0007F906F905F904F903F902F900895CF937D
:105AC000DF93E2E4F3E080E091E020E030E0DF010A
:105AD000AC54BF4F882311F08B3029F4EF01C20F73
