:100000000C9428020C9450020C9450020C94500250
:100010000C9450020C9450020C9450020C94500218
:100020000C9450020C9450020C9450020C94500208
:100030000C9450020C9450020C9450020C945002F8
:100040000C94CE0A0C9450020C9450020C94500262
:100050000C9450020C9450020C9450020C945002D8
:100060000C94AB050C9450024128D441CF830083FB
:100070003041ED846403128141E88385017941CBED
:1000800085392C00340241F7812041EA8200004189
:10009000C0812641C1811141C582353E41C781BE23
:1000A00041B182001B41F281084126810141E08F6C
:1000B0001F1A180A0F064587320A07020705004172
:1000C000E18F0025270510093A784D05180D383ABB
:1000D0001F41B6840A82270041B78107413A815502
:1000E000413681E8412A82000082013F412B820093
:1000F000008200EF4111FCFC4129D4FFFF00000009
:10010000000000000030787830300030006C6C6CFB
:1001100000000000006C6CFE6CFE6C6C00307CC05B
:10012000780CF8300000C6CC183066C600386C3841
:1001300076DCCC76006060C0000000000018306003
:100140006060301800603018181830600000663C9D
:10015000FF3C660000003030FC3030000000000042
:100160000000703060000000FC0000000000000093
:100170000000303000060C183060C0800078CCDC05
:10018000FCECCC780030F030303030FC0078CC0C17
:100190003860CCFC0078CC0C380CCC78001C3C6C63
:1001A000CCFE0C0C00FCC0F80C0CCC78003860C005
:1001B000F8CCCC7800FCCC0C183060600078CCCC4B
:1001C00078CCCC780078CCCC7C0C18700000003057
:1001D0003000303000000030300070306018306087
:1001E000C0603018000000FC00FC00000060301807
:1001F0000C1830600078CC0C18300030007CC6DE63
:10020000DEDEC078003078CCCCFCCCCC00FC66665E
:100210007C6666FC003C66C0C0C0663C00FC6C6648
:1002200066666CFC00FE6268786862FE00FE6268CA
:10023000786860F0003C66C0C0CE663E00CCCCCC96
:10024000FCCCCCCC0078303030303078001E0C0C38
:100250000CCCCC7800E6666C786C66E600F06060EA
:10026000606266FE00C6EEFED6C6C6C600C6E6F6EC
:10027000DECEC6C600386CC6C6C66C3800FC6666E4
:100280007C6060F00078CCCCCCDC781C00FC66662E
:100290007C786CE60078CCE0381CCC7800FCB4307C
:1002A0003030307800CCCCCCCCCCCCFC00CCCCCC1E
:1002B000CCCC783000C6C6C6D6FEEEC600C6C66C2C
:1002C000386CC6C600CCCCCC7830307800FECC98E8
:1002D0003062C6FE007860606060607800C06030A8
:1002E000180C060200781818181818780010386CC6
:1002F000C60000000000000000000000FF303018C1
:1003000000000000000000780C7CCC7600E0607CEF
:10031000666666BC00000078CCC0CC78001C0C0C73
:100320007CCCCC7600000078CCFCC07800386C60C7
:10033000F06060F000000076CCCC7C0CF8E0606CE3
:10034000766666E60030007030303078001800784D
:10035000181818D870E060666C786CE60070303061
:1003600030303078000000ECFED6C6C6000000F841
:10037000CCCCCCCC00000078CCCCCC78000000DC1D
:1003800066667C60F0000076CCCC7C0C1E0000D849
:100390006C6C60F00000007CC0780CF80010307CC1
:1003A00030303418000000CCCCCCCC76000000CC2F
:1003B000CCCC7830000000C6C6D6FE6C000000C66B
:1003C0006C386CC6000000CCCCCC7C0CF80000FC77
:1003D000983064FC001C3030E030301C00181818D5
:1003E0000018181800E030301C3030E00076DC00D7
:1003F000000000000010386CC6C6C6FE00000000F9
:1004000000240027002A0000000000250028002BFF
:1004100000040404040404040402020202020203AD
:1004200003030303030102040810204080010204B7
:10043000081020010204081020000000080002013A
:100440000000030407000000000000000000930EFD
:1004500011241FBECFEFD8E0DEBFCDBF11E0A0E07A
:10046000B1E0E0E2FEE102C005900D92AA32B107D0
:10047000D9F723E0AAE2B1E001C01D92A130B20792
:10048000E1F712E0C8E2D2E004C02197FE010E9429
:10049000F40EC732D107C9F70E946A0B0C940E0FF5
:1004A0000C940000CF92EF92FF920F931F93CF9383
:1004B000DF93EC01262F6A3081F48EAD9FAD9BAFA8
:1004C0008AAF2CA92F778CAD9DAD38E0239F800D8E
:1004D000911D11249DAF8CAF47C0862F8B7F893033
:1004E00009F442C06AAD7BAD203219F46115710583
:1004F000D9F1E881F981E8ACF9AC0EA91FA94CAD9E
:100500005DAD0088F189E02DCCA8CE010995BC0134
:100510009BAF8AAF8DA9882339F12CA92F77822F21
:1005200090E048EF4203900111244E815F81420F19
:10053000531F46175707C4F44EAD5FAD5BAF4AAFCC
:1005400043E0880F991F4A95E1F74CAD5DAD840FEC
:10055000951F9DAF8CAF48855985240F351F2817EF
:10056000390714F41DAE1CAE81E090E0DF91CF910D
:100570001F910F91FF90EF90CF900895CF92EF923F
:10058000FF920F931F93DC01ED91FC910684F78598
:10059000E02D09951F910F91FF90EF90CF90089556
:1005A0002F923F924F925F926F927F928F929F9283
:1005B000AF92BF92CF92DF92EF92FF920F931F9371
:1005C000CF93DF9300D01F92CDB7DEB79B838A8392
:1005D000480188E0280290011124D901A350B040BD
:1005E0005D01BC2DBF77CB2EEA81FB81868197818F
:1005F000F1E0FB1708F463C06B0128E0C20ED11CC8
:100600008C159D050CF46EC0AA81BB811896ED91E6
:10061000FC9119979A01285F3F4FE217F3070CF4FA
:1006200061C0AA81BB81ED91FC9111978A01095F9C
:100630001F4F9B01295F3F4F0680F781E02DCD01C1
:100640000995AA81BB81ED91FC9111970084F185F8
:10065000E02DCD0109958501085F1F4FF5014490FC
:10066000FFEFAF1ABF0A98E0692E712C20E8522ED6
:10067000AA81BB81ED91FC911197852D8421028483
:10068000F385E02D882319F0B401CD0103C0B70133
:100690008A819B8109955694B1E06B1A710841F7E4
:1006A000A016B106D9F6AA81BB81ED91FC911197F4
:1006B0000484F585E02DCD010995C60176C0B8E02A
:1006C000CB9E800111243B01600E711E861597059B
:1006D0004CF0040F151FEA81FB812085318520171E
:1006E000310714F4019661C0AA81BB81ED91FC91A0
:1006F0001197015011090680F781E02D93012150D7
:100700003109CD010995AA81BB81ED91FC91119729
:100710000084F185E02DCD0109952501B8E04B0E4F
:10072000511CF5012490FFEFAF1ABF0A3C2C08E0E2
:1007300010E080E8D82E8D2D82212C2DA1F0AA81E9
:10074000BB81ED91FC9111970284F385E02DB401FA
:10075000CD01298309952981215089F7D69401502B
:10076000110949F710C0AA81BB81ED91FC91119745
:100770000284F385E02DB701CD01298309952981F4
:10078000215089F7EBCF3A943110D1CFA414B5049E
:1007900009F0C7CFAA81BB81ED91FC911197048428
:1007A000F585E02DCD010995C3010F900F900F90B5
:1007B000DF91CF911F910F91FF90EF90DF90CF903D
:1007C000BF90AF909F908F907F906F905F904F9071
:1007D0003F902F9008958F929F92AF92BF92EF9289
:1007E000FF920F931F93CF93DF93EC017B01E8817E
:1007F000F98108851985015011092E813F81215009
:1008000031090680F781E02D40E050E060E070E0C3
:100810000995E881F9810084F185E02DCE010995E3
:10082000AE81BF81288539850E94E50E4B015C01B0
:1008300083E0B694A794979487948A95D1F7E8813A
:10084000F98181149104A104B10409F444C0028423
:10085000F385E02DB701CE010995E881F981028485
:10086000F385E02DB701CE010995E881F981028475
:10087000F385E02DB701CE010995E881F981028465
:10088000F385E02DB701CE010995E881F981028455
:10089000F385E02DB701CE010995E881F981028445
:1008A000F385E02DB701CE010995E881F981028435
:1008B000F385E02DB701CE010995E881F981028425
:1008C000F385E02DB701CE01099581E0881A9108E2
:1008D000A108B108B4CF0484F585E02DCE01DF91E5
:1008E000CF911F910F91FF90EF90BF90AF909F908D
:1008F0008F90099485ED8093BC008091BC0084FDAD
:10090000FCCF10928202089540913702262F30E0EA
:10091000240F311D21323105DCF420918202243074
:10092000C9F4FC0180E090E0861758F4309137025A
:100930002191DC01AB5EBD4FA30FB11D2C9301963D
:10094000F3CF80913702680F6093370280E00895FB
:1009500081E0089582E008950895E0911402809165
:100960001302E81730F4F0E0ED50FE4F808190E084
:1009700008958FEF9FEF08959091140280911302D4
:10098000981750F4E92FF0E0ED50FE4F208130E051
:100990009F5F9093140202C02FEF3FEFC9010895AB
:1009A0008091130290E020911402821B9109089516
:1009B000CF92DF92EF92FF920F931F93CF93DF932B
:1009C0007C01262F972F8A0180918302882391F042
:1009D000C62FD72F6E01C40ED51ECC15DD0571F0C4
:1009E0006991D701ED91FC910190F081E02DC70153
:1009F0000995F3CF642F822F0E948404C801DF91F0
:100A0000CF911F910F91FF90EF90DF90CF900895BD
:100A1000CF93DF931F92CDB7DEB769832091830216
:100A20002223D1F02091A602203240F021E030E0D4
:100A3000FC013383228380E090E015C08091840222
:100A4000E82FF0E0EB57FD4F998190838F5F809303
:100A500084028093A60205C061E0CE0101960E9447
:100A6000840481E090E00F90DF91CF9108950F937F
:100A70001F93CF93DF93EC016930710519F06A354C
:100A8000710571F48AE590E09D838C8380EF90E09E
:100A90009F838E8380E491E09987888718E434C02F
:100AA0006231710519F0643B710571F484EB90E0DB
:100AB0009D838C8380E491E09F838E8380EF90E020
:100AC0009987888718E320C06B31710521F07E7FFC
:100AD0006E30710571F48EE091E09D838C8380EF20
:100AE00090E09F838E8380E491E09987888718E85F
:100AF0000BC01D821C8280E491E09F838E8380EF77
:100B000090E09987888718EE66E3CE010E94270B54
:100B1000612FCE010E94180BE881F98108851985A3
:100B2000015011092E813F81215031090680F78142
:100B3000E02D40E050E060E070E0CE010995DF91EB
:100B4000CF911F910F9108958EBD00000DB407FE47
:100B5000FDCF8EB508951F920F920FB60F921124FC
:100B60002F933F934F935F936F937F938F939F93B5
:100B7000AF93BF93EF93FF938091B900887F803646
:100B800009F49CC068F5883209F45BC090F48031A8
:100B900009F454C038F4882309F4F6C0883009F405
:100BA0004DC0F6C0883109F44CC0803209F45DC0F4
:100BB000EFC0803409F468C048F4803309F455C0AC
:100BC000883309F0E5C080938002D8C0803509F4ED
:100BD0004FC0883509F45DC0883409F0D9C0D6C04B
:100BE000883909F4C7C0A8F4883709F467C038F415
:100BF000883609F463C0803709F460C0C9C08838FA
:100C000009F4B8C0803909F45FC0803809F0C0C069
:100C10005BC0803B09F486C038F4803A09F466C0B2
:100C2000883A09F47FC0B4C0803C09F4A7C0883C6E
:100C300009F4A4C0883B09F48AC0AAC080915D026F
:100C400010C090917F0280917E02981770F5E0911C
:100C50007F0281E08E0F80937F02F0E0E25AFD4F29
:100C600080818093BB0085EC86C0809380028EC01B
:100C7000E0917F0281E08E0F80937F028091BB0024
:100C8000F0E0E25AFD4F808390917F0280917E02D6
:100C90006EC0E0917F0281E08E0F80937F02809191
:100CA000BB00F0E0E25AFD4F808380918102811108
:100CB0006DC081E080935C0284EA61C083E0809330
:100CC000820210925B02CFCF80915B02803208F0EB
:100CD00051C0E0915B0281E08E0F80935B028091B6
:100CE000BB00F0E0E55CFD4F8083BDCF85EC8093D9
:100CF000BC001092820280915B02803230F4E0915D
:100D00005B02F0E0E55CFD4F108260915B0270E0F9
:100D1000E0913902F0913A028BE392E0099510924A
:100D20005B0236C084E080938202109238021092F7
:100D30003702E0913502F091360209958091370231
:100D4000811105C081E08093370210921502E09175
:100D5000380281E08E0F80933802F0E0EB5EFD4FA9
:100D600080818093BB009091380280913702981760
:100D700008F479CF85E88093BC000AC085EC8093A5
:100D8000BC001092820204C0109280020E947A0479
:100D9000FF91EF91BF91AF919F918F917F916F9153
:100DA0005F914F913F912F910F900FBE0F901F9029
:100DB00018950F931F93CF93DF939B016091BD0212
:100DC0007091BE0286179707CCF56091BF027091B3
:100DD000C0022617370794F5EA01A901BC01E0918A
:100DE000B702F091B8020680F781E02D89019C01DD
:100DF00087EB92E00995E091B702F091B802008488
:100E0000F185E02D87EB92E00995E091B702F09132
:100E1000B8020284F385E02DBE0187EB92E00995CC
:100E2000E091B702F091B8020484F585E02D87EBDC
:100E300092E0DF91CF911F910F910994DF91CF91B3
:100E40001F910F910895CF92DF92EF92FF920F932F
:100E50001F93CF93DF936C017A018B01C0E0D0E048
:100E6000CE15DF0589F0D8016D918D01D601ED9188
:100E7000FC910190F081E02DC6010995892B11F4B8
:100E80007E0102C02196ECCFC701DF91CF911F9167
:100E90000F91FF90EF90DF90CF9008953FB7F894B7
:100EA0008091FD029091FE02A091FF02B09100039B
:100EB00026B5A89B05C02F3F19F00196A11DB11DB5
:100EC0003FBFBA2FA92F982F8827820F911DA11DF0
:100ED000B11DBC01CD0142E0660F771F881F991F2D
:100EE0004A95D1F708955F9A08950E94FA0ECF931C
:100EF000DF931F92CDB7DEB7872F5F982B9A2D987F
:100F00009CB59F7B9CBD2D9A9CB590649CBD6983CC
:100F10000E94A4052B9A2D989CB59F7B9CBD2D9A71
:100F20009CB590649CBD6981862F0E94A4055F9A40
:100F30000F90DF91CF910895CF93DF931F92CDB79C
:100F4000DEB7872F2B9A2D989CB59F7B9CBD2D9A41
:100F50009CB590649CBD69830E94A4052B9A2D9832
:100F60009CB59F7B9CBD2D9A9CB590649CBD69816E
:100F7000862F0F90DF91CF910C94A4058F929F92B2
:100F8000AF92BF92CF92DF92EF92FF920F931F9397
:100F9000CF93DF93EA01790168014091BD0250913E
:100FA000BE028417950714F0CA0101972091BF0271
:100FB0003091C002621773071CF0B90161507109CA
:100FC000FC01EC0FFD1FE417F5071CF0EA01C81B3C
:100FD000D90BAB014E0D5F1D421753071CF0790171
:100FE000E61AF70AE091B702F091B8028B010E0DF4
:100FF0001F1D015011099C012C0F3D1F215031096B
:101000000680F781E02DAB01BC0187EB92E00995EA
:10101000E091B702F091B8020084F185E02D87EBF2
:1010200092E009959701DE010E94E50E4B015C01FB
:10103000E091B702F091B80281149104A104B104C7
:1010400069F00284F385E02DB60187EB92E0099503
:1010500081E0881A9108A108B108EACF0484F585D7
:10106000E02D87EB92E0DF91CF911F910F91FF90E0
:10107000EF90DF90CF90BF90AF909F908F900994AA
:101080002F923F924F925F926F927F928F929F9298
:10109000AF92BF92CF92DF92EF92FF920F931F9386
:1010A000CF93DF9300D000D000D0CDB7DEB77C0166
:1010B0007E836D835A01690184179507B1F4261761
:1010C00037074CF4C626D7269B012C253D253E83A9
:1010D0002D83C226D32696014D815E81241B350BBC
:1010E0002F5F3F4F41E050E015C08D819E818217F8
:1010F0009307B1F44E155F0534F4AE24BF24EA24FF
:10110000FB24AE24BF24A5014E195F094F5F5F4F3A
:1011100021E030E06D817E81C7010E94BE0796C04C
:101120002091BD023091BE02E216F30624F079014F
:1011300091E0E91AF1088091BF029091C002ED811F
:10114000FE81E817F9072CF0AC01415051095E838C
:101150004D83A216B30624F0590151E0A51AB10837
:10116000C816D90624F06C01E1E0CE1AD108350189
:101170006E187F0846012D813E81821A930A77FE00
:1011800006C07194619471082FEF3FEF02C021E017
:1011900030E03C832B8397FE06C0919481949108A4
:1011A0002FEF3FEF02C021E030E03A832983230193
:1011B000440C551C1401220C331CA8016D817E8146
:1011C000C7010E94D90686149704FCF46101C61871
:1011D000D708EA14FB04D1F1D7FC0AC04D815E8127
:1011E00029813A81420F531F5E834D83C418D5086D
:1011F0002B813C81E20EF31EC20CD31CA8016D8131
:101200007E81C7010E94D906E4CF5201A818B9080F
:101210004D815E814C155D05C9F0B7FC06C02B8180
:101220003C81E20EF31EA218B3084D815E81298134
:101230003A81420F531F5E834D83A40CB51CA80155
:101240006D817E81C7010E94D906E2CF26960FB636
:10125000F894DEBF0FBECDBFDF91CF911F910F91EC
:10126000FF90EF90DF90CF90BF90AF909F908F90C6
:101270007F906F905F904F903F902F9008952F92A6
:101280003F924F925F926F927F928F929F92AF9216
:10129000BF92CF92DF92EF92FF920F931F93CF9363
:1012A000DF936C015B017A01490166247724641A9B
:1012B000750AC0E0D0E0EC16FD06F4F1BE016A0D3F
:1012C0007B1D84019B0126014E0C5F1CA2011601AF
:1012D0002E183F08C1010E944008B5016C1B7D0B10
:1012E0009B01A201C1010E9440082E014C0C5D1C13
:1012F00016012C1A3D0AB5016E0D7F1D9B01A2013E
:10130000C1010E944008B5016E197F099B01A2012D
:10131000C1010E944008CE0101966C0E7D1E680E30
:10132000791E77FC07C021E0E21AF1086E187F08E9
:101330006E187F08EC01BFCFDF91CF911F910F9105
:10134000FF90EF90DF90CF90BF90AF909F908F90E5
:101350007F906F905F904F903F902F9008952091D5
:10136000A6029091A502213208F04AC08091820223
:101370008111FCCF32E03093820231E03093810260
:101380003FEF3093800210927F0220937E02A5E807
:10139000B2E04EE552E0FA013E2F341B321718F44A
:1013A0003D913193F9CF10925D0220915D02990F2A
:1013B000922B90935D0290915C02913061F41092B7
:1013C0005C0290915D029093BB009091BC0093FDF4
:1013D000F8CF95EC01C095EE9093BC0090918202FD
:1013E0009230E1F3909180029F3F79F080918002EA
:1013F000803241F080918002803331F084E005C07A
:1014000081E003C082E001C083E010928402109268
:10141000A60210928302089590E0FC01E75CFB4F66
:101420003491FC01EB5DFB4F2491FC01EF5EFB4F1F
:10143000E491EE2309F43BC0332339F1333091F0CA
:1014400038F43130A9F0323001F584B58F7D12C007
:10145000373091F03830A1F03430B9F48091800009
:101460008F7D03C0809180008F77809380000DC0B6
:1014700084B58F7784BD09C08091B0008F7703C099
:101480008091B0008F7D8093B000F0E0EE0FFF1FE1
:10149000E95FFB4FA591B4918FB7F894EC9161117E
:1014A00003C020952E2301C02E2B2C938FBF0895AF
:1014B000CF93DF9390E0FC01EB5DFB4F2491FC01A7
:1014C000EF5EFB4F8491882361F190E0880F991FB4
:1014D000FC01E350FC4FC591D491FC01E95FFB4F47
:1014E000A591B491611109C09FB7F89488812095A6
:1014F00082238883EC912E230BC0623061F49FB766
:10150000F8943881822F809583238883EC912E2B49
:101510002C939FBF06C08FB7F894E8812E2B2883A9
:101520008FBFDF91CF9108958F929F92AF92BF921C
:10153000CF92DF92EF92FF926B017C010E944E07E7
:101540004B015C01C114D104E104F104F1F00E94EB
:101550004E07DC01CB0188199909AA09BB09883E0D
:101560009340A105B10570F321E0C21AD108E1084A
:10157000F10888EE880E83E0981EA11CB11CC114EE
:10158000D104E104F10419F7DDCFFF90EF90DF9073
:10159000CF90BF90AF909F908F9008951F920F9221
:1015A0000FB60F9211242F933F938F939F93AF9376
:1015B000BF938091F9029091FA02A091FB02B09141
:1015C000FC023091F80223E0230F2D3720F401961E
:1015D000A11DB11D05C026E8230F0296A11DB11D56
:1015E0002093F8028093F9029093FA02A093FB02F1
:1015F000B093FC028091FD029091FE02A091FF0247
:10160000B09100030196A11DB11D8093FD0290933E
:10161000FE02A093FF02B0930003BF91AF919F9190
:101620008F913F912F910F900FBE0F901F901895A3
:10163000862F5F982B9A2D989CB59F7B9CBD2D9AE9
:101640009CB590649CBD0E94A4055F9A0895862F66
:101650005F982B982D989CB59F7B9CBD2D9A9CB52F
:1016600090649CBD0E94A4055F9A08956CE20E945C
:10167000270B5F980895AF92BF92CF92DF92EF92BF
:10168000FF920F931F93CF93DF93EC015B017A01DD
:1016900069016AE20E94270BB501CE010E9477071B
:1016A000B601CE010E9477076BE2CE010E94270BA4
:1016B000B701CE010E947707B801CE01DF91CF912B
:1016C0001F910F91FF90EF90DF90CF90BF90AF9060
:1016D0000C947707789484B5826084BD84B581606A
:1016E00084BD85B5826085BD85B5816085BD8091ED
:1016F0006E00816080936E00109281008091810065
:10170000826080938100809181008160809381005C
:10171000809180008160809380008091B10084601E
:101720008093B1008091B00081608093B00080917F
:101730007A00846080937A0080917A00826080933E
:101740007A0080917A00816080937A0080917A009B
:10175000806880937A001092C10061E088E00E9466
:10176000580A289861E089E00E94580A61E087E001
:101770000E94580A61E08DE00E94580A61E08BE007
:101780000E94580A60E08CE00E94580A29985F9AEB
:1017900061E086E00E94580A5E9A88E08093F70232
:1017A0008CB5837F8CBD8CB58F7D8CBDCFB7F89405
:1017B00080912A01811127C0EBE1F4E08491EFE2EE
:1017C000F4E09491E82FF0E0EE0FFF1FE350FC4FA0
:1017D000A591B491EC91E92321F461E08AE00E94A3
:1017E0000C0A61E08AE00E94580A8CB580618CBDC9
:1017F0008CB580648CBD61E08DE00E94580A61E088
:101800008BE00E94580A80912A018F5F80932A0101
:10181000CFBF8CB58C7F81608CBD8DB581608DBD57
:101820005F9A289862E370E080E090E00E94940A5A
:10183000289A68E770E080E090E00E94940AE8E669
:10184000F0E08F010F5F1F4F64916F3FB1F1862F62
:10185000807C8038B9F0803C49F1803411F0F80187
:10186000F0CFC62FCF737F01DC2FFFEFEF1AFF0AF7
:10187000DD23C9F0F701649187EB92E00E94270B0A
:10188000D150F3CFC62FCF737F01DC2FFFEFEF1ABC
:10189000FF0ADD2341F0F701649187EB92E00E949B
:1018A000180BD150F3CF0C0F111DD9CF6F7370E00F
:1018B00080E090E00E94940AD2CF60E070E087EB75
:1018C00092E00E94EB038CB58C7F8CBD8DB58E7F32
:1018D0008DBD61E089E00E94580AE2E4F4E0E49101
:1018E000E33019F150F4E130D1F0E230E1F584B5A4
:1018F000806284BD8FE788BD3AC0E73011F1E830DF
:1019000049F1E43081F5809180008062809380000D
:101910008FE790E090938B0080938A0028C084B575
:10192000806884BD8FE787BD22C080918000806879
:10193000809380008FE790E09093890080938800E7
:1019400016C08091B00080688093B0008FE78093CC
:10195000B3000DC08091B00080628093B0008FE72B
:101960008093B40004C060E089E00E940C0A6FEF2D
:101970007FEF87EB92E00E94EB0360E070E087EB83
:1019800092E00E94370587B1806387B988B1806390
:1019900088B91092140210921302109284021092CD
:1019A000A60210928202C1E0C093810210925C02F2
:1019B00061E082E10E940C0A61E083E10E940C0A6E
:1019C0008091B9008E7F8093B9008091B9008D7F9E
:1019D0008093B90088E48093B80085E48093BC00CC
:1019E000C093830282E58093A50210928402109234
:1019F000A60260E487EA92E00E94080560E087EAB8
:101A000092E00E9408050E94AF09E12CF12CBB2452
:101A1000B394E114F10451F0FFEFEF1AFF0A8CE0E8
:101A2000E816F104B1F7E12CF12C19C073E3C72ECD
:101A300071E0D72EC0E0D0E0F601B1926F0100E076
:101A400010E024E130E044E150E060E070E0CE01DD
:101A50000E94BE072196C031D10571F7DDCF4091BC
:101A6000BD025091BE024E155F05B0F000E010E0DF
:101A70009701B70180E090E00E9440082091BD02EC
:101A80003091BE02A70160E070E0C7010E944008EB
:101A900094E1E90EF11CE3CFC1E0DFEF25E0F22E87
:101AA00035EEE32E45ECD42E03EF11E057E1C52EC1
:101AB00062E5B62E809182028111FCCFC093820232
:101AC000C0938102D093800210927F02F0927E0236
:101AD000C0935D0280915D02846A80935D02809173
:101AE0005C02813069F410925C0280915D02809307
:101AF000BB008091BC0083FDF8CFD092BC0002C037
:101B0000E092BC00809182028130E1F380917F02FB
:101B1000863018F4A0907F0202C096E0A92EAEE5B0
:101B2000B2E0E3EFF1E08E2F801B8A1518F48D915F
:101B30008193F9CF10921402A09213028DE2882EA5
:101B400081E0982E80911402A81651F087EA92E065
:101B50000E94BC048C25895EF40181934F01F2CF71
:101B6000C0938302B092A502109284021092A60242
:101B700060E087EA92E00E9408050E94AF09209188
:101B80002D0120932C0190912E0190932B01809197
:101B900001012D3810F08F5F03C0223718F48150F7
:101BA000809301019D3820F080910001815005C093
:101BB000923728F4809100018F5F8093000180911B
:101BC0000101813009F455C028F18FE39CE90197A8
:101BD000F1F700C000004091B60250E06091B502FC
:101BE00070E02FEF3FEF8091B3029091B4020E941A
:101BF0003F096091B50270E08091B3029091B40208
:101C000044969093B4028093B30220E038EF49E009
:101C100050E02BC08091B3029091B402459748F1F7
:101C2000EFE3FCE93197F1F700C000004091B60204
:101C300050E06091B50270E02FEF3FEF8091B3026A
:101C40009091B4020E943F094091B60250E0609129
:101C5000B50270E08091B3029091B40244979093E2
:101C6000B4028093B30220E038EF0E943F09C09392
:101C7000010180910001813009F447C0D8F08FE361
:101C80009CE90197F1F700C000004091B60250E0D6
:101C90006091B50270E02FEF3FEF8091B302909119
:101CA000B4020E943F094091B60250E06091B50233
:101CB0006C5E1EC08091B502853138F1EFE3FCE91E
:101CC0003197F1F700C000004091B60250E06091FA
:101CD000B50270E02FEF3FEF8091B3029091B40214
:101CE0000E943F094091B60250E06091B5026451F4
:101CF0006093B50270E020E038EF8091B3029091DC
:101D0000B4020E943F09C09300016091B50270E0E7
:101D100020E038EF49E050E08091B3029091B402A6
:101D20000E943F09C7CEE7EAF2E01382128288EEF2
:101D300093E0A0E0B0E084839583A683B78386E038
:101D400091E091838083E7EBF2E0138212821582A7
:101D5000148280E491E09783868380EF90E09187FE
:101D60008087178616861586148613861286178A2C
:101D7000168A158A148A138A128A118A108A10AA5E
:101D800011AA12AA13AA81E084AB85AB17AA16AADE
:101D90008FEF9FEF91AF80AF1092F6021092F50295
:101DA00015AE14AE13AE12AE86E191E0918380833E
:101DB00089E08093B6028AE08093B5028AE090E0E1
:101DC0009093B4028093B30208950E94FF0E3323D0
:101DD00012F48A1B9B0B0C94EF0E0E94FF0EB7FFB0
:101DE0000895821B930B0895EE0FFF1F0590F49149
:101DF000E02D099481E090E0F8940C940E0FA29FDE
:101E0000B001B39FC001A39F700D811D1124911DCE
:101E1000B29F700D811D1124911D0895F894FFCF7C
:101E20000101000000000805D804D004BC04AD0482
:101E3000AC04000000005202230737053B0B360BB1
:0A1E40009C077307D002BE021400D5
:00000001FF
