:100000000C9428020C9450020C9450020C94500250
:100010000C9450020C9450020C9450020C94500218
:100020000C9450020C9450020C9450020C94500208
:100030000C9450020C9450020C9450020C945002F8
:100040000C94610A0C9450020C9450020C945002CF
:100050000C9450020C9450020C9450020C945002D8
:100060000C943E050C9450024128D441CF83008368
:100070003041ED846403128141E88385017941CBED
:1000800085392C00340241F7812041EA8200004189
:10009000C0812641C1811141C582353E41C781BE23
:1000A00041B182001B41F281084126810141E08F6C
:1000B0001F1A180A0F064587320A07020705004172
:1000C000E18F0025270510093A784D05180D383ABB
:1000D0001F41B6840A82270041B78107413A815502
:1000E000413681E8412A82000082013F412B820093
:1000F000008200EF4111FCFC4129D4FFFF00000009
:10010000000000000030787830300030006C6C6CFB
:1001100000000000006C6CFE6CFE6C6C00307CC05B
:10012000780CF8300000C6CC183066C600386C3841
:1001300076DCCC76006060C0000000000018306003
:100140006060301800603018181830600000663C9D
:10015000FF3C660000003030FC3030000000000042
:100160000000703060000000FC0000000000000093
:100170000000303000060C183060C0800078CCDC05
:10018000FCECCC780030F030303030FC0078CC0C17
:100190003860CCFC0078CC0C380CCC78001C3C6C63
:1001A000CCFE0C0C00FCC0F80C0CCC78003860C005
:1001B000F8CCCC7800FCCC0C183060600078CCCC4B
:1001C00078CCCC780078CCCC7C0C18700000003057
:1001D0003000303000000030300070306018306087
:1001E000C0603018000000FC00FC00000060301807
:1001F0000C1830600078CC0C18300030007CC6DE63
:10020000DEDEC078003078CCCCFCCCCC00FC66665E
:100210007C6666FC003C66C0C0C0663C00FC6C6648
:1002200066666CFC00FE6268786862FE00FE6268CA
:10023000786860F0003C66C0C0CE663E00CCCCCC96
:10024000FCCCCCCC0078303030303078001E0C0C38
:100250000CCCCC7800E6666C786C66E600F06060EA
:10026000606266FE00C6EEFED6C6C6C600C6E6F6EC
:10027000DECEC6C600386CC6C6C66C3800FC6666E4
:100280007C6060F00078CCCCCCDC781C00FC66662E
:100290007C786CE60078CCE0381CCC7800FCB4307C
:1002A0003030307800CCCCCCCCCCCCFC00CCCCCC1E
:1002B000CCCC783000C6C6C6D6FEEEC600C6C66C2C
:1002C000386CC6C600CCCCCC7830307800FECC98E8
:1002D0003062C6FE007860606060607800C06030A8
:1002E000180C060200781818181818780010386CC6
:1002F000C60000000000000000000000FF303018C1
:1003000000000000000000780C7CCC7600E0607CEF
:10031000666666BC00000078CCC0CC78001C0C0C73
:100320007CCCCC7600000078CCFCC07800386C60C7
:10033000F06060F000000076CCCC7C0CF8E0606CE3
:10034000766666E60030007030303078001800784D
:10035000181818D870E060666C786CE60070303061
:1003600030303078000000ECFED6C6C6000000F841
:10037000CCCCCCCC00000078CCCCCC78000000DC1D
:1003800066667C60F0000076CCCC7C0C1E0000D849
:100390006C6C60F00000007CC0780CF80010307CC1
:1003A00030303418000000CCCCCCCC76000000CC2F
:1003B000CCCC7830000000C6C6D6FE6C000000C66B
:1003C0006C386CC6000000CCCCCC7C0CF80000FC77
:1003D000983064FC001C3030E030301C00181818D5
:1003E0000018181800E030301C3030E00076DC00D7
:1003F000000000000010386CC6C6C6FE00000000F9
:1004000000240027002A0000000000250028002BFF
:1004100000040404040404040402020202020203AD
:1004200003030303030102040810204080010204B7
:10043000081020010204081020000000080002013A
:100440000000030407000000000000000000300E60
:1004500011241FBECFEFD8E0DEBFCDBF11E0A0E07A
:10046000B1E0E2E5FDE102C005900D92AA32B107CC
:10047000D9F722E0AAE2B1E001C01D92A034B20790
:10048000E1F712E0C8E2D2E004C02197FE010E9429
:100490008D0EC732D107C9F70E946A0B0C94A70EC4
:1004A0000C940000CF92EF92FF920F931F93CF9383
:1004B000DF93EC01262F6A3081F48EAD9FAD9BAFA8
:1004C0008AAF2CA92F778CAD9DAD38E0239F800D8E
:1004D000911D11249DAF8CAF47C0862F8B7F893033
:1004E00009F442C06AAD7BAD203219F46115710583
:1004F000D9F1E881F981E8ACF9AC0EA91FA94CAD9E
:100500005DAD0088F189E02DCCA8CE010995BC0134
:100510009BAF8AAF8DA9882339F12CA92F77822F21
:1005200090E048EF4203900111244E815F81420F19
:10053000531F46175707C4F44EAD5FAD5BAF4AAFCC
:1005400043E0880F991F4A95E1F74CAD5DAD840FEC
:10055000951F9DAF8CAF48855985240F351F2817EF
:10056000390714F41DAE1CAE81E090E0DF91CF910D
:100570001F910F91FF90EF90CF900895CF92EF923F
:10058000FF920F931F93DC01ED91FC910684F78598
:10059000E02D09951F910F91FF90EF90CF90089556
:1005A0002F923F924F925F926F927F928F929F9283
:1005B000AF92BF92CF92DF92EF92FF920F931F9371
:1005C000CF93DF9300D01F92CDB7DEB79B838A8392
:1005D000480188E0280290011124D901A350B040BD
:1005E0005D01BC2DBF77CB2EEA81FB81868197818F
:1005F000F1E0FB1708F463C06B0128E0C20ED11CC8
:100600008C159D050CF46EC0AA81BB811896ED91E6
:10061000FC9119979A01285F3F4FE217F3070CF4FA
:1006200061C0AA81BB81ED91FC9111978A01095F9C
:100630001F4F9B01295F3F4F0680F781E02DCD01C1
:100640000995AA81BB81ED91FC9111970084F185F8
:10065000E02DCD0109958501085F1F4FF5014490FC
:10066000FFEFAF1ABF0A98E0692E712C20E8522ED6
:10067000AA81BB81ED91FC911197852D8421028483
:10068000F385E02D882319F0B401CD0103C0B70133
:100690008A819B8109955694B1E06B1A710841F7E4
:1006A000A016B106D9F6AA81BB81ED91FC911197F4
:1006B0000484F585E02DCD010995C60176C0B8E02A
:1006C000CB9E800111243B01600E711E861597059B
:1006D0004CF0040F151FEA81FB812085318520171E
:1006E000310714F4019661C0AA81BB81ED91FC91A0
:1006F0001197015011090680F781E02D93012150D7
:100700003109CD010995AA81BB81ED91FC91119729
:100710000084F185E02DCD0109952501B8E04B0E4F
:10072000511CF5012490FFEFAF1ABF0A3C2C08E0E2
:1007300010E080E8D82E8D2D82212C2DA1F0AA81E9
:10074000BB81ED91FC9111970284F385E02DB401FA
:10075000CD01298309952981215089F7D69401502B
:10076000110949F710C0AA81BB81ED91FC91119745
:100770000284F385E02DB701CD01298309952981F4
:10078000215089F7EBCF3A943110D1CFA414B5049E
:1007900009F0C7CFAA81BB81ED91FC911197048428
:1007A000F585E02DCD010995C3010F900F900F90B5
:1007B000DF91CF911F910F91FF90EF90DF90CF903D
:1007C000BF90AF909F908F907F906F905F904F9071
:1007D0003F902F9008958F929F92AF92BF92EF9289
:1007E000FF920F931F93CF93DF93EC017B01E8817E
:1007F000F98108851985015011092E813F81215009
:1008000031090680F781E02D40E050E060E070E0C3
:100810000995E881F9810084F185E02DCE010995E3
:10082000AE81BF81288539850E947E0E4B015C0117
:1008300083E0B694A794979487948A95D1F7E8813A
:10084000F98181149104A104B10409F444C0028423
:10085000F385E02DB701CE010995E881F981028485
:10086000F385E02DB701CE010995E881F981028475
:10087000F385E02DB701CE010995E881F981028465
:10088000F385E02DB701CE010995E881F981028455
:10089000F385E02DB701CE010995E881F981028445
:1008A000F385E02DB701CE010995E881F981028435
:1008B000F385E02DB701CE010995E881F981028425
:1008C000F385E02DB701CE01099581E0881A9108E2
:1008D000A108B108B4CF0484F585E02DCE01DF91E5
:1008E000CF911F910F91FF90EF90BF90AF909F908D
:1008F0008F90099485ED8093BC008091BC0084FDAD
:10090000FCCF1092C201089540917701262F30E06C
:10091000240F311D21323105DCF42091C201243035
:10092000C9F4FC0180E090E0861758F4309177011B
:100930002191DC01AB5ABE4FA30FB11D2C93019640
:10094000F3CF80917701680F6093770180E008957D
:1009500081E0089582E008950895E0915401809126
:100960005301E81730F4F0E0ED5CFE4F808190E039
:1009700008958FEF9FEF0895909154018091530156
:10098000981750F4E92FF0E0ED5CFE4F208130E045
:100990009F5F9093540102C02FEF3FEFC90108956C
:1009A0008091530190E020915401821B9109089598
:1009B000CF92DF92EF92FF920F931F93CF93DF932B
:1009C0007C01262F972F8A018091C301882391F003
:1009D000C62FD72F6E01C40ED51ECC15DD0571F0C4
:1009E0006991D701ED91FC910190F081E02DC70153
:1009F0000995F3CF642F822F0E948404C801DF91F0
:100A0000CF911F910F91FF90EF90DF90CF900895BD
:100A1000CF93DF931F92CDB7DEB769832091C301D7
:100A20002223D1F02091E601203240F021E030E095
:100A3000FC013383228380E090E015C08091C401E3
:100A4000E82FF0E0EB53FE4F998190838F5F809306
:100A5000C4018093E60105C061E0CE0101960E94C9
:100A6000840481E090E00F90DF91CF9108958EBDD6
:100A700000000DB407FEFDCF8EB508951F920F92B2
:100A80000FB60F9211242F933F934F935F936F9361
:100A90007F938F939F93AF93BF93EF93FF93809137
:100AA000B900887F803609F49CC068F5883209F463
:100AB0005BC090F4803109F454C038F4882309F401
:100AC000F6C0883009F44DC0F6C0883109F44CC036
:100AD000803209F45DC0EFC0803409F468C048F486
:100AE000803309F455C0883309F0E5C08093C00114
:100AF000D8C0803509F44FC0883509F45DC088340A
:100B000009F0D9C0D6C0883909F4C7C0A8F488371D
:100B100009F467C038F4883609F463C0803709F4F3
:100B200060C0C9C0883809F4B8C0803909F45FC012
:100B3000803809F0C0C05BC0803B09F486C038F43F
:100B4000803A09F466C0883A09F47FC0B4C0803C9A
:100B500009F4A7C0883C09F4A4C0883B09F48AC002
:100B6000AAC080919D0110C09091BF018091BE01EB
:100B7000981770F5E091BF0181E08E0F8093BF015F
:100B8000F0E0E256FE4F80818093BB0085EC86C08A
:100B90008093C0018EC0E091BF0181E08E0F8093F1
:100BA000BF018091BB00F0E0E256FE4F8083909140
:100BB000BF018091BE016EC0E091BF0181E08E0F48
:100BC0008093BF018091BB00F0E0E256FE4F80832E
:100BD0008091C10181116DC081E080939C0184EA04
:100BE00061C083E08093C20110929B01CFCF8091BE
:100BF0009B01803208F051C0E0919B0181E08E0F93
:100C000080939B018091BB00F0E0E558FE4F80830C
:100C1000BDCF85EC8093BC001092C20180919B01F6
:100C2000803230F4E0919B01F0E0E558FE4F1082F5
:100C300060919B0170E0E0917901F0917A018BE77E
:100C400091E0099510929B0136C084E08093C20127
:100C50001092780110927701E0917501F091760180
:100C6000099580917701811105C081E0809377011A
:100C700010925501E091780181E08E0F8093780108
:100C8000F0E0EB5AFE4F80818093BB009091780199
:100C900080917701981708F479CF85E88093BC009C
:100CA0000AC085EC8093BC001092C20104C010926F
:100CB000C0010E947A04FF91EF91BF91AF919F9183
:100CC0008F917F916F915F914F913F912F910F90F5
:100CD0000FBE0F901F9018950F931F93CF93DF9324
:100CE0009B016091FC017091FD0186179707CCF57F
:100CF0006091FE017091FF012617370794F5EA0114
:100D0000A901BC01E091F601F091F7010680F7819D
:100D1000E02D89019C0186EF91E00995E091F601B3
:100D2000F091F7010084F185E02D86EF91E00995BF
:100D3000E091F601F091F7010284F385E02DBE0108
:100D400086EF91E00995E091F601F091F7010484B6
:100D5000F585E02D86EF91E0DF91CF911F910F9106
:100D60000994DF91CF911F910F9108958F929F92D7
:100D7000AF92BF92CF92DF92EF92FF920F931F93A9
:100D8000CF93DF93EA01790168014091FC01509112
:100D9000FD018417950714F0CA0101972091FE0107
:100DA0003091FF01621773071CF0B901615071099E
:100DB000FC01EC0FFD1FE417F5071CF0EA01C81B4E
:100DC000D90BAB014E0D5F1D421753071CF0790183
:100DD000E61AF70AE091F601F091F7018B010E0D8A
:100DE0001F1D015011099C012C0F3D1F215031097D
:100DF0000680F781E02DAB01BC0186EF91E00995FB
:100E0000E091F601F091F7010084F185E02D86EF85
:100E100091E009959701DE010E947E0E4B015C0175
:100E2000E091F601F091F70181149104A104B1045D
:100E300069F00284F385E02DB60186EF91E0099513
:100E400081E0881A9108A108B108EACF0484F585E9
:100E5000E02D86EF91E0DF91CF911F910F91FF90F0
:100E6000EF90DF90CF90BF90AF909F908F900994BC
:100E7000CF92DF92EF92FF920F931F93CF93DF9366
:100E80006C017A018B01C0E0D0E0CE15DF0589F05E
:100E9000D8016D918D01D601ED91FC910190F08109
:100EA000E02DC6010995892B11F47E0102C021961F
:100EB000ECCFC701DF91CF911F910F91FF90EF9081
:100EC000DF90CF9008953FB7F89480913C029091C5
:100ED0003D02A0913E02B0913F0226B5A89B05C0FD
:100EE0002F3F19F00196A11DB11D3FBFBA2FA92FA9
:100EF000982F8827820F911DA11DB11DBC01CD0126
:100F000042E0660F771F881F991F4A95D1F7089511
:100F10005F9A08950E94930ECF93DF931F92CDB7EF
:100F2000DEB7872F5F982B9A2D989CB59F7B9CBD31
:100F30002D9A9CB590649CBD69830E9437052B9ABD
:100F40002D989CB59F7B9CBD2D9A9CB590649CBDB3
:100F50006981862F0E9437055F9A0F90DF91CF91AC
:100F60000895CF93DF931F92CDB7DEB7872F2B9ACB
:100F70002D989CB59F7B9CBD2D9A9CB590649CBD83
:100F800069830E9437052B9A2D989CB59F7B9CBD49
:100F90002D9A9CB590649CBD6981862F0F90DF913E
:100FA000CF910C9437052F923F924F925F926F92A0
:100FB0007F928F929F92AF92BF92CF92DF92EF92E9
:100FC000FF920F931F93CF93DF9300D000D000D0F8
:100FD000CDB7DEB77C017E836D835A01690184172A
:100FE0009507B1F4261737074CF4C626D7269B0180
:100FF0002C253D253E832D83C226D32696014D8187
:101000005E81241B350B2F5F3F4F41E050E015C040
:101010008D819E8182179307B1F44E155F0534F4DC
:10102000AE24BF24EA24FB24AE24BF24A5014E191C
:101030005F094F5F5F4F21E030E06D817E81C70126
:101040000E94B60696C02091FC013091FD01E21687
:10105000F30624F0790191E0E91AF1088091FE018C
:101060009091FF01ED81FE81E817F9072CF0AC01AA
:10107000415051095E834D83A216B30624F05901F5
:1010800051E0A51AB108C816D90624F06C01E1E0B8
:10109000CE1AD10835016E187F0846012D813E8198
:1010A000821A930A77FE06C07194619471082FEF3B
:1010B0003FEF02C021E030E03C832B8397FE06C067
:1010C0009194819491082FEF3FEF02C021E030E02E
:1010D0003A8329832301440C551C1401220C331C30
:1010E000A8016D817E81C7010E946C068614970459
:1010F000FCF46101C618D708EA14FB04D1F1D7FC4F
:101100000AC04D815E8129813A81420F531F5E835F
:101110004D83C418D5082B813C81E20EF31EC20C0E
:10112000D31CA8016D817E81C7010E946C06E4CFAB
:101130005201A818B9084D815E814C155D05C9F0B2
:10114000B7FC06C02B813C81E20EF31EA218B30847
:101150004D815E8129813A81420F531F5E834D8309
:10116000A40CB51CA8016D817E81C7010E946C068C
:10117000E2CF26960FB6F894DEBF0FBECDBFDF914B
:10118000CF911F910F91FF90EF90DF90CF90BF9084
:10119000AF909F908F907F906F905F904F903F9017
:1011A0002F9008952F923F924F925F926F927F926D
:1011B0008F929F92AF92BF92CF92DF92EF92FF9267
:1011C0000F931F93CF93DF936C015B017A01490169
:1011D00066247724641A750AC0E0D0E0EC16FD0698
:1011E000F4F1BE016A0D7B1D84019B0126014E0CAA
:1011F0005F1CA20116012E183F08C1010E94D307EF
:10120000B5016C1B7D0B9B01A201C1010E94D3079C
:101210002E014C0C5D1C16012C1A3D0AB5016E0DF9
:101220007F1D9B01A201C1010E94D307B5016E1968
:101230007F099B01A201C1010E94D307CE01019643
:101240006C0E7D1E680E791E77FC07C021E0E21A45
:10125000F1086E187F086E187F08EC01BFCFDF9190
:10126000CF911F910F91FF90EF90DF90CF90BF90A3
:10127000AF909F908F907F906F905F904F903F9036
:101280002F9008952091E6019091E501213208F018
:101290004AC08091C2018111FCCF32E03093C2017B
:1012A00031E03093C1013FEF3093C0011092BF0194
:1012B0002093BE01A5ECB1E04EE951E0FA013E2FCA
:1012C000341B321718F43D913193F9CF10929D01E0
:1012D00020919D01990F922B90939D0190919C01DB
:1012E000913061F410929C0190919D019093BB000C
:1012F0009091BC0093FDF8CF95EC01C095EE9093D2
:10130000BC009091C2019230E1F39091C0019F3FE7
:1013100079F08091C001803241F08091C00180332A
:1013200031F084E005C081E003C082E001C083E0C9
:101330001092C4011092E6011092C301089590E04A
:10134000FC01E75CFB4F3491FC01EB5DFB4F24910A
:10135000FC01EF5EFB4FE491EE2309F43BC0332325
:1013600039F1333091F038F43130A9F0323001F5F1
:1013700084B58F7D12C0373091F03830A1F0343011
:10138000B9F4809180008F7D03C0809180008F77B9
:10139000809380000DC084B58F7784BD09C0809193
:1013A000B0008F7703C08091B0008F7D8093B00034
:1013B000F0E0EE0FFF1FE95FFB4FA591B4918FB7EF
:1013C000F894EC91611103C020952E2301C02E2BBF
:1013D0002C938FBF0895CF93DF9390E0FC01EB5DDA
:1013E000FB4F2491FC01EF5EFB4F8491882361F158
:1013F00090E0880F991FFC01E350FC4FC591D491F8
:10140000FC01E95FFB4FA591B491611109C09FB741
:10141000F8948881209582238883EC912E230BC039
:10142000623061F49FB7F8943881822F80958323CE
:101430008883EC912E2B2C939FBF06C08FB7F89416
:10144000E8812E2B28838FBFDF91CF9108958F9253
:101450009F92AF92BF92CF92DF92EF92FF926B0179
:101460007C010E9463074B015C01C114D104E104BB
:10147000F104F1F00E946307DC01CB01881999099E
:10148000AA09BB09883E9340A105B10570F321E08C
:10149000C21AD108E108F10888EE880E83E0981E90
:1014A000A11CB11CC114D104E104F10419F7DDCF72
:1014B000FF90EF90DF90CF90BF90AF909F908F9074
:1014C00008951F920F920FB60F9211242F933F93FE
:1014D0008F939F93AF93BF9380913802909139027D
:1014E000A0913A02B0913B023091370223E0230FE2
:1014F0002D3720F40196A11DB11D05C026E8230F4C
:101500000296A11DB11D209337028093380290935B
:101510003902A0933A02B0933B0280913C02909131
:101520003D02A0913E02B0913F020196A11DB11D66
:1015300080933C0290933D02A0933E02B0933F0201
:10154000BF91AF919F918F913F912F910F900FBEBF
:101550000F901F901895862F5F982B9A2D989CB509
:101560009F7B9CBD2D9A9CB590649CBD0E943705C5
:101570005F9A0895862F5F982B982D989CB59F7B36
:101580009CBD2D9A9CB590649CBD0E9437055F9AC6
:1015900008956CE20E94BA0A5F980895AF92BF92D4
:1015A000CF92DF92EF92FF920F931F93CF93DF932F
:1015B000EC015B017A0169016AE20E94BA0AB50195
:1015C000CE010E948C07B601CE010E948C076BE20F
:1015D000CE010E94BA0AB701CE010E948C07B80161
:1015E000CE01DF91CF911F910F91FF90EF90DF908F
:1015F000CF90BF90AF900C948C070F931F93CF9315
:10160000DF93EC016930710519F06A35710571F4E9
:101610008AE590E09D838C8380EF90E09F838E83AA
:1016200080E491E09987888718E434C062317105BD
:1016300019F0643B710571F484EB90E09D838C8319
:1016400080E491E09F838E8380EF90E09987888784
:1016500018E320C06B31710521F07E7F6E3071057B
:1016600071F48EE091E09D838C8380EF90E09F8306
:101670008E8380E491E09987888718E80BC01D82EB
:101680001C8280E491E09F838E8380EF90E09987B5
:10169000888718EE66E3CE010E94BA0A612FCE0158
:1016A0000E94AB0AE881F98108851985015011096A
:1016B0002E813F81215031090680F781E02D40E0E5
:1016C00050E060E070E0CE010995DF91CF911F916D
:1016D0000F910895789484B5826084BD84B581604B
:1016E00084BD85B5826085BD85B5816085BD8091ED
:1016F0006E00816080936E00109281008091810065
:10170000826080938100809181008160809381005C
:10171000809180008160809380008091B10084601E
:101720008093B1008091B00081608093B00080917F
:101730007A00846080937A0080917A00826080933E
:101740007A0080917A00816080937A0080917A009B
:10175000806880937A001092C10061E088E00E9466
:10176000EB09289861E089E00E94EB0961E087E0DD
:101770000E94EB0961E08DE00E94EB0961E08BE0E3
:101780000E94EB0960E08CE00E94EB0929985F9AC7
:1017900061E086E00E94EB095E9A88E08093360261
:1017A0008CB5837F8CBD8CB58F7D8CBDCFB7F89405
:1017B00080912A01811127C0EBE1F4E08491EFE2EE
:1017C000F4E09491E82FF0E0EE0FFF1FE350FC4FA0
:1017D000A591B491EC91E92321F461E08AE00E94A3
:1017E0009F0961E08AE00E94EB098CB580618CBDA5
:1017F0008CB580648CBD61E08DE00E94EB0961E0F6
:101800008BE00E94EB0980912A018F5F80932A016F
:10181000CFBF8CB58C7F81608CBD8DB581608DBD57
:101820005F9A289862E370E080E090E00E94270AC7
:10183000289A68E770E080E090E00E94270AE8E6D6
:10184000F0E08F010F5F1F4F64916F3FB1F1862F62
:10185000807C8038B9F0803C49F1803411F0F80187
:10186000F0CFC62FCF737F01DC2FFFEFEF1AFF0AF7
:10187000DD23C9F0F701649186EF91E00E94BA0A76
:10188000D150F3CFC62FCF737F01DC2FFFEFEF1ABC
:10189000FF0ADD2341F0F701649186EF91E00E9499
:1018A000AB0AD150F3CF0C0F111DD9CF6F7370E07D
:1018B00080E090E00E94270AD2CF60E070E086EFDF
:1018C00091E00E94EB038CB58C7F8CBD8DB58E7F33
:1018D0008DBD61E089E00E94EB09E2E4F4E0E4916F
:1018E000E33019F150F4E130D1F0E230E1F584B5A4
:1018F000806284BD8FE788BD3AC0E73011F1E830DF
:1019000049F1E43081F5809180008062809380000D
:101910008FE790E090938B0080938A0028C084B575
:10192000806884BD8FE787BD22C080918000806879
:10193000809380008FE790E09093890080938800E7
:1019400016C08091B00080688093B0008FE78093CC
:10195000B3000DC08091B00080628093B0008FE72B
:101960008093B40004C060E089E00E949F096FEF9B
:101970007FEF86EF91E00E94EB0360E070E086EF7E
:1019800091E00E94FD0A88B1806388B910925401E9
:10199000109253011092C4011092E6011092C201FC
:1019A000C1E0C093C10110929C0161E082E10E94FC
:1019B0009F0961E083E10E949F098091B9008E7FB9
:1019C0008093B9008091B9008D7F8093B90088E43D
:1019D0008093B80085E48093BC00C093C30182E586
:1019E0008093E5011092C4011092E60160E487EE55
:1019F00091E00E94080560E087EE91E00E940805F2
:101A00000E944209DFEF95E0B92E25EEA22E35ECBB
:101A1000932E43E3C42E41E0D42E57E1852E62E598
:101A2000762E8091C2018111FCCFC093C201C09378
:101A3000C101D093C0011092BF01B092BE01C0930A
:101A40009D0180919D01846A80939D0180919C01FC
:101A5000813069F410929C0180919D018093BB00BC
:101A60008091BC0083FDF8CF9092BC0002C0A09290
:101A7000BC008091C2018130E1F38091BF018630CA
:101A800018F41091BF0101C016E0AEE9B1E0E3E344
:101A9000F1E08E2F8C19811718F48D918193F9CF75
:101AA00010925401109353018DE2E82E81E0F82E3C
:101AB00080915401181751F087EE91E00E94BC0408
:101AC0008825895EF70181937F01F2CFC093C3011E
:101AD0007092E5011092C4011092E60160E087EE79
:101AE00091E00E9408050E94420990912D01909377
:101AF0002C0180912E0180932B019D3820F0909134
:101B000001019F5F05C0923728F490910101915027
:101B1000909301018D3820F080910001815005C023
:101B2000823728F4809100018F5F80930001E12CBF
:101B3000F12C4091FC015091FD014E155F05B0F074
:101B400000E010E09701B70180E090E00E94D30729
:101B50002091FC013091FD01A70160E070E0C70118
:101B60000E94D307FEE1EF0EF11CE3CF809101014B
:101B7000813081F178F08FE39CE90197F1F700C0A3
:101B800000006091F30170E08091F4019091F50103
:101B90004E9614C08091F4019091F5014F97D0F0CA
:101BA000EFE3FCE93197F1F700C000006091F30129
:101BB00070E08091F4019091F5014E979093F501BA
:101BC0008093F4012FEF3FEF4FE050E00E94D208E6
:101BD000C093010180910001813039F150F08FE311
:101BE0009CE90197F1F700C000006091F301625E8B
:101BF0000DC08091F3018F31C0F0EFE3FCE9319724
:101C0000F1F700C000006091F3016E516093F301A1
:101C100070E02FEF3FEF4FE050E08091F4019091A2
:101C2000F5010E94D208C09300016091F30170E0B9
:101C300020E038EF45E050E08091F4019091F5010B
:101C40000E94D2086091F30170E02FEF3FEF45E072
:101C500050E08091F4019091F5010E94D208E1CE0C
:101C6000E7EEF1E01382128288EE93E0A0E0B0E0AC
:101C700084839583A683B78386E091E091838083F4
:101C8000E6EFF1E0138212821582148280E491E083
:101C90009783868380EF90E09187808717861686EA
:101CA0001586148613861286178A168A158A148A50
:101CB000138A128A118A108A10AA11AA12AA13AAC8
:101CC00081E084AB85AB17AA16AA8FEF9FEF91AF87
:101CD00080AF109235021092340215AE14AE13AEDE
:101CE00012AE86E191E0918380838FE090E0909343
:101CF000F5018093F4018093F30108950E94980EFA
:101D0000332312F48A1B9B0B0C94880E0E94980EAE
:101D1000B7FF0895821B930B0895EE0FFF1F0590E8
:101D2000F491E02D099481E090E0F8940C94A70ED2
:101D3000A29FB001B39FC001A39F700D811D11240C
:101D4000911DB29F700D811D1124911D0895F8946D
:021D5000FFCFC3
:101D52000101000000000805D804D004BC04AD0451
:101D6200AC040000000052023807FD0ACE0AC90A7C
:0A1D7200B1078807D002BE021E0070
:00000001FF
