:100000000C9428020C9450020C9450020C94500250
:100010000C9450020C9450020C9450020C94500218
:100020000C9450020C9450020C9450020C94500208
:100030000C9450020C9450020C9450020C945002F8
:100040000C94DE0B0C9450020C94EA0A0C94C40A33
:100050000C9450020C9450020C9450020C945002D8
:100060000C94AB050C9450024128D441CF830083FB
:100070003041ED846403128141E88385017941CBED
:1000800085392C00340241F7812041EA8200004189
:10009000C0812641C1811141C582353E41C781BE23
:1000A00041B182001B41F281084126810141E08F6C
:1000B0001F1A180A0F064587320A07020705004172
:1000C000E18F0025270510093A784D05180D383ABB
:1000D0001F41B6840A82270041B78107413A815502
:1000E000413681E8412A82000082013F412B820093
:1000F000008200EF4111FCFC4129D4FFFF00000009
:10010000000000000030787830300030006C6C6CFB
:1001100000000000006C6CFE6CFE6C6C00307CC05B
:10012000780CF8300000C6CC183066C600386C3841
:1001300076DCCC76006060C0000000000018306003
:100140006060301800603018181830600000663C9D
:10015000FF3C660000003030FC3030000000000042
:100160000000703060000000FC0000000000000093
:100170000000303000060C183060C0800078CCDC05
:10018000FCECCC780030F030303030FC0078CC0C17
:100190003860CCFC0078CC0C380CCC78001C3C6C63
:1001A000CCFE0C0C00FCC0F80C0CCC78003860C005
:1001B000F8CCCC7800FCCC0C183060600078CCCC4B
:1001C00078CCCC780078CCCC7C0C18700000003057
:1001D0003000303000000030300070306018306087
:1001E000C0603018000000FC00FC00000060301807
:1001F0000C1830600078CC0C18300030007CC6DE63
:10020000DEDEC078003078CCCCFCCCCC00FC66665E
:100210007C6666FC003C66C0C0C0663C00FC6C6648
:1002200066666CFC00FE6268786862FE00FE6268CA
:10023000786860F0003C66C0C0CE663E00CCCCCC96
:10024000FCCCCCCC0078303030303078001E0C0C38
:100250000CCCCC7800E6666C786C66E600F06060EA
:10026000606266FE00C6EEFED6C6C6C600C6E6F6EC
:10027000DECEC6C600386CC6C6C66C3800FC6666E4
:100280007C6060F00078CCCCCCDC781C00FC66662E
:100290007C786CE60078CCE0381CCC7800FCB4307C
:1002A0003030307800CCCCCCCCCCCCFC00CCCCCC1E
:1002B000CCCC783000C6C6C6D6FEEEC600C6C66C2C
:1002C000386CC6C600CCCCCC7830307800FECC98E8
:1002D0003062C6FE007860606060607800C06030A8
:1002E000180C060200781818181818780010386CC6
:1002F000C60000000000000000000000FF303018C1
:1003000000000000000000780C7CCC7600E0607CEF
:10031000666666BC00000078CCC0CC78001C0C0C73
:100320007CCCCC7600000078CCFCC07800386C60C7
:10033000F06060F000000076CCCC7C0CF8E0606CE3
:10034000766666E60030007030303078001800784D
:10035000181818D870E060666C786CE60070303061
:1003600030303078000000ECFED6C6C6000000F841
:10037000CCCCCCCC00000078CCCCCC78000000DC1D
:1003800066667C60F0000076CCCC7C0C1E0000D849
:100390006C6C60F00000007CC0780CF80010307CC1
:1003A00030303418000000CCCCCCCC76000000CC2F
:1003B000CCCC7830000000C6C6D6FE6C000000C66B
:1003C0006C386CC6000000CCCCCC7C0CF80000FC77
:1003D000983064FC001C3030E030301C00181818D5
:1003E0000018181800E030301C3030E00076DC00D7
:1003F000000000000010386CC6C6C6FE00000000F9
:1004000000240027002A0000000000250028002BFF
:1004100000040404040404040402020202020203AD
:1004200003030303030102040810204080010204B7
:10043000081020010204081020000000080002013A
:100440000000030407000000000000000000D20FBD
:1004500011241FBECFEFD8E0DEBFCDBF11E0A0E07A
:10046000B1E0ECEDF0E202C005900D92AC33B107C3
:10047000D9F723E0ACE3B1E001C01D92A13BB20784
:10048000E1F712E0C8E2D2E004C02197FE010E9429
:100490005210C732D107C9F70E947A0C0C946C1025
:1004A0000C940000CF92EF92FF920F931F93CF9383
:1004B000DF93EC01262F6A3081F48EAD9FAD9BAFA8
:1004C0008AAF2CA92F778CAD9DAD38E0239F800D8E
:1004D000911D11249DAF8CAF47C0862F8B7F893033
:1004E00009F442C06AAD7BAD203219F46115710583
:1004F000D9F1E881F981E8ACF9AC0EA91FA94CAD9E
:100500005DAD0088F189E02DCCA8CE010995BC0134
:100510009BAF8AAF8DA9882339F12CA92F77822F21
:1005200090E048EF4203900111244E815F81420F19
:10053000531F46175707C4F44EAD5FAD5BAF4AAFCC
:1005400043E0880F991F4A95E1F74CAD5DAD840FEC
:10055000951F9DAF8CAF48855985240F351F2817EF
:10056000390714F41DAE1CAE81E090E0DF91CF910D
:100570001F910F91FF90EF90CF900895CF92EF923F
:10058000FF920F931F93DC01ED91FC910684F78598
:10059000E02D09951F910F91FF90EF90CF90089556
:1005A0002F923F924F925F926F927F928F929F9283
:1005B000AF92BF92CF92DF92EF92FF920F931F9371
:1005C000CF93DF9300D01F92CDB7DEB79B838A8392
:1005D000480188E0280290011124D901A350B040BD
:1005E0005D01BC2DBF77CB2EEA81FB81868197818F
:1005F000F1E0FB1708F463C06B0128E0C20ED11CC8
:100600008C159D050CF46EC0AA81BB811896ED91E6
:10061000FC9119979A01285F3F4FE217F3070CF4FA
:1006200061C0AA81BB81ED91FC9111978A01095F9C
:100630001F4F9B01295F3F4F0680F781E02DCD01C1
:100640000995AA81BB81ED91FC9111970084F185F8
:10065000E02DCD0109958501085F1F4FF5014490FC
:10066000FFEFAF1ABF0A98E0692E712C20E8522ED6
:10067000AA81BB81ED91FC911197852D8421028483
:10068000F385E02D882319F0B401CD0103C0B70133
:100690008A819B8109955694B1E06B1A710841F7E4
:1006A000A016B106D9F6AA81BB81ED91FC911197F4
:1006B0000484F585E02DCD010995C60176C0B8E02A
:1006C000CB9E800111243B01600E711E861597059B
:1006D0004CF0040F151FEA81FB812085318520171E
:1006E000310714F4019661C0AA81BB81ED91FC91A0
:1006F0001197015011090680F781E02D93012150D7
:100700003109CD010995AA81BB81ED91FC91119729
:100710000084F185E02DCD0109952501B8E04B0E4F
:10072000511CF5012490FFEFAF1ABF0A3C2C08E0E2
:1007300010E080E8D82E8D2D82212C2DA1F0AA81E9
:10074000BB81ED91FC9111970284F385E02DB401FA
:10075000CD01298309952981215089F7D69401502B
:10076000110949F710C0AA81BB81ED91FC91119745
:100770000284F385E02DB701CD01298309952981F4
:10078000215089F7EBCF3A943110D1CFA414B5049E
:1007900009F0C7CFAA81BB81ED91FC911197048428
:1007A000F585E02DCD010995C3010F900F900F90B5
:1007B000DF91CF911F910F91FF90EF90DF90CF903D
:1007C000BF90AF909F908F907F906F905F904F9071
:1007D0003F902F9008958F929F92AF92BF92EF9289
:1007E000FF920F931F93CF93DF93EC017B01E8817E
:1007F000F98108851985015011092E813F81215009
:1008000031090680F781E02D40E050E060E070E0C3
:100810000995E881F9810084F185E02DCE010995E3
:10082000AE81BF81288539850E9443104B015C0150
:1008300083E0B694A794979487948A95D1F7E8813A
:10084000F98181149104A104B10409F444C0028423
:10085000F385E02DB701CE010995E881F981028485
:10086000F385E02DB701CE010995E881F981028475
:10087000F385E02DB701CE010995E881F981028465
:10088000F385E02DB701CE010995E881F981028455
:10089000F385E02DB701CE010995E881F981028445
:1008A000F385E02DB701CE010995E881F981028435
:1008B000F385E02DB701CE010995E881F981028425
:1008C000F385E02DB701CE01099581E0881A9108E2
:1008D000A108B108B4CF0484F585E02DCE01DF91E5
:1008E000CF911F910F91FF90EF90BF90AF909F908D
:1008F0008F90099485ED8093BC008091BC0084FDAD
:10090000FCCF10929802089540914D02262F30E0BE
:10091000240F311D21323105DCF42091980224305E
:10092000C9F4FC0180E090E0861758F430914D0244
:100930002191DC01A55DBD4FA30FB11D2C93019644
:10094000F3CF80914D02680F60934D0280E00895CF
:1009500081E0089582E008950895E0912A0280914F
:100960002902E81730F4F0E0E75FFD4F808190E066
:1009700008958FEF9FEF089590912A0280912902A8
:10098000981750F4E92FF0E0E75FFD4F208130E049
:100990009F5F90932A0202C02FEF3FEFC901089595
:1009A0008091290290E020912A02821B91090895EA
:1009B000CF92DF92EF92FF920F931F93CF93DF932B
:1009C0007C01262F972F8A0180919902882391F02C
:1009D000C62FD72F6E01C40ED51ECC15DD0571F0C4
:1009E0006991D701ED91FC910190F081E02DC70153
:1009F0000995F3CF642F822F0E948404C801DF91F0
:100A0000CF911F910F91FF90EF90DF90CF900895BD
:100A1000CF93DF931F92CDB7DEB769832091990200
:100A20002223D1F02091BC02203240F021E030E0BE
:100A3000FC013383228380E090E015C080919A020C
:100A4000E82FF0E0E556FD4F998190838F5F80930A
:100A50009A028093BC0205C061E0CE0101960E941B
:100A6000840481E090E00F90DF91CF9108950F937F
:100A70001F93CF93DF93EC016930710519F06A354C
:100A8000710571F48AE590E09D838C8380EF90E09E
:100A90009F838E8380E491E09987888718E434C02F
:100AA0006231710519F0643B710571F484EB90E0DB
:100AB0009D838C8380E491E09F838E8380EF90E020
:100AC0009987888718E320C06B31710521F07E7FFC
:100AD0006E30710571F48EE091E09D838C8380EF20
:100AE00090E09F838E8380E491E09987888718E85F
:100AF0000BC01D821C8280E491E09F838E8380EF77
:100B000090E09987888718EE66E3CE010E94370C43
:100B1000612FCE010E94280CE881F9810885198592
:100B2000015011092E813F81215031090680F78142
:100B3000E02D40E050E060E070E0CE010995DF91EB
:100B4000CF911F910F9108958EBD00000DB407FE47
:100B5000FDCF8EB508951F920F920FB60F921124FC
:100B60002F933F934F935F936F937F938F939F93B5
:100B7000AF93BF93EF93FF938091B900887F803646
:100B800009F49CC068F5883209F45BC090F48031A8
:100B900009F454C038F4882309F4F6C0883009F405
:100BA0004DC0F6C0883109F44CC0803209F45DC0F4
:100BB000EFC0803409F468C048F4803309F455C0AC
:100BC000883309F0E5C080939602D8C0803509F4D7
:100BD0004FC0883509F45DC0883409F0D9C0D6C04B
:100BE000883909F4C7C0A8F4883709F467C038F415
:100BF000883609F463C0803709F460C0C9C08838FA
:100C000009F4B8C0803909F45FC0803809F0C0C069
:100C10005BC0803B09F486C038F4803A09F466C0B2
:100C2000883A09F47FC0B4C0803C09F4A7C0883C6E
:100C300009F4A4C0883B09F48AC0AAC08091730259
:100C400010C09091950280919402981770F5E091F0
:100C5000950281E08E0F80939502F0E0EC58FD4FF5
:100C600080818093BB0085EC86C0809396028EC005
:100C7000E091950281E08E0F809395028091BB00F8
:100C8000F0E0EC58FD4F80839091950280919402A2
:100C90006EC0E091950281E08E0F80939502809165
:100CA000BB00F0E0EC58FD4F8083809197028111EA
:100CB0006DC081E08093720284EA61C083E080931A
:100CC000980210927102CFCF80917102803208F0A9
:100CD00051C0E091710281E08E0F8093710280918A
:100CE000BB00F0E0EF5AFD4F8083BDCF85EC8093D1
:100CF000BC001092980280917102803230F4E09131
:100D00007102F0E0EF5AFD4F10826091710270E0C5
:100D1000E0914F02F091500281E592E00995109226
:100D2000710236C084E08093980210924E021092B5
:100D30004D02E0914B02F0914C02099580914D02D9
:100D4000811105C081E080934D0210922B02E09149
:100D50004E0281E08E0F80934E02F0E0E55DFD4F84
:100D600080818093BB0090914E0280914D02981734
:100D700008F479CF85E88093BC000AC085EC8093A5
:100D8000BC001092980204C0109296020E947A044D
:100D9000FF91EF91BF91AF919F918F917F916F9153
:100DA0005F914F913F912F910F900FBE0F901F9029
:100DB00018950F931F93CF93DF939B016091D002FF
:100DC0007091D10286179707CCF56091D20270918D
:100DD000D3022617370794F5EA01A901BC01E09177
:100DE000CA02F091CB020680F781E02D89019C01B7
:100DF0008AEC92E00995E091CA02F091CB0200845E
:100E0000F185E02D8AEC92E00995E091CA02F0911B
:100E1000CB020284F385E02DBE018AEC92E00995B5
:100E2000E091CA02F091CB020484F585E02D8AECB2
:100E300092E0DF91CF911F910F910994DF91CF91B3
:100E40001F910F910895CF92DF92EF92FF920F932F
:100E50001F93CF93DF936C017A018B01C0E0D0E048
:100E6000CE15DF0589F0D8016D918D01D601ED9188
:100E7000FC910190F081E02DC6010995892B11F4B8
:100E80007E0102C02196ECCFC701DF91CF911F9167
:100E90000F91FF90EF90DF90CF900895FC01918D1E
:100EA000828D981761F0828DDF01A80FB11D5D96CC
:100EB0008C91928D9F5F9F73928F90E008958FEF3A
:100EC0009FEF0895FC01918D828D981731F0828DEE
:100ED000E80FF11D858D90E008958FEF9FEF089545
:100EE000FC01918D228D892F90E0805C9F4F821BA9
:100EF00091098F7399270895FC01848DDF01A80F54
:100F0000B11DA35ABF4F2C91848D90E001968F7331
:100F10009927848FA689B7892C93A089B1898C9150
:100F200080648C93938D848D981306C00288F38916
:100F3000E02D80818F7D80830895EF92FF920F9343
:100F40001F93CF93DF93EC0181E0888F9B8D8C8D75
:100F5000981305C0E889F989808185FD24C0F62EA3
:100F60000B8D10E00F5F1F4F0F731127E02E8C8D3C
:100F7000E8120CC00FB607FCFACFE889F989808126
:100F800085FFF5CFCE010E947C07F1CF8B8DFE014E
:100F9000E80FF11DE35AFF4FF0820B8FEA89FB89BE
:100FA0008081806207C0EE89FF896083E889F989C2
:100FB00080818064808381E090E0DF91CF911F91F8
:100FC0000F91FF90EF900895CF93DF93EC01888D00
:100FD0008823C9F0EA89FB89808185FD05C0A8893D
:100FE000B9898C9186FD0FC00FB607FCF5CF8081C3
:100FF00085FFF2CFA889B9898C9185FFEDCFCE010D
:101000000E947C07E7CFDF91CF9108953FB7F89416
:101010008091100390911103A0911203B0911303DA
:1010200026B5A89B05C02F3F19F00196A11DB11D43
:101030003FBFBA2FA92F982F8827820F911DA11D7E
:10104000B11DBC01CD0142E0660F771F881F991FBB
:101050004A95D1F708955F9A08950E945810CF934A
:10106000DF931F92CDB7DEB7872F5F982B9A2D980D
:101070009CB59F7B9CBD2D9A9CB590649CBD69835B
:101080000E94A4052B9A2D989CB59F7B9CBD2D9A00
:101090009CB590649CBD6981862F0E94A4055F9ACF
:1010A0000F90DF91CF910895CF93DF931F92CDB72B
:1010B000DEB7872F2B9A2D989CB59F7B9CBD2D9AD0
:1010C0009CB590649CBD69830E94A4052B9A2D98C1
:1010D0009CB59F7B9CBD2D9A9CB590649CBD6981FD
:1010E000862F0F90DF91CF910C94A4052091BC0224
:1010F0009091BB02213208F04AC080919802811180
:10110000FCCF32E03093980231E0309397023FEF0A
:10111000309396021092950220939402ABE9B2E0CC
:1011200044E752E0FA013E2F341B321718F43D9188
:101130003193F9CF1092730220917302990F922B81
:101140009093730290917202913061F41092720246
:10115000909173029093BB009091BC0093FDF8CFE7
:1011600095EC01C095EE9093BC009091980292305E
:10117000E1F3909196029F3F79F080919602803240
:1011800041F080919602803331F084E005C081E027
:1011900003C082E001C083E010929A021092BC0268
:1011A0001092990208958F929F92AF92BF92CF9220
:1011B000DF92EF92FF920F931F93CF93DF93EA0199
:1011C000790168014091D0025091D10284179507AE
:1011D00014F0CA0101972091D2023091D302621714
:1011E00073071CF0B90161507109FC01EC0FFD1F80
:1011F000E417F5071CF0EA01C81BD90BAB014E0D33
:101200005F1D421753071CF07901E61AF70AE091B7
:10121000CA02F091CB028B010E0D1F1D0150110966
:101220009C012C0F3D1F215031090680F781E02DD4
:10123000AB01BC018AEC92E00995E091CA02F09101
:10124000CB020084F185E02D8AEC92E009959701AC
:10125000DE010E9443104B015C01E091CA02F09153
:10126000CB0281149104A104B10469F00284F385D6
:10127000E02DB6018AEC92E0099581E0881A910888
:10128000A108B108EACF0484F585E02D8AEC92E04C
:10129000DF91CF911F910F91FF90EF90DF90CF9052
:1012A000BF90AF909F908F9009942F923F924F9252
:1012B0005F926F927F928F929F92AF92BF92CF92E6
:1012C000DF92EF92FF920F931F93CF93DF9300D0A3
:1012D00000D000D0CDB7DEB77C017E836D835A018C
:1012E000690184179507B1F4261737074CF4C62611
:1012F000D7269B012C253D253E832D83C226D32650
:1013000096014D815E81241B350B2F5F3F4F41E0DD
:1013100050E015C08D819E8182179307B1F44E1560
:101320005F0534F4AE24BF24EA24FB24AE24BF249A
:10133000A5014E195F094F5F5F4F21E030E06D81DD
:101340007E81C7010E94D30896C02091D0023091BF
:10135000D102E216F30624F0790191E0E91AF108CE
:101360008091D2029091D302ED81FE81E817F907B6
:101370002CF0AC01415051095E834D83A216B30697
:1013800024F0590151E0A51AB108C816D90624F075
:101390006C01E1E0CE1AD10835016E187F084601D4
:1013A0002D813E81821A930A77FE06C07194619462
:1013B00071082FEF3FEF02C021E030E03C832B8328
:1013C00097FE06C09194819491082FEF3FEF02C0E1
:1013D00021E030E03A8329832301440C551C140199
:1013E000220C331CA8016D817E81C7010E94D906A1
:1013F00086149704FCF46101C618D708EA14FB04AC
:10140000D1F1D7FC0AC04D815E8129813A81420F1A
:10141000531F5E834D83C418D5082B813C81E20E97
:10142000F31EC20CD31CA8016D817E81C7010E94EE
:10143000D906E4CF5201A818B9084D815E814C1538
:101440005D05C9F0B7FC06C02B813C81E20EF31E9E
:10145000A218B3084D815E8129813A81420F531F42
:101460005E834D83A40CB51CA8016D817E81C701EC
:101470000E94D906E2CF26960FB6F894DEBF0FBEC3
:10148000CDBFDF91CF911F910F91FF90EF90DF9033
:10149000CF90BF90AF909F908F907F906F905F9014
:1014A0004F903F902F9008952F923F924F925F92CE
:1014B0006F927F928F929F92AF92BF92CF92DF9264
:1014C000EF92FF920F931F93CF93DF936C015B0119
:1014D0007A01490166247724641A750AC0E0D0E0D5
:1014E000EC16FD06F4F1BE016A0D7B1D84019B0123
:1014F00026014E0C5F1CA20116012E183F08C101E7
:101500000E945509B5016C1B7D0B9B01A201C10115
:101510000E9455092E014C0C5D1C16012C1A3D0A27
:10152000B5016E0D7F1D9B01A201C1010E945509ED
:10153000B5016E197F099B01A201C1010E945509E5
:10154000CE0101966C0E7D1E680E791E77FC07C0D9
:1015500021E0E21AF1086E187F086E187F08EC018E
:10156000BFCFDF91CF911F910F91FF90EF90DF9050
:10157000CF90BF90AF909F908F907F906F905F9033
:101580004F903F902F9008951F920F920FB60F9299
:1015900011242F933F934F935F936F937F938F9378
:1015A0009F93AF93BF93EF93FF9384E193E00E94E7
:1015B0007C07FF91EF91BF91AF919F918F917F91A8
:1015C0006F915F914F913F912F910F900FBE0F90B0
:1015D0001F9018951F920F920FB60F9211242F9300
:1015E0008F939F93EF93FF93E0912403F091250352
:1015F0008081E0912A03F0912B0382FD12C090813B
:1016000080912D038F5F8F7320912E03821751F0ED
:10161000E0912D03F0E0EC5EFC4F958F80932D035D
:1016200001C08081FF91EF919F918F912F910F9039
:101630000FBE0F901F90189590E0FC01E75CFB4FE8
:101640003491FC01EB5DFB4F2491FC01EF5EFB4FFD
:10165000E491EE2309F43BC0332339F1333091F0A8
:1016600038F43130A9F0323001F584B58F7D12C0E5
:10167000373091F03830A1F03430B9F480918000E7
:101680008F7D03C0809180008F77809380000DC094
:1016900084B58F7784BD09C08091B0008F7703C077
:1016A0008091B0008F7D8093B000F0E0EE0FFF1FBF
:1016B000E95FFB4FA591B4918FB7F894EC9161115C
:1016C00003C020952E2301C02E2B2C938FBF08958D
:1016D000CF93DF9390E0FC01EB5DFB4F2491FC0185
:1016E000EF5EFB4F8491882361F190E0880F991F92
:1016F000FC01E350FC4FC591D491FC01E95FFB4F25
:10170000A591B491611109C09FB7F8948881209583
:1017100082238883EC912E230BC0623061F49FB743
:10172000F8943881822F809583238883EC912E2B27
:101730002C939FBF06C08FB7F894E8812E2B288387
:101740008FBFDF91CF9108958F929F92AF92BF92FA
:10175000CF92DF92EF92FF926B017C010E9406080C
:101760004B015C01C114D104E104F104F1F00E94C9
:101770000608DC01CB0188199909AA09BB09883E32
:101780009340A105B10570F321E0C21AD108E10828
:10179000F10888EE880E83E0981EA11CB11CC114CC
:1017A000D104E104F10419F7DDCFFF90EF90DF9051
:1017B000CF90BF90AF909F908F9008951F920F92FF
:1017C0000FB60F9211242F933F938F939F93AF9354
:1017D000BF9380910C0390910D03A0910E03B091E3
:1017E0000F0330910B0323E0230F2D3720F40196D4
:1017F000A11DB11D05C026E8230F0296A11DB11D34
:1018000020930B0380930C0390930D03A0930E037E
:10181000B0930F038091100390911103A0911203D4
:10182000B09113030196A11DB11D809310039093F5
:101830001103A0931203B0931303BF91AF919F9133
:101840008F913F912F910F900FBE0F901F90189581
:10185000862F5F982B9A2D989CB59F7B9CBD2D9AC7
:101860009CB590649CBD0E94A4055F9A0895862F44
:101870005F982B982D989CB59F7B9CBD2D9A9CB50D
:1018800090649CBD0E94A4055F9A08956CE20E943A
:10189000370C5F980895AF92BF92CF92DF92EF928C
:1018A000FF920F931F93CF93DF93EC015B017A01BB
:1018B00069016AE20E94370CB501CE010E942F082F
:1018C000B601CE010E942F086BE2CE010E94370CB8
:1018D000B701CE010E942F08B801CE01DF91CF9150
:1018E0001F910F91FF90EF90DF90CF90BF90AF903E
:1018F0000C942F08789484B5826084BD84B581608F
:1019000084BD85B5826085BD85B5816085BD8091CA
:101910006E00816080936E00109281008091810042
:10192000826080938100809181008160809381003A
:10193000809180008160809380008091B1008460FC
:101940008093B1008091B00081608093B00080915D
:101950007A00846080937A0080917A00826080931C
:101960007A0080917A00816080937A0080917A0079
:10197000806880937A001092C10061E088E00E9444
:10198000680B289861E089E00E94680B61E087E0BD
:101990000E94680B61E08DE00E94680B61E08BE0C3
:1019A0000E94680B60E08CE00E94680B29985F9AA7
:1019B00061E086E00E94680B5E9A88E080930A03EB
:1019C0008CB5837F8CBD8CB58F7D8CBDCFB7F894E3
:1019D00080913C01811127C0EBE1F4E08491EFE2BA
:1019E000F4E09491E82FF0E0EE0FFF1FE350FC4F7E
:1019F000A591B491EC91E92321F461E08AE00E9481
:101A00001C0B61E08AE00E94680B8CB580618CBD84
:101A10008CB580648CBD61E08DE00E94680B61E054
:101A20008BE00E94680B80913C018F5F80933C01AA
:101A3000CFBF8CB58C7F81608CBD8DB581608DBD35
:101A40005F9A289862E370E080E090E00E94A40B27
:101A5000289A68E770E080E090E00E94A40BE8E636
:101A6000F0E08F010F5F1F4F64916F3FB1F1862F40
:101A7000807C8038B9F0803C49F1803411F0F80165
:101A8000F0CFC62FCF737F01DC2FFFEFEF1AFF0AD5
:101A9000DD23C9F0F70164918AEC92E00E94370CD3
:101AA000D150F3CFC62FCF737F01DC2FFFEFEF1A9A
:101AB000FF0ADD2341F0F70164918AEC92E00E9475
:101AC000280CD150F3CF0C0F111DD9CF6F7370E0DC
:101AD00080E090E00E94A40BD2CF60E070E08AEC3E
:101AE00092E00E94EB038CB58C7F8CBD8DB58E7F10
:101AF0008DBD61E089E00E94680BE2E4F4E0E491CE
:101B0000E33019F150F4E130D1F0E230E1F584B581
:101B1000806284BD8FE788BD3AC0E73011F1E830BC
:101B200049F1E43081F580918000806280938000EB
:101B30008FE790E090938B0080938A0028C084B553
:101B4000806884BD8FE787BD22C080918000806857
:101B5000809380008FE790E09093890080938800C5
:101B600016C08091B00080688093B0008FE78093AA
:101B7000B3000DC08091B00080628093B0008FE709
:101B80008093B40004C060E089E00E941C0B6FEFFA
:101B90007FEF8AEC92E00E94EB0388B1806388B902
:101BA00010922A021092290210929A021092BC02FC
:101BB00010929802C1E0C09397021092720261E005
:101BC00082E10E941C0B61E083E10E941C0B80916A
:101BD000B9008E7F8093B9008091B9008D7F80938A
:101BE000B90088E48093B80085E48093BC00C0937A
:101BF000990282E58093BB0210929A021092BC0275
:101C000060E48DEB92E00E94080560E08DEB92E0CD
:101C10000E9408050E947608C0E0D0E08091D002C2
:101C20009091D1028C179D0774F02091D2023091CF
:101C3000D30200E010E0AE0160E070E0CE010E944F
:101C400055096496EBCFC0E0D0E08091D20290912C
:101C5000D3028C179D0774F04091D0025091D102AD
:101C600000E010E09E01BE0180E090E00E94550976
:101C70006496EBCF20913D0180E091E061E08C30F3
:101C800009F1482F50E020E030E0DA01AD5BBE4FB3
:101C9000ED01CC54DF4F882311F08B3049F4F9016A
:101CA000E40FF51FED5BFE4F90836093760102C059
:101CB0009C939883245F3F4F203C310561F78F5FF1
:101CC00020E1DDCF20933D0110923E01CCE08091D8
:101CD0003E018C3060F510923D0180913D01609194
:101CE0003E01803100F5C89FF0011124E60FF11D7F
:101CF000ED5BFE4F9081913081F424E1629FB00151
:101D0000112400E010E024E130E044E150E0E4E19F
:101D10008E9FC00111240E94D30880913D018F5FE6
:101D200080933D01DACF6F5F60933E01D0CF59E0E1
:101D3000E52E52E0F52E07E1C1E0DFEF65E0D62E9B
:101D400025EEC22E35ECB32E42E5A42E1CE0809188
:101D500098028111FCCFC0939802C0939702D09350
:101D6000960210929502D0929402C09373028091D1
:101D70007302846A8093730280917202813069F4E5
:101D800010927202809173028093BB008091BC001C
:101D900083FDF8CFB092BC0002C0C092BC0080911D
:101DA00098028130E1F380919502863018F47090AA
:101DB000950202C096E0792EA4E7B2E0E9E0F2E0F5
:101DC0008E2F8E19871518F48D918193F9CF10926B
:101DD0002A027092290283E0882E82E0982E809158
:101DE0002A02781651F08DEB92E00E94BC04802705
:101DF000895EF40181934F01F2CFC0939902A092C2
:101E0000BB0210929A021092BC0260E08DEB92E04D
:101E10000E9408050E947608209103022093420147
:101E200030910402309340019091020180910001B1
:101E30002D38C0F0209141012233A9F520910301F2
:101E4000422F50E04F5F5F4F149FF001159FF00D40
:101E50001124E90FF11DED5BFE4F4081411120C0BF
:101E60002F5F19C0223710F5209141012233D9F498
:101E700020910301422F50E041505109149FF0017D
:101E8000159FF00D1124E90FF11DED5BFE4F408110
:101E9000411106C02150209303011092410106C058
:101EA0008093030103C02F5F2093410160910101E2
:101EB0003D3898F020913F01223351F5E091030124
:101EC0001E9FF0011124ED5BFE4FE90FF11D3197CC
:101ED000208121111AC0915013C03237E0F42091B3
:101EE0003F012233A9F4E09103011E9FF001112468
:101EF000ED5BFE4FE90FF11D2181211106C09F5FAF
:101F00009093020110923F0106C06093020103C04A
:101F10002F5F20933F0190910201691304C09091BB
:101F20000301891791F04091C90250E0F4E16F9FDD
:101F3000B0011124665F7F4F24E1829FC00111240C
:101F40002FEF3FEF0A960E94540A609102018091A0
:101F500003014091C90250E094E1699FB00111244E
:101F6000665F7F4FE4E18E9FC001112420E038EFCF
:101F70000A960E94540AE0910301E09300018091C7
:101F80000201809301019091080290FDE0CE2CE0C7
:101F9000E29FF0011124E80FF11DED5BFE4F82E09E
:101FA0008083CECEE4E1F3E01382128288EE93E0E8
:101FB000A0E0B0E084839583A683B78328E031E076
:101FC0003183208325EC30E03587248724EC30E012
:101FD0003787268720EC30E0318B208B21EC30E0F6
:101FE000338B228B22EC30E0358B248B26EC30E0D7
:101FF000378B268B118E128E138E148EEDEBF2E042
:102000001382128284839583A683B78388E191E04B
:1020100091838083EAECF2E01382128215821482AB
:1020200080E491E09783868380EF90E091878087BA
:10203000178616861586148613861286178A168AC0
:10204000158A148A138A128A118A108A10AA11AA70
:1020500012AA13AA81E084AB85AB17AA16AA8FEF48
:102060009FEF91AF80AF109209031092080315AE55
:1020700014AE13AE12AE88E291E09183808389E0C2
:102080008093C90208950E945D10332312F48A1BC5
:102090009B0B0C944D100E945D10B7FF0895821B9E
:1020A000930B0895EE0FFF1F0590F491E02D099416
:1020B00081E090E0F8940C946C10A29FB001B39F63
:1020C000C001A39F700D811D1124911DB29F700D41
:0C20D000811D1124911D0895F894FFCF8C
:1020DC0001010101000000009D07230770074E0756
:1020EC006207E407000000000805D804D004BC0413
:1020FC00AD04AC04000000005202230737054B0C62
:0C210C00460C54082B08D002BE02140040
:00000001FF
