:100000000C9428020C9450020C9450020C94500250
:100010000C9450020C9450020C9450020C94500218
:100020000C9450020C9450020C9450020C94500208
:100030000C9450020C9450020C9450020C945002F8
:100040000C94E7070C9450020C9450020C9450024C
:100050000C9450020C9450020C9450020C945002D8
:100060000C943C0A0C9450020000000000000000B8
:1000700030787830300030006C6C6C00000000008C
:100080006C6CFE6CFE6C6C00307CC0780CF8300040
:1000900000C6CC183066C600386C3876DCCC7600EA
:1000A0006060C00000000000183060606030180020
:1000B000603018181830600000663CFF3C66000095
:1000C000003030FC30300000000000000070306074
:1000D000000000FC000000000000000000303000C4
:1000E000060C183060C0800078CCDCFCECCC7800CA
:1000F00030F030303030FC0078CC0C3860CCFC0074
:1001000078CC0C380CCC78001C3C6CCCFE0C0C0071
:10011000FCC0F80C0CCC78003860C0F8CCCC78006F
:10012000FCCC0C183060600078CCCC78CCCC78005B
:1001300078CCCC7C0C1870000000303000303000DF
:100140000000303000703060183060C0603018003F
:100150000000FC00FC0000006030180C183060004B
:1001600078CC0C18300030007CC6DEDEDEC07800B3
:100170003078CCCCFCCCCC00FC66667C6666FC009F
:100180003C66C0C0C0663C00FC6C6666666CFC00E9
:10019000FE6268786862FE00FE6268786860F0005F
:1001A0003C66C0C0CE663E00CCCCCCFCCCCCCC00F7
:1001B00078303030303078001E0C0C0CCCCC78000D
:1001C000E6666C786C66E600F06060606266FE0071
:1001D000C6EEFED6C6C6C600C6E6F6DECEC6C6006B
:1001E000386CC6C6C66C3800FC66667C6060F00081
:1001F00078CCCCCCDC781C00FC66667C786CE600A5
:1002000078CCE0381CCC7800FCB43030303078004A
:10021000CCCCCCCCCCCCFC00CCCCCCCCCC78300076
:10022000C6C6C6D6FEEEC600C6C66C386CC6C600CC
:10023000CCCCCC7830307800FECC983062C6FE0052
:100240007860606060607800C06030180C06020062
:10025000781818181818780010386CC600000000BC
:1002600000000000000000FF303018000000000017
:100270000000780C7CCC7600E0607C666666BC0092
:10028000000078CCC0CC78001C0C0C7CCCCC760068
:10029000000078CCFCC07800386C60F06060F00042
:1002A000000076CCCC7C0CF8E0606C766666E600EC
:1002B0003000703030307800180078181818D87076
:1002C000E060666C786CE60070303030303078007A
:1002D0000000ECFED6C6C6000000F8CCCCCCCC00AA
:1002E000000078CCCCCC78000000DC66667C60F046
:1002F000000076CCCC7C0C1E0000D86C6C60F0004A
:1003000000007CC0780CF80010307C3030341800CD
:100310000000CCCCCCCC76000000CCCCCC7830002B
:100320000000C6C6D6FE6C000000C66C386CC60065
:100330000000CCCCCC7C0CF80000FC983064FC00B5
:100340001C3030E030301C00181818001818180045
:10035000E030301C3030E00076DC000000000000AF
:1003600010386CC6C6C6FE0000000000240027003E
:100370002A0000000000250028002B0004040404CB
:10038000040404040202020202020303030303033F
:10039000010204081020408001020408102001021C
:1003A00004081020000000080002010000030407F8
:1003B00000000000000000004128D441CF830083EA
:1003C0003041ED846403128141E88385017941CB9A
:1003D00085392C00340241F7812041EA8200004136
:1003E000C0812641C1811141C582353E41C781BED0
:1003F00041B182001B41F281084126810141E08F19
:100400001F1A180A0F064587320A0702070500411E
:10041000E18F0025270510093A784D05180D383A67
:100420001F41B6840A82270041B78107413A8155AE
:10043000413681E8412A82000082013F412B82003F
:10044000008200EF4111FCFC4129D4FFFF006A0B40
:1004500011241FBECFEFD8E0DEBFCDBF11E0A0E07A
:10046000B1E0E0EDFDE102C005900D92AA32B107C6
:10047000D9F722E0AAE2B1E001C01D92A134B2078F
:10048000E1F712E0C8E2D2E004C02197FE010E9429
:10049000CC0EC732D107C9F70E94BC0B0C94E60EF4
:1004A0000C9400000F931F93CF93DF939B016091F7
:1004B0008B0170918C0186179707CCF560918D01A7
:1004C00070918E012617370794F5EA01A901BC0146
:1004D000E0918501F09186010680F781E02D890188
:1004E0009C0185E891E00995E0918501F0918601F4
:1004F0000084F185E02D85E891E00995E091850182
:10050000F09186010284F385E02DBE0185E891E03B
:100510000995E0918501F09186010484F585E02D2F
:1005200085E891E0DF91CF911F910F910994DF91C0
:10053000CF911F910F9108958F929F92AF92BF928A
:10054000CF92DF92EF92FF920F931F93CF93DF939F
:10055000EA017901680140918B0150918C01841767
:10056000950714F0CA01019720918D0130918E01F9
:10057000621773071CF0B90161507109FC01EC0F9F
:10058000FD1FE417F5071CF0EA01C81BD90BAB01EE
:100590004E0D5F1D421753071CF07901E61AF70A4A
:1005A000E0918501F09186018B010E0D1F1D015018
:1005B00011099C012C0F3D1F215031090680F78144
:1005C000E02DAB01BC0185E891E00995E091850142
:1005D000F09186010084F185E02D85E891E0099590
:1005E0009701DE010E94BD0E4B015C01E091850187
:1005F000F091860181149104A104B10469F0028490
:10060000F385E02DB60185E891E0099581E0881A2F
:100610009108A108B108EACF0484F585E02D85E8AA
:1006200091E0DF91CF911F910F91FF90EF90DF90BC
:10063000CF90BF90AF909F908F900994CF92DF9210
:10064000EF92FF920F931F93CF93DF936C017A0188
:100650008B01C0E0D0E0CE15DF0589F0D8016D91A7
:100660008D01D601ED91FC910190F081E02DC60144
:100670000995892B11F47E0102C02196ECCFC701A8
:10068000DF91CF911F910F91FF90EF90DF90CF906E
:1006900008953FB7F8948091CB019091CC01A0913F
:1006A000CD01B091CE0126B5A89B05C02F3F19F012
:1006B0000196A11DB11D3FBFBA2FA92F982F8827E2
:1006C000820F911DA11DB11DBC01CD0142E0660F3D
:1006D000771F881F991F4A95D1F708955F9A08954B
:1006E0008EBD00000DB407FEFDCF8EB50895CF93EB
:1006F000DF931F92CDB7DEB7872F5F982B9A2D9887
:100700009CB59F7B9CBD2D9A9CB590649CBD6983D4
:100710000E9470032B9A2D989CB59F7B9CBD2D9AAF
:100720009CB590649CBD6981862F0E9470035F9A7E
:100730000F90DF91CF910895CF93DF931F92CDB7A4
:10074000DEB7872F2B9A2D989CB59F7B9CBD2D9A49
:100750009CB590649CBD69830E9470032B9A2D9870
:100760009CB59F7B9CBD2D9A9CB590649CBD698176
:10077000862F0F90DF91CF910C947003CF92EF9260
:10078000FF920F931F93CF93DF93EC01262F6A30D4
:1007900081F48EAD9FAD9BAF8AAF2CA92F778CAD26
:1007A0009DAD38E0239F800D911D11249DAF8CAF2E
:1007B00047C0862F8B7F893009F442C06AAD7BAD7C
:1007C000203219F461157105D9F1E881F981E8AC9D
:1007D000F9AC0EA91FA94CAD5DAD0088F189E02DE3
:1007E000CCA8CE010995BC019BAF8AAF8DA9882307
:1007F00039F12CA92F77822F90E048EF4203900126
:1008000011244E815F81420F531F46175707C4F4CE
:100810004EAD5FAD5BAF4AAF43E0880F991F4A957D
:10082000E1F74CAD5DAD840F951F9DAF8CAF488552
:100830005985240F351F2817390714F41DAE1CAE37
:1008400081E090E0DF91CF911F910F91FF90EF90A9
:10085000CF900895CF92EF92FF920F931F93DC01F8
:10086000ED91FC910684F785E02D09951F910F917C
:10087000FF90EF90CF9008952F923F924F925F920A
:100880006F927F928F929F92AF92BF92CF92DF92A0
:10089000EF92FF920F931F93CF93DF9300D01F929D
:1008A000CDB7DEB79B838A83480188E02802900198
:1008B0001124D901A859B0405D01BC2DBF77CB2EC2
:1008C000EA81FB8186819781F1E0FB1708F463C020
:1008D0006B0128E0C20ED11C8C159D050CF46EC076
:1008E000AA81BB811896ED91FC9119979A01285F16
:1008F0003F4FE217F3070CF461C0AA81BB81ED9171
:10090000FC9111978A01095F1F4F9B01295F3F4F9F
:100910000680F781E02DCD010995AA81BB81ED917B
:10092000FC9111970084F185E02DCD010995850199
:10093000085F1F4FF5014490FFEFAF1ABF0A98E020
:10094000692E712C20E8522EAA81BB81ED91FC9179
:100950001197852D84210284F385E02D882319F0D9
:10096000B401CD0103C0B7018A819B8109955694DA
:10097000B1E06B1A710841F7A016B106D9F6AA8149
:10098000BB81ED91FC9111970484F585E02DCD019B
:100990000995C60176C0B8E0CB9E800111243B01C9
:1009A000600E711E861597054CF0040F151FEA8125
:1009B000FB81208531852017310714F4019661C031
:1009C000AA81BB81ED91FC9111970150110906801C
:1009D000F781E02D930121503109CD010995AA81BC
:1009E000BB81ED91FC9111970084F185E02DCD0143
:1009F00009952501B8E04B0E511CF5012490FFEF3D
:100A0000AF1ABF0A3C2C08E010E080E8D82E8D2DEC
:100A100082212C2DA1F0AA81BB81ED91FC9111972F
:100A20000284F385E02DB401CD0129830995298144
:100A3000215089F7D6940150110949F710C0AA81B5
:100A4000BB81ED91FC9111970284F385E02DB701F4
:100A5000CD01298309952981215089F7EBCF3A945B
:100A60003110D1CFA414B50409F0C7CFAA81BB813E
:100A7000ED91FC9111970484F585E02DCD01099548
:100A8000C3010F900F900F90DF91CF911F910F91A5
:100A9000FF90EF90DF90CF90BF90AF909F908F909E
:100AA0007F906F905F904F903F902F9008950E949D
:100AB000D20E2F923F924F925F926F927F928F92BF
:100AC0009F92AF92BF92CF92DF92EF92FF920F93DD
:100AD0001F93CF93DF9300D000D000D0CDB7DEB707
:100AE0007C017E836D835A01690184179507B1F4F7
:100AF000261737074CF4C626D7269B012C253D2503
:100B00003E832D83C226D32696014D815E81241B10
:100B1000350B2F5F3F4F41E050E015C08D819E8126
:100B200082179307B1F44E155F0534F4AE24BF2449
:100B3000EA24FB24AE24BF24A5014E195F094F5FB0
:100B40005F4F21E030E06D817E81C7010E949C02F1
:100B500096C020918B0130918C01E216F30624F0AF
:100B6000790191E0E91AF10880918D0190918E014F
:100B7000ED81FE81E817F9072CF0AC0141505109D5
:100B80005E834D83A216B30624F0590151E0A51AE5
:100B9000B108C816D90624F06C01E1E0CE1AD108DC
:100BA00035016E187F0846012D813E81821A930A15
:100BB00077FE06C07194619471082FEF3FEF02C079
:100BC00021E030E03C832B8397FE06C09194819412
:100BD00091082FEF3FEF02C021E030E03A832983F4
:100BE0002301440C551C1401220C331CA8016D81F7
:100BF0007E81C7010E94520286149704FCF46101B1
:100C0000C618D708EA14FB04D1F1D7FC0AC04D81FD
:100C10005E8129813A81420F531F5E834D83C41840
:100C2000D5082B813C81E20EF31EC20CD31CA80117
:100C30006D817E81C7010E945202E4CF5201A81843
:100C4000B9084D815E814C155D05C9F0B7FC06C041
:100C50002B813C81E20EF31EA218B3084D815E8108
:100C600029813A81420F531F5E834D83A40CB51C2A
:100C7000A8016D817E81C7010E945202E2CF2696B3
:100C80000FB6F894DEBF0FBECDBFDF91CF911F919D
:100C90000F91FF90EF90DF90CF90BF90AF909F901B
:100CA0008F907F906F905F904F903F902F9008951E
:100CB0002F923F924F925F926F927F928F929F926C
:100CC000AF92BF92CF92DF92EF92FF920F931F935A
:100CD000CF93DF936C015B017A014901662477248D
:100CE000641A750AC0E0D0E0EC16FD06F4F1BE010E
:100CF0006A0D7B1D84019B0126014E0C5F1CA20125
:100D000016012E183F08C1010E945905B5016C1B40
:100D10007D0B9B01A201C1010E9459052E014C0CC3
:100D20005D1C16012C1A3D0AB5016E0D7F1D9B013D
:100D3000A201C1010E945905B5016E197F099B01ED
:100D4000A201C1010E945905CE0101966C0E7D1EC3
:100D5000680E791E77FC07C021E0E21AF1086E18D0
:100D60007F086E187F08EC01BFCFDF91CF911F91F4
:100D70000F91FF90EF90DF90CF90BF90AF909F903A
:100D80008F907F906F905F904F903F902F9008953D
:100D90002091740190917301213208F04AC0809132
:100DA00050018111FCCF32E03093500131E030939B
:100DB0004F013FEF30934E0110924D0120934C01B3
:100DC000A3E5B1E04CE251E0FA013E2F341B3217AB
:100DD00018F43D913193F9CF10922B0120912B0102
:100DE000990F922B90932B0190912A01913061F4ED
:100DF00010922A0190912B019093BB009091BC001E
:100E000093FDF8CF95EC01C095EE9093BC009091C6
:100E100050019230E1F390914E019F3F79F0809123
:100E20004E01803241F080914E01803331F084E0F8
:100E300005C081E003C082E001C083E0109252014E
:100E40001092740110925101089590E0FC01EC554C
:100E5000FC4F3491FC01E057FC4F2491FC01E45815
:100E6000FC4FE491EE2309F43BC0332339F13330D6
:100E700091F038F43130A9F0323001F584B58F7D2E
:100E800012C0373091F03830A1F03430B9F480918D
:100E900080008F7D03C0809180008F7780938000D9
:100EA0000DC084B58F7784BD09C08091B0008F7765
:100EB00003C08091B0008F7D8093B000F0E0EE0F12
:100EC000FF1FEE58FC4FA591B4918FB7F894EC91A9
:100ED000611103C020952E2301C02E2B2C938FBFB0
:100EE0000895CF93DF9390E0FC01E057FC4F2491ED
:100EF000FC01E458FC4F8491882361F190E0880F55
:100F0000991FFC01E859FC4FC591D491FC01EE58A2
:100F1000FC4FA591B491611109C09FB7F8948881E5
:100F2000209582238883EC912E230BC0623061F4DC
:100F30009FB7F8943881822F809583238883EC9122
:100F40002E2B2C939FBF06C08FB7F894E8812E2BD1
:100F500028838FBFDF91CF9108958F929F92AF9298
:100F6000BF92CF92DF92EF92FF926B017C010E94C1
:100F700049034B015C01C114D104E104F104F1F017
:100F80000E944903DC01CB0188199909AA09BB0910
:100F9000883E9340A105B10570F321E0C21AD10843
:100FA000E108F10888EE880E83E0981EA11CB11CB0
:100FB000C114D104E104F10419F7DDCFFF90EF90E3
:100FC000DF90CF90BF90AF909F908F9008951F9229
:100FD0000F920FB60F9211242F933F938F939F93ED
:100FE000AF93BF938091C7019091C801A091C901AF
:100FF000B091CA013091C60123E0230F2D3720F4B0
:101000000196A11DB11D05C026E8230F0296A11D62
:10101000B11D2093C6018093C7019093C801A0938E
:10102000C901B093CA018091CB019091CC01A091EC
:10103000CD01B091CE010196A11DB11D8093CB01D0
:101040009093CC01A093CD01B093CE01BF91AF910D
:101050009F918F913F912F910F900FBE0F901F90F6
:101060001895862F5F982B9A2D989CB59F7B9CBDD9
:101070002D9A9CB590649CBD0E9470035F9A089560
:10108000862F5F982B982D989CB59F7B9CBD2D9AA1
:101090009CB590649CBD0E9470035F9A08956CE2B9
:1010A0000E9440085F980895AF92BF92CF92DF925E
:1010B000EF92FF920F931F93CF93DF93EC015B01AD
:1010C0007A0169016AE20E944008B501CE010E94DE
:1010D0007703B601CE010E9477036BE2CE010E9436
:1010E0004008B701CE010E947703B801CE01DF911D
:1010F000CF911F910F91FF90EF90DF90CF90BF9015
:10110000AF900C9477030F931F93CF93DF93EC0171
:101110006930710519F06A35710571F48AE590E05E
:101120009D838C8380EF90E09F838E8380E491E0A9
:101130009987888718E434C06231710519F0643BDF
:10114000710571F484EB90E09D838C8380E491E0E1
:101150009F838E8380EF90E09987888718E320C073
:101160006B31710521F07E7F6E30710571F48EE078
:1011700091E09D838C8380EF90E09F838E8380E459
:1011800091E09987888718E80BC01D821C8280E453
:1011900091E09F838E8380EF90E09987888718EE97
:1011A00066E3CE010E944008612FCE010E94310803
:1011B000E881F98108851985015011092E813F8147
:1011C000215031090680F781E02D40E050E060E0D9
:1011D00070E0CE010995DF91CF911F910F91089595
:1011E0008F929F92AF92BF92EF92FF920F931F93B5
:1011F000CF93DF93EC017B01E881F98108851985A4
:10120000015011092E813F81215031090680F7815B
:10121000E02D40E050E060E070E00995E881F98160
:101220000084F185E02DCE010995AE81BF8128852E
:1012300039850E94BD0E4B015C0183E0B694A794F2
:10124000979487948A95D1F7E881F9818114910464
:10125000A104B10409F444C00284F385E02DB70170
:10126000CE010995E881F9810284F385E02DB7016B
:10127000CE010995E881F9810284F385E02DB7015B
:10128000CE010995E881F9810284F385E02DB7014B
:10129000CE010995E881F9810284F385E02DB7013B
:1012A000CE010995E881F9810284F385E02DB7012B
:1012B000CE010995E881F9810284F385E02DB7011B
:1012C000CE010995E881F9810284F385E02DB7010B
:1012D000CE01099581E0881A9108A108B108B4CF20
:1012E0000484F585E02DCE01DF91CF911F910F9100
:1012F000FF90EF90BF90AF909F908F90099485EDF5
:101300008093BC008091BC0084FDFCCF1092500102
:10131000089540911C02262F30E0240F311D213208
:101320003105DCF4209150012430C9F4FC0180E047
:1013300090E0861758F430911C022191DC01A650F0
:10134000BE4FA30FB11D2C930196F3CF80911C02C9
:10135000680F60931C0280E0089581E0089582E0A8
:1013600008950895E091F9018091F801E81730F4AB
:10137000F0E0E852FE4F808190E008958FEF9FEFFC
:1013800008959091F9018091F801981750F4E92F90
:10139000F0E0E852FE4F208130E09F5F9093F9012A
:1013A00002C02FEF3FEFC90108958091F80190E04E
:1013B0002091F901821B91090895CF92DF92EF925B
:1013C000FF920F931F93CF93DF937C01262F972FCC
:1013D0008A0180915101882391F0C62FD72F6E0189
:1013E000C40ED51ECC15DD0571F06991D701ED91C4
:1013F000FC910190F081E02DC7010995F3CF642F96
:10140000822F0E948909C801DF91CF911F910F910E
:10141000FF90EF90DF90CF900895CF93DF931F92CE
:10142000CDB7DEB76983209151012223D1F02091FD
:101430007401203240F021E030E0FC01338322834C
:1014400080E090E015C080915201E82FF0E0ED5A65
:10145000FE4F998190838F5F809352018093740136
:1014600005C061E0CE0101960E94890981E090E00B
:101470000F90DF91CF9108951F920F920FB60F92A8
:1014800011242F933F934F935F936F937F938F9389
:101490009F93AF93BF93EF93FF938091B900887FA1
:1014A000803609F49CC068F5883209F45BC090F47A
:1014B000803109F454C038F4882309F4F6C0883028
:1014C00009F44DC0F6C0883109F44CC0803209F4EB
:1014D0005DC0EFC0803409F468C048F4803309F47B
:1014E00055C0883309F0E5C080934E01D8C08035DF
:1014F00009F44FC0883509F45DC0883409F0D9C0BB
:10150000D6C0883909F4C7C0A8F4883709F467C081
:1015100038F4883609F463C0803709F460C0C9C064
:10152000883809F4B8C0803909F45FC0803809F000
:10153000C0C05BC0803B09F486C038F4803A09F42F
:1015400066C0883A09F47FC0B4C0803C09F4A7C0E3
:10155000883C09F4A4C0883B09F48AC0AAC08091E1
:101560002B0110C090914D0180914C01981770F59E
:10157000E0914D0181E08E0F80934D01F0E0E45D3C
:10158000FE4F80818093BB0085EC86C080934E0126
:101590008EC0E0914D0181E08E0F80934D018091CE
:1015A000BB00F0E0E45DFE4F808390914D0180919F
:1015B0004C016EC0E0914D0181E08E0F80934D0192
:1015C0008091BB00F0E0E45DFE4F808380914F018D
:1015D00081116DC081E080932A0184EA61C083E0BB
:1015E0008093500110924002CFCF80914002803210
:1015F00008F051C0E091400281E08E0F80934002DC
:101600008091BB00F0E0E05EFD4F8083BDCF85ECB4
:101610008093BC001092500180914002803230F4DF
:10162000E0914002F0E0E05EFD4F108260914002E8
:1016300070E0E0911E02F0911F0280E292E00995B5
:101640001092400236C084E08093500110921D0237
:1016500010921C02E0911A02F0911B0209958091F0
:101660001C02811105C081E080931C021092FA01D6
:10167000E0911D0281E08E0F80931D02F0E0E650A4
:10168000FE4F80818093BB0090911D0280911C02CF
:10169000981708F479CF85E88093BC000AC085ECE0
:1016A0008093BC001092500104C010924E010E9421
:1016B0007F09FF91EF91BF91AF919F918F917F91A2
:1016C0006F915F914F913F912F910F900FBE0F90AF
:1016D0001F901895E5E7F1E01382128288EE93E0FF
:1016E000A0E0B0E084839583A683B78386E091E091
:1016F00091838083E5E8F1E01382128215821482DF
:1017000080E491E09783868380EF90E091878087E3
:10171000178616861586148613861286178A168AE9
:10172000158A148A138A128A118A108A10AA11AA99
:1017300012AA13AA81E084AB85AB17AA16AA8FEF71
:101740009FEF91AF80AF1092C4011092C30115AE0C
:1017500014AE13AE12AE86E191E09183808389E0EE
:10176000809384018AE0809383018AE090E09093E3
:101770008201809381010895789484B5826084BD4C
:1017800084B5816084BD85B5826085BD85B5816085
:1017900085BD80916E00816080936E001092810003
:1017A00080918100826080938100809181008160BE
:1017B000809381008091800081608093800080917F
:1017C000B10084608093B1008091B000816080930B
:1017D000B00080917A00846080937A0080917A00D2
:1017E000826080937A0080917A00816080937A0091
:1017F00080917A00806880937A001092C10061E045
:1018000088E00E947107289861E089E00E947107D2
:1018100061E087E00E94710761E08DE00E9471073E
:1018200061E08BE00E94710760E08CE00E9471072C
:1018300029985F9A61E086E00E9471075E9A88E0CD
:101840008093C5018CB5837F8CBD8CB58F7D8CBD9D
:10185000CFB7F8948091CF01811127C0E6E8F3E07B
:101860008491EAE9F3E09491E82FF0E0EE0FFF1F96
:10187000E859FC4FA591B491EC91E92321F461E082
:101880008AE00E94250761E08AE00E9471078CB51A
:1018900080618CBD8CB580648CBD61E08DE00E9460
:1018A000710761E08BE00E9471078091CF018F5F2B
:1018B0008093CF01CFBF8CB58C7F81608CBD8DB5FF
:1018C00081608DBD5F9A289862E370E080E090E0CF
:1018D0000E94AD07289A68E770E080E090E00E94DF
:1018E000AD07E8EBF3E08F010F5F1F4F64916F3F8F
:1018F000B1F1862F807C8038B9F0803C49F180348A
:1019000011F0F801F0CFC62FCF737F01DC2FFFEF6E
:10191000EF1AFF0ADD23C9F0F701649185E891E031
:101920000E944008D150F3CFC62FCF737F01DC2F28
:10193000FFEFEF1AFF0ADD2341F0F701649185E81C
:1019400091E00E943108D150F3CF0C0F111DD9CF77
:101950006F7370E080E090E00E94AD07D2CF60E04E
:1019600070E085E891E00E94F0088CB58C7F8CBD1A
:101970008DB58E7F8DBD61E089E00E947107EDEA33
:10198000F3E0E491E33019F150F4E130D1F0E230CA
:10199000E1F584B5806284BD8FE788BD3AC0E73049
:1019A00011F1E83049F1E43081F5809180008062E6
:1019B000809380008FE790E090938B0080938A0063
:1019C00028C084B5806884BD8FE787BD22C0809120
:1019D00080008068809380008FE790E0909389007A
:1019E0008093880016C08091B00080688093B0001A
:1019F0008FE78093B3000DC08091B0008062809328
:101A0000B0008FE78093B40004C060E089E00E94DA
:101A100025076FEF7FEF85E891E00E94F00860E016
:101A200070E085E891E00E94830887B1806387B900
:101A300088B1806388B91092F9011092F801109270
:101A400052011092740110925001C1E0C0934F01F5
:101A500010922A0161E082E10E94250761E083E1A2
:101A60000E9425078091B9008E7F8093B9008091F4
:101A7000B9008D7F8093B90088E48093B80085E435
:101A80008093BC00C093510182E580937301109252
:101A900052011092740160E485E791E00E940D0A02
:101AA00060E085E791E00E940D0A0E94C806E12CE3
:101AB000F12C40918B0150918C014E155F05B0F0D7
:101AC00000E010E09701B70180E090E00E94590526
:101AD00020918B0130918C01A70160E070E0C7017B
:101AE0000E94590584E1E80EF11CE3CFC1E0DFEF6D
:101AF00025E0F22E35EEE32E45ECD42E08ED11E074
:101B000057E1C52E62E5B62E809150018111FCCFC0
:101B1000C0935001C0934F01D0934E0110924D01DC
:101B2000F0924C01C0932B0180912B01846A809329
:101B30002B0180912A01813069F410922A01809151
:101B40002B018093BB008091BC0083FDF8CFD09225
:101B5000BC0002C0E092BC00809150018130E1F3F2
:101B600080914D01863018F4A0904D0102C096E09E
:101B7000A92EACE2B1E0E8EDF1E08E2F801B8A15D2
:101B800018F48D918193F9CF1092F901A092F80188
:101B900082ED882E81E0982E8091F901A81651F0EF
:101BA00085E791E00E94C1098C25895EF40181934B
:101BB0004F01F2CFC0935101B092730110925201C4
:101BC0001092740160E085E791E00E940D0A0E9486
:101BD000C8062091D2012093D1019091D301909316
:101BE000D001809101012D3810F08F5F03C02237A2
:101BF00018F48150809301019D3820F080910001FC
:101C0000815005C0923728F4809100018F5F809346
:101C1000000180910101813009F455C028F18FE362
:101C20009CE90197F1F700C000004091840150E069
:101C30006091830170E02FEF3FEF809181019091DF
:101C400082010E9458066091830170E080918101B9
:101C5000909182014496909382018093810120E0CB
:101C600038EF49E050E02BC08091810190918201D2
:101C7000459748F1EFE3FCE93197F1F700C0000028
:101C80004091840150E06091830170E02FEF3FEFBD
:101C900080918101909182010E94580640918401B7
:101CA00050E06091830170E0809181019091820108
:101CB0004497909382018093810120E038EF0E9445
:101CC0005806C093010180910001813009F447C09A
:101CD000D8F08FE39CE90197F1F700C00000409134
:101CE000840150E06091830170E02FEF3FEF80911D
:101CF0008101909182010E9458064091840150E038
:101D0000609183016C5E1EC080918301853138F142
:101D1000EFE3FCE93197F1F700C000004091840146
:101D200050E06091830170E02FEF3FEF80918101DF
:101D3000909182010E9458064091840150E0609188
:101D4000830164516093830170E020E038EF80915B
:101D50008101909182010E945806C0930001609118
:101D6000830170E020E038EF49E050E0809181018C
:101D7000909182010E945806C7CE0E94D70E33234D
:101D800012F48A1B9B0B0C94C70E0E94D70EB7FF50
:101D90000895821B930B0895EE0FFF1F0590F49199
:101DA000E02D099481E090E0F8940C94E60EA29F57
:101DB000B001B39FC001A39F700D811D1124911D1F
:101DC000B29F700D811D1124911D0895F894FFCFCD
:101DD0000101000000000D0ADD09D509C109B209A1
:101DE000B10900000000BE031E03830854084F0819
:0A1DF0009C036E033C042A04140057
:00000001FF
