:100000000C94880B0C948A1C0C94B00B0C94B00BC1
:100010000C94B00B0C94B00B0C94B00B0C945C1DB6
:100020000C94B00B0C94B00B0C94B00B0C94B00B64
:100030000C94B00B0C94B00B0C94B00B0C94B00B54
:100040000C941D240C94B00B0C949F230C947923D6
:100050000C94B00B0C94B00B0C94B00B0C94B00B34
:100060000C945C1B0C94B00B00000000000000001E
:1000700030787830300030006C6C6C00000000008C
:100080006C6CFE6CFE6C6C00307CC0780CF8300040
:1000900000C6CC183066C600386C3876DCCC7600EA
:1000A0006060C00000000000183060606030180020
:1000B000603018181830600000663CFF3C66000095
:1000C000003030FC30300000000000000070306074
:1000D000000000FC000000000000000000303000C4
:1000E000060C183060C0800078CCDCFCECCC7800CA
:1000F00030F030303030FC0078CC0C3860CCFC0074
:1001000078CC0C380CCC78001C3C6CCCFE0C0C0071
:10011000FCC0F80C0CCC78003860C0F8CCCC78006F
:10012000FCCC0C183060600078CCCC78CCCC78005B
:1001300078CCCC7C0C1870000000303000303000DF
:100140000000303000703060183060C0603018003F
:100150000000FC00FC0000006030180C183060004B
:1001600078CC0C18300030007CC6DEDEDEC07800B3
:100170003078CCCCFCCCCC00FC66667C6666FC009F
:100180003C66C0C0C0663C00FC6C6666666CFC00E9
:10019000FE6268786862FE00FE6268786860F0005F
:1001A0003C66C0C0CE663E00CCCCCCFCCCCCCC00F7
:1001B00078303030303078001E0C0C0CCCCC78000D
:1001C000E6666C786C66E600F06060606266FE0071
:1001D000C6EEFED6C6C6C600C6E6F6DECEC6C6006B
:1001E000386CC6C6C66C3800FC66667C6060F00081
:1001F00078CCCCCCDC781C00FC66667C786CE600A5
:1002000078CCE0381CCC7800FCB43030303078004A
:10021000CCCCCCCCCCCCFC00CCCCCCCCCC78300076
:10022000C6C6C6D6FEEEC600C6C66C386CC6C600CC
:10023000CCCCCC7830307800FECC983062C6FE0052
:100240007860606060607800C06030180C06020062
:10025000781818181818780010386CC600000000BC
:1002600000000000000000FF303018000000000017
:100270000000780C7CCC7600E0607C666666BC0092
:10028000000078CCC0CC78001C0C0C7CCCCC760068
:10029000000078CCFCC07800386C60F06060F00042
:1002A000000076CCCC7C0CF8E0606C766666E600EC
:1002B0003000703030307800180078181818D87076
:1002C000E060666C786CE60070303030303078007A
:1002D0000000ECFED6C6C6000000F8CCCCCCCC00AA
:1002E000000078CCCCCC78000000DC66667C60F046
:1002F000000076CCCC7C0C1E0000D86C6C60F0004A
:1003000000007CC0780CF80010307C3030341800CD
:100310000000CCCCCCCC76000000CCCCCC7830002B
:100320000000C6C6D6FE6C000000C66C386CC60065
:100330000000CCCCCC7C0CF80000FC983064FC00B5
:100340001C3030E030301C00181818001818180045
:10035000E030301C3030E00076DC000000000000AF
:1003600010386CC6C6C6FE004128D441CF83008336
:100370003041ED846403128141E88385017941CBEA
:1003800085392C00340241F7812041EA8200004186
:10039000C0812641C1811141C582353E41C781BE20
:1003A00041B182001B41F281084126810141E08F69
:1003B0001F1A180A0F064587320A0702070500416F
:1003C000E18F0025270510093A784D05180D383AB8
:1003D0001F41B6840A82270041B78107413A8155FF
:1003E000413681E8412A82000082013F412B820090
:1003F000008200EF4111FCFC4129D4FFFF666666D4
:100400006666666666666666666463626462606F98
:100410006D6C73787B6B777F73818A6B767D747775
:10042000796C6A6864626164636366666666666660
:10043000666666666666666666666666666666665C
:1004400066666463627882896E7F8B617785576E9A
:100450007C7E8D97FFFFFF596D7B5A717F63798793
:100460006E7F89767D8264636366666666666666AD
:100470006666666666666666666666666666646321
:1004800063747A7E5A7484687F8D687F8D687E8CF1
:10049000B7C1C860788769808E677E8C5D77877406
:1004A00075766464646666666666666666666666D3
:1004B00066666666666666666666656565666666DF
:1004C000635955000000000000000000000000001B
:1004D00000000000000000006F645F6364646666F3
:1004E00066666666666666666666666666666666AC
:1004F000666666666666666666585C5FF2C2A9D422
:10050000A68E81655754423946372F5A473D8E6F24
:1005100060E6B49ACAA6935C60626A6A6A666666B6
:10052000666666666666666666666666666666666B
:100530006666666666585D5FE0B49DE0B097D9A8D0
:100540008FDBA990EEBCA2E0AF96D2A189E2B19870
:10055000C9A89755595B3C3B3B6A6A6A6666666602
:10056000666666666666666666666666666666662B
:1005700066585D5FE0B49DDEAD93C0ABA4D7B9AA69
:10058000DAAA91E4BCA8B3A7A5E1AE93C7A5936787
:100590006B6D1717176C6C6C6666666666666666CA
:1005A00066666666666666666666666666585D6008
:1005B000DEB19ADDAD94C7A798D6AE99DFAF95E3CB
:1005C000B79FBA9D92E1AF95C7A5936165671C1C63
:1005D0001C737373656565666666666666666666E1
:1005E000666666666666666666585D5FE2B49DDC52
:1005F000AD94D7A891B99280BB9685B89280DCACB7
:1006000093DEAE95C6A4925F63653838385C5C5C57
:100610006767676666666666666666666666666677
:100620006666666666575C5EEEC0A9DBAD94D6A8CA
:10063000925E4643685454654B47DCAD95DFAF96F8
:10064000C6A4925C60625B5B5B3436386A6A6A6639
:10065000666666666666666666666666666666663A
:1006600066575C5EF5C4ABE5B297D7A68FA98D84BB
:10067000C6B2AAA78B80DDAC93E8B499CCA49159FB
:100680005D5F7A7B7B6C594566686A656565666601
:10069000666666666666666666666666665E60610D
:1006A000A3958E8F837EA1897F9B7F738C6C5E9CCC
:1006B0007F73A28B81938781968C8763696D7C7829
:1006C0006B69553F696B6D656565666666666666EE
:1006D0006666666666666565656F6D6C4E5B6237FD
:1006E0004C583349564962701D2B34445D6A364B71
:1006F00056384C5726363D28384056626966676939
:10070000676767656565666666666666666666658A
:10071000656568686857626829373E4D5D674A5B62
:10072000655367731B23275266723E4E57626F777D
:100730006A6E70656C706B6969656565656565662F
:1007400066666666666666666666666263638A8411
:1007500081253842676D7053636B495B65516571E4
:100760002E3A41516571485A655C6A7267656366E5
:10077000656565656566666666666666666666661E
:10078000666666666666665E6061BFA19187817E09
:100790006A686755677151667250657146565F5356
:1007A00068754D626D5D6D756765646666666666E3
:1007B00066666666666666666666666666666666D9
:1007C0006666666666665E60616263636D6D6D1B1C
:1007D00018190D0B0C1F1A1A4E5C651C18171F1BDD
:1007E0001C514F4F68686866666666666666666630
:1007F0006666666666666666666666666666666699
:1008000066666666666666666B6B6B333334262196
:10081000204B45427A7A7A28201D342F2F73747426
:10082000656565666666666666666666666666666B
:100830006666666666666666666666666666666658
:10084000666666666464648D8D8C221B194842421C
:100850006F7070352E2D342E2C79797A656565662A
:100860006666666666666666666666666666666628
:10087000666666666666666666666666666565651B
:100880007272720303020000002C2C2C7575761214
:1008900012110000001A1A196D6D6D6666666666A3
:1008A00066666666666666666666666666666666E8
:1008B00066666666666666666666666666666666D8
:1008C00066666666666666666666666666666666C8
:1008D00066666666666666666666666666666666B8
:1008E00066666666666666666666666666666666A8
:1008F0006666666666666666666666666666666698
:100900006666666666666666666666666666666687
:100910006464646061646262636666666666666299
:1009200062625B5B5D66666666666666666666668E
:100930006666666666666666666666666666666657
:100940006666666666666666666464646468709A0F
:100950008D6E797B805F5F61626262828282C2C5D6
:10096000BC666666666666666666666666666666D1
:100970006666666666666666666666666666666617
:100980006666646464595C63E1CB93BBAD88EFCE6B
:100990007875767A58595B9499A0FFD44966666653
:1009A00066666666666666666666666666666666E7
:1009B00066666363636767676565656666666A6AD8
:1009C0006B9B9995F4D9925A5F6A77797FF0CE76CE
:1009D000767A846A7080E6CE81666666666666664A
:1009E0006666666666666666646464616161898976
:1009F000895C5C5C7A7A7A5C5C5C828487433412C2
:100A00008585836161625E5F617B7A77EACA79F08E
:100A1000D081B6B0A066666666666666666666661D
:100A2000666464647474748888882B2B2B1C1C1C6B
:100A30000A0A0A000000A0A0A00506096767686509
:100A4000656566666660616265686F676A715F604A
:100A50006366666666666666666665656564646442
:100A60007878783E3E3E4E4E4E4E4E4E38383815D3
:100A700015150000000505055D5D5D7676766464FC
:100A80006466666664646464646465656566666617
:100A90006666666666666363638888883232327229
:100AA0007272757575717171505050282828090936
:100AB000090B0B0B0000007575756565656666664C
:100AC00066666666666666666666666666666666C6
:100AD00066666767675252526A6A6A818181979730
:100AE000978A8A8A5C5C5C3030300A0A0A0B0B0BEE
:100AF0000505054343437171716565656666666604
:100B00006666666666666666666666666666686881
:100B1000685656563636366666668484847C7C7C97
:100B20005A5A5A2B2B2B0808080B0B0B0808081FC6
:100B30001F1F7171716565656666666666666666C5
:100B400066666666666666666666696969424242A8
:100B50002F2F2F55555565656561616149494916C6
:100B600016160E0E0E0B0B0B0707071D1D1D7272BE
:100B7000726565656666666666666666666666660C
:100B80006666666666666666666363631B1B1B3D18
:100B90003D3D4A4A4A424242222222171717121268
:100BA000120A0A0A0C0C0C4F4F4F6E6E6E6565658B
:100BB00066666666666666666666666666666666D5
:100BC00066666363638E8E8E1B1B1B2C2C2C32324D
:100BD000322727272222221C1C1C1212120E0E0E54
:100BE00000000078787863636366666666666666AA
:100BF0006666666666666666666666666666646499
:100C0000646F6F6F6B6B6B1F1F1F2E2E2E29292990
:100C10002222221919192323231616164848487927
:100C20007979727272646464666666666666666620
:100C3000666666666666666565656767676464645A
:100C40006969695454541717170F0F0F0C0C0C12C5
:100C500012120F0F0F3C3C3C707070626262797927
:100C60007964646466666666666666666666666617
:100C7000666666666666646464626262646464672B
:100C800067676E6E6E5555554646464E4E4E6C6CB9
:100C90006C686868656565666666646464666666F1
:100CA00066666666666666666666666666666665E5
:100CB00065656E6E6E8A8A8A7575757777776A6AEA
:100CC0006A68686869696968686866666689898942
:100CD00063636365656566666666666666666666C0
:100CE00066666666666666666666666666666565A6
:100CF000656262626363636E6E6E65656565656598
:100D00006666666666666565656262626565656695
:100D10006666666666666666666666666666666673
:100D20006666666666666666666666666666666663
:100D30006666666565656565656666666666666659
:100D40006666666666666666666666666666666643
:100D50006666666666666666666666666691714B18
:100D6000DFC094CDAC81C3A478CCAC85ECD2B1E427
:100D7000C8A3E9C9A3DDBD96E4C8A3F5D9B4E0C012
:100D800099E0C09AD4B891EBD1AED0B089C8A87F11
:100D9000C9A980D8B88FC9A87FDBBB92B4926CCBAD
:100DA000A87ED7B68BAD8B5ECAA77DC5A47BA78472
:100DB0005A9271488B6A3FA3825797764D967D5E13
:100DC000C09F76D4B187BC9A6DD3B287DCBB90BF8D
:100DD0009E71BE9C6FC6A57AAB8A5FB3936ACAAA9E
:100DE00084C4A47DD4B99BDFCDB5D3C0A2C2AB82ED
:100DF000D2B68FD5B992DFC8A8BDA57FCDAF8BD2B3
:100E0000B895C0A27CCBB495C4A380C19F72A987BA
:100E10005AC3A478CBAA81C7A67DC2A27CCEAE87D6
:100E2000B19065917754A7865DA3835D7456308B2E
:100E30006E46B6956CB5956FA6845EA07F568461AC
:100E400039B89A74583E23BD9C71B99970C7A77E72
:100E5000AE8C5FC1A17AA38056D0B089D9B791B5C5
:100E60009469B29877BD9D767A593078552BE3C155
:100E70009BA18055B7966DB29168916E44C7A780CB
:100E800054391CB59268E3C59FEAD0ADBC996FD8C0
:100E9000BA94C9A87DB39066BF9F78D4B38AB08F47
:100EA00066A08363A5845B97764DD5B58CBC9B709B
:100EB00097764BB18E6698774EC6A67F563B1EC47A
:100EC000A47DDEBE97DBBE9CB8976EEBD5BD8F735D
:100ED0004ECCAB80AF8C62D0B087C7AA88C2A27953
:100EE000775B36907047DDC9B0B19067A4835AAC88
:100EF000895FA7865DC8AE89523719BD9C73C3A2AE
:100F000077E7C7A0A9885FD7BB96AA8A63A48B6C32
:100F1000C7A780BFA580CFB28ACAA980BA9A7389B1
:100F20006C4AD7B790CFAE85AC8C65A8855B9B7BB0
:100F300052BD9F79583F21AE8D64CAA980D7B79022
:100F4000A18057D0B691A28259BEA27D9A7D55D07C
:100F5000B28C9D7A50B79770B5946BC3A37CBEA634
:100F600084A4845DB08F66B6956C8D6F49AB8D6738
:100F7000604729B39164DCBB92EBCDA78B6A3FDB62
:100F8000BD99AD8D66D6BA95B18C609A805FE0C28E
:100F90009CA38056BA9A73B2926BC7A77E785C37CF
:100FA000B4946EB9986D7D5F39BA9C7661482AB465
:100FB0009167B19065F1D5AE846338D5B7938664F7
:100FC0003EE3C7A2AD885BB99972C2A887E0C39B14
:100FD000926F45B09069B3936CCBAB84977A58AE5F
:100FE0008D64846640AD8D66695032A9875AAF8C96
:100FF00062D7B7909E7D54D2BEA37D5D37DBBD978F
:10100000997447D2BDA2DBC6A9A98C6AE0C29CA292
:101010007F55BC9D7EAC8C63C9A9827F6544856782
:1010200041C7AF95584122AE8C5FDAB990E6C6A0B1
:10103000A98B67D7BE958B6A41DBBD97C29D71D0E6
:10104000B389D9BB95C2A47E5E3C16E5C9A4B4930E
:101050006AB5956EA4845BCAAD85684D2FBA9C763F
:10106000563F20AF8E63CDAB85DDC19CB29168E366
:10107000CAA288673ECBAB849C774BDBBD97CFAED3
:1010800083CEB189936E42C0A683E6CAA3BB9A7190
:10109000CEAC86AD8D66CCAC859C8364523A20BDC7
:1010A0009D74C6A57AEBD1B0BF9C72D5B992AC8CB9
:1010B00063CAAA818B683EDFC39EC2A178C8AB8396
:1010C000A27D51CEB08A886B43D7BB94B7966DC8CA
:1010D000A77EAD8D66D9BC9439250DC8A680DBBB33
:1010E00094D0B087AC8A5DC4A6809E7E58A4845BF1
:1010F0007B5A31D7B993D2B895D0B089C5A376DAE7
:10110000BC969E7C4FA68A65F9DBB5CEAD84BB99B3
:1011100073CBB293B8A07EB9986DE2C49EC7A77E88
:10112000CFAE85D6C3A5A7896595754C6C4E28C5ED
:10113000AB86A48358BD9F79A9885DB89C77A786A4
:1011400059D2B68FB19879E2C69FB5946BAD8D66D2
:101150009D805EBD9C6FC1A178CFAE83A8875CB730
:10116000946AF9E9C8FCE7CAFEEFD8FDF1D7FFF4AD
:10117000DAFFFAE0FFF2D8FFF0D7FFF3D9FFF2DB96
:10118000FFF8E2FFEDD5D0B48FD6BA95B89A76C500
:10119000A375AD8B5ED8B98BB5926AAF8E65C1A0D1
:1011A00075C6A175C2A176AE8E67B3926798774E69
:1011B000A78256A984578D6C43AD8A60A6865FB519
:1011C0009469C4A275BA976DB19168BA9970B998CB
:1011D0006DD2B58DC7A57FCFAE83D3B38CCBAB8497
:1011E000E3C9A6E8CEABD4B48DE7C9A3F2D4B0E886
:1011F000CAA4E6CAA3DDBD96EACEA9E8CEADD8B8AA
:1012000091CFAF86C9A980C6A57CD5B48B3F3D3BA5
:10121000413F3E3A38372726263D3D3D3A3A3A3C53
:101220003C3C3F403F2A282739373642404047461A
:10123000444644422D2B2A2E2B2A42403F42403F17
:101240003F3B392523223D3B3A3533323231303171
:101250002F2E2B29273737363B3A393D3D3B343348
:101260003325242337353436353431302F31302F80
:101270001E1D1C26242435333232312F37343220C0
:101280001F1D31302F1311111C1A1922201E151485
:10129000131D1B1B1C1B1B2020202222221716158E
:1012A0001A19181514142120202C2B2B2B2A2A2B29
:1012B00029272421202423223737352D2D2B282799
:1012C000262926253331313533322A272638333241
:1012D0003132313F413F3D3E3C28262639383730B8
:1012E0002E2E333232403E3F3837363733303632A7
:1012F000302F2E2C3B3A383838353735331D1C1BF0
:101300002927272C2B2B19161624212023232232A0
:10131000333130312F2120202423232221221F1F6B
:101320001E1D1C1C1D1C1C2C28262622201B1A19C5
:101330002C2D2B30302F282725393634302E2D23D5
:1013400022223434343938393636362E2D2C3C3B73
:101350003A3D3C3B302E2D3130303F3D3D43414105
:10136000484746201F1E3C3E3E424342343331250F
:1013700023213D3A384746464443442D2B2B4646CD
:10138000484040423A393A2C2B2B3E3C3D434141A8
:10139000403E3D2928284443423F3E3D3D3C3B25BD
:1013A0002423474846444544444644302E2C413F7C
:1013B0003E1B1A191A19171F1D1D1B1B1A1A191962
:1013C0002524231B1A19201E1E1F1E1D1B1A19154A
:1013D00014131514131615141A19181B19181716A7
:1013E000152625242524231F1E1E2322223F3F418C
:1013F0003B393848464545434143413F2C2A2A3E24
:101400003D3C413F3F3533332827262C2B2A211FD3
:101410001E33312F3A373544403D1B1A1944444698
:101420004A4A4B444446444446313132211F1F3816
:1014300037363736343332322322223E3D3E414066
:1014400040312F303C3B3A434241222120403E3D37
:10145000403E3E4A474621201F47484A3E3E3F3CC9
:101460003C3E3737391818191D1D1E15151619174A
:1014700017332F2C312D2A211E1D1817171E1D1D45
:10148000232221201E1E333233232324232324200E
:101490001F201211101615151A1A1A1615161312E6
:1014A000134547484142443E3F412B28263B3633B3
:1014B0003E3835342E2B302F2E403F3D3F3D3D24CE
:1014C00023234041423E3E404445463D3E3F272681
:1014D000253936333F3A372422203D3E401717172F
:1014E0002525263030311B191734302D322E2C2B68
:1014F00027252625253635333735341B1A1A34353A
:10150000362C2D2E38383A292A2B211F1E2C2B2A17
:1015100033312F24211F1717182625241B1A1816BC
:101520001412302F2D2B29283432301E1D1D39382E
:1015300039343334343334202020211F1D1F1C1A2A
:1015400019181731302F3331303332301716152E2A
:101550002E2D3533332C2B2B44413E312F2D3A3851
:1015600037413F3E3E3C3B2827273E3E3F3E3D3FE6
:101570004241432B2A2B3F3A363F3935201E1D4628
:1015800045444E4C4B51504F2A2928484746454424
:1015900043201E1E201F1E1A19181818171C1C1B6A
:1015A000222120171615201F1F1E1D1D1B1A1A167B
:1015B00015151A18171E1C1A1716151D1C1C1E1C93
:1015C0001D292828201F1E1E1D1D28272623201FF9
:1015D0003A37353C3937403C3A423F3C201F1E36B3
:1015E00033302D2A282E2C2B413E3B44413E2523CF
:1015F000224A4A474A4A4644454141413F1F1F1F2C
:101600002C2B2A2825222B28261E1C1C44423F4214
:10161000403E464342423F3D201F1E3D3B393A3744
:1016200035353331413E3C4743402524224A4B481F
:10163000494A4846474443454323222044413F46C4
:10164000423E3B3735151514232120211F1E272527
:10165000251D1C1B12100F24211F221F1D141313E4
:101660001E1E1E1C1C1B12111122201F1816141CDA
:101670001C1B2426240E0C0C1614131C1B192321CE
:101680001F43413F4845433C393721201F3F3F3DE1
:101690003838373D3D3D3837372C2A2944434243BB
:1016A0004140413F3E41403E2D2B2A2E2C2B3F3CBA
:1016B0003B3835333B3835242221403E3B00000087
:1016C0000800020100000304070000000000000001
:1016D0000000000000250028002B0000000000246E
:1016E0000027002A00040404040404040402020283
:1016F0000202020303030303030102040810204053
:10170000800102040810200102040810200095370F
:1017100011241FBECFEFD8E0DEBFCDBF12E0A0E0A6
:10172000B1E0E0EAF2E702C005900D92AA34B107F9
:10173000D9F724E0AAE4B2E001C01D92A73CB207A9
:10174000E1F71BE0C8E8DBE004C02197FE010E943E
:101750002638C738D107C9F70E94E4330C944E39B4
:101760000C9400002F923F924F925F926F927F9263
:101770008F929F92AF92BF92CF92DF92EF92FF92A1
:101780000F931F93CF93DF93CDB7DEB7E0970FB6DC
:10179000F894DEBF0FBECDBF6C01BB24B39443E011
:1017A000442E55E0A52E69E0362E76E0272E4E0118
:1017B00089E2880E911CE6E56E2E712C6CE472E0D5
:1017C0008DE492E00E941F2890914C0298ABE0912A
:1017D0004D02EFA7B601CE0101960E942E1E809108
:1017E0004E02813009F03BC190915102913009F0D5
:1017F0002CC150900001F1E05F1233C030E2E32EC3
:101800003DEFF32E08E310E025E930E048E050E03A
:1018100068E070E0CE0101960E94451A5092510294
:101820008FA5823908F43FC05090000191E0591211
:101830001BC0E2E0E0930001E12CF12C25E930E04F
:1018400048E050E068E070E0CE0101960E94451A41
:1018500020E2E22E2DEFF22E25E930E048E050E0C4
:101860001FC0EFA5E239F8F0F3E05F125FC084E03B
:1018700080930001E12CF12C08E310E025E930E031
:1018800046E450E068E070E0CE0101960E94451AFF
:1018900090E2E92E9DEFF92E25E930E046E450E094
:1018A00063EA70E03DC09FA59E3608F03FC080917E
:1018B00000018230C9F4B0920001E12CF12C08E360
:1018C00010E025E930E048E050E063EA70E0CE0146
:1018D00001960E94451A80E2E82E8DEFF82E25E948
:1018E00030E048E050E01AC0843001F54092000139
:1018F000E12CF12C08E310E025E930E046E450E06B
:1019000063EA70E0CE0101960E94451AB0E2EB2E28
:10191000BDEFFB2E25E930E046E450E068E070E0E2
:10192000CE0101960E94451A10925102E8A9EE36A6
:1019300008F044C0809100018130D9F44092000148
:10194000E12CF12C08E310E025E930E048E050E01C
:1019500068E070E0CE0101960E94451AA0E2EA2EEE
:10196000ADEFFA2E25E930E046E450E068E070E0A3
:101970001EC0823009F073C0F4E0F0930001E12C46
:10198000F12C08E310E025E930E048E050E063EA9C
:1019900070E0CE0101960E94451AF0E2EF2EFDEFB5
:1019A000FF2E25E930E046E450E063EA70E0CE0126
:1019B00001960E94451A1092510251C088A982399D
:1019C00008F44DC0809100018330D9F4B092000139
:1019D000E12CF12C08E310E025E930E046E450E08A
:1019E00068E070E0CE0101960E94451AE0E2EE2E1A
:1019F000EDEFFE2E25E930E048E050E068E070E0D1
:101A00001DC0843061F592E090930001E12CF12C2F
:101A100008E310E025E930E046E450E063EA70E0D6
:101A2000CE0101960E94451A70E2E72E7DEFF72E57
:101A300025E930E048E050E063EA70E0CE0101962D
:101A40000E94451AB09251020AC098A99357993141
:101A500030F49FA59357993110F4809351028091EF
:101A60004E02823009F0A9C150905102E1E05E12AD
:101A70009AC180910001853029F560E2E62E6DEF74
:101A8000F62E08E310E02CE430E046E450E068E095
:101A900070E0CE0101960E94451A50925102FFA5B6
:101AA000F23908F45EC080910001853079F420920B
:101AB0000001E12CF12C2CE430E046E450E068E039
:101AC00070E081C0FFA5F23908F44BC0863071F494
:101AD00087E080930001E12CF12C08E310E02CE476
:101AE00030E046E450E060E570E050C08730E1F45B
:101AF00088E080930001E12CF12C08E310E02CE455
:101B000030E046E450E063EA70E0CE0101960E94C6
:101B1000451A50E2E52E5DEFF52E2CE430E046E468
:101B200050E06BEE70E095C0893009F098C09AE003
:101B300090930001E12CF12C08E310E025E930E05E
:101B400044E850E068E070E0CE0101960E94451A3A
:101B500040E2E42E4DEFF42E25E930E044E850E079
:101B600021C0EFA5EE3608F07AC0809100018830E0
:101B7000E1F4F7E0F0930001E12CF12C08E310E030
:101B80002CE430E046E450E06BEE70E0CE010196CC
:101B90000E94451A30E2E32E3DEFF32E2CE430E0B4
:101BA00046E450E063EA70E054C08730D9F42092F4
:101BB0000001E12CF12C08E310E02CE430E046E4D5
:101BC00050E063EA70E0CE0101960E94451A20E2DF
:101BD000E22E2DEFF22E2CE430E046E450E060E5FA
:101BE00070E037C08630C9F4A0920001E12CF12CDE
:101BF00008E310E02CE430E046E450E060E570E0FB
:101C0000CE0101960E94451A90E2E92E9DEFF92E31
:101C10002CE430E046E450E01AC08A3001F53092FE
:101C20000001E12CF12C08E310E025E930E044E864
:101C300050E063EA70E0CE0101960E94451A80E20E
:101C4000E82E8DEFF82E25E930E044E850E068E01A
:101C500070E0CE0101960E94451A1092510288A9A7
:101C60008E3608F059C080910001853069F43092B9
:101C70000001E12CF12C08E310E02CE430E046E414
:101C800050E068E070E00EC08630C9F43092000188
:101C9000E12CF12C08E310E02CE430E046E450E0C5
:101CA00060E570E0CE0101960E94451AB0E2EB2E8D
:101CB000BDEFFB2E25E930E044E850E04DC0873011
:101CC00071F49AE090930001E12CF12C08E310E00C
:101CD0002CE430E046E450E063EA70E010C0883065
:101CE00009F06BC0EAE0E0930001E12CF12C08E37D
:101CF00010E02CE430E046E450E06BEE70E0CE0102
:101D000001960E94451AA0E2EA2EADEFFA2E25E9CF
:101D100030E044E850E044C0F8A9F23908F44DC07E
:101D200080910001893009F5A0920001E12CF12C8D
:101D300008E310E025E930E044E850E068E070E0B6
:101D4000CE0101960E94451AF0E2EF2EFDEFFF2E24
:101D50002CE430E046E450E068E070E0CE0101960B
:101D60000E94451A1092510228C08A3031F587E04E
:101D700080930001E12CF12C08E310E025E930E02C
:101D800044E850E063EA70E0CE0101960E94451AF3
:101D9000E0E2EE2EEDEFFE2E2CE430E046E450E0E3
:101DA00063EA70E0DBCF88A98357893130F48FA5CF
:101DB0008357893110F4B092510280914E028330E2
:101DC00009F070C180915102813009F061C18091A8
:101DD00000018B3089F570E2E72E7DEFF72E08E3E6
:101DE00010E02CE430E046E450E068E070E0CE0122
:101DF00001960E94451A109251029FA59239F0F166
:101E0000809100018B30D9F48CE080930001E12CAB
:101E1000F12C2CE430E046E450E068E070E0CE01C4
:101E200001960E94451A60E2E62E6DEFF62E2CE434
:101E300030E046E450E01FC09FA59239F8F08D30A5
:101E400009F061C08EE080930001E12CF12C08E3E1
:101E500010E02CE430E044E850E068E070E0CE01AF
:101E600001960E94451A50E2E52E5DEFF52E2CE416
:101E700030E044E850E06BEE70E03FC0EFA5EE3696
:101E800008F041C0809100018C30D1F48BE0809348
:101E90000001E12CF12C08E310E02CE430E046E4F2
:101EA00050E06BEE70E0CE0101960E94451A40E2D0
:101EB000E42E4DEFF42E2CE430E046E450E01BC05D
:101EC0008E3009F58DE080930001E12CF12C08E3C0
:101ED00010E02CE430E044E850E06BEE70E0CE011E
:101EE00001960E94451A30E2E32E3DEFF32E2CE4DA
:101EF00030E044E850E068E070E0CE0101960E94D6
:101F0000451A10925102F8A9FE3608F05DC0809182
:101F100000018B3071F48DE080930001E12CF12CF5
:101F200008E310E02CE430E046E450E068E070E0C4
:101F3000A2C08C30D1F48EE080930001E12CF12C12
:101F400008E310E02CE430E046E450E06BEE70E093
:101F5000CE0101960E94451A20E2E22E2DEFF22ECC
:101F60002CE430E044E850E074C08E3071F48FE02F
:101F700080930001E12CF12C08E310E02CE430E028
:101F800044E850E06BEE70E010C08D3009F08AC07C
:101F90008FE080930001E12CF12C08E310E02CE4A9
:101FA00030E044E850E068E070E0CE0101960E9425
:101FB000451A90E2E92E9DEFF92E25E930E042EC3A
:101FC00050E065E570E023C088A9823908F46AC052
:101FD000809100018D3011F58BE080930001E12CA0
:101FE000F12C08E310E02CE430E044E850E068E035
:101FF00070E0CE0101960E94451A80E2E82E8DEF36
:10200000F82E2CE430E046E450E068E070E0CE01C9
:1020100001960E94451A1092510244C08E30E1F49C
:102020008CE080930001E12CF12C08E310E02CE41B
:1020300030E044E850E06BEE70E0CE0101960E9483
:10204000451AB0E2EB2EBDEFFB2E2CE430E046E467
:1020500050E06BEE70E0DBCF8F3021F58DE08093A8
:102060000001E12CF12C08E310E025E930E042EC1E
:1020700050E065E570E0CE0101960E94451AA0E2AD
:10208000EA2EADEFFA2E2CE430E044E850E0BDCF6C
:1020900088A98357893130F48FA58357893110F48B
:1020A000B092510280914E02843009F071C080914B
:1020B0005102813009F062C080910001803191F5B8
:1020C000F0E2EF2EFDEFFF2E08E310E025E930E00F
:1020D00046E450E065E570E0CE0101960E94451AA5
:1020E0001092510298A99E3600F58091000180312E
:1020F00009F04EC081E180930001E12CF12C25E92B
:1021000030E046E450E065E570E0CE0101960E94C3
:10211000451AE0E2EE2EEDEFFE2E25E930E042EC2E
:1021200050E023C0E8A9EE3698F1E8A9E23980F141
:1021300080910001813161F580E180930001E12C03
:10214000F12C08E310E025E930E042EC50E065E5D1
:1021500070E0CE0101960E94451A70E2E72E7DEFF5
:10216000F72E25E930E046E450E065E570E0CE0169
:1021700001960E94451A109251020AC088A98357FD
:10218000893130F48FA58357893110F4B092510210
:1021900080914E02853009F0D6C080915102813085
:1021A00009F0C7C0809100018231D1F560E2E62ECE
:1021B0006DEFF62E08E310E02CE430E046E450E04A
:1021C00068E070E0CE0101960E94451A109251021B
:1021D000FFA5F23940F180910001823109F04CC035
:1021E00083E180930001E12CF12C2CE430E046E403
:1021F00050E068E070E0CE0101960E94451A50E27E
:10220000E52E5DEFF52E2CE430E046E450E06BEE79
:1022100070E0CE0101960E94451A109251022CC026
:10222000FFA5F23948F58FA58E3630F58091000173
:10223000833111F582E180930001E12CF12C08E358
:1022400010E02CE430E046E450E06BEE70E0CE01AC
:1022500001960E94451A40E2E42E4DEFF42E2CE444
:1022600030E046E450E068E070E0CE0101960E9464
:10227000451A1092510234C098A99E3688F5809173
:102280000001823171F484E180930001E12CF12C92
:1022900008E310E02CE430E046E450E068E070E051
:1022A00010C0833109F04FC084E180930001E12C1C
:1022B000F12C08E310E02CE430E046E450E06BEE53
:1022C00070E0CE0101960E94451A30E2E32E3DEF08
:1022D000F32E25E930E042EC50E065E570E022C0E5
:1022E000E8A9E23980F180910001843161F582E151
:1022F00080930001E12CF12C08E310E025E930E0A7
:1023000042EC50E065E570E0CE0101960E94451A6E
:1023100020E2E22E2DEFF22E2CE430E046E450E0F5
:1023200068E070E0CE0101960E94451A10925102B9
:102330000AC088A98357893130F48FA58357893122
:1023400010F4B092510280914A028823C9F0809122
:102350004F02909150020E942C26633089F47F37FF
:1023600019F41092E90201C085E08093030182E034
:102370008093C4026CE273E6C6010E94CD1A8DC53B
:1023800080914E02811186C08091E902882309F470
:1023900081C0B09200011092E902B601CE0101960F
:1023A0000E942E1E60E070E0CE0101960E94CD1AC0
:1023B00011E3E12E13E6F12E04E310E021E930E011
:1023C0004AE050E06AE070E0CE0101960E94451AB2
:1023D00021E930E04AE050E065EA70E0CE01019684
:1023E0000E94451A02E0E02E00E010E025E631E010
:1023F0004EE150E06AE270E0CE0101960E94B02802
:102400002BE631E04EE150E061EB70E0CE01019649
:102410000E94B02881E3E82E83E6F82E04E310E062
:1024200021E930E048E450E06AE070E0CE01019636
:102430000E94451A21E930E048E450E065EA70E086
:10244000CE0101960E94451A92E0E92E00E010E0CC
:1024500020ED31E04CE550E063E270E0CE01019602
:102460000E94B02824E731E04CE550E063EC70E0D6
:10247000CE0101960E94B028EE24E3942AE731E0D1
:1024800043EE50E060E070E0CE0101960E94B0287B
:10249000B0924E0280914E02813009F0D7C28091F5
:1024A0000001813009F0BEC08091E902882309F45F
:1024B000CDC21092E902B601CE0101960E942E1EF5
:1024C00060E070E0CE0101960E94CD1A73E0E72E25
:1024D00000E010E020E931E04FE050E06FE070E014
:1024E000CE0101960E94B028E1E3EE2EE3E6FE2E37
:1024F00004E310E028E430E048E450E06AE070E0F3
:10250000CE0101960E94451A28E430E048E450E0EC
:1025100062E570E0CE0101960E94451A28E430E0A1
:1025200048E450E065EA70E0CE0101960E94451A49
:1025300028E430E048E450E06DEE70E0CE01019612
:102540000E94451AF2E0EF2E00E010E02EE831E0A4
:102550004CE550E063E270E0CE0101960E94B028A5
:102560002FEE31E04CE550E06BE670E0CE010196D5
:102570000E94B0282DE931E04CE550E063EC70E0BA
:10258000CE0101960E94B0282FE931E04CE550E0E1
:102590006BE071E0CE0101960E94B028A1E3EA2E23
:1025A000A3E6FA2E04E310E021E930E046E850E02B
:1025B0006AE070E0CE0101960E94451A21E930E000
:1025C00046E850E065EA70E0CE0101960E94451AA7
:1025D000B2E0EB2E00E010E021EA31E04AE950E001
:1025E00063E270E0CE0101960E94B02828EA31E053
:1025F0004AE950E068EC70E0CE0101960E94B028F4
:10260000EE24E3942AE731E043EE50E060E070E02E
:10261000CE0101960E94B028F2E0F0934E02A09203
:10262000000114C2823009F04FC18091E902882371
:1026300009F40CC21092E9022BE0522E50920001D4
:10264000B601CE0101960E942E1E60E070E0CE0120
:1026500001960E94CD1A33E0E32E00E010E02BE655
:1026600031E04FE050E067E370E0CE0101960E9458
:10267000B02841E3E42E43E6F42E04E310E028E41E
:1026800030E048E450E06AE070E0CE0101960E943C
:10269000451A52E0E52E58EFF52E28E430E048E4E4
:1026A00050E06AE070E0CE0101960E94D21961E329
:1026B000E62E63E6F62E21E930E048E450E067E5D7
:1026C00070E0CE0101960E94451A28E430E048E40B
:1026D00050E06DEE70E0CE0101960E94451A70E464
:1026E000E72E76E6F72E28E430E048E450E06DEE81
:1026F00070E0CE0101960E94D219E2E0EE2E02E0D7
:1027000018EF2DEA31E04CE550E068E270E0CE01D0
:1027100001960E94B028EE24E39400E010E02FEA36
:1027200031E042E550E06BE670E0CE0101960E9498
:10273000B028F1E3EF2EF3E6FF2E05E010E025E5EB
:1027400030E046E650E060E770E0CE0101960E947E
:10275000451A8091020125E530E0281B3109A0E2ED
:10276000EA2EADEFFA2E46E650E060E770E0CE01CB
:1027700001960E94D219B2E0EB2E00E416E62CEB93
:1027800031E04CE550E06BE071E0CE0101960E9433
:10279000B02811E3E12E13E6F12E04E310E028E463
:1027A00030E046E850E06AE070E0CE0101960E9419
:1027B000451A82E0E82E88EFF82E28E430E046E85B
:1027C00050E06AE070E0CE0101960E94D21991E3D8
:1027D000E92E93E6F92E21E930E046E850E067E57E
:1027E00070E0CE0101960E94451A28E430E046E8E8
:1027F00050E06DEE70E0CE0101960E94451A20E493
:10280000E22E26E6F22E28E430E046E850E06DEEB7
:1028100070E0CE0101960E94D21932E0E32E02E070
:1028200018EF2DEA31E04AE950E068E270E0CE01AD
:1028300001960E94B028EE24E39400E010E02EEB15
:1028400031E040E950E06BE670E0CE0101960E9475
:10285000B0282091010144EA50E068E970E0CE011F
:1028600001960E94EA2842E0E42E00E416E62CEBF2
:1028700031E04AE950E06BE071E0CE0101960E9440
:10288000B02851E3E52E53E6F52E04E310E021E9EC
:1028900030E044EC50E067E570E0CE0101960E9424
:1028A000451A62E0E62E00E010E028EA31E043ED50
:1028B00050E06FE770E0CE0101960E94B028409290
:1028C0004E0250920001C2C0833009F0B8C080911E
:1028D000E902882309F4BAC01092E902B601CE01D8
:1028E00001960E942E1E60E070E0CE0101960E94CB
:1028F000CD1A83E0E82E00E010E02BEC31E04FE051
:1029000050E069E170E0CE0101960E94B02891E3A9
:10291000E92E93E6F92E04E310E021E930E048E4E3
:1029200050E067E570E0CE0101960E94451AF4017F
:10293000822D11928A95E9F782E090E00E94C238D8
:1029400089A783E090E00E94C2388AA784E090E0E3
:102950000E94C2388BA785E090E00E94C2388CA705
:1029600086E090E00E94C2388DA7EE24E39400E058
:1029700010E0940147E550E062E770E0CE01019677
:102980000E94B028BC01772727ED31E047E550E0F1
:10299000CE0101960E94B0288C0180E090E00E9458
:1029A000C2384AE0BE01685E7F4F0E949838B80185
:1029B000772700E010E09E01285E3F4F47E550E09A
:1029C000CE0101960E94B0288091C302882391F025
:1029D0002AED31E046E650E06CE570E0CE0101966C
:1029E0000E94B02882E090E00E94C238C19711F0A6
:1029F0001092C30211E3E12E13E6F12E04E310E07E
:102A000021E930E044EC50E067E570E0CE0101964A
:102A10000E94451A02E0E02E00E010E028EA31E0D2
:102A200043ED50E06FE770E0CE0101960E94B028C0
:102A300094E090934E0280E18093000107C08430BF
:102A400029F48091E90281111092E90210914E025D
:102A5000123009F083C080910001853099F4809193
:102A6000E902882309F47AC01092E9021093C402A3
:102A70006CE273E6C6010E94CD1A81E080930301E7
:102A800041E05DC08630F1F48091E902882309F4C9
:102A900065C06CEE71E083E094E00E94642361EF16
:102AA00071E083E094E00E9464231092E9021093A5
:102AB000C4026CE273E6C6010E94CD1A10930301B2
:102AC00042E03DC0873091F48091E902882309F407
:102AD00045C01092E9021093C4026CE273E6C6018D
:102AE0000E94CD1A4092030143E012C08830A9F43D
:102AF0008091E902882391F11092E9021093C402B7
:102B00006CE273E6C6010E94CD1AA092030145E073
:102B10006FE783E00E945D2621C08930A9F480918F
:102B2000E9028823D9F01092E9021093C4026CE202
:102B300073E6C6010E94CD1A1092030140E06FE7D0
:102B400083E00E945D26A9C18A3041F48091E902A8
:102B5000882321F01092E90210924E0280914E02D9
:102B6000833009F0BEC0809100018B30D9F580918F
:102B7000E902882309F4B5C01092E90280910201AC
:102B8000853508F0AEC08F5F80930201E12CF12CF7
:102B900005E010E025E530E046E650E060E770E053
:102BA000C6010E94D219A1E3EA2EA3E6FA2E25E57A
:102BB00030E046E650E060E770E0C6010E94451A4A
:102BC0008091020125E530E0281B3109B0E2EB2EAF
:102BD000BDEFFB2E46E650E060E770E0C6010E94C4
:102BE000D2197FC08C30E9F58091E902882309F47D
:102BF00078C01092E902809102018150853508F079
:102C000070C0E12CF12C05E010E025E530E046E64F
:102C100050E060E770E0C6010E94D219E1E3EE2EB9
:102C2000E3E6FE2E25E530E046E650E060E770E0A2
:102C3000C6010E94451A809102019301281B3109A7
:102C4000F0E2EF2EFDEFFF2E46E650E060E770E089
:102C5000C6010E94D2198091020181508093020125
:102C600040C08D3011F58091E9028823D1F1109296
:102C7000E90280914B0281110EC0209101012230A6
:102C800050F021502093010144EA50E068E970E0DF
:102C9000C6010E94EA2880914B028F5F80934B020D
:102CA0008C3FF9F410924B021CC08E3081F480915D
:102CB000E9028823B1F01092E90280914B02811160
:102CC000EACF20910101253030F72F5FDBCF8F3025
:102CD00041F48091E902882321F01092E9021092D8
:102CE0004E0280914E02843009F0B3C08091000101
:102CF000803109F0A4C08091E902882309F4A9C0B9
:102D0000B601CE0101960E942E1E60E070E0CE0159
:102D100001960E94CD1A81E3E82E83E6F82E04E3A3
:102D200010E028E430E048E450E06AE070E0CE01D2
:102D300001960E94451A92E0E92E98EFF92E28E4B8
:102D400030E048E450E06AE070E0CE0101960E9475
:102D5000D21921E3E22E23E6F22E21E930E048E405
:102D600050E067E570E0CE0101960E94451A28E424
:102D700030E048E450E06DEE70E0CE0101960E9434
:102D8000451A30E4E32E36E6F32E28E430E048E43A
:102D900050E06DEE70E0CE0101960E94D21942E043
:102DA000E42E02E018EF2DEA31E04CE550E068E255
:102DB00070E0CE0101960E94B028EE24E39400E07A
:102DC00010E024EF31E042E550E06BE670E0CE0128
:102DD00001960E94B02852E0E52E00E416E62CEBA6
:102DE00031E04CE550E06BE071E0CE0101960E94CD
:102DF000B02861E3E62E63E6F62E04E310E021E955
:102E000030E044EC50E067E570E0CE0101960E94AE
:102E1000451A72E0E72E00E010E028EA31E043EDC9
:102E200050E06FE770E0CE0101960E94B028A092BA
:102E30004E0282E1809300011092E9020AC08131C2
:102E400041F48091E902882321F01092E902109266
:102E50004E0280914E02853011F00C94DE0B809171
:102E60000001823151F48091E902882311F40C941D
:102E7000DE0B1092E9020C94DE0B843111F00C94FD
:102E8000DE0B8091E902882311F40C94DE0B109282
:102E9000E90210924E020C94DE0BE0960FB6F89405
:102EA000DEBF0FBECDBFDF91CF911F910F91FF907D
:102EB000EF90DF90CF90BF90AF909F908F907F90DA
:102EC0006F905F904F903F902F900895CF92EF9228
:102ED000FF920F931F93CF93DF93EC01262F6A305D
:102EE00081F48C899D89998B888B2A852F778A8993
:102EF0009B8938E0239F800D911D11249B8B8A8B29
:102F000047C0862F8B7F893009F442C06889798950
:102F1000203219F461157105D9F1E881F981EE8447
:102F2000FF840C851D854A895B890088F189E02D25
:102F3000CA84CE010995BC01998B888B8B85882327
:102F400039F12A852F77822F90E048EF42039001D4
:102F500011244E815F81420F531F46175707C4F457
:102F60004C895D89598B488B43E0880F991F4A959E
:102F7000E1F74A895B89840F951F9B8B8A8B488573
:102F80005985240F351F2817390714F41B8A1A8A0C
:102F900081E090E0DF91CF911F910F91FF90EF9032
:102FA000CF900895CF92EF92FF920F931F93DC0181
:102FB000ED91FC910684F785E02D09951F910F9105
:102FC000FF90EF90CF9008952F923F924F925F9293
:102FD0006F927F928F929F92AF92BF92CF92DF9229
:102FE000EF92FF920F931F93CF93DF9300D01F9226
:102FF000CDB7DEB79B838A83480188E02802900121
:103000001124D901A859B0405D01BC2DBF77CB2E4A
:10301000EA81FB8186819781F1E0FB1708F463C0A8
:103020006B0128E0C20ED11C8C159D050CF46EC0FE
:10303000AA81BB811896ED91FC9119979A01285F9E
:103040003F4FE217F3070CF461C0AA81BB81ED91F9
:10305000FC9111978A01095F1F4F9B01295F3F4F28
:103060000680F781E02DCD010995AA81BB81ED9104
:10307000FC9111970084F185E02DCD010995850122
:10308000085F1F4FF5014490FFEFAF1ABF0A98E0A9
:10309000692E712C20E8522EAA81BB81ED91FC9102
:1030A0001197852D84210284F385E02D882319F062
:1030B000B401CD0103C0B7018A819B810995569463
:1030C000B1E06B1A710841F7A016B106D9F6AA81D2
:1030D000BB81ED91FC9111970484F585E02DCD0124
:1030E0000995C60176C0B8E0CB9E800111243B0152
:1030F000600E711E861597054CF0040F151FEA81AE
:10310000FB81208531852017310714F4019661C0B9
:10311000AA81BB81ED91FC911197015011090680A4
:10312000F781E02D930121503109CD010995AA8144
:10313000BB81ED91FC9111970084F185E02DCD01CB
:1031400009952501B8E04B0E511CF5012490FFEFC5
:10315000AF1ABF0A3C2C08E010E080E8D82E8D2D75
:1031600082212C2DA1F0AA81BB81ED91FC911197B8
:103170000284F385E02DB401CD01298309952981CD
:10318000215089F7D6940150110949F710C0AA813E
:10319000BB81ED91FC9111970284F385E02DB7017D
:1031A000CD01298309952981215089F7EBCF3A94E4
:1031B0003110D1CFA414B50409F0C7CFAA81BB81C7
:1031C000ED91FC9111970484F585E02DCD010995D1
:1031D000C3010F900F900F90DF91CF911F910F912E
:1031E000FF90EF90DF90CF90BF90AF909F908F9027
:1031F0007F906F905F904F903F902F90089585ED56
:103200008093BC008091BC0084FDFCCF109217031A
:10321000089540919402262F30E0240F311D213271
:103220003105DCF4209117032430C9F4FC0180E05F
:1032300090E0861758F4309194022191DC01AE5849
:10324000BD4FA30FB11D2C930196F3CF8091940233
:10325000680F6093940280E0089581E0089582E011
:1032600008950895E091C8028091C702E81730F4EC
:10327000F0E0E753FD4F808190E008958FEF9FEFDE
:1032800008959091C8028091C702981750F4E92FD1
:10329000F0E0E753FD4F208130E09F5F9093C8023C
:1032A00002C02FEF3FEFC90108958091C70290E05F
:1032B0002091C802821B91090895CF92DF92EF926C
:1032C000FF920F931F93CF93DF937C01262F972FAD
:1032D0008A0180911803882391F0C62FD72F6E01A1
:1032E000C40ED51ECC15DD0571F06991D701ED91A5
:1032F000FC910190F081E02DC7010995F3CF642F77
:10330000822F0E940919C801DF91CF911F910F915F
:10331000FF90EF90DF90CF900895CF93DF931F92AF
:10332000CDB7DEB76983209118032223D1F0209115
:103330003B03203240F021E030E0FC013383228364
:1033400080E090E015C080911903E82FF0E0E65E80
:10335000FC4F998190838F5F8093190380933B0387
:1033600005C061E0CE0101960E94091981E090E05C
:103370000F90DF91CF91089580E090E00E94C238D5
:103380006091C50270E08617970758F480910A0192
:10339000811107C080E090E00E94C83881E08093EE
:1033A000C30208958F929F92AF92BF92CF92DF9205
:1033B000EF92FF920F931F93CF93DF93EC0169017C
:1033C00058012E813F81621773071CF0B9016150CB
:1033D000710988859985481759071CF0AC0141503F
:1033E0005109FB01EC0DFD1DE217F3071CF069010B
:1033F000C61AD70A9A012A0D3B1D281739071CF057
:103400005C01A41AB50AE881F9818A010A0D1B1D25
:10341000015011099B012C0D3D1D215031090680E1
:10342000F781E02DCE010995E881F9810084F185CD
:10343000E02DCE0109959501D6010E9417384B0168
:103440005C01E881F98181149104A104B10461F067
:103450000284F385E02DB701CE01099581E0881A39
:103460009108A108B108EDCF0484F585E02DCE01C7
:10347000DF91CF911F910F91FF90EF90DF90CF9050
:10348000BF90AF909F908F9009944F925F926F92F0
:103490007F928F929F92AF92BF92CF92DF92EF92E4
:1034A000FF920F931F93CF93DF93EC016B015A01AF
:1034B0002901380121E030E00E94D219A501460D12
:1034C000571D4150510901E010E09201B601CE01B3
:1034D0000E94D219B601640D751D615071098301F6
:1034E00021E030E0A501CE010E94D21901E010E0F8
:1034F0009201A501B601CE010E94D219DF91CF91B0
:103500001F910F91FF90EF90DF90CF90BF90AF9001
:103510009F908F907F906F905F904F900895EF9263
:10352000FF920F931F93CF93DF93EC018E819F81C6
:10353000681779075CF5888599854817590734F528
:103540007901E881F9810680F781E02D8A019B01EC
:10355000CE010995E881F9810084F185E02DCE0145
:103560000995E881F9810284F385E02DB701CE0148
:103570000995E881F9810484F585E02DCE01DF917C
:10358000CF911F910F91FF90EF900994DF91CF9110
:103590001F910F91FF90EF9008958F929F92AF929D
:1035A000BF92EF92FF920F931F93CF93DF93EC01A3
:1035B0007B01E881F98108851985015011092E8167
:1035C0003F81215031090680F781E02D40E050E035
:1035D00060E070E00995E881F9810084F185E02DD3
:1035E000CE010995AE81BF81288539850E941738A3
:1035F0004B015C0183E0B694A794979487948A95D5
:10360000D1F7E881F98181149104A104B10409F48E
:1036100044C00284F385E02DB701CE010995E8810D
:10362000F9810284F385E02DB701CE010995E88187
:10363000F9810284F385E02DB701CE010995E88177
:10364000F9810284F385E02DB701CE010995E88167
:10365000F9810284F385E02DB701CE010995E88157
:10366000F9810284F385E02DB701CE010995E88147
:10367000F9810284F385E02DB701CE010995E88137
:10368000F9810284F385E02DB701CE01099581E02F
:10369000881A9108A108B108B4CF0484F585E02DFB
:1036A000CE01DF91CF911F910F91FF90EF90BF90CE
:1036B000AF909F908F9009941F920F920FB60F9228
:1036C00011242F933F934F935F936F937F938F9327
:1036D0009F93AF93BF93EF93FF938091B900887F3F
:1036E000803609F49CC068F5883209F45BC090F418
:1036F000803109F454C038F4882309F4F6C08830C6
:1037000009F44DC0F6C0883109F44CC0803209F488
:103710005DC0EFC0803409F468C048F4803309F418
:1037200055C0883309F0E5C080931503D8C08035B3
:1037300009F44FC0883509F45DC0883409F0D9C058
:10374000D6C0883909F4C7C0A8F4883709F467C01F
:1037500038F4883609F463C0803709F460C0C9C002
:10376000883809F4B8C0803909F45FC0803809F09E
:10377000C0C05BC0803B09F486C038F4803A09F4CD
:1037800066C0883A09F47FC0B4C0803C09F4A7C081
:10379000883C09F4A4C0883B09F48AC0AAC080917F
:1037A000F20210C09091140380911303981770F5E2
:1037B000E091140381E08E0F80931403F0E0ED504C
:1037C000FD4F80818093BB0085EC86C080931503FC
:1037D0008EC0E091140381E08E0F809314038091DA
:1037E000BB00F0E0ED50FD4F808390911403809179
:1037F00013036EC0E091140381E08E0F80931403D5
:103800008091BB00F0E0ED50FD4F80838091160366
:1038100081116DC081E08093F10284EA61C083E090
:10382000809317031092B802CFCF8091B8028032F4
:1038300008F051C0E091B80281E08E0F8093B80289
:103840008091BB00F0E0E856FD4F8083BDCF85EC52
:103850008093BC00109217038091B802803230F43C
:10386000E091B802F0E0E856FD4F10826091B80296
:1038700070E0E0919602F091970288E992E0099554
:103880001092B80236C084E080931703109295021C
:1038900010929402E0919202F09193020995809126
:1038A0009402811105C081E080939402109272020B
:1038B000E091950281E08E0F80939502F0E0EE5842
:1038C000FD4F80818093BB0090919502809194027E
:1038D000981708F479CF85E88093BC000AC085EC7E
:1038E0008093BC001092170304C0109215030E942D
:1038F000FF18FF91EF91BF91AF919F918F917F91B1
:103900006F915F914F913F912F910F900FBE0F904C
:103910001F9018951F920F920FB60F9211242F939C
:103920003F934F935F936F937F938F939F93AF9347
:10393000BF93809100048111B0C08091C304909125
:10394000C404A091C504B091C60440916D02509189
:103950006E0260916F027091700284179507A6073E
:10396000B70750F040916D0250916E0260916F0266
:10397000709170029C010BC040916D0250916E02DB
:1039800060916F02709170029C0121503109241BDB
:10399000350B30936C0220936B0280936D029093F1
:1039A0006E02A0936F02B093700280916B029091AF
:1039B0006C02893C910530F010926A021092690203
:1039C00010924A0280916B0290916C02029708F467
:1039D00064C080916B0290916C02089708F05DC002
:1039E00080914A02811110924A0280916B0290915B
:1039F0006C020597C0F080916B0290916C02089761
:103A000090F44091690250916A0220914F023091E6
:103A1000500281E090E002C0880F991F4A95E2F7BA
:103A2000822B932B35C080916B0290916C02029790
:103A300030F080916B0290916C020597B0F080910C
:103A4000690290916A02409730F481E080934A02C3
:103A500082E3809371028091690290916A020196DB
:103A600090936A028093690218C040916902509154
:103A70006A0220914F023091500281E090E002C032
:103A8000880F991F4A95E2F780959095822393239A
:103A90009093500280934F02D2CFBF91AF919F91EC
:103AA0008F917F916F915F914F913F912F910F90E7
:103AB0000FBE0F901F9018951F920F920FB60F9286
:103AC00011240F931F932F933F934F935F936F9303
:103AD0007F938F939F93AF93BF93809168028F5F83
:103AE000809368028A3009F0A8C08091C304909145
:103AF000C404A091C504B091C604AC01BD014F5FE0
:103B00005F4F6F4F7F4F4093C3045093C404609343
:103B1000C5047093C60420910004222309F483C0D5
:103B2000209167022223F1F0809165029091660254
:103B30000A9771F410926702109261021092620269
:103B40001092630210926402109266021092650253
:103B5000809165029091660201969093660280932F
:103B6000650248C0009161021091620220916302D7
:103B700030916402401751076207730721F42091C6
:103B80006002211153C04091610250916202609124
:103B9000630270916402452B462B472B59F5209107
:103BA00001043091020440915E0250915F0202C014
:103BB000369527954A95E2F720FF04C00796A11D88
:103BC000B11D03C00496A11DB11D809361029093A5
:103BD0006202A0936302B093640281E0809360026A
:103BE000539A80915E0290915F02019690935F02DA
:103BF00080935E0280915E0290915F02419799F4FA
:103C000010926002539810925F0210925E0210921E
:103C100000041092670210926102109262021092E8
:103C20006302109264021092680207C01092600250
:103C3000539821E020936702A6CFBF91AF919F9147
:103C40008F917F916F915F914F913F912F911F9134
:103C50000F910F900FBE0F901F901895FC01DB0184
:103C60008BE491E09183808312968D919C911397C0
:103C70009383828314968D919C9115979583848369
:103C800016968D919C9117979783868318968D91A0
:103C90009C911997918780871A968C911A978287A1
:103CA0001B968C911B9783871C968D919C911D97D9
:103CB000958784871E968D919C911F9797878687FD
:103CC00050968D919C915197918B808B52968D91AE
:103CD0009C915397938B828B54968D919C91559781
:103CE000958B848B83E591E09183808356968C91AC
:103CF000868B0895CF92DF92EF92FF920F931F93DE
:103D0000CF93DF936C017A018B01C0E0D0E0CE1538
:103D1000DF0589F0D8016D918D01D601ED91FC91FF
:103D20000190F081E02DC6010995892B11F47E01E7
:103D300002C02196ECCFC701DF91CF911F910F9167
:103D4000FF90EF90DF90CF900895FC01918D828DD0
:103D5000981761F0828DDF01A80FB11D5D968C91DF
:103D6000928D9F5F9F73928F90E008958FEF9FEFEA
:103D70000895FC01918D828D981731F0828DE80FA6
:103D8000F11D858D90E008958FEF9FEF0895FC0160
:103D9000918D228D892F90E0805C9F4F821B91092D
:103DA0008F7399270895FC01848DDF01A80FB11D41
:103DB000A35ABF4F2C91848D90E001968F73992761
:103DC000848FA689B7892C93A089B1898C9180644E
:103DD0008C93938D848D981306C00288F389E02D0F
:103DE00080818F7D80830895EF92FF920F931F93C0
:103DF000CF93DF93EC0181E0888F9B8D8C8D98139E
:103E000005C0E889F989808185FD24C0F62E0B8DD7
:103E100010E00F5F1F4F0F731127E02E8C8DE812FB
:103E20000CC00FB607FCFACFE889F989808185FFBD
:103E3000F5CFCE010E94D31EF1CF8B8DFE01E80F8E
:103E4000F11DE35AFF4FF0820B8FEA89FB898081D5
:103E5000806207C0EE89FF896083E889F9898081E3
:103E60008064808381E090E0DF91CF911F910F917A
:103E7000FF90EF900895CF93DF93EC01888D882316
:103E8000C9F0EA89FB89808185FD05C0A889B989C7
:103E90008C9186FD0FC00FB607FCF5CF808185FFA2
:103EA000F2CFA889B9898C9185FFEDCFCE010E9410
:103EB000D31EE7CFDF91CF9108953FB7F89480915B
:103EC000BF029091C002A091C102B091C20226B57A
:103ED000A89B05C02F3F19F00196A11DB11D3FBF42
:103EE000BA2FA92F982F8827820F911DA11DB11DD0
:103EF000BC01CD0142E0660F771F881F991F4A95CC
:103F0000D1F708958F929F92AF92BF92CF92DF9296
:103F1000EF92FF926B017C010E945D1F4B015C01DF
:103F2000C114D104E104F104F1F00E945D1FDC0131
:103F3000CB0188199909AA09BB09883E9340A105BC
:103F4000B10570F321E0C21AD108E108F10888EE4A
:103F5000880E83E0981EA11CB11CC114D104E10499
:103F6000F10419F7DDCFFF90EF90DF90CF90BF9075
:103F7000AF909F908F9008955F9A08958EBD000036
:103F80000DB407FEFDCF8EB50895862F5F982B9A4E
:103F90002D989CB59F7B9CBD2D9A9CB590649CBD33
:103FA0000E94BE1F5F9A0895CF93DF931F92CDB7F3
:103FB000DEB7872F5F982B9A2D989CB59F7B9CBD71
:103FC0002D9A9CB590649CBD69830E94BE1F2B9A5C
:103FD0002D989CB59F7B9CBD2D9A9CB590649CBDF3
:103FE0006981862F0E94BE1F5F9A0F90DF91CF914B
:103FF0000895862F5F982B982D989CB59F7B9CBD2C
:104000002D9A9CB590649CBD0E94BE1F5F9A089536
:104010006CE20E94F91F5F980895AF92BF92CF9211
:10402000DF92EF92FF920F931F93CF93DF93EC01F8
:104030005B017A0169016AE20E94F91FB501CE01B4
:104040000E94D41FB601CE010E94D41F6BE2CE01A4
:104050000E94F91FB701CE010E94D41FB801CE0102
:10406000DF91CF911F910F91FF90EF90DF90CF9054
:10407000BF90AF900C94D41F0F931F93CF93DF93F7
:10408000EC016930710519F06A35710571F48AE542
:1040900090E09D838C8380EF90E09F838E8380E40B
:1040A00091E09987888718E434C06231710519F06E
:1040B000643B710571F484EB90E09D838C8380E414
:1040C00091E09F838E8380EF90E09987888718E343
:1040D00020C06B31710521F07E7F6E30710571F467
:1040E0008EE091E09D838C8380EF90E09F838E83B0
:1040F00080E491E09987888718E80BC01D821C82B4
:1041000080E491E09F838E8380EF90E09987888799
:1041100018EE66E3CE010E94F91F612FCE010E94C6
:10412000C51FE881F98108851985015011092E8183
:104130003F81215031090680F781E02D40E050E0B9
:1041400060E070E0CE010995DF91CF911F910F9152
:104150000895CF93DF931F92CDB7DEB7872F2B9AA9
:104160002D989CB59F7B9CBD2D9A9CB590649CBD61
:1041700069830E94BE1F2B9A2D989CB59F7B9CBD86
:104180002D9A9CB590649CBD6981862F0F90DF911C
:10419000CF910C94BE1F2F923F924F925F926F92DD
:1041A0007F928F929F92AF92BF92CF92DF92EF92C7
:1041B000FF920F931F93CF93DF9300D000D000D0D6
:1041C000CDB7DEB75C016B015E834D837901621769
:1041D0007307C1F40417150744F404271527402773
:1041E00051275E834D83042715272D813E81021BB5
:1041F000130B0F5F1F4F5FEEE52E5BE7F52E21E0FF
:1042000030E019C04D815E8140175107D9F426175F
:10421000370734F4E626F726CE24DF24EC24FD24E9
:1042200097012C193D092F5F3F4F4FEEE42E4BE7CE
:10423000F42E01E010E04D815E81B601C5010E94BF
:10424000D2199AC0FC01268137816217730724F0C6
:104250006901F1E0CF1AD108F501808591854D8182
:104260005E814817590724F0FC013197FE83ED83E6
:10427000E216F30624F07901F1E0EF1AF1080817CD
:1042800019071CF08C010150110947018C189D0879
:1042900038012D813E81621A730A97FE08C09194FD
:1042A000819491084FEF5FEF5C834B8304C081E002
:1042B00090E09C838B8377FE08C0719461947108B1
:1042C000EFEFFFEFFA83E98304C021E030E03A83A7
:1042D00029832401440C551C1301220C331C2FEE9E
:1042E0003BE74D815E81B601C5010E948F1A6814BB
:1042F00079040CF5810108191909CE14DF04E1F1E4
:1043000017FD0AC04D815E8189819A81480F591F2E
:104310005E834D8304191509EB81FC81CE0EDF1EEF
:10432000020D131D2FEE3BE74D815E81B601C501E5
:104330000E948F1AE2CF7201E618F708ED81FE8124
:10434000E017F107C9F0F7FC06C02B813C81C20ED3
:10435000D31EE218F3084D815E8189819A81480F4E
:10436000591F5E834D83E40CF51C2FEE3BE7B6012D
:10437000C5010E948F1AE2CF26960FB6F894DEBFD1
:104380000FBECDBFDF91CF911F910F91FF90EF90A6
:10439000DF90CF90BF90AF909F908F907F906F9065
:1043A0005F904F903F902F9008952F923F924F92A1
:1043B0005F926F927F928F929F92AF92BF92CF92B5
:1043C000DF92EF92FF920F931F93CF93DF936C01D5
:1043D0005B014A018EEF682E77247A94C0E0D0E02A
:1043E00092E0E92EF12CAE01480D591D8A012501FC
:1043F0004E0C5F1C920115012E183F08B101C60139
:104400000E94CB20A4014C1B5D0B8A019201B101DB
:10441000C6010E94CB202E014A0C5B1C15012C1AF0
:104420003D0AA4014E0D5F1D8A019201B101C60132
:104430000E94CB20A4014E195F098A019201B101AB
:10444000C6010E94CB20CE0101966C0E7D1E680E27
:10445000791E2FEF6216720639F021E0E21AF10898
:104460006E187F086E187F08EC01E816F9060CF04C
:10447000BACFDF91CF911F910F91FF90EF90DF9016
:10448000CF90BF90AF909F908F907F906F905F90F4
:104490004F903F902F9008950E942C382F923F927A
:1044A0004F925F926F927F928F929F92AF92BF9244
:1044B000CF92DF92EF92FF920F931F93CF93DF93F0
:1044C000EC0160E070E00E94CD1A34E0E32E00E0E1
:1044D00010E020E032E048E250E06FE070E0CE0112
:1044E0000E94B02840EFE42EFF24FA9400E110E08F
:1044F000C12CD12C5CE3252E312C66E3462E512CA9
:10450000460186E3880E911C2CE233E6A401580193
:104510008CE3A80EB11CB501CE010E948F1A2CE2CB
:1045200033E6A4013101601A710AB301CE010E9481
:104530008F1A42018C189D082CE233E6A401B501C4
:10454000CE010E948F1A2CE233E6A401B301CE0102
:104550000E948F1A46018CE3880E911C2CE233E6F0
:10456000580186E3A80EB11CA501B401CE010E943A
:104570008F1A31016C187D082CE233E6A501B301D6
:10458000CE010E948F1A2CE233E65201A01AB10A22
:10459000A501B401CE010E948F1A2CE233E6A501D9
:1045A000B301CE010E948F1AC6010196EC0CFD1CCE
:1045B000E80EF91EF7FC06C001501109E01AF10AD5
:1045C000E01AF10A6C01081719070CF099CF4EE2B6
:1045D00050E066E370E0CE010E94D52140E350E058
:1045E00064E370E0CE010E94D5219CE2E92E93E6BF
:1045F000F92E05E010E02FE030E043E250E065E303
:1046000070E0CE010E94451AE12CF12C2FE030E041
:1046100043E250E065E370E0CE010E94D21920E849
:10462000E22E2AE7F22E26E030E04EE150E06AE387
:1046300070E0CE010E94D21926E030E04CE150E05B
:1046400068E370E0CE010E94D21926E030E04AE132
:1046500050E066E370E0CE010E94D21926E030E01F
:1046600048E150E064E370E0CE010E94D2196CE4AE
:1046700072E08DE492E00E941F2882E0E82E00E0C4
:1046800010E02AE032E048EC50E069E170E0CE0151
:104690000E94B0288091E902882349F381E0809349
:1046A000C402DF91CF911F910F91FF90EF90DF90A7
:1046B000CF90BF90AF909F908F907F906F905F90C2
:1046C0004F903F902F9008956115710579F0FB018F
:1046D00001900020E9F73197AF01461B570BDC0131
:1046E000ED91FC910280F381E02D099480E090E04F
:1046F00008951F920F920FB60F9211242F933F939C
:104700004F935F936F937F938F939F93AF93BF93D9
:10471000EF93FF9383E094E00E94D31EFF91EF910B
:10472000BF91AF919F918F917F916F915F914F91C9
:104730003F912F910F900FBE0F901F9018951F92D1
:104740000F920FB60F9211242F938F939F93EF9395
:10475000FF93E0911304F09114048081E091190417
:10476000F0911A0482FD12C0908180911C048F5F29
:104770008F7320911D04821751F0E0911C04F0E02A
:10478000ED5FFB4F958F80931C0401C08081FF91EA
:10479000EF919F918F912F910F900FBE0F901F90CF
:1047A000189590E0FC01E354F94E3491FC01E75078
:1047B000F94E2491FC01EB51F94EE491EE2309F4FA
:1047C0003BC0332339F1333091F038F43130A9F064
:1047D000323001F584B58F7D12C0373091F038301A
:1047E000A1F03430B9F4809180008F7D03C08091B6
:1047F00080008F77809380000DC084B58F7784BD53
:1048000009C08091B0008F7703C08091B0008F7D88
:104810008093B000F0E0EE0FFF1FEF52F94EA5912C
:10482000B4918FB7F894EC91611103C020952E23B9
:1048300001C02E2B2C938FBF08951F920F920FB69D
:104840000F9211242F933F938F939F93AF93BF9316
:104850008091BB029091BC02A091BD02B091BE02BA
:104860003091BA0223E0230F2D3720F40196A11DC9
:10487000B11D05C026E8230F0296A11DB11D20938E
:10488000BA028093BB029093BC02A093BD02B09386
:10489000BE028091BF029091C002A091C102B0916E
:1048A000C2020196A11DB11D8093BF029093C00268
:1048B000A093C102B093C202BF91AF919F918F911B
:1048C0003F912F910F900FBE0F901F9018952F9230
:1048D0003F924F925F926F927F928F929F92AF9290
:1048E000BF92CF92DF92EF92FF920F931F93CF93DD
:1048F000DF935C0184E1689F6001112494E1499F8A
:1049000080011124412C512C32017601C0E0D0E00D
:1049100042019FEF891A990A120182E0280E311C88
:10492000FE01E40DF51DE355F74F8491FE01E80DFE
:10493000F91DE355F74F2491FE01E20DF31DE355F8
:10494000F74FE491887F2C7F98E0299F90011124F4
:10495000382BE695E695E6952E2BA801B701C50103
:104960000E948F1A23968FEFE81AF80ACC33D105EC
:10497000B9F69CE3490E511C611C711C0F5F1F4F5F
:1049800080EB481684E058066104710409F0BDCF3D
:10499000DF91CF911F910F91FF90EF90DF90CF901B
:1049A000BF90AF909F908F907F906F905F904F904F
:1049B0003F902F9008952F923F924F925F926F9267
:1049C0007F928F929F92AF92BF92CF92DF92EF929F
:1049D000FF920F931F93CF93DF935C0184E1689F55
:1049E0006001112494E1499F80011124412C512C34
:1049F00032017601C0E0D0E042019FEF891A990AA6
:104A0000120182E0280E311CFE01E40DF51DE35079
:104A1000FC4F8491FE01E80DF91DE350FC4F2491F9
:104A2000FE01E20DF31DE350FC4FE491887F2C7FE3
:104A300098E0299F90011124382BE695E695E6959C
:104A40002E2BA801B701C5010E948F1A23968FEF64
:104A5000E81AF80ACC33D105B9F69CE3490E511C8B
:104A6000611C711C0F5F1F4F80EB481684E05806D5
:104A70006104710409F0BDCFDF91CF911F910F91B7
:104A8000FF90EF90DF90CF90BF90AF909F908F906E
:104A90007F906F905F904F903F902F9008950F936D
:104AA0001F93CF93DF93CDB7DEB767970FB6F89418
:104AB000DEBF0FBECDBF182F062FBA01CE01019663
:104AC0000E942E1E402F612FCE0101960E94DB24F2
:104AD00067960FB6F894DEBF0FBECDBFDF91CF91C2
:104AE0001F910F910895CF92DF92EF92FF920F9353
:104AF0001F93CF93DF938C01219A2898219A579A7C
:104B0000259A239A249829985F9A84E0F801868B45
:104B10008CB5837F8CBD8CB58F7D8CBDCFB7F89461
:104B20008091B902811124C0EFEEF6E18491E3E0B7
:104B3000F7E19491E82FF0E0EE0FFF1FE552F94EF8
:104B4000A591B491EC91E92321F461E08AE00E94FF
:104B5000D1238AE00E94AB2B8CB580618CBD8CB5D3
:104B600080648CBD8DE00E94AB2B8BE00E94AB2B50
:104B70008091B9028F5F8093B902CFBF8CB58C7FD3
:104B80008CBD8DB58E7F8DBD5F9A289862E370E0F5
:104B900080E090E00E94821F289A68E770E080E041
:104BA00090E00E94821FE8E6F3E07F018FEFE81AB1
:104BB000F80A64916F3FA1F1862F807C8038B1F0B4
:104BC000803C39F1803411F0F701EFCFC62FCF735D
:104BD0006F01DC2FFFEFCF1ADF0ADD23B9F0F601FA
:104BE0006491C8010E94F91FD150F4CFC62FCF7332
:104BF0006F01DC2FFFEFCF1ADF0ADD2339F0F6015A
:104C00006491C8010E94C51FD150F4CFEC0EF11C75
:104C1000DBCF6F7370E080E090E00E94821FD4CF02
:104C200060E070E0C8010E94CD1A8CB58C7F8CBD0D
:104C30008DB581608DBD8FE790E00E94CA2B6CE23C
:104C400073E6C801DF91CF911F910F91FF90EF9014
:104C5000DF90CF900C94CD1AFC01682F637020E098
:104C600030E070E080E0A9014E5F5F4FDF0102C0DD
:104C7000B695A7954A95E2F7AD0141705527022EEA
:104C800001C0440F0A94EAF7742BA901475F5F4FF4
:104C9000DF0102C0B695A7954A95E2F7AD014170D4
:104CA0005527022E01C0440F0A94EAF7842B2F5F88
:104CB0003F4F27303105B9F608951F93CF93DF9307
:104CC000837090E020E030E050E070E0FA01022EC6
:104CD00002C0F595E7950A94E2F7E170FF27D90144
:104CE0001996EF0102C0CC0FDD1FAA95E2F7DE0195
:104CF000FB01022E02C0F595E7950A94E2F7E170F8
:104D0000FF27E901229602C0EE0FFF1FCA95E2F7C6
:104D1000EA2BFB2B8E2B9F2B2F5F3F4F273031052C
:104D2000A9F6909302048093010481E0809300042B
:104D3000DF91CF911F910895EF92FF920F931F93F0
:104D4000CF93DF93CDB7DEB767970FB6F894DEBF8A
:104D50000FBECDBF962FF090FF03FF2001F1E09032
:104D6000FE03EE20E1F08F1102C06E15C1F0BA0112
:104D70008C01CE0101960E942E1E4E2D6F2DCE016C
:104D800001960E9467248091FF03081721F080910B
:104D9000FE03181304C01092FF031092FE036796DF
:104DA0000FB6F894DEBF0FBECDBFDF91CF911F913C
:104DB0000F91FF90EF900895AF92BF92CF92DF9244
:104DC000EF92FF920F931F93CF93DF93CDB7DEB790
:104DD00067970FB6F894DEBF0FBECDBFD62E909169
:104DE0003C0360913D039D1102C0681721F15A01F7
:104DF000C82E84E1989FA001112484E1689FB0012E
:104E000011248CE2E82E83E6F82E04E110E024E180
:104E100030E0C5010E94D219B501CE0101960E9471
:104E20002E1E4D2D6C2DCE0101960E94DB24C092CA
:104E30003D03D0923C0367960FB6F894DEBF0FBED9
:104E4000CDBFDF91CF911F910F91FF90EF90DF9039
:104E5000CF90BF90AF900895382F20913B03909151
:104E60003A03213208F049C0809117038111FCCF29
:104E700042E040931703309316033FEF309315033E
:104E80001092140320931303AAE1B3E043EF52E01E
:104E9000FA013E2F341B321718F43D913193F9CFAC
:104EA0001092F2022091F202990F922B9093F2024B
:104EB0009091F102913061F41092F1029091F2021E
:104EC0009093BB009091BC0093FDF8CF95EC01C08E
:104ED00095EE9093BC00909117039230E1F390917E
:104EE00015039F3F79F080911503803241F0809146
:104EF0001503803331F084E005C081E003C082E017
:104F000001C083E01092190310923B031092180322
:104F100008952F923F924F925F926F927F928F925D
:104F20009F92AF92BF92CF92DF92EF92FF920F9338
:104F30001F93CF93DF93CDB7DEB769970FB6F89481
:104F4000DEBF0FBECDBF3C01362E242E2CE0629F6B
:104F5000C0011124825C9C4F2EE3422E23E0522E8E
:104F6000812C912CFC01E40FF11DF98FE88F520187
:104F7000C12CD12CF5018081873089F51092F00287
:104F8000E88DF98D80818730D9F49CE2E92E93E693
:104F9000F92E04E110E024E130E0A401B601C301E0
:104FA0000E94D219B301CE0101960E942E1E422DFD
:104FB000632DCE0101960E94DB24F50110820FC003
:104FC000F50110828CE2E82E83E6F82E04E110E071
:104FD00024E130E0A401B601C3010E94D219FCE033
:104FE000AF0EB11C24E1C20ED11C30E4C31631E077
:104FF000D30609F0BFCF8FEF481A580AE4E18E0EAE
:10500000911CF0EF8F16910409F0B1CF69960FB69D
:10501000F894DEBF0FBECDBFDF91CF911F910F91EE
:10502000FF90EF90DF90CF90BF90AF909F908F90C8
:105030007F906F905F904F903F902F900895CF9208
:10504000DF92EF92FF920F931F93CF93DF938C0128
:105050007B01809117038111FCCF81E080931703BE
:10506000809316039FEF909315031092140395E01D
:10507000909313038093F2029091F202946A9093BA
:10508000F2028091F102813061F41092F10280917C
:10509000F2028093BB008091BC0083FDF8CF85ECC9
:1050A00001C085EE8093BC00809117038130E1F34D
:1050B00080911403863018F4C091140301C0C6E037
:1050C000A3EFB2E029EC32E0F9018E2F821B8C179E
:1050D00018F48D918193F9CF1092C802C093C70242
:1050E0008AEEC82E82E0D82ED7E18091C802C81778
:1050F00059F080EA94E00E9441198D2797E1980FBA
:10510000F60191936F01F1CFC1E0C093180382E5DE
:1051100080933A031092190310923B0360E080EAF7
:1051200094E00E948D1981E00E942C278091EA0270
:10513000F80180838091EB02F70180838091EF0278
:1051400080FD03C0C093E90202C01092E902DF9122
:10515000CF911F910F91FF90EF90DF90CF90089526
:105160006F927F928F929F92AF92BF92CF92DF9277
:10517000EF92FF920F931F93CF93DF935C014A014D
:105180003801DE2CE90129912223A1F0D501ED910E
:10519000FC910684F785E02DCD2C73010FEF1FEFF6
:1051A000A401C5010995BC01F50186819781861787
:1051B00097074CF7CB01DF91CF911F910F91FF9093
:1051C000EF90DF90CF90BF90AF909F908F907F90A7
:1051D0006F9008958F929F92AF92BF92CF92DF927D
:1051E000EF920F931F93CF93DF93CDB7DEB7619705
:1051F0000FB6F894DEBF0FBECDBF6C015B014A0154
:105200004AE0BE016F5F7F4F822F90E00E94983886
:10521000EE24E39400E010E09E012F5F3F4FA401D5
:10522000B501C6010E94B02861960FB6F894DEBFA2
:105230000FBECDBFDF91CF911F910F91EF90DF9007
:10524000CF90BF90AF909F908F900895CF92DF92B4
:10525000EF920F931F93CF93DF93CDB7DEB7619794
:105260000FB6F894DEBF0FBECDBF20910A01211109
:1052700090C06C0183E08093C40260E070E0C601DE
:105280000E94CD1A83E0E82E00E010E02BE132E02E
:105290004CE350E062E370E0C6010E94B028EE24C7
:1052A000E39425E232E044E650E068E770E0C601AE
:1052B0000E94B0282CE232E048E750E068E770E056
:1052C000C6010E94B0288C014AE0BE016F5F7F4F8B
:1052D00081E090E00E948D38B801772700E010E06F
:1052E0009E012F5F3F4F48E750E0C6010E94B02863
:1052F000BC01772727ED31E048E750E0C6010E9466
:10530000B028BC0177272091C50248E750E0C601CC
:105310000E94EA2892E0E92E24E332E048EC50E0D3
:105320006EE170E0C6010E94B02860E070E080E0AD
:1053300090E00E941F2866E472E083E094E00E94FF
:10534000642361EF71E083E094E00E946423809124
:10535000E902882351F31092E9021092C50283E01A
:1053600080930A0181E08093C4021092F0028EE3E0
:1053700093E04CE0480F20E030E0FC01E20FF31F27
:105380001082245F3F4F203C3105B9F70196481346
:10539000F2CF8091C602882349F080910A018823C8
:1053A00029F0815080930A011092C60261960FB6CF
:1053B000F894DEBF0FBECDBFDF91CF911F910F914B
:1053C000EF90DF90CF9008952F923F924F925F928F
:1053D0006F927F928F929F92AF92BF92CF92DF9205
:1053E000EF92FF920F931F93CF93DF93CDB7DEB76A
:1053F00027970FB6F894DEBF0FBECDBF6C011F829A
:10540000262F30E03C832B8304E1702E8EE393E063
:105410009A83898384E0A82EB12C412C512C642CD2
:105420003F81232E312CE981FA81E20DF31D808129
:10543000833009F061C189E0808394E1399F4001A4
:105440001124A4E08A0E911C10EEE12E1BEFF12E28
:105450000EE010E02EE030E0A401B501C6010E948C
:10546000D219EB81FC81E40DF51DFE83ED83862DC1
:1054700090E0AD81BE818A179B070CF044C0019675
:105480002CE0289FF001299FF00D1124E25CFC4FD5
:10549000E20DF31D2081222321F039EF320F33304A
:1054A000B0F439E03083789EB001799E700D1124FC
:1054B0006C5F7F4FB0EEEB2EBBEFFB2E0EE010E0EB
:1054C0002EE030E0A401C6010E94D21926C022308D
:1054D00011F5A9E0A083789EB001799E700D11248A
:1054E0006C5F7F4FA0EEEA2EABEFFA2E0EE010E0DD
:1054F0002EE030E0A401C6010E94D2198091C502BD
:105500008F5F8093C502F2012B813C81E21BF30B7C
:10551000FE83ED8326C02130B1F36394A8CFF1015F
:10552000BCE06B9EE00DF11D1124EE5CFC4F208170
:1055300021111FC029E020830197789EB001799E38
:10554000700D11246C5F7F4FF0EEEF2EFBEFFF2EFE
:105550000EE010E02EE030E0A401C6010E94D21956
:105560006A94862D90E0AD81BE81A817B907BCF280
:1055700021C039EF320F3330E8F2223001F539E043
:1055800030830197789EB001799E700D11246C5F75
:105590007F4FE0EEEE2EEBEFFE2E0EE010E02EE061
:1055A00030E0A401C6010E94D2198091C5028F5F2C
:1055B0008093C5028B809C80820C931C23C0213079
:1055C00079F6F8CF0196E981FA81E80FF91F208179
:1055D00021111FC0B9E0B083789EA001799E500DC3
:1055E00011244C5F5F4F60EEE62E6BEFF62E0EE05F
:1055F00010E02EE030E0B501C6010E94D2199F8173
:105600009F5F9F83AF818A2F90E088159905D4F220
:1056100020C039EF320F3330E8F2223001F529E0B3
:105620002083789EA001799E500D11244C5F5F4F1E
:1056300030EEE32E3BEFF32E0EE010E02EE030E0F4
:10564000B501C6010E94D2198091C5028F5F809377
:10565000C50241018B819C81881A990A23C021309F
:1056600071F6F7CF0197E981FA81E80FF91F2081E0
:1056700021111FC0B9E0B083789EA001799E500D22
:1056800011244C5F5F4F20EEE22E2BEFF22E0EE046
:1056900010E02EE030E0B501C6010E94D2193F8132
:1056A00031503F83AF818A2F90E088169906D4F25B
:1056B00023C039EF320F3330E8F22230D9F429E039
:1056C0002083789EA001799E500D11244C5F5F4F7E
:1056D00090EEE92E9BEFF92E0EE010E02EE030E088
:1056E000B501C6010E94D2198091C5028F5F8093D7
:1056F000C50202C0213099F6BFEF4B1A5B0AE9815F
:10570000FA813C96FA83E983F4E1AF0EB11C20E103
:105710004216510409F083CE3F813F5F3F833C3006
:1057200008F474CE27960FB6F894DEBF0FBECDBF37
:10573000DF91CF911F910F91FF90EF90DF90CF906D
:10574000BF90AF909F908F907F906F905F904F90A1
:105750003F902F90089590E0FC01E750F94E24917E
:10576000FC01EB51F94E8491882399F090E0880F69
:10577000991FFC01E552F94EA591B491FC01EF523D
:10578000F94E859194918FB7F894EC91E22BEC93BC
:105790008FBF0895CF93DF93EC0189E00E94AB2B7C
:1057A000209711F460E004C0CF3FD10531F461E0EF
:1057B00089E0DF91CF910C94D123E6ECF6E1E491FE
:1057C000E330F9F048F4E130B9F0E230A1F584B506
:1057D000806284BDC8BD34C0E730E9F0E83019F11B
:1057E000E43049F580918000806280938000D093FE
:1057F0008B00C0938A0024C084B5806884BDC7BD77
:105800001FC080918000806880938000D0938900C1
:10581000C093880015C08091B00080688093B0006C
:10582000C093B3000DC08091B00080628093B0003F
:10583000C093B40005C0C038D1050CF0B8CFB2CFCA
:10584000DF91CF9108958091780090917900019631
:105850006BE070E00E94EF37611103C0299829982E
:105860000895643618F0299A299A08952FEF629FB7
:10587000C001112464E670E00E94EF37CB010C9464
:10588000CA2B2F923F924F925F926F927F928F928C
:105890009F92AF92BF92CF92DF92EF92FF920F93BF
:1058A0001F93CF93DF93CDB7DEB728970FB6F89449
:1058B000DEBF0FBECDBF9E838D838EE3A82E83E017
:1058C000B82E00E010E0812C912C212C312CF50118
:1058D000E20DF31D8081813009F058C06801412C30
:1058E000512C3201740118861F8292012F5F3F4FA5
:1058F0003A832983A2014E5F5F4F5C834B83EF8124
:10590000F885E40DF51DE35FFD4E8491E981FA8190
:105910002F813885E20FF31FE35FFD4E2491EB8169
:10592000FC814F815885E40FF51FE35FFD4EE49144
:10593000887F2C7F58E0259F90011124382BE69515
:10594000E695E6952E2BA601B7018D819E810E94DA
:105950008F1A8F819885039698878F839FEFE91A16
:10596000F90AAF81B885DC9751F6BCE34B0E511CA8
:10597000611C711CEFEFCE1ADE0AF0EB4F16F4E05B
:105980005F066104710409F0ADCF57C0823009F0A1
:1059900054C06401412C512C3201780118861F82B9
:1059A000C20101969A838983D2011296BC83AB838C
:1059B000EF81F885E40DF51DE35AF24F8491E981FA
:1059C000FA81AF81B885EA0FFB1FE35AF24F2491A9
:1059D000EB81FC81EA0FFB1FE35AF24FE491887FD1
:1059E0002C7FB8E02B9F90011124382BE695E6958B
:1059F000E6952E2BA701B6018D819E810E948F1AFC
:105A0000EF81F8853396F887EF83FFEFEF1AFF0AEF
:105A10002F8138852C33310559F63CE3430E511C58
:105A2000611C711C4FEFC41AD40A50EB451654E0A8
:105A300055066104710409F0B0CFBCE02B0E311C97
:105A4000E4E18E0E911CF0EC2F16310409F03FCFEB
:105A50000C5E1F4F2FEFA21AB20A003F110509F08A
:105A600032CF28960FB6F894DEBF0FBECDBFDF91C0
:105A7000CF911F910F91FF90EF90DF90CF90BF904B
:105A8000AF909F908F907F906F905F904F903F90DE
:105A90002F900895CF93DF93EEE3F3E080E091E061
:105AA00020E030E0DF01AC54BF4F882311F08B3091
:105AB00029F4EF01C20FD31F988302C090839C93F7
:105AC000245F3F4F203C310581F78F5F31968C304A
:105AD00039F7DF91CF9108958F929F92BF92CF9225
