:100000000C94940B0C94BB260C94BC0B0C94BC0B62
:100010000C94BC0B0C94BC0B0C94BC0B0C9486275E
:100020000C94BC0B0C94BC0B0C94BC0B0C94BC0B34
:100030000C94BC0B0C94BC0B0C94BC0B0C94BC0B24
:100040000C945B130C94BC0B0C9467120C9441122F
:100050000C94BC0B0C94BC0B0C94BC0B0C94BC0B04
:100060000C948D250C94BC0B43616C6962726174B5
:10007000696F6E0043616C6962726174696F6E00D2
:10008000666666666666666666666666646362641B
:1000900062606F6D6C73787B6B777F73818A6B7630
:1000A0007D7477796C6A68646261646363666666AE
:1000B00066666666666666666666666666666666E0
:1000C00066666666666463627882896E7F8B617736
:1000D00085576E7C7E8D97FFFFFF596D7B5A717F30
:1000E0006379876E7F89767D826463636666666600
:1000F00066666666666666666666666666666666A0
:1001000066646363747A7E5A7484687F8D687F8DB9
:10011000687E8CB7C1C860788769808E677E8C5D89
:100120007787747576646464666666666666666616
:100130006666666666666666666666666665656562
:10014000666666635955000000000000000000006C
:1001500000000000000000000000006F645F6364A6
:100160006466666666666666666666666666666631
:10017000666666666666666666666666585C5FF2B2
:10018000C2A9D4A68E81655754423946372F5A47A3
:100190003D8E6F60E6B49ACAA6935C60626A6A6A32
:1001A00066666666666666666666666666666666EF
:1001B0006666666666666666585D5FE0B49DE0B03A
:1001C00097D9A88FDBA990EEBCA2E0AF96D2A18907
:1001D000E2B198C9A89755595B3C3B3B6A6A6A668D
:1001E00066666666666666666666666666666666AF
:1001F00066666666585D5FE0B49DDEAD93C0ABA4F5
:10020000D7B9AADAAA91E4BCA8B3A7A5E1AE93C76F
:10021000A593676B6D1717176C6C6C6666666666E0
:10022000666666666666666666666666666666666E
:10023000585D60DEB19ADDAD94C7A798D6AE99DF60
:10024000AF95E3B79FBA9D92E1AF95C7A59361655E
:10025000671C1C1C737373656565666666666666F7
:10026000666666666666666666666666585D5FE2D0
:10027000B49DDCAD94D7A891B99280BB9685B89215
:1002800080DCAC93DEAE95C6A4925F6365383838E7
:100290005C5C5C6767676666666666666666666619
:1002A0006666666666666666575C5EEEC0A9DBAD2E
:1002B00094D6A8925E4643685454654B47DCAD958E
:1002C000DFAF96C6A4925C60625B5B5B3436386AD3
:1002D0006A6A6666666666666666666666666666B6
:1002E00066666666575C5EF5C4ABE5B297D7A68FC7
:1002F000A98D84C6B2AAA78B80DDAC93E8B499CC53
:10030000A491595D5F7A7B7B6C594566686A656527
:10031000656666666666666666666666666666667E
:100320005E6061A3958E8F837EA1897F9B7F738C96
:100330006C5E9C7F73A28B81938781968C876369A7
:100340006D7C786B69553F696B6D65656566666642
:100350006666666666666666666565656F6D6C4E42
:100360005B62374C583349564962701D2B34445DEB
:100370006A364B56384C5726363D28384056626907
:100380006667696767676565656666666666666609
:10039000666665656568686857626829373E4D5DC1
:1003A000674A5B655367731B23275266723E4E573D
:1003B000626F776A6E70656C706B6969656565659B
:1003C00065656666666666666666666666666263D6
:1003D000638A8481253842676D7053636B495B651E
:1003E0005165712E3A41516571485A655C6A726770
:1003F00065636665656565656666666666666666A6
:10040000666666666666666666665E6061BFA191E0
:1004100087817E6A6867556771516672506571465B
:10042000565F5368754D626D5D6D75676564666690
:10043000666666666666666666666666666666665C
:100440006666666666666666665E60616263636D62
:100450006D6D1B18190D0B0C1F1A1A4E5C651C18BC
:10046000171F1B1C514F4F68686866666666666694
:10047000666666666666666666666666666666661C
:1004800066666666666666666666666B6B6B333363
:10049000342621204B45427A7A7A28201D342F2F8A
:1004A00073747465656566666666666666666666C6
:1004B00066666666666666666666666666666666DC
:1004C000666666666666666464648D8D8C221B193A
:1004D0004842426F7070352E2D342E2C79797A6512
:1004E00065656666666666666666666666666666AE
:1004F000666666666666666666666666666666669C
:100500006565657272720303020000002C2C2C7565
:1005100075761212110000001A1A196D6D6D66665B
:10052000666666666666666666666666666666666B
:10053000666666666666666666666666666666665B
:10054000666666666666666666666666666666664B
:10055000666666666666666666666666666666663B
:10056000666666666666666666666666666666662B
:10057000666666666666666666666666666666661B
:10058000666666666666666666666666666666660B
:100590006666666464646061646262636666666619
:1005A00066666262625B5B5D666666666666666616
:1005B00066666666666666666666666666666666DB
:1005C00066666666666666666666666664646464D3
:1005D00068709A8D6E797B805F5F616262628282F1
:1005E00082C2C5BC6666666666666666666666667E
:1005F000666666666666666666666666666666669B
:100600006666666666646464595C63E1CB93BBAD01
:1006100088EFCE7875767A58595B9499A0FFD449C3
:10062000666666666666666666666666666666666A
:100630006666666666636363676767656565666663
:10064000666A6A6B9B9995F4D9925A5F6A77797F4B
:10065000F0CE76767A846A7080E6CE8166666666CB
:10066000666666666666666666666664646461613A
:10067000618989895C5C5C7A7A7A5C5C5C8284875B
:100680004334128585836161625E5F617B7A77EABC
:10069000CA79F0D081B6B0A06666666666666666A0
:1006A000666666666464647474748888882B2B2B11
:1006B0001C1C1C0A0A0A000000A0A0A0050609676D
:1006C000676865656566666660616265686F676ACA
:1006D000715F6063666666666666666666656565C2
:1006E0006464647878783E3E3E4E4E4E4E4E4E38B0
:1006F00038381515150000000505055D5D5D767639
:10070000766464646666666464646464646565658E
:100710006666666666666666666363638888883250
:10072000323272727275757571717150505028281D
:10073000280909090B0B0B000000757575656565C7
:100740006666666666666666666666666666666649
:1007500066666666666767675252526A6A6A818130
:10076000819797978A8A8A5C5C5C3030300A0A0AE3
:100770000B0B0B0505054343437171716565656698
:100780006666666666666666666666666666666609
:100790006668686856565636363666666684848459
:1007A0007C7C7C5A5A5A2B2B2B0808080B0B0B0805
:1007B00008081F1F1F71717165656566666666664C
:1007C00066666666666666666666666666696969C0
:1007D0004242422F2F2F555555656565616161492C
:1007E00049491616160E0E0E0B0B0B0707071D1D9B
:1007F0001D727272656565666666666666666666C1
:100800006666666666666666666666666363631BDC
:100810001B1B3D3D3D4A4A4A4242422222221717B3
:10082000171212120A0A0A0C0C0C4F4F4F6E6E6E02
:10083000656565666666666666666666666666665B
:1008400066666666666363638E8E8E1B1B1B2C2C2E
:100850002C3232322727272222221C1C1C12121271
:100860000E0E0E0000007878786363636666666635
:100870006666666666666666666666666666666618
:10088000666464646F6F6F6B6B6B1F1F1F2E2E2E61
:100890002929292222221919192323231616164839
:1008A00048487979797272726464646666666666CD
:1008B00066666666666666666666656565676767D8
:1008C0006464646969695454541717170F0F0F0C47
:1008D0000C0C1212120F0F0F3C3C3C7070706262D5
:1008E0006279797964646466666666666666666679
:1008F00066666666666666666664646462626264AC
:1009000064646767676E6E6E5555554646464E4E33
:100910004E6C6C6C68686865656566666664646480
:100920006666666666666666666666666666666667
:1009300066666565656E6E6E8A8A8A757575777787
:10094000776A6A6A68686869696968686866666615
:1009500089898963636365656566666666666666DA
:100960006666666666666666666666666666666627
:10097000666565656262626363636E6E6E6565651A
:10098000656565666666666666656565626262651A
:1009900065656666666666666666666666666666F9
:1009A00066666666666666666666666666666666E7
:1009B00066666666666665656565656566666666DD
:1009C00066666666666666666666666666666666C7
:1009D00066666666666666666666666666666666B7
:1009E00000000000240027002A000000000025006D
:1009F00028002B000404040404040404020202027C
:100A000002020303030303030102040810204080D1
:100A10000102040810200102040810200000000850
:100A200000020100000304070000000000000000B5
:100A30000000000000000000307878303000300006
:100A40006C6C6C00000000006C6CFE6CFE6C6C004A
:100A5000307CC0780CF8300000C6CC183066C60078
:100A6000386C3876DCCC76006060C0000000000096
:100A7000183060606030180060301818183060005E
:100A800000663CFF3C660000003030FC3030000067
:100A90000000000000703060000000FC000000005A
:100AA0000000000000303000060C183060C08000EC
:100AB00078CCDCFCECCC780030F030303030FC000E
:100AC00078CC0C3860CCFC0078CC0C380CCC78009E
:100AD0001C3C6CCCFE0C0C00FCC0F80C0CCC780060
:100AE0003860C0F8CCCC7800FCCC0C1830606000CA
:100AF00078CCCC78CCCC780078CCCC7C0C1870003E
:100B000000003030003030000000303000703060C5
:100B1000183060C0603018000000FC00FC000000CD
:100B20006030180C1830600078CC0C1830003000A1
:100B30007CC6DEDEDEC078003078CCCCFCCCCC00CD
:100B4000FC66667C6666FC003C66C0C0C0663C0015
:100B5000FC6C6666666CFC00FE6268786862FE008B
:100B6000FE6268786860F0003C66C0C0CE663E00F9
:100B7000CCCCCCFCCCCCCC007830303030307800D1
:100B80001E0C0C0CCCCC7800E6666C786C66E6002B
:100B9000F06060606266FE00C6EEFED6C6C6C600A5
:100BA000C6E6F6DECEC6C600386CC6C6C66C3800D1
:100BB000FC66667C6060F00078CCCCCCDC781C00F5
:100BC000FC66667C786CE60078CCE0381CCC78005B
:100BD000FCB4303030307800CCCCCCCCCCCCFC0069
:100BE000CCCCCCCCCC783000C6C6C6D6FEEEC60087
:100BF000C6C66C386CC6C600CCCCCC783030780019
:100C0000FECC983062C6FE0078606060606078005C
:100C1000C06030180C0602007818181818187800F0
:100C200010386CC60000000000000000000000FF4B
:100C300030301800000000000000780C7CCC7600FA
:100C4000E0607C666666BC00000078CCC0CC7800B2
:100C50001C0C0C7CCCCC7600000078CCFCC078005E
:100C6000386C60F06060F000000076CCCC7C0CF852
:100C7000E0606C766666E6003000703030307800F8
:100C8000180078181818D870E060666C786CE60068
:100C900070303030303078000000ECFED6C6C60030
:100CA0000000F8CCCCCCCC00000078CCCCCC7800C8
:100CB0000000DC66667C60F0000076CCCC7C0C1E0C
:100CC0000000D86C6C60F00000007CC0780CF8006C
:100CD00010307C30303418000000CCCCCCCC760006
:100CE0000000CCCCCC7830000000C6C6D6FE6C002C
:100CF0000000C66C386CC6000000CCCCCC7C0CF874
:100D00000000FC983064FC001C3030E030301C00E7
:100D10001818180018181800E030301C3030E000A7
:100D200076DC00000000000010386CC6C6C6FE006D
:100D30004128D441CF8300833041ED846403128184
:100D400041E88385017941CB85392C00340241F794
:100D5000812041EA82000041C0812641C1811141C8
:100D6000C582353E41C781BE41B182001B41F2813F
:100D7000084126810141E08F1F1A180A0F06458796
:100D8000320A070207050041E18F002527051009F7
:100D90003A784D05180D383A1F41B6840A8227006B
:100DA00041B78107413A8155413681E8412A8200A5
:100DB0000082013F412B8200008200EF4111FCFCC8
:100DC0004129D4FFFF91714BDFC094CDAC81C3A406
:100DD00078CCAC85ECD2B1E4C8A3E9C9A3DDBD965B
:100DE000E4C8A3F5D9B4E0C099E0C09AD4B891EBB7
:100DF000D1AED0B089C8A87FC9A980D8B88FC9A8FA
:100E00007FDBBB92B4926CCBA87ED7B68BAD8B5EEA
:100E1000CAA77DC5A47BA7845A9271488B6A3FA359
:100E2000825797764D967D5EC09F76D4B187BC9AE7
:100E30006DD3B287DCBB90BF9E71BE9C6FC6A57A96
:100E4000AB8A5FB3936ACAAA84C4A47DD4B99BDF7A
:100E5000CDB5D3C0A2C2AB82D2B68FD5B992DFC80E
:100E6000A8BDA57FCDAF8BD2B895C0A27CCBB495E1
:100E7000C4A380C19F72A9875AC3A478CBAA81C793
:100E8000A67DC2A27CCEAE87B19065917754A7862D
:100E90005DA3835D7456308B6E46B6956CB5956FC9
:100EA000A6845EA07F56846139B89A74583E23BDEB
:100EB0009C71B99970C7A77EAE8C5FC1A17AA380DF
:100EC00056D0B089D9B791B59469B29877BD9D765F
:100ED0007A593078552BE3C19BA18055B7966DB2F6
:100EE0009168916E44C7A78054391CB59268E3C5D8
:100EF0009FEAD0ADBC996FD8BA94C9A87DB390666B
:100F0000BF9F78D4B38AB08F66A08363A5845B97B4
:100F1000764DD5B58CBC9B7097764BB18E66987725
:100F20004EC6A67F563B1EC4A47DDEBE97DBBE9C8C
:100F3000B8976EEBD5BD8F734ECCAB80AF8C62D0C3
:100F4000B087C7AA88C2A279775B36907047DDC99F
:100F5000B0B19067A4835AAC895FA7865DC8AE899B
:100F6000523719BD9C73C3A277E7C7A0A9885FD782
:100F7000BB96AA8A63A48B6CC7A780BFA580CFB29B
:100F80008ACAA980BA9A73896C4AD7B790CFAE85BE
:100F9000AC8C65A8855B9B7B52BD9F79583F21AE89
:100FA0008D64CAA980D7B790A18057D0B691A2828C
:100FB00059BEA27D9A7D55D0B28C9D7A50B797705C
:100FC000B5946BC3A37CBEA684A4845DB08F66B6C3
:100FD000956C8D6F49AB8D67604729B39164DCBB1D
:100FE00092EBCDA78B6A3FDBBD99AD8D66D6BA95E6
:100FF000B18C609A805FE0C29CA38056BA9A73B2AB
:10100000926BC7A77E785C37B4946EB9986D7D5F9C
:1010100039BA9C7661482AB49167B19065F1D5AE32
:10102000846338D5B79386643EE3C7A2AD885BB9C5
:101030009972C2A887E0C39B926F45B09069B39341
:101040006CCBAB84977A58AE8D64846640AD8D6668
:10105000695032A9875AAF8C62D7B7909E7D54D21F
:10106000BEA37D5D37DBBD97997447D2BDA2DBC6B9
:10107000A9A98C6AE0C29CA27F55BC9D7EAC8C6302
:10108000C9A9827F6544856741C7AF95584122AEA3
:101090008C5FDAB990E6C6A0A98B67D7BE958B6A3C
:1010A00041DBBD97C29D71D0B389D9BB95C2A47EE7
:1010B0005E3C16E5C9A4B4936AB5956EA4845BCA78
:1010C000AD85684D2FBA9C76563F20AF8E63CDAB71
:1010D00085DDC19CB29168E3CAA288673ECBAB8430
:1010E0009C774BDBBD97CFAE83CEB189936E42C068
:1010F000A683E6CAA3BB9A71CEAC86AD8D66CCAC96
:10110000859C8364523A20BD9D74C6A57AEBD1B00C
:10111000BF9C72D5B992AC8C63CAAA818B683EDF42
:10112000C39EC2A178C8AB83A27D51CEB08A886B22
:1011300043D7BB94B7966DC8A77EAD8D66D9BC94D6
:1011400039250DC8A680DBBB94D0B087AC8A5DC4BE
:10115000A6809E7E58A4845B7B5A31D7B993D2B8BF
:1011600095D0B089C5A376DABC969E7C4FA68A65D9
:10117000F9DBB5CEAD84BB9973CBB293B8A07EB981
:10118000986DE2C49EC7A77ECFAE85D6C3A5A789BA
:101190006595754C6C4E28C5AB86A48358BD9F7968
:1011A000A9885DB89C77A78659D2B68FB19879E2A5
:1011B000C69FB5946BAD8D669D805EBD9C6FC1A1D1
:1011C00078CFAE83A8875CB7946AF9E9C8FCE7CA10
:1011D000FEEFD8FDF1D7FFF4DAFFFAE0FFF2D8FF17
:1011E000F0D7FFF3D9FFF2DBFFF8E2FFEDD5D0B483
:1011F0008FD6BA95B89A76C5A375AD8B5ED8B98BE4
:10120000B5926AAF8E65C1A075C6A175C2A176AE52
:101210008E67B3926798774EA78256A984578D6CD4
:1012200043AD8A60A6865FB59469C4A275BA976D0E
:10123000B19168BA9970B9986DD2B58DC7A57FCFB5
:10124000AE83D3B38CCBAB84E3C9A6E8CEABD4B426
:101250008DE7C9A3F2D4B0E8CAA4E6CAA3DDBD965F
:10126000EACEA9E8CEADD8B891CFAF86C9A980C6DD
:10127000A57CD5B48B3F3D3B413F3E3A38372726CE
:10128000263D3D3D3A3A3A3C3C3C3F403F2A2827E8
:101290003937364240404746444644422D2B2A2E99
:1012A0002B2A42403F42403F3F3B392523223D3BD2
:1012B0003A353332323130312F2E2B29273737361A
:1012C0003B3A393D3D3B34333325242337353436DF
:1012D000353431302F31302F1E1D1C262424353358
:1012E0003232312F373432201F1D31302F1311117C
:1012F0001C1A1922201E1514131D1B1B1C1B1B203E
:1013000020202222221716151A191815141421202C
:10131000202C2B2B2B2A2A2B292724212024232263
:101320003737352D2D2B28272629262533313135E2
:1013300033322A27263833323132313F413F3D3E66
:101340003C282626393837302E2E333232403E3F65
:101350003837363733303632302F2E2C3B3A383848
:1013600038353735331D1C1B2927272C2B2B1916F5
:101370001624212023232232333130312F21202003
:101380002423232221221F1F1E1D1C1C1D1C1C2C5C
:1013900028262622201B1A192C2D2B30302F2827E7
:1013A00025393634302E2D2322223434343938393D
:1013B0003636362E2D2C3C3B3A3D3C3B302E2D31E3
:1013C00030303F3D3D434141484746201F1E3C3E93
:1013D0003E4243423433312523213D3A3847464685
:1013E0004443442D2B2B4646484040423A393A2C40
:1013F0002B2B3E3C3D434141403E3D292828444360
:10140000423F3E3D3D3C3B2524234748464445441E
:10141000444644302E2C413F3E1B1A191A19171FFF
:101420001D1D1B1B1A1A19192524231B1A19201EEE
:101430001E1F1E1D1B1A191514131514131615142F
:101440001A19181B19181716152625242524231FC9
:101450001E1E2322223F3F413B3938484645454323
:101460004143413F2C2A2A3E3D3C413F3F353333E7
:101470002827262C2B2A211F1E33312F3A3735449B
:10148000403D1B1A194444464A4A4B44444644448E
:1014900046313132211F1F38373637363433323236
:1014A0002322223E3D3E414040312F303C3B3A43D7
:1014B0004241222120403E3D403E3E4A47462120B7
:1014C0001F47484A3E3E3F3C3C3E373739181819C3
:1014D0001D1D1E151516191717332F2C312D2A21F6
:1014E0001E1D1817171E1D1D232221201E1E3332FC
:1014F00033232324232324201F2012111016151513
:101500001A1A1A1615161312134547484142443E3B
:101510003F412B28263B36333E3835342E2B302F97
:101520002E403F3D3F3D3D2423234041423E3E402F
:101530004445463D3E3F2726253936333F3A37243A
:1015400022203D3E401717172525263030311B1924
:101550001734302D322E2C2B2725262525363533D2
:101560003735341B1A1A3435362C2D2E38383A2993
:101570002A2B211F1E2C2B2A33312F24211F171712
:10158000182625241B1A18161412302F2D2B292843
:101590003432301E1D1D393839343334343334205D
:1015A0002020211F1D1F1C1A19181731302F33310D
:1015B000303332301716152E2E2D3533332C2B2B7E
:1015C00044413E312F2D3A3837413F3E3E3C3B2887
:1015D00027273E3E3F3E3D3F4241432B2A2B3F3A89
:1015E000363F3935201E1D4645444E4C4B51504F19
:1015F0002A2928484746454443201E1E201F1E1AFC
:1016000019181818171C1C1B222120171615201F2B
:101610001F1E1D1D1B1A1A1615151A18171E1C1A27
:101620001716151D1C1C1E1C1D292828201F1E1ED8
:101630001D1D28272623201F3A37353C3937403CCB
:101640003A423F3C201F1E3633302D2A282E2C2BA9
:10165000413E3B44413E2523224A4A474A4A4644AA
:10166000454141413F1F1F1F2C2B2A2825222B2893
:10167000261E1C1C44423F42403E464342423F3DE0
:10168000201F1E3D3B393A3735353331413E3C470B
:1016900043402524224A4B48494A4846474443454B
:1016A0004323222044413F46423E3B373515151423
:1016B000232120211F1E2725251D1C1B12100F244E
:1016C000211F221F1D1413131E1E1E1C1C1B121172
:1016D0001122201F1816141C1C1B2426240E0C0C6F
:1016E0001614131C1B1923211F43413F4845433C3B
:1016F000393721201F3F3F3D3838373D3D3D383792
:10170000372C2A29444342434140413F3E41403E19
:101710002D2B2A2E2C2B3F3C3B3835333B383524A0
:101720002221403E3B00953511241FBECFEFD8E06B
:10173000DEBFCDBF12E0A0E0B1E0ECEDFDE602C0FF
:1017400005900D92A433B107D9F724E0A4E3B2E0E9
:1017500001C01D92A63DB207E1F71BE0C4E9DBE042
:1017600004C02197FE010E947436C339D107C9F71E
:101770000E9458280C94EC360C940000CF93DF9311
:10178000EC018EE591E099838883FB01828193814E
:101790009B838A83848195819D838C8386819781B5
:1017A0009F838E838085918599878887828593859D
:1017B0009B878A87848595859D878C878685978575
:1017C0009F878E8780899189998B888B828993895D
:1017D0009B8B8A8B848995899D8B8C8B8689978935
:1017E0009F8B8E8B8CE17896DE01589601900D923E
:1017F0008A95E1F7FB0184A98CAB85A98DAB86A9FD
:1018000097A99FAB8EAB80AD91AD99AF88AF82ADFC
:1018100093AD9BAF8AAF84AD95AD9DAF8CAF86ADD8
:1018200097AD9FAF8EAF86E691E099838883E05CA9
:10183000FF4F8081C05CDF4F8883DF91CF91089597
:10184000CF92DF92EF92FF920F931F93CF93DF938C
:101850006C017A018B01C0E0D0E0CE15DF0589F084
:10186000D8016D918D01D601ED91FC910190F0812F
:10187000E02DC6010995892B11F47E0102C0219645
:10188000ECCFC701DF91CF911F910F91FF90EF90A7
:10189000DF90CF900895FC01918D828D981761F0B3
:1018A000828DDF01A80FB11D5D968C91928D9F5F97
:1018B0009F73928F90E008958FEF9FEF0895FC0142
:1018C000918D828D981731F0828DE80FF11D858DF5
:1018D00090E008958FEF9FEF0895FC01918D228D88
:1018E000892F90E0805C9F4F821B91098F7399270D
:1018F0000895FC01848DDF01A80FB11DA35ABF4FCD
:101900002C91848D90E001968F739927848FA689FE
:10191000B7892C93A089B1898C9180648C93938D25
:10192000848D981306C00288F389E02D80818F7D15
:1019300080830895EF92FF920F931F93CF93DF93CD
:10194000EC0181E0888F9B8D8C8D981305C0E88910
:10195000F989808185FD24C0F62E0B8D10E00F5F84
:101960001F4F0F731127E02E8C8DE8120CC00FB69D
:1019700007FCFACFE889F989808185FFF5CFCE0190
:101980000E94790CF1CF8B8DFE01E80FF11DE35A17
:10199000FF4FF0820B8FEA89FB898081806207C04C
:1019A000EE89FF896083E889F9898081806480837A
:1019B00081E090E0DF91CF911F910F91FF90EF9028
:1019C0000895CF93DF93EC01888D8823C9F0EA89CD
:1019D000FB89808185FD05C0A889B9898C9186FD28
:1019E0000FC00FB607FCF5CF808185FFF2CFA88925
:1019F000B9898C9185FFEDCFCE010E94790CE7CF9C
:101A0000DF91CF9108953FB7F89480914E02909165
:101A10004F02A0915002B091510226B5A89B05C07B
:101A20002F3F19F00196A11DB11D3FBFBA2FA92F5D
:101A3000982F8827820F911DA11DB11DBC01CD01DA
:101A400042E0660F771F881F991F4A95D1F70895C6
:101A5000CF92EF92FF920F931F93CF93DF93EC01FE
:101A6000E12CF12C0EE110E024E630E048EC50E0EF
:101A700064EB70E00E945F1A82E0C82E0FEF1FEF48
:101A800028E731E04DEC50E06CEB70E0CE010E94B5
:101A9000211ADF91CF911F910F91FF90EF90CF907E
:101AA00008950E947A36CF93DF93E4EAF2E080E073
:101AB00091E020E030E0DF01AC54BF4F882311F00B
:101AC0008B3029F4EF01C20FD31F988302C090839B
:101AD0009C93245F3F4F203C310581F78F5F319607
:101AE0008C3039F7DF91CF9108956F927F928F926A
:101AF0009F92AF92BF92CF92EF92FF920F931F935C
:101B0000CF93DF93CDB7DEB7C258D1090FB6F894A3
:101B1000DEBF0FBECDBF5C0110E0C5010E941C19E5
:101B2000F50184819581009719F46284738414C04F
:101B3000F5018A35910519F4648475840DC06680B9
:101B40007780843B910519F48285938503C0F50164
:101B500084859585681A790AC5010E941C19F501CA
:101B600084819581009719F48484958415C0F501CA
:101B70008A35910529F4808491848285938507C0F4
:101B8000843B910539F48084918484859585881AF5
:101B9000990A02C0828493841111AAC0C5010E94CF
:101BA0008318882309F4B9CFB501CE018E5B9F4F0E
:101BB0000E94BE0B6FEF7FEFCE018E5B9F4F0E94A6
:101BC000FE24BE016E5B7F4FCE0101960E94BE0BCC
:101BD000E12CF12C02E310E020EA30E048E250E092
:101BE00060E570E0CE0101960E945F1A83E0C82E86
:101BF0000FEF1FEF25EB31E047E350E069E670E0BF
:101C0000CE0101960E94211ABE016E5B7F4FCE016C
:101C100001960E94BE0B02E310E02AEF30E044E69A
:101C200050E068E270E0CE0101960E945F1A0FEF6B
:101C30001FEF23EC31E043E750E062E370E0CE01B8
:101C400001960E94211ABE016E5B7F4FCE01019664
:101C50000E94BE0B02E310E021E030E040EA50E0D9
:101C600061E470E0CE0101960E945F1A01E010E08D
:101C700029EB30E041ED50E061E470E0CE010196E7
:101C80000E945F1A02E310E021E030E040EA50E0F9
:101C900069EF70E0CE0101960E945F1A01E010E04A
:101CA00029EB30E040EA50E061E470E0CE010196BB
:101CB0000E945F1A02E310E029EB30E040EA50E0B6
:101CC00061E470E0CE0101960E945F1A0FEF1FEFF2
:101CD0002BEB31E04FEA50E060E570E0CE01019679
:101CE0000E94211AC5010E94831881110CC0C5C130
:101CF0001130C1F3123009F04AC1C5010E948318A6
:101D0000811156C1BCC1C30180559109813A910529
:101D100008F0CEC0C4018897C39708F0C9C0B501C8
:101D2000CE018E5B9F4F0E94BE0B6FEF7FEFCE0107
:101D30008E5B9F4F0E94FE2453E0C52EEE24EA9452
:101D4000FE2C00E010E02DE731E04AE050E06AE0D0
:101D500070E0CE018E5B9F4F0E94211ABE016E5B28
:101D60007F4FCE0101960E94BE0BE12CF12C0EE1BB
:101D700010E028E730E04CE350E064E170E0CE0191
:101D800001960E945F1A72E0C72E0FEF1FEF2AE83C
:101D900031E041E450E06CE170E0CE0101960E9438
:101DA000211ABE016E5B7F4FCE0101960E94BE0BD1
:101DB0000EE110E028E730E048E750E064E170E031
:101DC000CE0101960E945F1A0FEF1FEF22E931E06A
:101DD0004DE750E06CE170E0CE0101960E94211ABF
:101DE000BE016E5B7F4FCE0101960E94BE0B0EE1DD
:101DF00010E028E730E044EB50E064E170E0CE0111
:101E000001960E945F1A0FEF1FEF2AE931E049EBBC
:101E100050E06CE170E0CE0101960E94211ABE01F3
:101E20006E5B7F4FCE0101960E94BE0B04E610E070
:101E300028E730E04CE350E064EB70E0CE0101961F
:101E40000E945F1A0FEF1FEF22EA31E041E450E0F9
:101E50006CEB70E0CE0101960E94211A29EA31E074
:101E60004AE550E06CEB70E0CE0101960E94211A29
:101E70002FEA31E049E650E06CEB70E0CE010196CC
:101E80000E94211A25EB31E042E850E06CEB70E053
:101E9000CE0101960E94211ABE016E5B7F4FCE01DA
:101EA00001960E94BE0BCE0101960E94280D25CFFF
:101EB000C301815491098E3C910588F5C401805A73
:101EC0009109C39760F5B501CE018E5B9F4F0E94CB
:101ED000BE0B6FEF7FEFCE018E5B9F4F0E94FE2403
:101EE00033E0C32EEE24EA94FE2C00E010E02BEB4E
:101EF00031E044E150E067E370E0CE018E5B9F4F3C
:101F00000E94211ABE016E5B7F4FCE0101960E9496
:101F1000BE0BCE0101960E94280D13E03AC0C3010A
:101F200088978B3F910508F0A8C0C4018456910999
:101F3000C39708F0A2C0B501CE018E5B9F4F0E94EF
:101F4000BE0B6FEF7FEFCE018E5B9F4F0E94FE2492
:101F500093E0C92EEE24EA94FE2C00E010E023EC7E
:101F600031E044E150E068E270E0CE018E5B9F4FCB
:101F70000E94211ABE016E5B7F4FCE0101960E9426
:101F8000BE0BCE0101960E94280D14E00BC0133049
:101F900031F4C5010E94831881114DC0BECD1430AB
:101FA00009F0BBCDC5010E948318811155C0B5CD84
:101FB000C30144978536910578F5C401CC974F97B6
:101FC00050F482E080939F026CE273E6C5010E94A8
:101FD000FE2481E01EC0C401885791094F9758F430
:101FE00012E010939F026CE273E6C5010E94FE248A
:101FF0001093020146C0C401845B91094F9760F4BD
:1020000082E080939F026CE273E6C5010E94FE2489
:1020100083E08093020135C0F4EB6F1A710887E406
:102020006816710460F5E8EC8E1A9108FFE18F16CE
:10203000910428F571CDE4EB6E1A7108F7E46F1680
:10204000710408F06ACD88EC881A9108EFE18E16C9
:10205000910408F461CD61CD84EB681A7108E7E45E
:102060006E16710408F059CDF8EC8F1A91088FE1C3
:102070008816910408F051CD4FCD11E04ECD12E0FD
:102080004CCDCE57DF4F0FB6F894DEBF0FBECDBF9D
:10209000DF91CF911F910F91FF90EF90CF90BF9064
:1020A000AF909F908F907F906F9008957F928F92C6
:1020B0009F92AF92BF92CF92DF92EF92FF920F93D7
:1020C0001F93CF93DF93EC016FEE7BE70E94FE241A
:1020D00034E0C32E4FEEE42E4BE7F42E0FE010E079
:1020E0002EEC31E048E250E06FE070E0CE010E945B
:1020F000211A00E010E020E130E046E350E06CE31C
:1021000070E0CE010E94DD1B0FEE1BE722E030E005
:102110004EE250E066E370E0CE010E94DD1B22E05B
:1021200030E040E350E064E370E0CE010E94DD1B4C
:10213000E12CF12C05E010E02FE030E043E250E02C
:1021400065E370E0CE010E945F1A50E8E52E5AE781
:10215000F52E26E030E04EE150E06AE370E0CE017B
:102160000E945F1A26E030E04CE150E068E370E046
:10217000CE010E945F1A26E030E04AE150E066E3BB
:1021800070E0CE010E945F1A26E030E048E150E0A6
:1021900064E370E0CE010E945F1A99249394812C2D
:1021A000712CD12C2FEEE22E2BE7F22E0BE010E05B
:1021B0002EE030E042E150E06CE270E0CE01DD2044
:1021C000B9F10E945F1AF0E8EF2EFAE7FF2E05E062
:1021D00010E026E030E048E150E064E370E0CE013A
:1021E0000E945F1AA0EEAA2EABEFBA2EB6E1CB2E5C
:1021F000D12C19E3E12EF12C02E110E020E330E0D4
:102200004CE150E060E370E0CE010E94741CA12C10
:1022100088EFB82E9CE2E92EF12C25E330E04CE16A
:1022200050E065E370E0CE010E94741CD12C39C0EF
:102230000E945F1A30E8E32E3AE7F32E05E010E043
:1022400026E030E048E150E064E370E0CE010E9417
:102250005F1A40EEA42E4BEFB42E59E1C52ED12CBF
:1022600067E3E62EF12C09E110E02EE230E042E1D6
:1022700050E062E370E0CE010E94741CA12C78EF64
:10228000B72EE4E1CE2ED12C04E110E02EE230E0B6
:102290004CE150E062E370E0CE010E94741CDD244A
:1022A000D394711014C0992019F192E0C92E2FEE29
:1022B000E22E2BE7F22E0FE010E028ED31E048ECA3
:1022C00050E069E170E0CE010E94211A11C099200E
:1022D00079F08FEEE82E8BE7F82E0FE010E02CE07F
:1022E00031E048EC50E069E170E0CE010E945F1AF5
:1022F00084E6881528F4709499249394812C02C064
:102300008394912CCE010E948318882309F44ACF2C
:1023100081E080939F02DF91CF911F910F91FF90F9
:10232000EF90DF90CF90BF90AF909F908F907F9075
:1023300008952F923F924F925F926F927F928F9269
:102340009F92AF92BF92CF92DF92EF92FF920F9344
:102350001F93CF93DF936C015B018A01790166249F
:102360007724641A750AC0E0D0E00C171D070CF43E
:1023700060C04E018A0C9B1C9701A4012601400EEF
:10238000511EB2018FE094E00E94C0249701A40185
:102390001601201A310AB1018FE094E00E94C02496
:1023A00045018C1A9D0A9701A401B2018FE094E0C7
:1023B0000E94C0249701A401B1018FE094E00E9423
:1023C000C0242E014C0C5D1C97014501800E911E0E
:1023D000A401B2018FE094E00E94C02416012C1ADF
:1023E0003D0A9701A401B1018FE094E00E94C0244E
:1023F00097014501801A910AA401B2018FE094E08F
:102400000E94C0249701A401B1018FE094E00E94D2
:10241000C024CE0101966C0E7D1E680E791E77FCDD
:1024200006C001501109601A710A601A710AEC01A4
:102430009CCFDF91CF911F910F91FF90EF90DF9094
:10244000CF90BF90AF909F908F907F906F905F9054
:102450004F903F902F9008956115710579F0FB0121
:1024600001900020E9F73197AF01461B570BDC01C3
:10247000ED91FC910280F381E02D099480E090E0E1
:1024800008951F920F920FB60F9211242F933F932E
:102490004F935F936F937F938F939F93AF93BF936C
:1024A000EF93FF9386E693E00E94790CFF91EF9102
:1024B000BF91AF919F918F917F916F915F914F915C
:1024C0003F912F910F900FBE0F901F9018951F9264
:1024D0000F920FB60F9211242F938F939F93EF9328
:1024E000FF93E0917603F09177038081E0917C0384
:1024F000F0917D0382FD12C0908180917F038F5FF8
:102500008F7320918003821751F0E0917F03F0E0F8
:10251000EA59FC4F958F80937F0301C08081FF9122
:10252000EF919F918F912F910F900FBE0F901F9061
:10253000189590E0FC01E45EF54F3491FC01E85FF2
:10254000F54F2491FC01EC50F64FE491EE2309F491
:102550003BC0332339F1333091F038F43130A9F0F6
:10256000323001F584B58F7D12C0373091F03830AC
:10257000A1F03430B9F4809180008F7D03C0809148
:1025800080008F77809380000DC084B58F7784BDE5
:1025900009C08091B0008F7703C08091B0008F7D1B
:1025A0008093B000F0E0EE0FFF1FE651F64FA591CB
:1025B000B4918FB7F894EC91611103C020952E234C
:1025C00001C02E2B2C938FBF0895CF93DF9390E003
:1025D000FC01E85FF54F2491FC01EC50F64F84912B
:1025E000882361F190E0880F991FFC01E052F64FBB
:1025F000C591D491FC01E651F64FA591B4916111BA
:1026000009C09FB7F8948881209582238883EC9134
:102610002E230BC0623061F49FB7F8943881822F6B
:10262000809583238883EC912E2B2C939FBF06C02B
:102630008FB7F894E8812E2B28838FBFDF91CF913D
:1026400008958F929F92AF92BF92CF92DF92EF92B6
:10265000FF926B017C010E94030D4B015C01C114D0
:10266000D104E104F104F1F00E94030DDC01CB017F
:1026700088199909AA09BB09883E9340A105B105AB
:1026800070F321E0C21AD108E108F10888EE880E43
:1026900083E0981EA11CB11CC114D104E104F10413
:1026A00019F7DDCFFF90EF90DF90CF90BF90AF9004
:1026B0009F908F9008951F920F920FB60F92112442
:1026C0002F933F938F939F93AF93BF9380914A0231
:1026D00090914B02A0914C02B0914D023091490271
:1026E00023E0230F2D3720F40196A11DB11D05C055
:1026F00026E8230F0296A11DB11D20934902809365
:102700004A0290934B02A0934C02B0934D028091E9
:102710004E0290914F02A0915002B0915102019649
:10272000A11DB11D80934E0290934F02A0935002C1
:10273000B0935102BF91AF919F918F913F912F9193
:102740000F900FBE0F901F9018952F923F924F92AF
:102750005F926F927F928F929F92AF92BF92CF9231
:10276000DF92EF92FF920F931F93CF93DF935C0161
:1027700084E1689F6001112494E1499F8001112444
:10278000412C512C32017601C0E0D0E042019FEF94
:10279000891A990A120182E0280E311CFE01E40D0B
:1027A000F51DE05DFA4F8491FE01E80DF91DE05D35
:1027B000FA4F2491FE01E20DF31DE05DFA4FE49122
:1027C000887F2C7F98E0299F90011124382BE69573
:1027D000E695E6952E2BA801B701C5010E94C024FD
:1027E00023968FEFE81AF80ACC33D105B9F69CE3AB
:1027F000490E511C611C711C0F5F1F4F80EB481666
:1028000084E058066104710409F0BDCFDF91CF91D7
:102810001F910F91FF90EF90DF90CF90BF90AF90FE
:102820009F908F907F906F905F904F903F902F90F0
:1028300008952F923F924F925F926F927F928F9264
:102840009F92AF92BF92CF92DF92EF92FF920F933F
:102850001F93CF93DF935C0184E1689F6001112493
:1028600094E1499F80011124412C512C32017601C1
:10287000C0E0D0E042019FEF891A990A120182E07C
:10288000280E311CFE01E40DF51DE058FF4F849128
:10289000FE01E80DF91DE058FF4F2491FE01E20D05
:1028A000F31DE058FF4FE491887F2C7F98E0299F2B
:1028B00090011124382BE695E695E6952E2BA8017C
:1028C000B701C5010E94C02423968FEFE81AF80AC9
:1028D000CC33D105B9F69CE3490E511C611C711C27
:1028E0000F5F1F4F80EB481684E0580661047104A7
:1028F00009F0BDCFDF91CF911F910F91FF90EF9025
:10290000DF90CF90BF90AF909F908F907F906F900F
:102910005F904F903F902F9008950F931F93CF9308
:10292000DF93CDB7DEB7C154D1090FB6F894DEBF3F
:102930000FBECDBF182F062FBA01CE0101960E94FF
:10294000BE0B402F612FCE0101960E941914CF5B60
:10295000DF4F0FB6F894DEBF0FBECDBFDF91CF9132
:102960001F910F9108955F9A08959CB5282F2370A9
:102970009C7F922B9CBD2DB582FB992790F9822FCD
:102980008E7F892B8DBD08958EBD00000DB407FE8E
:10299000FDCF8EB50895862F5F982B9A2D989CB504
:1029A0009F7B9CBD2D9A9CB590649CBD0E94C414D5
:1029B0005F9A0895CF93DF931F92CDB7DEB7872F2D
:1029C0005F982B9A2D989CB59F7B9CBD2D9A9CB5AA
:1029D00090649CBD69830E94C4142B9A2D989CB569
:1029E0009F7B9CBD2D9A9CB590649CBD6981862F70
:1029F0000E94C4145F9A0F90DF91CF910895862FA3
:102A00005F982B982D989CB59F7B9CBD2D9A9CB56B
:102A100090649CBD0E94C4145F9A08956CE20E9469
:102A2000FF145F980895AF92BF92CF92DF92EF921A
:102A3000FF920F931F93CF93DF93EC015B017A0119
:102A400069016AE20E94FF14B501CE010E94DA1406
:102A5000B601CE010E94DA146BE2CE010E94FF148F
:102A6000B701CE010E94DA14B801CE01DF91CF91F7
:102A70001F910F91FF90EF90DF90CF90BF90AF909C
:102A80000C94DA140F931F93CF93DF93EC0169300A
:102A9000710519F06A35710571F48AE590E09D833E
:102AA0008C8380EF90E09F838E8380E491E0998710
:102AB000888718E434C06231710519F0643B7105F0
:102AC00071F484EB90E09D838C8380E491E09F839C
:102AD0008E8380EF90E09987888718E320C06B3160
:102AE000710521F07E7F6E30710571F48EE091E00A
:102AF0009D838C8380EF90E09F838E8380E491E0C0
:102B00009987888718E80BC01D821C8280E491E0B9
:102B10009F838E8380EF90E09987888718EE66E325
:102B2000CE010E94FF14612FCE010E94CB14E881D8
:102B3000F98108851985015011092E813F812150A5
:102B400031090680F781E02D40E050E060E070E060
:102B5000CE010995DF91CF911F910F910895CF93E9
:102B6000DF931F92CDB7DEB7872F2B9A2D989CB598
:102B70009F7B9CBD2D9A9CB590649CBD69830E94EF
:102B8000C4142B9A2D989CB59F7B9CBD2D9A9CB507
:102B900090649CBD6981862F0F90DF91CF910C943A
:102BA000C414CF92EF92FF920F931F93CF93DF93B2
:102BB000EC01262F6A3081F48EAD9FAD9BAF8AAFBA
:102BC0002CA92F778CAD9DAD38E0239F800D911DF2
:102BD00011249DAF8CAF47C0862F8B7F893009F4BD
:102BE00042C06AAD7BAD203219F461157105D9F18F
:102BF000E881F981E8ACF9AC0EA91FA94CAD5DAD37
:102C00000088F189E02DCCA8CE010995BC019BAFCD
:102C10008AAF8DA9882339F12CA92F77822F90E0D4
:102C200048EF4203900111244E815F81420F531FF0
:102C300046175707C4F44EAD5FAD5BAF4AAF43E0F4
:102C4000880F991F4A95E1F74CAD5DAD840F951F34
:102C50009DAF8CAF48855985240F351F281739073C
:102C600014F41DAE1CAE81E090E0DF91CF911F9176
:102C70000F91FF90EF90CF900895CF92EF92FF9237
:102C80000F931F93DC01ED91FC910684F785E02DF5
:102C900009951F910F91FF90EF90CF9008952F927B
:102CA0003F924F925F926F927F928F929F92AF92DC
:102CB000BF92CF92DF92EF92FF920F931F93CF9329
:102CC000DF9300D01F92CDB7DEB79B838A83480184
:102CD00088E0280290011124D901A05DB64F5D0162
:102CE000BC2DBF77CB2EEA81FB8186819781F1E0F5
:102CF000FB1708F463C06B0128E0C20ED11C8C15D1
:102D00009D050CF46EC0AA81BB811896ED91FC91D3
:102D100019979A01285F3F4FE217F3070CF461C03F
:102D2000AA81BB81ED91FC9111978A01095F1F4F28
:102D30009B01295F3F4F0680F781E02DCD0109956A
:102D4000AA81BB81ED91FC9111970084F185E02D62
:102D5000CD0109958501085F1F4FF5014490FFEFF4
:102D6000AF1ABF0A98E0692E712C20E8522EAA8172
:102D7000BB81ED91FC911197852D84210284F3850F
:102D8000E02D882319F0B401CD0103C0B7018A8179
:102D90009B8109955694B1E06B1A710841F7A01612
:102DA000B106D9F6AA81BB81ED91FC9111970484FB
:102DB000F585E02DCD010995C60176C0B8E0CB9E22
:102DC000800111243B01600E711E861597054CF0A1
:102DD000040F151FEA81FB812085318520173107FB
:102DE00014F4019661C0AA81BB81ED91FC91119709
:102DF000015011090680F781E02D9301215031091E
:102E0000CD010995AA81BB81ED91FC9111970084B8
:102E1000F185E02DCD0109952501B8E04B0E511C3F
:102E2000F5012490FFEFAF1ABF0A3C2C08E010E038
:102E300080E8D82E8D2D82212C2DA1F0AA81BB8176
:102E4000ED91FC9111970284F385E02DB401CD0141
:102E5000298309952981215089F7D69401501109B8
:102E600049F710C0AA81BB81ED91FC9111970284B2
:102E7000F385E02DB701CD012983099529812150E2
:102E800089F7EBCF3A943110D1CFA414B50409F0EF
:102E9000C7CFAA81BB81ED91FC9111970484F58580
:102EA000E02DCD010995C3010F900F900F90DF9198
:102EB000CF911F910F91FF90EF90DF90CF90BF9037
:102EC000AF909F908F907F906F905F904F903F90CA
:102ED0002F900895CF92DF92EF92FF920F931F935E
:102EE000CF93DF938C0161E088E00E94E51228987F
:102EF00061E089E00E94E51261E087E00E94E5124E
:102F000061E08DE00E94E51261E08BE00E94E51235
:102F100060E08CE00E94E51229985F9A61E086E00B
:102F20000E94E5125E9AF801E05CFF4F88E0808322
:102F30008CB5837F8CBD8CB58F7D8CBDCFB7F8945D
:102F400080915202811127C0EEEFF9E08491E2E115
:102F5000FAE09491E82FF0E0EE0FFF1FE052F64FF9
:102F6000A591B491EC91E92321F461E08AE00E94FB
:102F7000991261E08AE00E94E5128CB580618CBDF7
:102F80008CB580648CBD61E08DE00E94E51261E04B
:102F90008BE00E94E512809152028F5F8093520273
:102FA000CFBF85E00E94B5145F9A289862E370E075
:102FB00080E090E00E942113289A68E770E080E0AA
:102FC00090E00E942113E0E3FDE07F018FEFE81A1B
:102FD000F80A64916F3FA1F1862F807C8038B1F0B0
:102FE000803C39F1803411F0F701EFCFC62FCF7359
:102FF0006F01DC2FFFEFCF1ADF0ADD23B9F0F601F6
:103000006491C8010E94FF14D150F4CFC62FCF7332
:103010006F01DC2FFFEFCF1ADF0ADD2339F0F60155
:103020006491C8010E94CB14D150F4CFEC0EF11C76
:10303000DBCF6F7370E080E090E00E942113D4CF6B
:1030400060E070E0C8010E94FE2488E00E94B51490
:1030500061E089E00E94E512E5E2FAE0E491E33004
:1030600019F150F4E130D1F0E230E1F584B580623D
:1030700084BD8FE788BD3AC0E73011F1E83049F1EF
:10308000E43081F5809180008062809380008FE73A
:1030900090E090938B0080938A0028C084B580686C
:1030A00084BD8FE787BD22C08091800080688093B7
:1030B00080008FE790E0909389008093880016C08D
:1030C0008091B00080688093B0008FE78093B30058
:1030D0000DC08091B00080628093B0008FE7809334
:1030E000B40004C060E089E00E9499126CE273E6CB
:1030F000C801DF91CF911F910F91FF90EF90DF906A
:10310000CF900C94FE24BF92CF92DF92EF92FF9269
:103110000F931F93CF93DF938C01FCB4DDB585E053
:103120000E94B5145E9888EB0E94C41480E00E944F
:10313000C414C82F88EC0E94C41480E00E94C414F8
:103140005E9A80958F77CF77C80FC63008F45EC03F
:103150005E9880E90E94C41480E00E94C414C82EC6
:1031600080E00E94C41480E90E94C41480E00E94A0
:10317000C414D82E80E00E94C414E82ECD1044C0A0
:1031800080ED0E94C41480E00E94C414D82E80E018
:103190000E94C41480ED0E94C41480E00E94C414F4
:1031A000B82E80E00E94C414DB102EC094E0C99EAB
:1031B000900111244E2D50E096E0559547959A9533
:1031C000E1F7422B532B6FEF73E0FB01E41BF50B90
:1031D000AF01A9F0F4E0DF9EB0011124282F30E008
:1031E00086E0359527958A95E1F7262B372B211513
:1031F000310529F0F801518B408B338B228B8C2FBA
:1032000090E0F801978786875E9A03C0F8011786D9
:103210001686FCBCDDBD81E0F80126853785232BB1
:1032200009F480E0DF91CF911F910F91FF90EF9013
:10323000DF90CF90BF9008954F925F926F927F92F0
:103240008F929F92AF92BF92CF92DF92EF92FF92B6
:103250000F931F93CF93DF93EC01E888F9888C8953
:103260009D890A891B89E816F90609F474C0FD8A4C
:10327000EC8A288D398D4A8D5B8DD7010E94583696
:103280004B015C012C8D3D8D4E8D5F8DD8010E94D0
:103290005836AB01BC01480D591D6A1D7B1D88A124
:1032A00099A1AAA1BBA15A016B01A80EB91ECA1E01
:1032B000DB1EC601B50128A939A94AA95BA90E944C
:1032C000273649015A01DA01C9012C813D812A358D
:1032D000310509F118F4232B41F03BC0243B3105A3
:1032E00021F02E303140B9F034C02E813F81A90148
:1032F000440F551F60E070E084169506A606B706D9
:1033000028F5A90160E070E084169506A606B706C8
:1033100000F1C90115C0488559852A01440C551C86
:10332000612C712C84149504A604B70478F42A0146
:10333000612C712C84149504A604B70450F0CA01C2
:103340000197092E000CAA0BBB0B03C080E090E094
:10335000DC019B878A878E899F890817190709F4E2
:103360005FC01F8B0E8B2CA13DA14EA15FA1D70189
:103370000E9458364B015C0128A539A54AA55BA5DA
:10338000D8010E945836AB01BC01480D591D6A1D79
:103390007B1D8CA59DA5AEA5BFA55A016B01A80EEE
:1033A000B91ECA1EDB1EC601B50128A939A94AA942
:1033B0005BA90E942736DA01C9016C817D816A35DB
:1033C000710571F018F4672B41F028C0643B71055A
:1033D00021F06E30714021F021C06885798502C0EE
:1033E0006E817F814B01880C991CA12CB12C281572
:1033F00039054A055B0578F44B01A12CB12C281541
:1034000039054A055B0550F0CB010197092E000CE8
:10341000AA0BBB0B03C080E090E0DC019D878C878A
:10342000DF91CF911F910F91FF90EF90DF90CF90A0
:10343000BF90AF909F908F907F906F905F904F90D4
:1034400008954F925F926F927F928F929F92AF9268
:10345000BF92CF92DF92EF92FF920F931F93CF9381
:10346000DF935C01CB014A0138012701DC2CE90123
:103470002991222399F0D501ED91FC910684F785DD
:10348000E02DCD2C72018301A401BC01C501099579
:10349000F501268137812817390754F7DF91CF913D
:1034A0001F910F91FF90EF90DF90CF90BF90AF9062
:1034B0009F908F907F906F905F904F9008958F9224
:1034C0009F92AF92BF92CF92DF92EF92FF920F93B3
:1034D0001F93CF93DF93EC01690158012E813F8147
:1034E000621773071CF0B9016150710988859985CD
:1034F000481759071CF0AC0141505109FB01EC0D74
:10350000FD1DE217F3071CF06901C61AD70A9A01DC
:103510002A0D3B1D281739071CF05C01A41AB50AB7
:10352000E881F9818A010A0D1B1D015011099B01D7
:103530002C0D3D1D215031090680F781E02DCE0173
:103540000995E881F9810084F185E02DCE01099586
:103550009501D6010E9449364B015C01E881F98151
:1035600081149104A104B10461F00284F385E02D7B
:10357000B701CE01099581E0881A9108A108B10828
:10358000EDCF0484F585E02DCE01DF91CF911F9121
:103590000F91FF90EF90DF90CF90BF90AF909F90F2
:1035A0008F9009942F923F924F925F926F927F92E9
:1035B0008F929F92AF92BF92CF92DF92EF92FF9243
:1035C0000F931F93CF93DF93CDB7DEB728970FB636
:1035D000F894DEBF0FBECDBF4C016B0158874F83FF
:1035E000590162177307A1F40417150744F404275F
:1035F00015274027512758874F83042715272F81E8
:103600003885021B130B0F5F1F4F21E030E015C000
:103610004F81588540175107B9F42617370734F4FE
:10362000A626B726CA24DB24AC24BD2495012C1978
:103630003D092F5F3F4F01E010E04F815885B601F3
:10364000C4010E945F1AA0C0FC0126813781621765
:10365000730724F06901F1E0CF1AD108F4018085E5
:1036600091854F8158854817590724F0FC013197FF
:10367000F887EF83A216B30624F05901F1E0AF1AE0
:10368000B108081719071CF08C0101501109350108
:103690006C187D0828012F813885421A530A77FE5D
:1036A00008C07194619471084FEF5FEF5A834983AA
:1036B00004C081E090E09A83898357FE08C051944A
:1036C00041945108EFEFFFEFFC83EB8304C021E04E
:1036D00030E03C832B83A301440F551F5E834D8351
:1036E0001201220C331C97014F815885B601C40189
:1036F0000E94C024461457041CF5810106191709BD
:10370000CA14DB0409F440C017FD0CC08F819885F2
:10371000EB81FC818E0F9F1F98878F832D813E81C7
:10372000021B130B49815A81C40ED51E020D131DB5
:1037300097014F815885B601C4010E94C024E0CF93
:10374000AD80BE80A418B5088F8198858017910739
:10375000D9F0B7FC06C089819A81C80ED91EA2187B
:10376000B308EF81F8852B813C81E20FF31FF887C6
:10377000EF834D815E81A40EB51E9701AF01B601A6
:10378000C4010E94C024E0CF28960FB6F894DEBF93
:103790000FBECDBFDF91CF911F910F91FF90EF90A2
:1037A000DF90CF90BF90AF909F908F907F906F9061
:1037B0005F904F903F902F9008952F923F924F929D
:1037C0005F926F927F928F929F92AF92BF92CF92B1
:1037D000DF92EF92FF920F931F93CF93DF9300D06E
:1037E00000D000D0CDB7DEB76C012B015A013901F2
:1037F000480122243324221A330A1E821D828D811D
:103800009E81681679060CF456C04D815E814A0D82
:103810005B1D74018A019201260D371D3A832983AD
:10382000C201861997099C838B83BC01C6010E9443
:10383000D21AA501ED81FE814E1B5F0B8A01298101
:103840003A816B817C81C6010E94D21A2D813E8112
:10385000240D351D3C832B83C201ED81FE818E1B1F
:103860009F0B9A838983A501460D571D8A01BC01D0
:10387000C6010E94D21AA501461957098A012B8157
:103880003C8169817A81C6010E94D21A8D819E8114
:1038900001962D813E81220E331E280E391E37FCE3
:1038A00007C031E0631A7108261837082618370850
:1038B0009E838D83A4CF26960FB6F894DEBF0FBEED
:1038C000CDBFDF91CF911F910F91FF90EF90DF90CF
:1038D000CF90BF90AF909F908F907F906F905F90B0
:1038E0004F903F902F9008952F923F924F925F926A
:1038F0006F927F928F929F92AF92BF92CF92DF9200
:10390000EF92FF920F931F93CF93DF93CDB7DEB764
:1039100066970FB6F894DEBF0FBECDBF98878F8332
:103920002B013A013E8B2D8B4801B701160104177C
:10393000150774F460267126862497246824792458
:1039400042265326242535253E8B2D8B4226532691
:103950002814390484F42824392482249324282424
:1039600039242D893E8962277327262737273E8BE6
:103970002D8B622773278614970484F46824792496
:1039800086249724682479244D895E894426552607
:10399000442555255E8B4D8B4426552662147304B1
:1039A000F9F48D899E898415950534F09D898E8959
:1039B0005E8A4D8A492E582EAD89BE896A177B07CB
:1039C00034F0461657060CF42B016D897E8975017B
:1039D00083019201A3018F8198850E94D21AA4C00D
:1039E000ED89FE89E419F509F88BEF879401261912
:1039F00037093A8B298BAB01441955095E834D83F6
:103A0000C101861997099C878B87DB01ED89FE89A7
:103A1000AE1BBF0BBE87AD879101281939093C8BBE
:103A20002B8B8214930431F0A401415051095A8721
:103A3000498702C09A86898663011C821B821A828A
:103A40001982A985BA85AC15BD0574F189819A8161
:103A500069897A890E941336F201E60FF71F8B817C
:103A60009C816B857C850E9413369201260F371F3F
:103A700089819A81AF85B8898A0F9B1F9A83898330
:103A80004B815C818D819E81480F591F5C834B83E4
:103A900075018601A601BF018F8198850E94D21A07
:103AA0009FEFC91AD90ACDCFC60188199909ED85AA
:103AB000FE85E89F4001E99F900CF89F900C11242F
:103AC000C601861997092D813E81289F3001299FC3
:103AD000700C389F700C11242C143D042CF1C4017F
:103AE0006B897C890E941336ED89FE89E60FF71FEA
:103AF000C3016B857C850E9413369201260F371F08
:103B00004D855E85840E951E8D819E81680E791E81
:103B100075018601A601BF018F8198850E94D21A86
:103B20009FEFC91AD90AD8CF66960FB6F894DEBFB0
:103B30000FBECDBFDF91CF911F910F91FF90EF90FE
:103B4000DF90CF90BF90AF909F908F907F906F90BD
:103B50005F904F903F902F9008956F927F928F9239
:103B60009F92AF92BF92CF92EF92FF920F931F93CB
:103B7000CF93DF93CDB7DEB761970FB6F894DEBF72
:103B80000FBECDBF5C014B013A01C9014AE0BE0145
:103B90006F5F7F4F0E947F36CC24C394E12CF12CC1
:103BA0000FEF1FEF9E012F5F3F4FA301B401C5012F
:103BB0000E94211A61960FB6F894DEBF0FBECDBFEA
:103BC000DF91CF911F910F91FF90EF90CF90BF9019
:103BD000AF909F908F907F906F9008958F929F925B
:103BE000AF92BF920F931F93CF93DF93CDB7DEB702
:103BF000A1970FB6F894DEBF0FBECDBF19A2423019
:103C000008F44AE08E010F5D1F4F842E912CA12CE9
:103C1000B12CA50194010E942736E62FB901CA01F3
:103C200001501109EA3014F4E05D01C0E95CD801EB
:103C3000EC93232B242B252B61F7B80186E693E028
:103C40000E942C12A1960FB6F894DEBF0FBECDBF16
:103C5000DF91CF911F910F91BF90AF909F908F9068
:103C60000895E6E6F3E0A089B18982E08C93A4850B
:103C7000B5851C92A685B7858FEC8C93108EA48990
:103C8000B58986E08C93A289B3898C9180618C93ED
:103C9000A289B3898C9188608C93A289B3898C9115
:103CA00080688C930288F389E02D80818F7D8083EA
:103CB0000895EF92FF920F931F93CF93DF93CDB7A9
:103CC000DEB7C154D1090FB6F894DEBF0FBECDBF29
:103CD000962FF0906503FF2001F1E0906403EE2041
:103CE000E1F08F1102C06E15C1F0BA018C01CE0156
:103CF00001960E94BE0B4E2D6F2DCE0101960E94A3
:103D0000A51380916503081721F0809164031813AF
:103D100004C01092650310926403CF5BDF4F0FB6AF
:103D2000F894DEBF0FBECDBFDF91CF911F910F91F1
:103D3000FF90EF900895AF92BF92CF92DF92EF92F3
:103D4000FF920F931F93CF93DF93CDB7DEB7C1548C
:103D5000D1090FB6F894DEBF0FBECDBFD62E90911D
:103D6000A2026091A3029D1102C0681721F15A01BD
:103D7000C82E84E1989FA001112484E1689FB001BE
:103D800011248CE2E82E83E6F82E04E110E024E111
:103D900030E0C5010E945F1AB501CE0101960E9474
:103DA000BE0B4D2D6C2DCE0101960E941914C092B0
:103DB000A302D092A202CF5BDF4F0FB6F894DEBF12
:103DC0000FBECDBFDF91CF911F910F91FF90EF906C
:103DD000DF90CF90BF90AF900895CF92EF92FF9277
:103DE0000F931F93CF93DF93EC01909103019111F7
:103DF000B2C080E090E00E94A9366091A00270E01D
:103E00008617970720F480E090E00E94AF3680E0AC
:103E100090E00E94A936909307018093060182E00A
:103E200090E00E94A93690930B0180930A0160E014
:103E300070E0CE010E94FE2420910601309107011E
:103E400080910A0190910B0143E0C42EE12CF12CEA
:103E50000FEF1FEF8217930718F42AEE31E002C02C
:103E600024EF31E04CE350E062E370E0CE010E94C9
:103E7000211ACC24C394E12CF12C0FEF1FEF2EEF6D
:103E800031E044E650E068E770E0CE010E94211A7C
:103E90002AE032E048E750E068E770E0CE010E9497
:103EA000211A2091040130910501BC01772748E7D0
:103EB00050E0CE010E94AD1DBC01772722E132E027
:103EC00048E750E0CE010E94211A2091060130916E
:103ED0000701BC01772748E750E0CE010E94AD1DE5
:103EE0002AE032E04CE850E068E770E0CE010E9442
:103EF000211A2091080130910901BC0177274CE873
:103F000050E0CE010E94AD1DBC01772722E132E0D6
:103F10004CE850E0CE010E94211A20910A01309114
:103F20000B01BC0177274CE850E0CE010E94AD1D8B
:103F30001092A00281E08093030180939F0282E0AF
:103F4000C82E28ED31E048EC50E06EE170E0CE0183
:103F50000E94211AFFCF8091A102882329F091505D
:103F6000909303011092A102DF91CF911F910F91C5
:103F7000FF90EF90CF9008952F923F924F925F92D3
:103F80006F927F928F929F92AF92BF92CF92DF9269
:103F9000EF92FF920F931F93CF93DF93CDB7DEB7CE
:103FA000C354D1090FB6F894DEBF0FBECDBF3C019C
:103FB000362E242E2CE0629FC00111248C559D4F7B
:103FC00024EA422E22E0522E812C912CFC01E40F97
:103FD000F11D2496FFAFEEAF24975201C12CD12CD6
:103FE000F50180818730E9F52496EEADFFAD249789
:103FF0008081873039F565E172E086E693E00E94C2
:104000002C1260E372E086E693E00E942C129CE2A0
:10401000E92E93E6F92E04E110E024E130E0A4015A
:10402000B601C3010E945F1AB301CE0101960E943E
:10403000BE0B422D632DCE0101960E941914F5018D
:1040400010820FC0F50110828CE2E82E83E6F82E74
:1040500004E110E024E130E0A401B601C3010E94B4
:104060005F1AFCE0AF0EB11C24E1C20ED11C30E49B
:10407000C31631E0D30609F0B3CF8FEF481A580AC0
:10408000E4E18E0E911CF0EF8F16910409F0A5CF9C
:10409000CD5BDF4F0FB6F894DEBF0FBECDBFDF9113
:1040A000CF911F910F91FF90EF90DF90CF90BF9035
:1040B000AF909F908F907F906F905F904F903F90C8
:1040C0002F9008952CE0829FC0011124FC01EC5533
:1040D000FD4FE60FF11D80818750833018F481E099
:1040E0008093A10208952F923F924F925F926F9218
:1040F0007F928F929F92AF92BF92CF92DF92EF9278
:10410000FF920F931F93CF93DF93CDB7DEB729971D
:104110000FB6F894DEBF0FBECDBF6C01A42E722E79
:104120001986262F30E03E832D8304E1B02E24EA49
:1041300032E03C832B8384E0482E512C212C312CFF
:10414000622C9985892F90E09A838983EB81FC8189
:10415000E80FF91F8081833009F082C1A9E0A083B4
:10416000E985B4E1EB9F40011124F4E08F0E911C2E
:1041700010EEE12E1BEFF12E0EE010E02EE030E00D
:10418000A401B201C6010E945F1A2D813E81220D59
:10419000331D38872F83062D10E0EF81F8850E1729
:1041A0001F070CF04BC0672D8A2D0E946220C801AA
:1041B00001963CE0389FF001399FF00D1124EC5539
:1041C000FD4FA981BA81EA0FFB1F2081222321F034
:1041D00039EF320F3330B0F4B9E0B083B89EB0019C
:1041E000B99E700D11246C5F7F4FB0EEEB2EBBEFCC
:1041F000FB2E0EE010E02EE030E0A401C6010E948C
:104200005F1A26C0223011F529E02083B89EB00144
:10421000B99E700D11246C5F7F4FA0EEEA2EABEFBC
:10422000FA2E0EE010E02EE030E0A401C6010E945C
:104230005F1A8091A0028F5F8093A002C101AD81BF
:10424000BE818A1B9B0B98878F832CC02130B1F3D2
:104250006394A1CF672D8A2D0E946220E981FA81A3
:104260002CE0629EE00DF11D1124E856FD4F808187
:10427000811120C039E0308301501109B09EB00196
:10428000B19E700D11246C5F7F4FF0EEEF2EFBEFAF
:10429000FF2E0EE010E02EE030E0A401C6010E94E7
:1042A0005F1A6A94062D10E0EF81F885E017F10798
:1042B0008CF222C099EF980F9330E0F2823019F51A
:1042C00089E0808301501109B09EB001B19E700D4C
:1042D00011246C5F7F4FE0EEEE2EEBEFFE2E0EE032
:1042E00010E02EE030E0A401C6010E945F1A809128
:1042F000A0028F5F8093A00289809A80AD81BE81E9
:104300008A0E9B1E28C0813061F6F6CF672D8A2D5C
:104310000E946220C8010196EB81FC81E80FF91F21
:10432000208121111FC029E02083B89EA001B99EE1
:10433000500D11244C5F5F4F60EEE62E6BEFF62EB2
:104340000EE010E02EE030E0B201C6010E945F1ADC
:1043500099859F5F9987A9850A2F10E0081519058F
:10436000ACF220C039EF320F3330E8F2223009F5D9
:1043700039E03083B89EA001B99E500D11244C5FE6
:104380005F4F30EEE32E3BEFF32E0EE010E02EE019
:1043900030E0B201C6010E945F1A8091A0028F5FD7
:1043A0008093A00289809A808D819E81881A990AC3
:1043B00028C0213069F6F6CF672D8A2D0E94622031
:1043C000C8010197EB81FC81E80FF91F20812111C1
:1043D0001FC0B9E0B083B89EA001B99E500D112452
:1043E0004C5F5F4F20EEE22E2BEFF22E0EE010E03E
:1043F0002EE030E0B201C6010E945F1A39853150CB
:1044000039878985082F10E080169106ACF223C009
:1044100039EF320F3330E8F22230D9F429E020832B
:10442000B89EA001B99E500D11244C5F5F4F90EED5
:10443000E92E9BEFF92E0EE010E02EE030E0B20105
:10444000C6010E945F1A8091A0028F5F8093A00234
:1044500002C0213099F680919E02815080939E0285
:104460009FEF291A390AAB81BC811C96BC83AB83B0
:10447000B4E14B0E511CE0E12E16310409F060CE80
:10448000F985FF5FF987FC3008F451CE29960FB605
:10449000F894DEBF0FBECDBFDF91CF911F910F917A
:1044A000FF90EF90DF90CF90BF90AF909F908F9054
:1044B0007F906F905F904F903F902F900895EF9274
:1044C000FF920F931F93CF93DF930E94311EC4EA94
:1044D000D2E0F12CEC2E8CE0E80E00E010E0FE01C2
:1044E000E00FF11F8EE0608170E08F1538F080E002
:1044F00090E04AE00E94EE1DF3940CC080E090E052
:104500004AE00E94EE1D60E372E086E693E00E94BE
:104510002C12F12C86E693E00E94E10C045F1F4F01
:10452000003C1105E1F62196EC12D7CFDF91CF9137
:104530001F910F91FF90EF900895382F20919D02C9
:1045400090919C02213208F049C08091790281113A
:10455000FCCF42E040937902309378023FEF3093F2
:1045600077021092760220937502ACE7B2E045E53F
:1045700052E0FA013E2F341B321718F43D9131936B
:10458000F9CF1092540220915402990F922B9093DC
:10459000540290915302913061F410925302909121
:1045A00054029093BB009091BC0093FDF8CF95EC22
:1045B00001C095EE9093BC00909179029230E1F3A6
:1045C000909177029F3F79F080917702803241F09D
:1045D00080917702803331F084E005C081E003C030
:1045E00082E001C083E010927B0210929D02109243
:1045F0007A0208952F923F924F925F926F927F922C
:104600008F929F92AF92BF92CF92DF92EF92FF92E2
:104610000F931F93CF93DF93CDB7DEB728970FB6D5
:10462000F894DEBF0FBECDBF9E838D8384EAA82E93
:1046300082E0B82E00E010E0812C912C212C312C4E
:10464000F501E20DF31D8081813009F058C0680149
:10465000412C512C3201740118861F8292012F5F68
:104660003F4F3A832983A2014E5F5F4F5C834B83A8
:10467000EF81F885E40DF51DEB58FD4E8491E9813D
:10468000FA812F813885E20FF31FEB58FD4E2491FC
:10469000EB81FC814F815885E40FF51FEB58FD4EEF
:1046A000E491887F2C7F58E0259F90011124382BBE
:1046B000E695E695E6952E2BA601B7018D819E81A4
:1046C0000E94C0248F819885039698878F839FEFDF
:1046D000E91AF90AAF81B885DC9751F6BCE34B0EB5
:1046E000511C611C711CEFEFCE1ADE0AF0EB4F1665
:1046F000F4E05F066104710409F0ADCF57C0823069
:1047000009F054C06401412C512C32017801188603
:104710001F82C20101969A838983D2011296BC83BB
:10472000AB83EF81F885E40DF51DEB53F24F8491D7
:10473000E981FA81AF81B885EA0FFB1FEB53F24F95
:104740002491EB81FC81EA0FFB1FEB53F24FE491C4
:10475000887F2C7FB8E02B9F90011124382BE695A1
:10476000E695E6952E2BA701B6018D819E810E94CC
:10477000C024EF81F8853396F887EF83FFEFEF1AB7
:10478000FF0A2F8138852C33310559F63CE3430E5F
:10479000511C611C711C4FEFC41AD40A50EB451612
:1047A00054E055066104710409F0B0CFBCE02B0E53
:1047B000311CE4E18E0E911CF0EC2F16310409F04F
:1047C0003FCF0C5E1F4F2FEFA21AB20A003F110518
:1047D00009F032CF28960FB6F894DEBF0FBECDBFDA
:1047E000DF91CF911F910F91FF90EF90DF90CF90CD
:1047F000BF90AF909F908F907F906F905F904F9001
:104800003F902F90089585ED8093BC008091BC006F
:1048100084FDFCCF1092790208954091B104262FB7
:1048200030E0240F311D21323105DCF42091790272
:104830002430C9F4FC0180E090E0861758F43091F0
:10484000B1042191DC01A157BB4FA30FB11D2C93E3
:104850000196F3CF8091B104680F6093B10480E0BA
:10486000089581E0089582E008950895E091770425
:1048700080917604E81730F4F0E0EA5AFB4F80812B
:1048800090E008958FEF9FEF0895909177048091C5
:104890007604981750F4E92FF0E0EA5AFB4F208194
:1048A00030E09F5F9093770402C02FEF3FEFC90184
:1048B00008958091760490E020917704821B9109FD
:1048C0000895CF92DF92EF92FF920F931F93CF93B1
:1048D000DF937C01262F972F8A0180917A0288230B
:1048E00091F0C62FD72F6E01C40ED51ECC15DD0555
:1048F00071F06991D701ED91FC910190F081E02D6B
:10490000C7010995F3CF642F822F0E940D24C8019F
:10491000DF91CF911F910F91FF90EF90DF90CF909B
:104920000895CF93DF931F92CDB7DEB769832091AF
:104930007A022223D1F020919D02203240F021E022
:1049400030E0FC013383228380E090E015C0809149
:104950007B02E82FF0E0E458FD4F998190838F5F50
:1049600080937B0280939D0205C061E0CE01019699
:104970000E940D2481E090E00F90DF91CF91089587
:10498000EF92FF920F931F93CF93DF93EC018E81F1
:104990009F81681779075CF58885998548175907BD
:1049A00034F57901E881F9810680F781E02D8A01EB
:1049B0009B01CE010995E881F9810084F185E02D04
:1049C000CE010995E881F9810284F385E02DB701D4
:1049D000CE010995E881F9810484F585E02DCE01A9
:1049E000DF91CF911F910F91FF90EF900994DF918C
:1049F000CF911F910F91FF90EF9008958F929F920A
:104A0000AF92BF92EF92FF920F931F93CF93DF93DA
:104A1000EC017B01E881F9810885198501501109B4
:104A20002E813F81215031090680F781E02D40E041
:104A300050E060E070E00995E881F9810084F1853B
:104A4000E02DCE010995AE81BF81288539850E9470
:104A500049364B015C0183E0B694A7949794879400
:104A60008A95D1F7E881F98181149104A104B104F8
:104A700009F444C00284F385E02DB701CE01099505
:104A8000E881F9810284F385E02DB701CE01099513
:104A9000E881F9810284F385E02DB701CE01099503
:104AA000E881F9810284F385E02DB701CE010995F3
:104AB000E881F9810284F385E02DB701CE010995E3
:104AC000E881F9810284F385E02DB701CE010995D3
:104AD000E881F9810284F385E02DB701CE010995C3
:104AE000E881F9810284F385E02DB701CE010995B3
:104AF00081E0881A9108A108B108B4CF0484F58533
:104B0000E02DCE01DF91CF911F910F91FF90EF909B
:104B1000BF90AF909F908F9009941F920F920FB605
:104B20000F9211242F933F934F935F936F937F9333
:104B30008F939F93AF93BF93EF93FF938091B900AF
:104B4000887F803609F49CC068F5883209F45BC020
:104B500090F4803109F454C038F4882309F4F6C085
:104B6000883009F44DC0F6C0883109F44CC0803259
:104B700009F45DC0EFC0803409F468C048F48033A4
:104B800009F455C0883309F0E5C080937702D8C096
:104B9000803509F44FC0883509F45DC0883409F0C8
:104BA000D9C0D6C0883909F4C7C0A8F4883709F439
:104BB00067C038F4883609F463C0803709F460C0F0
:104BC000C9C0883809F4B8C0803909F45FC080389A
:104BD00009F0C0C05BC0803B09F486C038F4803A5D
:104BE00009F466C0883A09F47FC0B4C0803C09F477
:104BF000A7C0883C09F4A4C0883B09F48AC0AAC0B5
:104C00008091540210C0909176028091750298179D
:104C100070F5E091760281E08E0F80937602F0E0ED
:104C2000EB5AFD4F80818093BB0085EC86C080935A
:104C300077028EC0E091760281E08E0F809376023B
:104C40008091BB00F0E0EB5AFD4F8083909176029B
:104C5000809175026EC0E091760281E08E0F8093A4
:104C600076028091BB00F0E0EB5AFD4F808380918B
:104C7000780281116DC081E08093530284EA61C0A3
:104C800083E0809379021092D504CFCF8091D50430
:104C9000803208F051C0E091D50481E08E0F8093FE
:104CA000D5048091BB00F0E0EB54FB4F8083BDCF77
:104CB00085EC8093BC00109279028091D5048032FB
:104CC00030F4E091D504F0E0EB54FB4F108260919A
:104CD000D50470E0E091B304F091B40485EB94E066
:104CE00009951092D50436C084E080937902109221
:104CF000B2041092B104E091AF04F091B0040995B0
:104D00008091B104811105C081E08093B1041092BB
:104D10008F04E091B20481E08E0F8093B204F0E042
:104D2000E157FB4F80818093BB009091B20480914A
:104D3000B104981708F479CF85E88093BC000AC0C5
:104D400085EC8093BC001092790204C01092770227
:104D50000E940324FF91EF91BF91AF919F918F919A
:104D60007F916F915F914F913F912F910F900FBE67
:104D70000F901F9018951F920F920FB60F9211244B
:104D80002F933F934F935F936F937F938F939F9353
:104D9000AF93BF9380918B0490918C04A0918D046C
:104DA000B0918E04409187045091880460918904E9
:104DB00070918A0484179507A607B70750F04091B1
:104DC0008704509188046091890470918A049C0141
:104DD0000BC04091870450918804609189047091C0
:104DE0008A049C0121503109241B350B3093860421
:104DF000209385048093870490938804A09389046A
:104E0000B0938A048091850490918604893C910531
:104E100030F0109284041092830410925304809115
:104E2000850490918604029708F461C080918504FE
:104E300090918604089708F05AC08091530481111C
:104E40001092530480918504909186040597C0F0D8
:104E50008091850490918604089790F44091830492
:104E600050918404209154043091550481E090E0E5
:104E700002C0880F991F4A95E2F7822B932B32C00C
:104E80008091850490918604029730F0809185048A
:104E900090918604059798F0809183049091840402
:104EA000409718F481E0809353048091830490919B
:104EB00084040196909384048093830418C04091E5
:104EC000830450918404209154043091550481E06E
:104ED00090E002C0880F991F4A95E2F7809590955F
:104EE000822393239093550480935404D5CFBF918C
:104EF000AF919F918F917F916F915F914F913F9172
:104F00002F910F900FBE0F901F9018951F920F9228
:104F10000FB60F9211240F931F932F933F934F932C
:104F20005F936F937F938F939F93AF93BF93809182
:104F300082048F5F809382048A3009F0A8C0809138
:104F40008B0490918C04A0918D04B0918E04AC01DF
:104F5000BD014F5F5F4F6F4F7F4F40938B04509366
:104F60008C0460938D0470938E042091520422234C
:104F700009F483C0209181042223F1F080917F0401
:104F8000909180040A9771F41092810410927B042E
:104F900010927C0410927D0410927E041092800482
:104FA00010927F0480917F049091800401969093E9
:104FB000800480937F0448C000917B0410917C049E
:104FC00020917D0430917E044017510762077307DA
:104FD00021F420917A04211153C040917B04509117
:104FE0007C0460917D0470917E04452B462B472BF9
:104FF00059F520915004309151044091780450911A
:10500000790402C0369527954A95E2F720FF04C03F
:105010000796A11DB11D03C00496A11DB11D80936B
:105020007B0490937C04A0937D04B0937E0481E084
:1050300080937A04539A8091780490917904019630
:105040009093790480937804809178049091790406
:10505000419799F410927A0453981092790410921F
:105060007804109252041092810410927B041092E2
:105070007C0410927D0410927E041092820407C07A
:1050800010927A04539821E020938104A6CFBF9117
:10509000AF919F918F917F916F915F914F913F91D0
:1050A0002F911F910F910F900FBE0F901F90189589
:1050B000CF93DF93CDB7DEB7CF58D1090FB6F894B1
:1050C000DEBF0FBECDBF789484B5826084BD84B549
:1050D000816084BD85B5826085BD85B5816085BDF3
:1050E00080916E00816080936E00109281008091AB
:1050F0008100826080938100809181008160809333
:105100008100809180008160809380008091B10057
:1051100084608093B1008091B00081608093B00082
:1051200080917A00846080937A0080917A00826016
:1051300080937A0080917A00816080937A008091D8
:105140007A00806880937A001092C1000E94311E1C
:105150001092B0001092B1001092700082E1809322
:10516000B0008091B10082608093B10080917000A6
:105170008260809370008AE18093B4008093B300D2
:105180001092B200789452985A9AE89A80916900E5
:10519000816080936900539A8FEF539A539881509E
:1051A000E1F788B1806388B9109277041092760491
:1051B00010927B0210929D021092790211E01093DE
:1051C00078021092530261E082E10E94991261E03C
:1051D00083E10E9499128091B9008E7F8093B9007B
:1051E0008091B9008D7F8093B90088E48093B800E6
:1051F00085E48093BC0010937A0282E580939C0240
:1052000010927B0210929D0260E483E094E00E9481
:10521000912460E083E094E00E94912481E00E9468
:105220009D226FE074E0CE0101960E94BE0BCE017C
:1052300001960E946A1788E1ECE0F1E0DE01AE5BC6
:10524000BF4F01900D928A95E1F7209013043090A2
:10525000140460E070E08FE094E00E9442156FEF6C
:105260007FEF8FE094E00E94FE24A0901704B0909E
:105270001804B7FE03C02FEFA21AB20AB594A79480
:105280003AE0A31AB108809115049091160497FD95
:10529000019695958795C297E4E7F0E024914F0138
:1052A0002223D1F0CC24C394EE24EA94FE2C00E017
:1052B00010E0A501BC018FE094E00E944F164FEF73
:1052C000841A940A2091150430911604281739077E
:1052D0001CF0F4012491E4CF8FE094E00E94831845
:1052E0008111FACFD12CF8E64F2EF0E05F2EF8E0D6
:1052F000DF9E7001112402E410E00C0F1D1F0E0D43
:105300001F1D380124E0620E711C32E03D1508F4C7
:1053100098C0D3018D909C90F801A080B18020E0CE
:1053200030E042E050E0B401C5010E94991120E054
:1053300030E045E050E0B401C5010E94991120E041
:1053400038EF4AE050E0B401C5010E9499118FE0A6
:1053500094E00E9483188823C1F200E018EF22E055
:1053600030E0A401B5018FE094E00E94DD1BE1E094
:10537000F0E0EC0FFD1FEE0DFF1D80911F049091DA
:105380002004092E000CAA0BBB0B80839183A283FF
:10539000B3838091210490912204092E000CAA0B62
:1053A000BB0B84839583A683B783D39464E670E0B4
:1053B00080E090E00E9421136FEF7FEF8FE094E098
:1053C0000E94FE24F3E0DF1609F491CFA0901704A9
:1053D000B0901804B7FE03C02FEFA21AB20AB5941A
:1053E000A7943AE0A31AB10880911504909116048D
:1053F00097FD019695958795C297F201249178E6DD
:10540000872E70E0972E222309F471CFCC24C39409
:10541000EE24EA94FE2C00E010E0A501BC018FE030
:1054200094E00E944F16FFEF8F1A9F0A20911504F7
:1054300030911604281739070CF459CFF401249140
:10544000E2CF89819A81AB81BC81AA968CAF9DAF56
:10545000AEAFBFAFAA9729893A894B895C89A696D6
:105460002CAF3DAF4EAF5FAFA697821B930BA40B43
:10547000B50BEA968CAF9DAFAEAFBFAFEA978D8507
:105480009E85AF85B889EE968CAF9DAFAEAFBFAFAE
:10549000EE972D893E894F89588DE6962CAF3DAF0A
:1054A0004EAF5FAFE697821B930BA40BB50BC258B0
:1054B000DF4F88839983AA83BB83CE57D0408985E9
:1054C0009A85AB85BC85AE968CAF9DAFAEAFBFAFB6
:1054D000AE97A6962CAD3DAD4EAD5FADA697821BA7
:1054E000930BA40BB50BCE57DF4F88839983AA8308
:1054F000BB83C258D0408D819E81AF81B885CA5789
:10550000DF4F88839983AA83BB83C658D040E69631
:105510002CAD3DAD4EAD5FADE697821B930BA40B5A
:10552000B50BC657DF4F88839983AA83BB83CA58BC
:10553000D040C258DF4F288139814A815B81CE57E4
:10554000D040EA966CAD7DAD8EAD9FADEA970E94DE
:1055500003366B017C01C657DF4F288139814A81B0
:105560005B81CA58D040CE57DF4F688179818A81EC
:105570009B81C258D0400E940336C61AD70AE80A57
:10558000F90AC0923F04D0924004E0924104F092A4
:105590004204CD28CE28CF2809F414C226968CAD1B
:1055A0009DADAEADBFAD26976E968CAF9DAFAEAF45
:1055B000BFAF6E976696CCACDDACEEACFFAC669739
:1055C0002C013D014C185D086E087F082E962CAD0D
:1055D0003DAD4EAD5FAD2E97A2962CAF3DAF4EAF19
:1055E0005FAFA2972C193D094E095F09E2962CAFD7
:1055F0003DAF4EAF5FAFE297A3019201C258DF4FBC
:10560000688179818A819B81CE57D0400E94033680
:105610004B015C01E2962CAD3DAD4EAD5FADE29726
:10562000C657DF4F688179818A819B81CA58D040F3
:105630000E940336861A970AA80AB90A809227049C
:1056400090922804A0922904B0922A04EA966CADA4
:105650007DAD8EAD9FADEA970E9403364B015C0194
:10566000A3019201CE57DF4F688179818A819B81A6
:10567000C258D0400E940336861A970AA80AB90A6F
:1056800080922B0490922C04A0922D04B0922E04B0
:10569000A7019601AA966CAD7DAD8EAD9FADAA9780
:1056A0000E9403364B015C016E962CAD3DAD4EADB4
:1056B0005FAD6E97A6966CAD7DAD8EAD9FADA69796
:1056C0000E940336A5019401261B370B480B590B8A
:1056D000EE966CAD7DAD8EAD9FADEE970E9403361C
:1056E0002B013C01A2962CAD3DAD4EAD5FADA29716
:1056F000A6966CAD7DAD8EAD9FADA6970E9403368C
:105700004B015C01A7019601AE966CAD7DAD8EADEF
:105710009FADAE970E940336A5019401261B370B5F
:10572000480B590BCA57DF4F688179818A819B8169
:10573000C658D0400E940336460E571E681E791E7A
:105740006E962CAD3DAD4EAD5FAD6E97AE966CAD29
:105750007DAD8EAD9FADAE970E9403366B017C018F
:10576000A2962CAD3DAD4EAD5FADA297AA966CADA5
:105770007DAD8EAD9FADAA970E940336A70196011D
:10578000261B370B480B590BE6966CAD7DAD8EADE5
:105790009FADE6970E940336460E571E681E791E7F
:1057A00040922F045092300460923104709232047F
:1057B0002A968CAD9DADAEADBFAD2A976E968CAFDF
:1057C0009DAFAEAFBFAF6E976A968CAC9DACAEACE2
:1057D000BFAC6A976C017D01C818D908EA08FB08BC
:1057E00062962CAD3DAD4EAD5FAD6297A2962CAFEB
:1057F0003DAF4EAF5FAFA297281939094A095B093F
:10580000E2962CAF3DAF4EAF5FAFE297A701960196
:10581000C258DF4F688179818A819B81CE57D04001
:105820000E9403362B013C01E2962CAD3DAD4EADFE
:105830005FADE297C657DF4F688179818A819B818E
:10584000CA58D0400E940336461A570A680A790A95
:1058500040923304509234046092350470923604BE
:10586000EA966CAD7DAD8EAD9FADEA970E94033692
:105870002B013C01A7019601CE57DF4F688179814A
:105880008A819B81C258D0400E940336461A570A2B
:10589000680A790A409237045092380460923904B9
:1058A00070923A04A5019401AA966CAD7DAD8EADBF
:1058B0009FADAA970E9403366B017C016E962CADBA
:1058C0003DAD4EAD5FAD6E97A6966CAD7DAD8EAD28
:1058D0009FADA6970E940336A7019601261B370BA2
:1058E000480B590BEE966CAD7DAD8EAD9FADEE972E
:1058F0000E9403362B013C01A2962CAD3DAD4EAD6E
:105900005FADA297A6966CAD7DAD8EAD9FADA6970F
:105910000E9403366B017C01A5019401AE966CAD2B
:105920007DAD8EAD9FADAE970E940336A701960167
:10593000261B370B480B590BCA57DF4F68817981FB
:105940008A819B81C658D0400E940336460E571E5E
:10595000681E791E6E962CAD3DAD4EAD5FAD6E9757
:10596000AE966CAD7DAD8EAD9FADAE970E94033609
:105970006B017C01A2962CAD3DAD4EAD5FADA29703
:10598000AA966CAD7DAD8EAD9FADAA970E940336F1
:10599000A7019601261B370B480B590BE6966CADF9
:1059A0007DAD8EAD9FADE6970E940336460E571E25
:1059B000681E791E40923B0450923C0460923D0464
:1059C00070923E04B1018FE094E00E9442158FE096
:1059D00094E00E9483188111FACF12E047E0E42E90
:1059E00080919F0281110AC06FE074E0CE010196A0
:1059F0000E94BE0BCE0101960E945610F0909F02AD
:105A000031E0F312C3C56FE074E0CE0101960E944D
:105A1000BE0BCE0101960E94750D6FE074E0CE01C1
:105A200001960E94BE0BAE014F5F5F4F609148022E
:105A3000809147020E948D1400910201011119C149
:105A4000F0924702F0924802F092A302F092A20272
:105A50000E94530D1092C9021092D5021092E102D9
:105A60001092ED021092F9021092050310921103A8
:105A700010921D03109229031092350310924103D6
:105A800010924D031092BE021092CA021092D602DA
:105A90001092E2021092EE021092FA0210920603A5
:105AA0001092120310921E0310922A0310923603D2
:105AB0001092420310924E031092B3021092BF0252
:105AC0001092CB021092D7021092E3021092EF02D2
:105AD0001092FB02109207031092130310921F03FF
