:100000000C94880B0C94721F0C94B00B0C94B00BD6
:100010000C94B00B0C94B00B0C94B00B0C944420CB
:100020000C94B00B0C94B00B0C94B00B0C94B00B64
:100030000C94B00B0C94B00B0C94B00B0C94B00B54
:100040000C94F72B0C94B00B0C94792B0C94532B31
:100050000C94B00B0C94B00B0C94B00B0C94B00B34
:100060000C94441E0C94B00B000000000000000033
:1000700030787830300030006C6C6C00000000008C
:100080006C6CFE6CFE6C6C00307CC0780CF8300040
:1000900000C6CC183066C600386C3876DCCC7600EA
:1000A0006060C00000000000183060606030180020
:1000B000603018181830600000663CFF3C66000095
:1000C000003030FC30300000000000000070306074
:1000D000000000FC000000000000000000303000C4
:1000E000060C183060C0800078CCDCFCECCC7800CA
:1000F00030F030303030FC0078CC0C3860CCFC0074
:1001000078CC0C380CCC78001C3C6CCCFE0C0C0071
:10011000FCC0F80C0CCC78003860C0F8CCCC78006F
:10012000FCCC0C183060600078CCCC78CCCC78005B
:1001300078CCCC7C0C1870000000303000303000DF
:100140000000303000703060183060C0603018003F
:100150000000FC00FC0000006030180C183060004B
:1001600078CC0C18300030007CC6DEDEDEC07800B3
:100170003078CCCCFCCCCC00FC66667C6666FC009F
:100180003C66C0C0C0663C00FC6C6666666CFC00E9
:10019000FE6268786862FE00FE6268786860F0005F
:1001A0003C66C0C0CE663E00CCCCCCFCCCCCCC00F7
:1001B00078303030303078001E0C0C0CCCCC78000D
:1001C000E6666C786C66E600F06060606266FE0071
:1001D000C6EEFED6C6C6C600C6E6F6DECEC6C6006B
:1001E000386CC6C6C66C3800FC66667C6060F00081
:1001F00078CCCCCCDC781C00FC66667C786CE600A5
:1002000078CCE0381CCC7800FCB43030303078004A
:10021000CCCCCCCCCCCCFC00CCCCCCCCCC78300076
:10022000C6C6C6D6FEEEC600C6C66C386CC6C600CC
:10023000CCCCCC7830307800FECC983062C6FE0052
:100240007860606060607800C06030180C06020062
:10025000781818181818780010386CC600000000BC
:1002600000000000000000FF303018000000000017
:100270000000780C7CCC7600E0607C666666BC0092
:10028000000078CCC0CC78001C0C0C7CCCCC760068
:10029000000078CCFCC07800386C60F06060F00042
:1002A000000076CCCC7C0CF8E0606C766666E600EC
:1002B0003000703030307800180078181818D87076
:1002C000E060666C786CE60070303030303078007A
:1002D0000000ECFED6C6C6000000F8CCCCCCCC00AA
:1002E000000078CCCCCC78000000DC66667C60F046
:1002F000000076CCCC7C0C1E0000D86C6C60F0004A
:1003000000007CC0780CF80010307C3030341800CD
:100310000000CCCCCCCC76000000CCCCCC7830002B
:100320000000C6C6D6FE6C000000C66C386CC60065
:100330000000CCCCCC7C0CF80000FC983064FC00B5
:100340001C3030E030301C00181818001818180045
:10035000E030301C3030E00076DC000000000000AF
:1003600010386CC6C6C6FE0000000008000201007E
:10037000000304070000000000000000000000006F
:10038000250028002B0000000000240027002A0080
:10039000040404040404040402020202020203032B
:1003A0000303030301020408102040800102040833
:1003B00010200102040810204128D441CF8300837B
:1003C0003041ED846403128141E88385017941CB9A
:1003D00085392C00340241F7812041EA8200004136
:1003E000C0812641C1811141C582353E41C781BED0
:1003F00041B182001B41F281084126810141E08F19
:100400001F1A180A0F064587320A0702070500411E
:10041000E18F0025270510093A784D05180D383A67
:100420001F41B6840A82270041B78107413A8155AE
:10043000413681E8412A82000082013F412B82003F
:10044000008200EF4111FCFC4129D4FFFF66666683
:100450006666666666666666666463626462606F48
:100460006D6C73787B6B777F73818A6B767D747725
:10047000796C6A6864626164636366666666666610
:10048000666666666666666666666666666666660C
:1004900066666463627882896E7F8B617785576E4A
:1004A0007C7E8D97FFFFFF596D7B5A717F63798743
:1004B0006E7F89767D82646363666666666666665D
:1004C00066666666666666666666666666666463D1
:1004D00063747A7E5A7484687F8D687F8D687E8CA1
:1004E000B7C1C860788769808E677E8C5D778774B6
:1004F0007576646464666666666666666666666683
:10050000666666666666666666666565656666668E
:1005100063595500000000000000000000000000CA
:1005200000000000000000006F645F6364646666A2
:10053000666666666666666666666666666666665B
:10054000666666666666666666585C5FF2C2A9D4D1
:10055000A68E81655754423946372F5A473D8E6FD4
:1005600060E6B49ACAA6935C60626A6A6A66666666
:10057000666666666666666666666666666666661B
:100580006666666666585D5FE0B49DE0B097D9A880
:100590008FDBA990EEBCA2E0AF96D2A189E2B19820
:1005A000C9A89755595B3C3B3B6A6A6A66666666B2
:1005B00066666666666666666666666666666666DB
:1005C00066585D5FE0B49DDEAD93C0ABA4D7B9AA19
:1005D000DAAA91E4BCA8B3A7A5E1AE93C7A5936737
:1005E0006B6D1717176C6C6C66666666666666667A
:1005F00066666666666666666666666666585D60B8
:10060000DEB19ADDAD94C7A798D6AE99DFAF95E37A
:10061000B79FBA9D92E1AF95C7A5936165671C1C12
:100620001C73737365656566666666666666666690
:10063000666666666666666666585D5FE2B49DDC01
:10064000AD94D7A891B99280BB9685B89280DCAC66
:1006500093DEAE95C6A4925F63653838385C5C5C07
:100660006767676666666666666666666666666627
:100670006666666666575C5EEEC0A9DBAD94D6A87A
:10068000925E4643685454654B47DCAD95DFAF96A8
:10069000C6A4925C60625B5B5B3436386A6A6A66E9
:1006A00066666666666666666666666666666666EA
:1006B00066575C5EF5C4ABE5B297D7A68FA98D846B
:1006C000C6B2AAA78B80DDAC93E8B499CCA49159AB
:1006D0005D5F7A7B7B6C594566686A6565656666B1
:1006E000666666666666666666666666665E6061BD
:1006F000A3958E8F837EA1897F9B7F738C6C5E9C7C
:100700007F73A28B81938781968C8763696D7C78D8
:100710006B69553F696B6D6565656666666666669D
:100720006666666666666565656F6D6C4E5B6237AC
:100730004C583349564962701D2B34445D6A364B20
:1007400056384C5726363D283840566269666769E8
:10075000676767656565666666666666666666653A
:10076000656568686857626829373E4D5D674A5B12
:10077000655367731B23275266723E4E57626F772D
:100780006A6E70656C706B696965656565656566DF
:1007900066666666666666666666666263638A84C1
:1007A00081253842676D7053636B495B6551657194
:1007B0002E3A41516571485A655C6A726765636695
:1007C00065656565656666666666666666666666CE
:1007D000666666666666665E6061BFA19187817EB9
:1007E0006A686755677151667250657146565F5306
:1007F00068754D626D5D6D75676564666666666693
:100800006666666666666666666666666666666688
:100810006666666666665E60616263636D6D6D1BCB
:1008200018190D0B0C1F1A1A4E5C651C18171F1B8C
:100830001C514F4F686868666666666666666666DF
:100840006666666666666666666666666666666648
:1008500066666666666666666B6B6B333334262146
:10086000204B45427A7A7A28201D342F2F737474D6
:10087000656565666666666666666666666666661B
:100880006666666666666666666666666666666608
:10089000666666666464648D8D8C221B19484242CC
:1008A0006F7070352E2D342E2C79797A65656566DA
:1008B00066666666666666666666666666666666D8
:1008C00066666666666666666666666666656565CB
:1008D0007272720303020000002C2C2C75757612C4
:1008E00012110000001A1A196D6D6D666666666653
:1008F0006666666666666666666666666666666698
:100900006666666666666666666666666666666687
:100910006666666666666666666666666666666677
:100920006666666666666666666666666666666667
:100930006666666666666666666666666666666657
:100940006666666666666666666666666666666647
:100950006666666666666666666666666666666637
:100960006464646061646262636666666666666249
:1009700062625B5B5D66666666666666666666663E
:100980006666666666666666666666666666666607
:100990006666666666666666666464646468709ABF
:1009A0008D6E797B805F5F61626262828282C2C586
:1009B000BC66666666666666666666666666666681
:1009C00066666666666666666666666666666666C7
:1009D0006666646464595C63E1CB93BBAD88EFCE1B
:1009E0007875767A58595B9499A0FFD44966666603
:1009F0006666666666666666666666666666666697
:100A000066666363636767676565656666666A6A87
:100A10006B9B9995F4D9925A5F6A77797FF0CE767D
:100A2000767A846A7080E6CE8166666666666666F9
:100A30006666666666666666646464616161898925
:100A4000895C5C5C7A7A7A5C5C5C82848743341271
:100A50008585836161625E5F617B7A77EACA79F03E
:100A6000D081B6B0A06666666666666666666666CD
:100A7000666464647474748888882B2B2B1C1C1C1B
:100A80000A0A0A000000A0A0A005060967676865B9
:100A9000656566666660616265686F676A715F60FA
:100AA00063666666666666666666656565646464F2
:100AB0007878783E3E3E4E4E4E4E4E4E3838381583
:100AC00015150000000505055D5D5D7676766464AC
:100AD00064666666646464646464656565666666C7
:100AE00066666666666663636388888832323272D9
:100AF00072727575757171715050502828280909E6
:100B0000090B0B0B000000757575656565666666FB
:100B10006666666666666666666666666666666675
:100B200066666767675252526A6A6A8181819797DF
:100B3000978A8A8A5C5C5C3030300A0A0A0B0B0B9D
:100B400005050543434371717165656566666666B3
:100B50006666666666666666666666666666686831
:100B6000685656563636366666668484847C7C7C47
:100B70005A5A5A2B2B2B0808080B0B0B0808081F76
:100B80001F1F717171656565666666666666666675
:100B90006666666666666666666669696942424258
:100BA0002F2F2F5555556565656161614949491676
:100BB00016160E0E0E0B0B0B0707071D1D1D72726E
:100BC00072656565666666666666666666666666BC
:100BD0006666666666666666666363631B1B1B3DC8
:100BE0003D3D4A4A4A424242222222171717121218
:100BF000120A0A0A0C0C0C4F4F4F6E6E6E6565653B
:100C00006666666666666666666666666666666684
:100C100066666363638E8E8E1B1B1B2C2C2C3232FC
:100C2000322727272222221C1C1C1212120E0E0E03
:100C30000000007878786363636666666666666659
:100C40006666666666666666666666666666646448
:100C5000646F6F6F6B6B6B1F1F1F2E2E2E29292940
:100C600022222219191923232316161648484879D7
:100C700079797272726464646666666666666666D0
:100C8000666666666666666565656767676464640A
:100C90006969695454541717170F0F0F0C0C0C1275
:100CA00012120F0F0F3C3C3C7070706262627979D7
:100CB00079646464666666666666666666666666C7
:100CC00066666666666664646462626264646467DB
:100CD00067676E6E6E5555554646464E4E4E6C6C69
:100CE0006C686868656565666666646464666666A1
:100CF0006666666666666666666666666666666595
:100D000065656E6E6E8A8A8A7575757777776A6A99
:100D10006A686868696969686868666666898989F1
:100D2000636363656565666666666666666666666F
:100D30006666666666666666666666666666656555
:100D4000656262626363636E6E6E65656565656547
:100D50006666666666666565656262626565656645
:100D60006666666666666666666666666666666623
:100D70006666666666666666666666666666666613
:100D80006666666565656565656666666666666609
:100D900066666666666666666666666666666666F3
:100DA0006666666666666666666666666691714BC8
:100DB000DFC094CDAC81C3A478CCAC85ECD2B1E4D7
:100DC000C8A3E9C9A3DDBD96E4C8A3F5D9B4E0C0C2
:100DD00099E0C09AD4B891EBD1AED0B089C8A87FC1
:100DE000C9A980D8B88FC9A87FDBBB92B4926CCB5D
:100DF000A87ED7B68BAD8B5ECAA77DC5A47BA78422
:100E00005A9271488B6A3FA3825797764D967D5EC2
:100E1000C09F76D4B187BC9A6DD3B287DCBB90BF3C
:100E20009E71BE9C6FC6A57AAB8A5FB3936ACAAA4D
:100E300084C4A47DD4B99BDFCDB5D3C0A2C2AB829C
:100E4000D2B68FD5B992DFC8A8BDA57FCDAF8BD262
:100E5000B895C0A27CCBB495C4A380C19F72A9876A
:100E60005AC3A478CBAA81C7A67DC2A27CCEAE8786
:100E7000B19065917754A7865DA3835D7456308BDE
:100E80006E46B6956CB5956FA6845EA07F5684615C
:100E900039B89A74583E23BD9C71B99970C7A77E22
:100EA000AE8C5FC1A17AA38056D0B089D9B791B575
:100EB0009469B29877BD9D767A593078552BE3C105
:100EC0009BA18055B7966DB29168916E44C7A7807B
:100ED00054391CB59268E3C59FEAD0ADBC996FD870
:100EE000BA94C9A87DB39066BF9F78D4B38AB08FF7
:100EF00066A08363A5845B97764DD5B58CBC9B704B
:100F000097764BB18E6698774EC6A67F563B1EC429
:100F1000A47DDEBE97DBBE9CB8976EEBD5BD8F730C
:100F20004ECCAB80AF8C62D0B087C7AA88C2A27902
:100F3000775B36907047DDC9B0B19067A4835AAC37
:100F4000895FA7865DC8AE89523719BD9C73C3A25D
:100F500077E7C7A0A9885FD7BB96AA8A63A48B6CE2
:100F6000C7A780BFA580CFB28ACAA980BA9A738961
:100F70006C4AD7B790CFAE85AC8C65A8855B9B7B60
:100F800052BD9F79583F21AE8D64CAA980D7B790D2
:100F9000A18057D0B691A28259BEA27D9A7D55D02C
:100FA000B28C9D7A50B79770B5946BC3A37CBEA6E4
:100FB00084A4845DB08F66B6956C8D6F49AB8D67E8
:100FC000604729B39164DCBB92EBCDA78B6A3FDB12
:100FD000BD99AD8D66D6BA95B18C609A805FE0C23E
:100FE0009CA38056BA9A73B2926BC7A77E785C377F
:100FF000B4946EB9986D7D5F39BA9C7661482AB415
:101000009167B19065F1D5AE846338D5B7938664A6
:101010003EE3C7A2AD885BB99972C2A887E0C39BC3
:10102000926F45B09069B3936CCBAB84977A58AE0E
:101030008D64846640AD8D66695032A9875AAF8C45
:1010400062D7B7909E7D54D2BEA37D5D37DBBD973E
:10105000997447D2BDA2DBC6A9A98C6AE0C29CA242
:101060007F55BC9D7EAC8C63C9A9827F6544856732
:1010700041C7AF95584122AE8C5FDAB990E6C6A061
:10108000A98B67D7BE958B6A41DBBD97C29D71D096
:10109000B389D9BB95C2A47E5E3C16E5C9A4B493BE
:1010A0006AB5956EA4845BCAAD85684D2FBA9C76EF
:1010B000563F20AF8E63CDAB85DDC19CB29168E316
:1010C000CAA288673ECBAB849C774BDBBD97CFAE83
:1010D00083CEB189936E42C0A683E6CAA3BB9A7140
:1010E000CEAC86AD8D66CCAC859C8364523A20BD77
:1010F0009D74C6A57AEBD1B0BF9C72D5B992AC8C69
:1011000063CAAA818B683EDFC39EC2A178C8AB8345
:10111000A27D51CEB08A886B43D7BB94B7966DC879
:10112000A77EAD8D66D9BC9439250DC8A680DBBBE2
:1011300094D0B087AC8A5DC4A6809E7E58A4845BA0
:101140007B5A31D7B993D2B895D0B089C5A376DA96
:10115000BC969E7C4FA68A65F9DBB5CEAD84BB9963
:1011600073CBB293B8A07EB9986DE2C49EC7A77E38
:10117000CFAE85D6C3A5A7896595754C6C4E28C59D
:10118000AB86A48358BD9F79A9885DB89C77A78654
:1011900059D2B68FB19879E2C69FB5946BAD8D6682
:1011A0009D805EBD9C6FC1A178CFAE83A8875CB7E0
:1011B000946AF9E9C8FCE7CAFEEFD8FDF1D7FFF45D
:1011C000DAFFFAE0FFF2D8FFF0D7FFF3D9FFF2DB46
:1011D000FFF8E2FFEDD5D0B48FD6BA95B89A76C5B0
:1011E000A375AD8B5ED8B98BB5926AAF8E65C1A081
:1011F00075C6A175C2A176AE8E67B3926798774E19
:10120000A78256A984578D6C43AD8A60A6865FB5C8
:101210009469C4A275BA976DB19168BA9970B9987A
:101220006DD2B58DC7A57FCFAE83D3B38CCBAB8446
:10123000E3C9A6E8CEABD4B48DE7C9A3F2D4B0E835
:10124000CAA4E6CAA3DDBD96EACEA9E8CEADD8B859
:1012500091CFAF86C9A980C6A57CD5B48B3F3D3B55
:10126000413F3E3A38372726263D3D3D3A3A3A3C03
:101270003C3C3F403F2A28273937364240404746CA
:10128000444644422D2B2A2E2B2A42403F42403FC7
:101290003F3B392523223D3B3A3533323231303121
:1012A0002F2E2B29273737363B3A393D3D3B3433F8
:1012B0003325242337353436353431302F31302F30
:1012C0001E1D1C26242435333232312F3734322070
:1012D0001F1D31302F1311111C1A1922201E151435
:1012E000131D1B1B1C1B1B2020202222221716153E
:1012F0001A19181514142120202C2B2B2B2A2A2BD9
:1013000029272421202423223737352D2D2B282748
:10131000262926253331313533322A2726383332F0
:101320003132313F413F3D3E3C2826263938373067
:101330002E2E333232403E3F383736373330363256
:10134000302F2E2C3B3A383838353735331D1C1B9F
:101350002927272C2B2B1916162421202323223250
:10136000333130312F2120202423232221221F1F1B
:101370001E1D1C1C1D1C1C2C28262622201B1A1975
:101380002C2D2B30302F282725393634302E2D2385
:1013900022223434343938393636362E2D2C3C3B23
:1013A0003A3D3C3B302E2D3130303F3D3D434141B5
:1013B000484746201F1E3C3E3E42434234333125BF
:1013C00023213D3A384746464443442D2B2B46467D
:1013D000484040423A393A2C2B2B3E3C3D43414158
:1013E000403E3D2928284443423F3E3D3D3C3B256D
:1013F0002423474846444544444644302E2C413F2C
:101400003E1B1A191A19171F1D1D1B1B1A1A191911
:101410002524231B1A19201E1E1F1E1D1B1A1915F9
:1014200014131514131615141A19181B1918171656
:10143000152625242524231F1E1E2322223F3F413B
:101440003B393848464545434143413F2C2A2A3ED3
:101450003D3C413F3F3533332827262C2B2A211F83
:101460001E33312F3A373544403D1B1A1944444648
:101470004A4A4B444446444446313132211F1F38C6
:1014800037363736343332322322223E3D3E414016
:1014900040312F303C3B3A434241222120403E3DE7
:1014A000403E3E4A474621201F47484A3E3E3F3C79
:1014B0003C3E3737391818191D1D1E1515161917FA
:1014C00017332F2C312D2A211E1D1817171E1D1DF5
:1014D000232221201E1E33323323232423232420BE
:1014E0001F201211101615151A1A1A161516131296
:1014F000134547484142443E3F412B28263B363363
:101500003E3835342E2B302F2E403F3D3F3D3D247D
:1015100023234041423E3E404445463D3E3F272630
:10152000253936333F3A372422203D3E40171717DE
:101530002525263030311B191734302D322E2C2B17
:1015400027252625253635333735341B1A1A3435E9
:10155000362C2D2E38383A292A2B211F1E2C2B2AC7
:1015600033312F24211F1717182625241B1A18166C
:101570001412302F2D2B29283432301E1D1D3938DE
:1015800039343334343334202020211F1D1F1C1ADA
:1015900019181731302F3331303332301716152EDA
:1015A0002E2D3533332C2B2B44413E312F2D3A3801
:1015B00037413F3E3E3C3B2827273E3E3F3E3D3F96
:1015C0004241432B2A2B3F3A363F3935201E1D46D8
:1015D00045444E4C4B51504F2A29284847464544D4
:1015E00043201E1E201F1E1A19181818171C1C1B1A
:1015F000222120171615201F1F1E1D1D1B1A1A162B
:1016000015151A18171E1C1A1716151D1C1C1E1C42
:101610001D292828201F1E1E1D1D28272623201FA8
:101620003A37353C3937403C3A423F3C201F1E3662
:1016300033302D2A282E2C2B413E3B44413E25237E
:10164000224A4A474A4A4644454141413F1F1F1FDB
:101650002C2B2A2825222B28261E1C1C44423F42C4
:10166000403E464342423F3D201F1E3D3B393A37F4
:1016700035353331413E3C4743402524224A4B48CF
:10168000494A4846474443454323222044413F4674
:10169000423E3B3735151514232120211F1E2725D7
:1016A000251D1C1B12100F24211F221F1D14131394
:1016B0001E1E1E1C1C1B12111122201F1816141C8A
:1016C0001C1B2426240E0C0C1614131C1B1923217E
:1016D0001F43413F4845433C393721201F3F3F3D91
:1016E0003838373D3D3D3837372C2A29444342436B
:1016F0004140413F3E41403E2D2B2A2E2C2B3F3C6A
:101700003B3835333B3835242221403E3B008F386F
:1017100011241FBECFEFD8E0DEBFCDBF12E0A0E0A6
:10172000B1E0E4E9F4E702C005900D92AC39B107ED
:10173000D9F725E0ACE9B2E001C01D92A032B207B2
:10174000E1F71BE0C8E8DBE004C02197FE010E943E
:101750002039C738D107C9F70E94D4340C94483ACD
:101760000C9400002F923F924F925F926F927F9263
:101770008F929F92AF92BF92CF92DF92EF92FF92A1
:101780000F931F93CF93DF93CDB7DEB7E4970FB6D8
:10179000F894DEBF0FBECDBF5C0199249A9484EA11
:1017A00092E09CAB8BABDD24D39414E0512E03E08C
:1017B000702E87E0482E95E0892E2AE0322E39E0FF
:1017C000232E46E0642EFE01B996F8ABEFA761EA3E
:1017D00072E082EA92E00E942123F091A102F9AB2B
:1017E0008091A2028AABB501CE0101960E9416211A
:1017F000EFE9FFE03197F1F700C000008091A3020C
:10180000813009F039C19091A702913009F02AC1C5
:10181000C0900001F1E0CF1233C0B0E2EB2EBDEF7B
:10182000FB2E08E310E025E930E048E050E068E0F6
:1018300070E0CE0101960E94221CC092A7028AA9E4
:101840008D3808F43EC0C090000191E0C9121BC061
:10185000E2E0E0930001E12CF12C25E930E048E0E2
:1018600050E068E070E0CE0101960E94221CA0E2E8
:10187000EA2EADEFFA2E25E930E048E050E01EC038
:10188000FAA9FD38F0F0F3E0CF125EC050920001EB
:10189000E12CF12C08E310E025E930E046E450E0CB
:1018A00068E070E0CE0101960E94221CF0E2EF2E6B
:1018B000FDEFFF2E25E930E046E450E063EA70E0FA
:1018C0003DC08AA9823708F03FC080910001823074
:1018D000C9F4D0920001E12CF12C08E310E025E9D5
:1018E00030E048E050E063EA70E0CE0101960E94EB
:1018F000221CE0E2EE2EEDEFFE2E25E930E048E07E
:1019000050E01AC0843001F570920001E12CF12CF6
:1019100008E310E025E930E046E450E063EA70E0D7
:10192000CE0101960E94221C70E2E72E7DEFF72E79
:1019300025E930E046E450E068E070E0CE01019631
:101940000E94221C1092A70299A9923708F043C066
:10195000809100018130D9F470920001E12CF12CCA
:1019600008E310E025E930E048E050E068E070E08E
:10197000CE0101960E94221C60E2E62E6DEFF62E4B
:1019800025E930E046E450E068E070E01DC08230B8
:1019900009F072C050920001E12CF12C08E310E034
:1019A00025E930E048E050E063EA70E0CE010196BE
:1019B0000E94221C50E2E52E5DEFF52E25E930E075
:1019C00046E450E063EA70E0CE0101960E94221CDA
:1019D0001092A70251C0E9A9ED3808F44DC08091DA
:1019E00000018330D9F4D0920001E12CF12C08E3FE
:1019F00010E025E930E046E450E068E070E0CE0118
:101A000001960E94221C40E2E42E4DEFF42E25E9BF
:101A100030E048E050E068E070E01DC0843061F5DF
:101A2000F2E0F0930001E12CF12C08E310E025E94D
:101A300030E046E450E063EA70E0CE0101960E9497
:101A4000221C30E2E32E3DEFF32E25E930E048E0A2
:101A500050E063EA70E0CE0101960E94221CD09211
:101A6000A7020AC099A99357993130F49AA99357BC
:101A7000993110F48093A7028091A302823009F07B
:101A8000A3C1C090A70281E0C81294C18091000157
:101A9000853029F520E2E22E2DEFF22E08E310E04A
:101AA0002CE430E046E450E068E070E0CE010196BE
:101AB0000E94221CC092A7029AA9923908F45CC025
:101AC00080910001853079F460920001E12CF12CC5
:101AD0002CE430E046E450E068E070E07EC09AA973
:101AE000923908F449C0863069F440920001E12C33
:101AF000F12C08E310E02CE430E046E450E060E52F
:101B000070E04EC08730E1F488E080930001E12C62
:101B1000F12C08E310E02CE430E046E450E063EA06
:101B200070E0CE0101960E94221C90E2E92E9DEF0A
:101B3000F92E2CE430E046E450E06BEE70E093C008
:101B4000893009F096C030920001E12CF12C08E3B5
:101B500010E025E930E044E850E068E070E0CE01B4
:101B600001960E94221C80E2E82E8DEFF82E25E9D6
:101B700030E044E850E020C0EAA9EE3608F079C031
:101B8000809100018830D9F440920001E12CF12CC1
:101B900008E310E02CE430E046E450E06BEE70E047
:101BA000CE0101960E94221CB0E2EB2EBDEFFB2E6F
:101BB0002CE430E046E450E063EA70E054C0873043
:101BC000D9F460920001E12CF12C08E310E02CE440
:101BD00030E046E450E063EA70E0CE0101960E94F6
:101BE000221CA0E2EA2EADEFFA2E2CE430E046E40F
:101BF00050E060E570E037C08630C9F480920001A3
:101C0000E12CF12C08E310E02CE430E046E450E055
:101C100060E570E0CE0101960E94221CF0E2EF2EFA
:101C2000FDEFFF2E2CE430E046E450E01AC08A308D
:101C300001F520920001E12CF12C08E310E025E9E8
:101C400030E044E850E063EA70E0CE0101960E9483
:101C5000221CE0E2EE2EEDEFFE2E25E930E044E816
:101C600050E068E070E0CE0101960E94221C1092C4
:101C7000A702F9A9FE3608F057C08091000185300F
:101C800069F420920001E12CF12C08E310E02CE42F
:101C900030E046E450E068E070E00EC08630C9F401
:101CA00020920001E12CF12C08E310E02CE430E05C
:101CB00046E450E060E570E0CE0101960E94221CEF
:101CC00070E2E72E7DEFF72E25E930E044E850E0A2
:101CD0004BC0873069F430920001E12CF12C08E30D
:101CE00010E02CE430E046E450E063EA70E00FC01E
:101CF000883009F069C030920001E12CF12C08E332
:101D000010E02CE430E046E450E06BEE70E0CE01F1
:101D100001960E94221C60E2E62E6DEFF62E25E968
:101D200030E044E850E043C089A9823908F44CC04F
:101D300080910001893009F580920001E12CF12C9D
:101D400008E310E025E930E044E850E068E070E0A6
:101D5000CE0101960E94221C50E2E52E5DEFF52E89
:101D60002CE430E046E450E068E070E0CE010196FB
:101D70000E94221C1092A70227C08A3029F54092A7
:101D80000001E12CF12C08E310E025E930E044E803
:101D900050E063EA70E0CE0101960E94221C40E20E
:101DA000E42E4DEFF42E2CE430E046E450E063EAFC
:101DB00070E0DCCF89A98357893130F48AA9835731
:101DC000893110F4D092A7028091A302833009F0E8
:101DD00070C18091A702813009F061C1809100013A
:101DE0008B3089F530E2E32E3DEFF32E08E310E06F
:101DF0002CE430E046E450E068E070E0CE0101966B
:101E00000E94221C1092A7029AA99D38F0F180919D
:101E100000018B30D9F48CE080930001E12CF12C8F
:101E20002CE430E046E450E068E070E0CE0101963A
:101E30000E94221C20E2E22E2DEFF22E2CE430E054
:101E400046E450E01FC0EAA9ED38F8F08D3009F003
:101E500061C08EE080930001E12CF12C08E310E0DA
:101E60002CE430E044E850E068E070E0CE010196F8
:101E70000E94221C90E2E92E9DEFF92E2CE430E026
:101E800044E850E06BEE70E03FC0EAA9E23708F0AA
:101E900041C0809100018C30D1F48BE0809300012F
:101EA000E12CF12C08E310E02CE430E046E450E0B3
:101EB0006BEE70E0CE0101960E94221C80E2E82EBB
:101EC0008DEFF82E2CE430E046E450E01BC08E305D
:101ED00009F58DE080930001E12CF12C08E310E07E
:101EE0002CE430E044E850E06BEE70E0CE01019667
:101EF0000E94221CB0E2EB2EBDEFFB2E2CE430E062
:101F000044E850E068E070E0CE0101960E94221C97
:101F10001092A702F9A9F23708F05DC08091000184
:101F20008B3071F48DE080930001E12CF12C08E3FB
:101F300010E02CE430E046E450E068E070E0A2C03D
:101F40008C30D1F48EE080930001E12CF12C08E379
:101F500010E02CE430E046E450E06BEE70E0CE019F
:101F600001960E94221CA0E2EA2EADEFFA2E2CE48C
:101F700030E044E850E074C08E3071F48FE080931C
:101F80000001E12CF12C08E310E02CE430E044E8FF
:101F900050E06BEE70E010C08D3009F08AC08FE029
:101FA00080930001E12CF12C08E310E02CE430E0F8
:101FB00044E850E068E070E0CE0101960E94221CE7
:101FC000F0E2EF2EFDEFFF2E25E930E042EC50E08D
:101FD00065E570E023C089A98D3808F46AC0809156
:101FE00000018D3011F58BE080930001E12CF12C84
:101FF00008E310E02CE430E044E850E068E070E0F2
:10200000CE0101960E94221CE0E2EE2EEDEFFE2EA4
:102010002CE430E046E450E068E070E0CE01019648
:102020000E94221C1092A70244C08E30E1F48CE082
:1020300080930001E12CF12C08E310E02CE430E067
:1020400044E850E06BEE70E0CE0101960E94221C45
:1020500070E2E72E7DEFF72E2CE430E046E450E00E
:102060006BEE70E0DBCF8F3021F58DE080930001C7
:10207000E12CF12C08E310E025E930E042EC50E0DF
:1020800065E570E0CE0101960E94221C60E2E62E1A
:102090006DEFF62E2CE430E044E850E0BDCF89A986
:1020A0008357893130F48AA98357893110F4D0924B
:1020B000A7028091A302843009F071C08091A70229
:1020C000813009F062C080910001803191F550E2C9
:1020D000E52E5DEFF52E08E310E025E930E046E45B
:1020E00050E065E570E0CE0101960E94221C10923E
:1020F000A70299A9923700F580910001803109F07B
:102100004EC081E180930001E12CF12C25E930E003
:1021100046E450E065E570E0CE0101960E94221C85
:1021200040E2E42E4DEFF42E25E930E042EC50E0A1
:1021300023C0F9A9F23798F1E9A9ED3880F180912F
:102140000001813161F580E180930001E12CF12CE7
:1021500008E310E025E930E042EC50E065E570E08E
:10216000CE0101960E94221C30E2E32E3DEFF32EB9
:1021700025E930E046E450E065E570E0CE010196E7
:102180000E94221C1092A7020AC089A98357893194
:1021900030F48AA98357893110F4D092A702809134
:1021A000A302853009F019C18091A702813009F09E
:1021B0000AC1809100018231D1F520E2E22E2DEF9B
:1021C000F22E08E310E02CE430E046E450E068E052
:1021D00070E0CE0101960E94221C1092A702FAA97B
:1021E000FD3840F180910001823109F04CC083E15B
:1021F00080930001E12CF12C2CE430E046E450E027
:1022000068E070E0CE0101960E94221C90E2E92E67
:102210009DEFF92E2CE430E046E450E06BEE70E0E8
:10222000CE0101960E94221C1092A7022CC08AA9FE
:102230008D3848F58AA9823730F5809100018331C5
:1022400011F582E180930001E12CF12C08E310E00C
:102250002CE430E046E450E06BEE70E0CE010196F5
:102260000E94221C80E2E82E8DEFF82E2CE430E054
:1022700046E450E068E070E0CE0101960E94221C26
:102280001092A70251C099A9923708F04DC08091D1
:102290000001823171F486E180930001E12CF12C80
:1022A00008E310E02CE430E046E450E068E070E041
:1022B0000FC08331D1F486E180930001E12CF12C31
:1022C00008E310E02CE430E046E450E06BEE70E010
:1022D000CE0101960E94221CB0E2EB2EBDEFFB2E38
:1022E00025E930E044E850E01CC0863109F075C0B3
:1022F00084E180930001E12CF12C08E310E025E952
:1023000030E044E850E065E570E0CE0101960E94BF
:10231000221CA0E2EA2EADEFFA2E25E930E042ECD5
:1023200050E065E570E048C0E9A9E23908F455C01D
:1023300080910001843109F586E180930001E12C50
:10234000F12C08E310E025E930E042EC50E065E5CF
:1023500070E0CE0101960E94221CF0E2EF2EFDEF0C
:10236000FF2E25E930E044E850E065E570E0CE015D
:1023700001960E94221C1092A702809100018631D2
:1023800061F582E180930001E12CF12C08E310E07B
:1023900025E930E044E850E065E570E0CE010196C3
:1023A0000E94221CE0E2EE2EEDEFFE2E2CE430E047
:1023B00046E450E068E070E0CE0101960E94221CE5
:1023C0001092A7020AC089A98357893130F48AA9DB
:1023D0008357893110F4D092A7028091A3028630EE
:1023E00079F58091A702813009F58091000185314E
:1023F00039F51092A702F9A9F23728F099A99D386A
:10240000F8F08093000170E2E72E7DEFF72E08E3ED
:1024100010E025E930E042EC50E065E570E0CE01E7
:1024200001960E94221C1092A7020AC089A9835714
:10243000893130F48AA98357893110F4D092A702E8
:1024400080919C02882361F18091A5029091A6025F
:102450000E94062E633021F57F3729F4109237034E
:10246000809303016DC4272F30E0A90165E05595E5
:1024700047956A95E1F74730510591F4109237037B
:102480001092030192E0909312033695322F222787
:1024900037952795282B30931B0520931A0562C486
:1024A0008091A302811186C080913703882309F4AB
:1024B00081C0D092000110923703B501CE01019680
:1024C0000E94162160E070E0CE0101960E94B51DC9
:1024D00011E3E12E13E6F12E04E310E021E930E0F0
:1024E0004AE050E06AE070E0CE0101960E94221CB2
:1024F00021E930E04AE050E065EA70E0CE01019663
:102500000E94221C02E0E02E00E010E026E631E00E
:102510004EE150E06AE270E0CE0101960E94B223E3
:102520002CE631E04EE150E061EB70E0CE01019627
:102530000E94B22381E3E82E83E6F82E04E310E044
:1025400021E930E048E450E06AE070E0CE01019615
:102550000E94221C21E930E048E450E065EA70E086
:10256000CE0101960E94221C92E0E92E00E010E0CC
:1025700023ED31E04CE550E063E270E0CE010196DE
:102580000E94B22325E731E04CE550E063EC70E0B7
:10259000CE0101960E94B223EE24E3942BE731E0B2
:1025A00043EE50E060E070E0CE0101960E94B2235D
:1025B000D092A3028091A302813009F056C380918A
:1025C0000001813009F0BEC080913703882309F4EF
:1025D0004CC310923703B501CE0101960E9416211B
:1025E00060E070E0CE0101960E94B51D73E0E72E19
:1025F00000E010E021E931E04FE050E06FE070E0F2
:10260000CE0101960E94B223E1E3EE2EE3E6FE2E18
:1026100004E310E028E430E048E450E06AE070E0D1
:10262000CE0101960E94221C28E430E048E450E0EC
:1026300062E570E0CE0101960E94221C28E430E0A1
:1026400048E450E065EA70E0CE0101960E94221C49
:1026500028E430E048E450E06DEE70E0CE010196F1
:102660000E94221CF2E0EF2E00E010E02FE831E0A3
:102670004CE550E063E270E0CE0101960E94B22387
:102680002EE931E04CE550E06BE670E0CE010196BA
:102690000E94B22320EA31E04CE550E063EC70E0A8
:1026A000CE0101960E94B22322EA31E04CE550E0CF
:1026B0006BE071E0CE0101960E94B223A1E3EA2E05
:1026C000A3E6FA2E04E310E021E930E046E850E00A
:1026D0006AE070E0CE0101960E94221C21E930E000
:1026E00046E850E065EA70E0CE0101960E94221CA7
:1026F000B2E0EB2E00E010E024EA31E04AE950E0DD
:1027000063E270E0CE0101960E94B2232BEA31E031
:102710004AE950E068EC70E0CE0101960E94B223D5
:10272000EE24E3942BE731E043EE50E060E070E00C
:10273000CE0101960E94B22382E08093A302809290
:10274000000193C2823009F04FC180913703882382
:1027500009F48BC2109237032BE0C22EC092000105
:10276000B501CE0101960E94162160E070E0CE0115
:1027700001960E94B51D33E0E32E00E010E02CE648
:1027800031E04FE050E067E370E0CE0101960E9437
:10279000B22341E3E42E43E6F42E04E310E028E400
:1027A00030E048E450E06AE070E0CE0101960E941B
:1027B000221C52E0E52E58EFF52E28E430E048E4E4
:1027C00050E06AE070E0CE0101960E94AF1B61E329
:1027D000E62E63E6F62E21E930E048E450E067E5B6
:1027E00070E0CE0101960E94221C28E430E048E40B
:1027F00050E06DEE70E0CE0101960E94221C70E464
:10280000E72E76E6F72E28E430E048E450E06DEE5F
:1028100070E0CE0101960E94AF1BE2E0EE2E02E0D6
:1028200018EF20EB31E04CE550E068E270E0CE01BB
:1028300001960E94B223EE24E39400E010E022EB24
:1028400031E042E550E06BE670E0CE0101960E9477
:10285000B223F1E3EF2EF3E6FF2E05E010E025E5CD
:1028600030E046E650E060E770E0CE0101960E945D
:10287000221C8091020125E530E0281B3109A0E2ED
:10288000EA2EADEFFA2E46E650E060E770E0CE01AA
:1028900001960E94AF1BB2E0EB2E00E416E62FEB90
:1028A00031E04CE550E06BE071E0CE0101960E9412
:1028B000B22311E3E12E13E6F12E04E310E028E445
:1028C00030E046E850E06AE070E0CE0101960E94F8
:1028D000221C82E0E82E88EFF82E28E430E046E85B
:1028E00050E06AE070E0CE0101960E94AF1B91E3D8
:1028F000E92E93E6F92E21E930E046E850E067E55D
:1029000070E0CE0101960E94221C28E430E046E8E7
:1029100050E06DEE70E0CE0101960E94221C20E492
:10292000E22E26E6F22E28E430E046E850E06DEE96
:1029300070E0CE0101960E94AF1B32E0E32E02E070
:1029400018EF20EB31E04AE950E068E270E0CE0198
:1029500001960E94B223EE24E39400E010E021EC03
:1029600031E040E950E06BE670E0CE0101960E9454
:10297000B2232091010144EA50E068E970E0CE0101
:1029800001960E94EC2342E0E42E00E416E62FEBD1
:1029900031E04AE950E06BE071E0CE0101960E941F
:1029A000B22351E3E52E53E6F52E04E310E021E9CE
:1029B00030E044EC50E067E570E0CE0101960E9403
:1029C000221C62E0E62E00E010E02BEA31E043ED4D
:1029D00050E06FE770E0CE0101960E94B223709242
:1029E000A302C092000141C1833009F0B8C08091B8
:1029F0003703882309F439C110923703B501CE019A
:102A000001960E94162160E070E0CE0101960E94BE
:102A1000B51D83E0E82E00E010E02EEC31E04FE041
:102A200050E069E170E0CE0101960E94B22391E38B
:102A3000E92E93E6F92E04E310E021E930E048E4C2
:102A400050E067E570E0CE0101960E94221CEFA5E0
:102A5000F8A9862D11928A95E9F782E090E00E940C
:102A6000BC3989A783E090E00E94BC398AA784E042
:102A700090E00E94BC398BA785E090E00E94BC39B1
:102A80008CA786E090E00E94BC398DA7EE24E394E9
:102A900000E010E09E01275D3F4F47E550E062E710
:102AA00070E0CE0101960E94B223BC0177272AED87
:102AB00031E047E550E0CE0101960E94B2238C013F
:102AC00080E090E00E94BC394AE0BE01685E7F4F22
:102AD0000E949239B801772700E010E09E01285E3D
:102AE0003F4F47E550E0CE0101960E94B22380910E
:102AF0001103882391F02DED31E046E650E06CE5BE
:102B000070E0CE0101960E94B22382E090E00E9424
:102B1000BC39C19711F01092110311E3E12E13E6B5
:102B2000F12E04E310E021E930E044EC50E067E5E9
:102B300070E0CE0101960E94221C02E0E02E00E02F
:102B400010E02BEA31E043ED50E06FE770E0CE019A
:102B500001960E94B2235092A30280E184C0843087
:102B600009F083C080913703882309F47EC0109256
:102B70003703B501CE0101960E94162160E070E096
:102B8000CE0101960E94B51DE3E0EE2E00E010E0BC
:102B90002FEE31E04FE050E06FE070E0CE010196A3
:102BA0000E94B223F2E0EF2E25EF31E047E350E040
:102BB0006FE070E0CE0101960E94B223EE24E39410
:102BC00024E032E045E550E06FE070E0CE01019690
:102BD0000E94B2232DE032E044E650E06FE070E066
:102BE000CE0101960E94B2232CE132E043E750E08F
:102BF0006FE070E0CE0101960E94B2232CE232E039
:102C000042E850E06FE070E0CE0101960E94B223EE
:102C10002FE332E041E950E06FE070E0CE01019631
:102C20000E94B223A1E3EA2EA3E6FA2E04E310E009
:102C300021E930E044EC50E067E570E0CE01019618
:102C40000E94221CB2E0EB2E00E010E02BEA31E003
:102C500043ED50E06FE770E0CE0101960E94B22391
:102C60006092A30285E1809300018091A3028230EB
:102C700009F0A4C090910001953071F49091370350
:102C8000992309F44FC01092370380931203D09216
:102C900003019924939446C0963071F490913703C0
:102CA000992309F43FC01092370380931203809355
:102CB000030172E0972E36C0973069F49091370384
:102CC000992381F1109237038093120370920301CC
:102CD00063E0962E27C0983069F4909137039923CA
:102CE00009F110923703809312038092030155E09B
:102CF000952E18C0993061F490913703992391F083
:102D0000109237038093120310920301912C0AC092
:102D10009A3041F480913703882321F010923703D1
:102D20001092A302EBA9FCA98081843608F440C06C
:102D300091100AC010921B0510921A0510923703C9
:102D400082E0809312030EC0191454F510923703D9
:102D500082E08093120390920301492D6FE783E094
:102D60000E9462216CE273E6C5010E94B51DE496E3
:102D70000FB6F894DEBF0FBECDBFDF91CF911F918C
:102D80000F91FF90EF90DF90CF90BF90AF909F900A
:102D90008F907F906F905F904F903F902F9008950D
:102DA00040E060E080E00E946221EBA9FCA9108273
:102DB000EBA9FCA980813196FCABEBAB8091A3021F
:102DC000833009F0BFC0809100018B30D9F580912C
:102DD0003703882309F4B6C01092370380910201AB
:102DE000853508F0AFC08F5F80930201E12CF12C94
:102DF00005E010E025E530E046E650E060E770E0F1
:102E0000C5010E94AF1B21E3E22E23E6F22E25E549
:102E100030E046E650E060E770E0C5010E94221C09
:102E20008091020125E530E0281B310940E2E42EC3
:102E30004DEFF42E46E650E060E770E0C5010E94D9
:102E4000AF1B80C08C30F1F580913703882309F4E3
:102E500079C010923703809102018150853508F0C6
:102E600071C0E12CF12C05E010E025E530E046E6EC
:102E700050E060E770E0C5010E94AF1B81E3E82EDF
:102E800083E6F82E25E530E046E650E060E770E0A6
:102E9000C5010E94221C8091020126E530E0281B1A
:102EA000310990E2E92E9DEFF92E46E650E060E709
:102EB00070E0C5010E94AF1B809102018150809398
:102EC000020140C08D3011F5809137038823D1F184
:102ED000109237038091A00281110EC02091010150
:102EE000223050F021502093010144EA50E068E97B
:102EF00070E0C5010E94EC238091A0028F5F809357
:102F0000A0028C3FF9F41092A0021CC08E3081F414
:102F1000809137038823B1F0109237038091A0028B
:102F20008111EACF20910101253030F72F5FDBCFEF
:102F30008F3041F480913703882321F010923703BA
:102F40001092A3028091A302843009F0E4C0809122
:102F50000001803109F0D5C080913703882309F43E
:102F6000DAC0B501CE0101960E94162160E070E042
:102F7000CE0101960E94B51DEE24EA94FE2C0FE2CC
:102F800010E02EE730E04FE250E060E670E0CE0166
:102F900001960E94AA1C2EEA30E04FE250E060E960
:102FA00070E0CE0101960E94AA1C2FED30E04FE2A6
:102FB00050E061EC70E0CE0101960E94AA1C41E352
:102FC000E42E43E6F42E04E310E028E430E048E485
:102FD00050E06AE070E0CE0101960E94221C52E0AF
:102FE000E52E58EFF52E28E430E048E450E06AE0A2
:102FF00070E0CE0101960E94AF1B61E3E62E63E60E
:10300000F62E21E930E048E450E067E570E0CE01BB
:1030100001960E94221C28E430E048E450E06DEE66
:1030200070E0CE0101960E94221C70E4E72E76E645
:10303000F72E28E430E048E450E06DEE70E0CE0179
:1030400001960E94AF1BE2E0EE2E02E018EF20EBAB
:1030500031E04CE550E068E270E0CE0101960E945C
:10306000B22300E416E62FEB31E04CE550E06BE0D4
:1030700071E0CE0101960E94B223F1E3EF2EF3E658
:10308000FF2E04E310E021E930E046E850E067E578
:1030900070E0CE0101960E94221CA2E0EA2E00E020
:1030A00010E027E931E045E950E060E770E0CE014B
:1030B00001960E94B223B1E3EB2EB3E6FB2E04E3AC
:1030C00010E021E930E044EC50E067E570E0CE012B
:1030D00001960E94221C12E0E12E00E010E02BEA93
:1030E00031E043ED50E06FE770E0CE0101960E94C1
:1030F000B2238092A30282E18093000110923703F1
:103100000AC0813141F480913703882321F0109265
:1031100037031092A3028091A302853009F094C076
:103120008091370381110FC022E0C22EE12CF12CD7
:103130000FEF1FEF2091040147E550E06AE970E0CE
:10314000C5010E94BA1980910001823151F5809128
:103150003703882331F110923703209104018EEB5D
:10316000820F8931F0F48091A902811110C02150A1
:103170002093040192E0C92EE12CF12C0FEF1FEFF8
:1031800047E550E06AE970E0C5010E94BA198091F4
:10319000A9028F5F8E3119F08093A90202C01092AC
:1031A000A90280910001833151F580913703882372
:1031B00031F110923703209104018FEB820F893196
:1031C000F0F48091A902811110C02F5F20930401B7
:1031D00082E0C82EE12CF12C0FEF1FEF47E550E005
:1031E0006AE970E0C5010E94BA198091A9028F5F57
:1031F000823319F08093A90202C01092A902809133
:1032000000018631A9F4809137038823E9F01092F8
:1032100037038091A8028330B8F4E82FF0E0E3563A
:10322000FD4F9091040190838F5F8093A8020CC0A2
:10323000843151F480913703882331F010923703A1
:103240001092A3021092A8028091A302863011F07E
:103250000C94E70B80910001853111F00C94E70B81
:1032600080913703882311F40C94E70B10923703F5
:103270001092A3020C94E70BCF92EF92FF920F9360
:103280001F93CF93DF93EC01262F6A3081F48C8952
:103290009D89998B888B2A852F778A899B8938E02D
:1032A000239F800D911D11249B8B8A8B47C0862FF5
:1032B0008B7F893009F442C068897989203219F4FA
:1032C00061157105D9F1E881F981EE84FF840C85DF
:1032D0001D854A895B890088F189E02DCA84CE0169
:1032E0000995BC01998B888B8B85882339F12A85B8
:1032F0002F77822F90E048EF4203900111244E81F6
:103300005F81420F531F46175707C4F44C895D89EC
:10331000598B488B43E0880F991F4A95E1F74A89FA
:103320005B89840F951F9B8B8A8B48855985240F59
:10333000351F2817390714F41B8A1A8A81E090E098
:10334000DF91CF911F910F91FF90EF90CF90089553
:10335000CF92EF92FF920F931F93DC01ED91FC91BE
:103360000684F785E02D09951F910F91FF90EF904E
:10337000CF9008952F923F924F925F926F927F92DB
:103380008F929F92AF92BF92CF92DF92EF92FF9275
:103390000F931F93CF93DF9300D01F92CDB7DEB76B
:1033A0009B838A83480188E0280290011124D90177
:1033B000A859B0405D01BC2DBF77CB2EEA81FB81BF
:1033C00086819781F1E0FB1708F463C06B0128E068
:1033D000C20ED11C8C159D050CF46EC0AA81BB8158
:1033E0001896ED91FC9119979A01285F3F4FE217CB
:1033F000F3070CF461C0AA81BB81ED91FC91119798
:103400008A01095F1F4F9B01295F3F4F0680F781AB
:10341000E02DCD010995AA81BB81ED91FC91119719
:103420000084F185E02DCD0109958501085F1F4FCE
:10343000F5014490FFEFAF1ABF0A98E0692E712C96
:1034400020E8522EAA81BB81ED91FC911197852D28
:1034500084210284F385E02D882319F0B401CD0185
:1034600003C0B7018A819B8109955694B1E06B1A1C
:10347000710841F7A016B106D9F6AA81BB81ED917A
:10348000FC9111970484F585E02DCD010995C601C5
:1034900076C0B8E0CB9E800111243B01600E711E06
:1034A000861597054CF0040F151FEA81FB812085D6
:1034B00031852017310714F4019661C0AA81BB81C0
:1034C000ED91FC911197015011090680F781E02DD3
:1034D000930121503109CD010995AA81BB81ED915C
:1034E000FC9111970084F185E02DCD01099525010E
:1034F000B8E04B0E511CF5012490FFEFAF1ABF0A44
:103500003C2C08E010E080E8D82E8D2D82212C2D57
:10351000A1F0AA81BB81ED91FC9111970284F38502
:10352000E02DB401CD01298309952981215089F726
:10353000D6940150110949F710C0AA81BB81ED91C1
:10354000FC9111970284F385E02DB701CD01298309
:1035500009952981215089F7EBCF3A943110D1CFC9
:10356000A414B50409F0C7CFAA81BB81ED91FC91E9
:1035700011970484F585E02DCD010995C3010F90C5
:103580000F900F90DF91CF911F910F91FF90EF90CF
:10359000DF90CF90BF90AF909F908F907F906F9073
:1035A0005F904F903F902F90089585ED8093BC00E1
:1035B0008091BC0084FDFCCF10926403089540917B
:1035C000EB02262F30E0240F311D21323105DCF4CF
:1035D000209164032430C9F4FC0180E090E0861758
:1035E00058F43091EB022191DC01A753BD4FA30F9A
:1035F000B11D2C930196F3CF8091EB02680F60937D
:10360000EB0280E0089581E0089582E00895089536
:10361000E091160380911503E81730F4F0E0E95EBD
:10362000FC4F808190E008958FEF9FEF0895909177
:10363000160380911503981750F4E92FF0E0E95E26
:10364000FC4F208130E09F5F9093160302C02FEF64
:103650003FEFC90108958091150390E02091160372
:10366000821B91090895CF92DF92EF92FF920F9300
:103670001F93CF93DF937C01262F972F8A01809190
:103680006503882391F0C62FD72F6E01C40ED51E77
:10369000CC15DD0571F06991D701ED91FC91019098
:1036A000F081E02DC7010995F3CF642F822F0E948E
:1036B000DF1AC801DF91CF911F910F91FF90EF901A
:1036C000DF90CF900895CF93DF931F92CDB7DEB7F1
:1036D0006983209165032223D1F020918803203251
:1036E00040F021E030E0FC013383228380E090E071
:1036F00015C080916603E82FF0E0E959FC4F9981ED
:1037000090838F5F809366038093880305C061E098
:10371000CE0101960E94DF1A81E090E00F90DF91C8
:10372000CF91089580E090E00E94BC39609113032E
:1037300070E08617970758F480910B01811107C03C
:1037400080E090E00E94C23981E0809311030895E7
:103750008EBD00000DB407FEFDCF8EB508958F928B
:103760009F92AF92BF92CF92DF92EF92FF920F9310
:103770001F93CF93DF93EC01690158012E813F81A4
:10378000621773071CF0B90161507109888599852A
:10379000481759071CF0AC0141505109FB01EC0DD1
:1037A000FD1DE217F3071CF06901C61AD70A9A013A
:1037B0002A0D3B1D281739071CF05C01A41AB50A15
:1037C000E881F9818A010A0D1B1D015011099B0135
:1037D0002C0D3D1D215031090680F781E02DCE01D1
:1037E0000995E881F9810084F185E02DCE010995E4
:1037F0009501D6010E9411394B015C01E881F981E4
:1038000081149104A104B10461F00284F385E02DD8
:10381000B701CE01099581E0881A9108A108B10885
:10382000EDCF0484F585E02DCE01DF91CF911F917E
:103830000F91FF90EF90DF90CF90BF90AF909F904F
:103840008F9009944F925F926F927F928F929F9286
:10385000AF92BF92CF92DF92EF92FF920F931F939E
:10386000CF93DF93EC016B015A012901380121E06C
:1038700030E00E94AF1BA501460D571D4150510974
:1038800001E010E09201B601CE010E94AF1BB6012B
:10389000640D751D61507109830121E030E0A501BF
:1038A000CE010E94AF1B01E010E09201A501B6011C
:1038B000CE010E94AF1BDF91CF911F910F91FF901E
:1038C000EF90DF90CF90BF90AF909F908F907F90C0
:1038D0006F905F904F900895EF92FF920F931F9318
:1038E000CF93DF93EC018E819F81681779075CF598
:1038F000888599854817590734F57901E881F98158
:103900000680F781E02D8A019B01CE010995E881AF
:10391000F9810084F185E02DCE010995E881F981D6
:103920000284F385E02DB701CE010995E881F98184
:103930000484F585E02DCE01DF91CF911F910F9189
:10394000FF90EF900994DF91CF911F910F91FF901D
:10395000EF9008952F923F924F925F926F927F92D5
:103960008F929F92AF92BF92CF92DF92EF92FF928F
:103970000F931F93CF93DF93CDB7DEB728970FB682
:10398000F894DEBF0FBECDBF4C016B0158874F834B
:10399000590162177307A1F40417150744F40427AB
:1039A00015274027512758874F83042715272F8134
:1039B0003885021B130B0F5F1F4F21E030E015C04D
:1039C0004F81588540175107B9F42617370734F44B
:1039D000A626B726CA24DB24AC24BD2495012C19C5
:1039E0003D092F5F3F4F01E010E04F815885B60140
:1039F000C4010E94AF1BA0C0FC0126813781621761
:103A0000730724F06901F1E0CF1AD108F401808531
:103A100091854F8158854817590724F0FC0131974B
:103A2000F887EF83A216B30624F05901F1E0AF1A2C
:103A3000B108081719071CF08C0101501109350154
:103A40006C187D0828012F813885421A530A77FEA9
:103A500008C07194619471084FEF5FEF5A834983F6
:103A600004C081E090E09A83898357FE08C0519496
:103A700041945108EFEFFFEFFC83EB8304C021E09A
:103A800030E03C832B83A301440F551F5E834D839D
:103A90001201220C331C97014F815885B601C401D5
:103AA0000E946C1C461457041CF581010619170965
:103AB000CA14DB0409F440C017FD0CC08F8198853F
:103AC000EB81FC818E0F9F1F98878F832D813E8114
:103AD000021B130B49815A81C40ED51E020D131D02
:103AE00097014F815885B601C4010E946C1CE0CF3C
:103AF000AD80BE80A418B5088F8198858017910786
:103B0000D9F0B7FC06C089819A81C80ED91EA218C7
:103B1000B308EF81F8852B813C81E20FF31FF88712
:103B2000EF834D815E81A40EB51E9701AF01B601F2
:103B3000C4010E946C1CE0CF28960FB6F894DEBF3B
:103B40000FBECDBFDF91CF911F910F91FF90EF90EE
:103B5000DF90CF90BF90AF909F908F907F906F90AD
:103B60005F904F903F902F9008958F929F92AF92C9
:103B7000BF92EF92FF920F931F93CF93DF93EC01CD
:103B80007B01E881F98108851985015011092E8191
:103B90003F81215031090680F781E02D40E050E05F
:103BA00060E070E00995E881F9810084F185E02DFD
:103BB000CE010995AE81BF81288539850E941139D2
:103BC0004B015C0183E0B694A794979487948A95FF
:103BD000D1F7E881F98181149104A104B10409F4B9
:103BE00044C00284F385E02DB701CE010995E88138
:103BF000F9810284F385E02DB701CE010995E881B2
:103C0000F9810284F385E02DB701CE010995E881A1
:103C1000F9810284F385E02DB701CE010995E88191
:103C2000F9810284F385E02DB701CE010995E88181
:103C3000F9810284F385E02DB701CE010995E88171
:103C4000F9810284F385E02DB701CE010995E88161
:103C5000F9810284F385E02DB701CE01099581E059
:103C6000881A9108A108B108B4CF0484F585E02D25
:103C7000CE01DF91CF911F910F91FF90EF90BF90F8
:103C8000AF909F908F9009941F920F920FB60F9252
:103C900011242F933F934F935F936F937F938F9351
:103CA0009F93AF93BF93EF93FF938091B900887F69
:103CB000803609F49CC068F5883209F45BC090F442
:103CC000803109F454C038F4882309F4F6C08830F0
:103CD00009F44DC0F6C0883109F44CC0803209F4B3
:103CE0005DC0EFC0803409F468C048F4803309F443
:103CF00055C0883309F0E5C080936203D8C0803591
:103D000009F44FC0883509F45DC0883409F0D9C082
:103D1000D6C0883909F4C7C0A8F4883709F467C049
:103D200038F4883609F463C0803709F460C0C9C02C
:103D3000883809F4B8C0803909F45FC0803809F0C8
:103D4000C0C05BC0803B09F486C038F4803A09F4F7
:103D500066C0883A09F47FC0B4C0803C09F4A7C0AB
:103D6000883C09F4A4C0883B09F48AC0AAC08091A9
:103D70003F0310C09091610380916003981770F524
:103D8000E091610381E08E0F80936103F0E0E05CDD
:103D9000FC4F80818093BB0085EC86C080936203DA
:103DA0008EC0E091610381E08E0F8093610380916A
:103DB000BB00F0E0E05CFC4F808390916103809158
:103DC00060036EC0E091610381E08E0F8093610318
:103DD0008091BB00F0E0E05CFC4F80838091630346
:103DE00081116DC081E080933E0384EA61C083E06D
:103DF0008093640310920F03CFCF80910F03803222
:103E000008F051C0E0910F0381E08E0F80930F0303
:103E10008091BB00F0E0E151FD4F8083BDCF85EC88
:103E20008093BC001092640380910F03803230F4C1
:103E3000E0910F03F0E0E151FD4F108260910F031C
:103E400070E0E091ED02F091EE028FEE92E00995C4
:103E500010920F0336C084E0809364031092EC024A
:103E60001092EB02E091E902F091EA02099580914B
:103E7000EB02811105C081E08093EB021092C90230
:103E8000E091EC0281E08E0F8093EC02F0E0E753CA
:103E9000FD4F80818093BB009091EC028091EB02FA
:103EA000981708F479CF85E88093BC000AC085ECA8
:103EB0008093BC001092640304C0109262030E94BD
:103EC000D51AFF91EF91BF91AF919F918F917F9103
:103ED0006F915F914F913F912F910F900FBE0F9077
:103EE0001F9018951F920F920FB60F9211242F93C7
:103EF0003F934F935F936F937F938F939F93AF9372
:103F0000BF9380914D048111B0C080911C059091A8
:103F10001D05A0911E05B0911F054091C50250914D
:103F2000C6026091C7027091C80284179507A60760
:103F3000B70750F04091C5025091C6026091C70288
:103F40007091C8029C010BC04091C5025091C602FD
:103F50006091C7027091C8029C0121503109241B55
:103F6000350B3093C4022093C3028093C502909313
:103F7000C602A093C702B093C8028091C302909179
:103F8000C402893C910530F01092C2021092C10225
:103F900010929C028091C3029091C402029708F48F
:103FA00064C08091C3029091C402089708F05DC07C
:103FB00080919C02811110929C028091C302909189
:103FC000C4020597C0F08091C3029091C402089783
:103FD00090F44091C1025091C2022091A50230910B
:103FE000A60281E090E002C0880F991F4A95E2F78F
:103FF000822B932B35C08091C3029091C40202970B
:1040000030F08091C3029091C4020597B0F0809186
:10401000C1029091C202409730F481E080939C02EB
:1040200082E38093A4028091C1029091C202019622
:104030009093C2028093C10218C04091C102509176
:10404000C2022091A5023091A60281E090E002C058
:10405000880F991F4A95E2F78095909582239323C4
:104060009093A6028093A502D2CFBF91AF919F916A
:104070008F917F916F915F914F913F912F910F9011
:104080000FBE0F901F9018951F920F920FB60F92B0
:1040900011240F931F932F933F934F935F936F932D
:1040A0007F938F939F93AF93BF938091C0028F5F55
:1040B0008093C0028A3009F0A8C080911C059091BD
:1040C0001D05A0911E05B0911F05AC01BD014F5FFC
:1040D0005F4F6F4F7F4F40931C0550931D056093BA
:1040E0001E0570931F0520914D04222309F483C0FF
:1040F0002091BF022223F1F08091BD029091BE0277
:104100000A9771F41092BF021092B9021092BA028B
:104110001092BB021092BC021092BE021092BD021D
:104120008091BD029091BE0201969093BE02809351
:10413000BD0248C00091B9021091BA022091BB02A1
:104140003091BC02401751076207730721F4209198
:10415000B802211153C04091B9025091BA02609146
:10416000BB027091BC02452B462B472B59F5209181
:104170004E0430914F044091B6025091B70202C0F4
:10418000369527954A95E2F720FF04C00796A11DB2
:10419000B11D03C00496A11DB11D8093B902909377
:1041A000BA02A093BB02B093BC0281E08093B80234
:1041B000539A8091B6029091B70201969093B702FC
:1041C0008093B6028091B6029091B702419799F41C
:1041D0001092B80253981092B7021092B602109241
:1041E0004D041092BF021092B9021092BA021092BE
:1041F000BB021092BC021092C00207C01092B8021B
:10420000539821E02093BF02A6CFBF91AF919F9119
:104210008F917F916F915F914F913F912F911F915E
:104220000F910F900FBE0F901F901895FC01DB01AE
:104230008CE491E09183808312968D919C911397E9
:104240009383828314968D919C9115979583848393
:1042500016968D919C9117979783868318968D91CA
:104260009C911997918780871A968C911A978287CB
:104270001B968C911B9783871C968D919C911D9703
:10428000958784871E968D919C911F979787868727
:1042900050968D919C915197918B808B52968D91D8
:1042A0009C915397938B828B54968D919C915597AB
:1042B000958B848B84E591E09183808356968C91D5
:1042C000868B08951F93CF93DF93837090E020E057
:1042D00030E050E070E0FA01022E02C0F595E7955B
:1042E0000A94E2F7E170FF27D9011996EF0102C0A5
:1042F000CC0FDD1FAA95E2F7DE01FB01022E02C002
:10430000F595E7950A94E2F7E170FF27E901229617
:1043100002C0EE0FFF1FCA95E2F7EA2BFB2B8E2B94
:104320009F2B2F5F3F4F27303105A9F690934F0405
:1043300080934E0481E080934D04DF91CF911F91D3
:104340000895EF92FF920F931F93CF93DF93CDB712
:10435000DEB767970FB6F894DEBF0FBECDBF962FBE
:10436000F0904C04FF2001F1E0904B04EE20E1F0CE
:104370008F1102C06E15C1F0BA018C01CE010196F9
:104380000E9416214E2D6F2DCE0101960E94412CC8
:1043900080914C04081721F080914B04181304C03D
:1043A00010924C0410924B0467960FB6F894DEBF3F
:1043B0000FBECDBFDF91CF911F910F91FF90EF9076
:1043C0000895AF92BF92CF92DF92EF92FF920F9338
:1043D0001F93CF93DF93CDB7DEB767970FB6F894EF
:1043E000DEBF0FBECDBFD62E9091890360918A03A8
:1043F0009D1102C0681721F15A01C82E84E1989FCF
:10440000A001112484E1689FB00111248CE2E82E00
:1044100083E6F82E04E110E024E130E0C5010E94BB
:10442000AF1BB501CE0101960E9416214D2D6C2DBA
:10443000CE0101960E94B52CC0928A03D0928903C6
:1044400067960FB6F894DEBF0FBECDBFDF91CF9158
:104450001F910F91FF90EF90DF90CF90BF90AF90A2
:104460000895382F2091880390918703213208F016
:1044700049C0809164038111FCCF42E04093640302
:10448000309363033FEF30936203109261032093F4
:104490006003A7E6B3E040E453E0FA013E2F341B8B
:1044A000321718F43D913193F9CF10923F032091C8
:1044B0003F03990F922B90933F0390913E039130CD
:1044C00061F410923E0390913F039093BB00909152
:1044D000BC0093FDF8CF95EC01C095EE9093BC0025
:1044E000909164039230E1F3909162039F3F79F0E1
:1044F00080916203803241F080916203803331F019
:1045000084E005C081E003C082E001C083E0109236
:104510006603109288031092650308952F923F92CC
:104520004F925F926F927F928F929F92AF92BF92C3
:10453000CF92DF92EF92FF920F931F93CF93DF936F
:10454000CDB7DEB769970FB6F894DEBF0FBECDBF0B
:104550003C01362E242E2CE0629FC0011124855789
:104560009C4F2BE8422E23E0522E812C912CFC01F3
:10457000E40FF11DF98FE88F5201C12CD12CF50108
:104580008081873079F5E88DF98D80818730D9F485
:104590009CE2E92E93E6F92E04E110E024E130E0FC
:1045A000A401B601C3010E94AF1BB301CE01019665
:1045B0000E941621422D632DCE0101960E94B52C3A
:1045C000F50110820FC0F50110828CE2E82E83E61F
:1045D000F82E04E110E024E130E0A401B601C301AB
:1045E0000E94AF1BFCE0AF0EB11C24E1C20ED11C37
:1045F00030E4C31631E0D30611F68FEF481A580A9B
:10460000E4E18E0E911CF0EF8F16910409F0B4CF07
:1046100069960FB6F894DEBF0FBECDBFDF91CF9184
:104620001F910F91FF90EF90DF90CF90BF90AF90D0
:104630009F908F907F906F905F904F903F902F90C2
:104640000895CF92DF92EF92FF920F931F93CF9333
:10465000DF938C017B01809164038111FCCF81E0A9
:1046600080936403809363039FEF9093620310929F
:10467000610395E09093600380933F0390913F0323
:10468000946A90933F0380913E03813061F41092CD
:104690003E0380913F038093BB008091BC0083FD6B
:1046A000F8CF85EC01C085EE8093BC008091640357
:1046B0008130E1F380916103863018F4C091610389
:1046C00001C0C6E0A0E4B3E027E133E0F9018E2F9A
:1046D000821B8C1718F48D918193F9CF10921603D9
:1046E000C093150388E3C82E83E0D82ED7E18091CC
:1046F0001603C81759F08DEE94E00E94171B8D2702
:1047000097E1980FF60191936F01F1CFC1E0C0934B
:10471000650382E5809387031092660310928803F5
:1047200060E08DEE94E00E94631B81E00E943122E4
:1047300080913803F801808380913903F7018083E9
:1047400080913D0380FD03C0C093370302C01092E7
:104750003703DF91CF911F910F91FF90EF90DF9082
:10476000CF9008956F927F928F929F92AF92BF9257
:10477000CF92DF92EF92FF920F931F93CF93DF932D
:104780005C014A013801DE2CE90129912223A1F0C4
:10479000D501ED91FC910684F785E02DCD2C7301B8
:1047A0000FEF1FEFA401C5010995BC01F50186813A
:1047B0009781861797074CF7CB01DF91CF911F9117
:1047C0000F91FF90EF90DF90CF90BF90AF909F90B0
:1047D0008F907F906F9008958F929F92AF92BF922B
:1047E000CF92DF92EF920F931F93CF93DF93CDB7CA
:1047F000DEB761970FB6F894DEBF0FBECDBF6C0178
:104800005B014A014AE0BE016F5F7F4F822F90E05B
:104810000E949239EE24E39400E010E09E012F5FA5
:104820003F4FA401B501C6010E94B22361960FB6A5
:10483000F894DEBF0FBECDBFDF91CF911F910F91D6
:10484000EF90DF90CF90BF90AF909F908F900895A2
:10485000CF92DF92EF920F931F93CF93DF93CDB759
:10486000DEB761970FB6F894DEBF0FBECDBF2091C3
:104870000B01211194C06C0183E08093120360E06E
:1048800070E0C6010E94B51D83E0E82E00E010E054
:104890002FE432E04CE350E062E370E0C6010E9496
:1048A000B223EE24E39429E532E044E650E068E7E1
:1048B00070E0C6010E94B22320E632E048E750E0F3
:1048C00068E770E0C6010E94B2238C014AE0BE0195
:1048D0006F5F7F4F81E090E00E948739B8017727B2
:1048E00000E010E09E012F5F3F4F48E750E0C60117
:1048F0000E94B223BC0177272AED31E048E750E05F
:10490000C6010E94B223BC0177272091130348E718
:1049100050E0C6010E94EC2392E0E92E28E632E046
:1049200048EC50E06EE170E0C6010E94B22360E006
:1049300070E080E090E00E94212343E050E06AE7CD
:1049400072E080E594E00E945D2742E050E06EE76F
:1049500072E080E594E00E945D2780913703882310
:1049600031F3109237031092130383E080930B010D
:1049700081E080931203109210038BE893E04CE0E7
:10498000480F20E030E0FC01E20FF31F1082245FAB
:104990003F4F203C3105B9F701964813F2CF809183
:1049A0001403882349F080910B01882329F081505A
:1049B00080930B011092140361960FB6F894DEBF3A
:1049C0000FBECDBFDF91CF911F910F91EF90DF9080
:1049D000CF9008952F923F924F925F926F927F9265
:1049E0008F929F92AF92BF92CF92DF92EF92FF92FF
:1049F0000F931F93CF93DF93CDB7DEB729970FB6F1
:104A0000F894DEBF0FBECDBF6C014F832887198697
:104A1000262F30E03C832B8304E1502E8BE893E07B
:104A20009A83898384E0A82EB12C212C312C422C2E
:104A30003985632E712CE981FA81E60DF71D80819D
:104A4000833009F075C180914C049F81981309C08F
:104A500080914B04A885A81304C010924C041092B6
:104A60004B04B9E0B083F985E4E1FE9F40011124D5
:104A700024E0820E911C10EEE12E1BEFF12E0EE0D1
:104A800010E02EE030E0A401B501C6010E94AF1B8A
:104A90008B819C81820D931D9E838D83842D90E05C
:104AA000ED81FE818E179F070CF044C00196ACE0AB
:104AB000A89FF001A99FF00D1124E557FC4FE60DCA
:104AC000F71D2081222321F039EF320F3330B0F46B
:104AD000B9E0B083589EB001599E700D11246C5FEF
:104AE0007F4FB0EEEB2EBBEFFB2E0EE010E02EE082
:104AF00030E0A401C6010E94AF1B26C0223011F590
:104B000029E02083589EB001599E700D11246C5FDE
:104B10007F4FA0EEEA2EABEFFA2E0EE010E02EE073
:104B200030E0A401C6010E94AF1B809113038F5F88
:104B300080931303C101AB81BC818A1B9B0B9E83B5
:104B40008D8326C02130B1F34394A8CFF3012CE02C
:104B5000429EE00DF11D1124E158FC4F20812111EE
:104B60001FC039E030830197589EB001599E700DE7
:104B700011246C5F7F4FF0EEEF2EFBEFFF2E0EE067
:104B800010E02EE030E0A401C6010E94AF1B4A9461
:104B9000842D90E0ED81FE81E817F907BCF221C079
:104BA00039EF320F3330E8F2223001F5A9E0A0836B
:104BB0000197589EB001599E700D11246C5F7F4F74
:104BC000E0EEEE2EEBEFFE2E0EE010E02EE030E0F9
:104BD000A401C6010E94AF1B809113038F5F8093D5
:104BE00013038B809C80860C971C23C0213079F6A0
:104BF000F8CF0196E981FA81E80FF91F2081211190
:104C00001FC029E02083589EA001599E500D1124F9
:104C10004C5F5F4F60EEE62E6BEFF62E0EE010E07D
:104C20002EE030E0B501C6010E94AF1B99859F5F61
:104C30009987A9858A2F90E088159905D4F220C01C
:104C400039EF320F3330E8F2223001F539E03083AA
:104C5000589EA001599E500D11244C5F5F4F30EEBD
:104C6000E32E3BEFF32E0EE010E02EE030E0B50136
:104C7000C6010E94AF1B809113038F5F80931303C3
:104C800043018B819C81881A990A23C0213071F6D7
:104C9000F7CF0197E981FA81E80FF91F20812111EF
:104CA0001FC0B9E0B083589EA001599E500D112439
:104CB0004C5F5F4F20EEE22E2BEFF22E0EE010E065
:104CC0002EE030E0B501C6010E94AF1B398531509E
:104CD0003987A9858A2F90E088169906D4F223C0D7
:104CE00039EF320F3330E8F22230D9F429E0208353
:104CF000589EA001599E500D11244C5F5F4F90EEBD
:104D0000E92E9BEFF92E0EE010E02EE030E0B50129
:104D1000C6010E94AF1B809113038F5F8093130322
:104D200002C0213099F680911003815080931003C6
:104D3000BFEF2B1A3B0AE981FA813C96FA83E9839B
:104D4000F4E1AF0EB11C20E12216310409F06FCE60
:104D500039853F5F39873C3008F460CE29960FB61D
:104D6000F894DEBF0FBECDBFDF91CF911F910F91A1
:104D7000FF90EF90DF90CF90BF90AF909F908F907B
:104D80007F906F905F904F903F902F90089590E0AC
:104D9000FC01EC55FC4F2491FC01E057FC4F849141
:104DA000882399F090E0880F991FFC01EA57FC4F87
:104DB000A591B491FC01E458FC4F859194918FB773
:104DC000F894EC91E22BEC938FBF0895CF93DF938F
:104DD000EC0189E00E94C726209711F460E004C02E
:104DE000CF3FD10531F461E089E0DF91CF910C94A0
:104DF000AB2BE1E7F3E0E491E330F9F048F4E13084
:104E0000B9F0E230A1F584B5806284BDC8BD34C07C
:104E1000E730E9F0E83019F1E43049F5809180009D
:104E2000806280938000D0938B00C0938A0024C05E
:104E300084B5806884BDC7BD1FC080918000806834
:104E400080938000D0938900C093880015C0809122
:104E5000B00080688093B000C093B3000DC0809113
:104E6000B00080628093B000C093B40005C0C03829
:104E7000D1050CF0B8CFB2CFDF91CF9108958091DA
:104E800078009091790001966BE070E00E94E9381B
:104E9000611103C0299829980895643618F0299A59
:104EA000299A08952FEF629FC001112464E670E0F3
:104EB0000E94E938CB010C94E626CF92DF92EF9264
:104EC000FF920F931F93CF93DF936C017A018B01B5
:104ED000C0E0D0E0CE15DF0589F0D8016D918D01DD
:104EE000D601ED91FC910190F081E02DC60109956C
:104EF000892B11F47E0102C02196ECCFC701DF910E
:104F0000CF911F910F91FF90EF90DF90CF90089578
:104F1000FC01918D828D981761F0828DDF01A80FC1
:104F2000B11D5D968C91928D9F5F9F73928F90E0E3
:104F300008958FEF9FEF0895FC01918D828D981752
:104F400031F0828DE80FF11D858D90E008958FEF8F
:104F50009FEF0895FC01918D228D892F90E0805C58
:104F60009F4F821B91098F7399270895FC01848DAF
:104F7000DF01A80FB11DA35ABF4F2C91848D90E083
:104F800001968F739927848FA689B7892C93A0895E
:104F9000B1898C9180648C93938D848D981306C015
:104FA0000288F389E02D80818F7D80830895EF92C0
:104FB000FF920F931F93CF93DF93EC0181E0888FD3
:104FC0009B8D8C8D981305C0E889F989808185FDBA
:104FD00024C0F62E0B8D10E00F5F1F4F0F731127AB
:104FE000E02E8C8DE8120CC00FB607FCFACFE889D2
:104FF000F989808185FFF5CFCE010E94B627F1CFD8
:105000008B8DFE01E80FF11DE35AFF4FF0820B8FED
:10501000EA89FB898081806207C0EE89FF8960830D
:10502000E889F98980818064808381E090E0DF9164
:10503000CF911F910F91FF90EF900895CF93DF9341
:10504000EC01888D8823C9F0EA89FB89808185FD80
:1050500005C0A889B9898C9186FD0FC00FB607FCE1
:10506000F5CF808185FFF2CFA889B9898C9185FF22
:10507000EDCFCE010E94B627E7CFDF91CF91089503
:105080003FB7F8948091160590911705A0911805E7
:10509000B091190526B5A89B05C02F3F19F00196C0
:1050A000A11DB11D3FBFBA2FA92F982F8827820FAE
:1050B000911DA11DB11DBC01CD0142E0660F771FFE
:1050C000881F991F4A95D1F708958F929F92AF92AA
:1050D000BF92CF92DF92EF92FF926B017C010E9410
:1050E00040284B015C01C114D104E104F104F1F04A
:1050F0000E944028DC01CB0188199909AA09BB0943
:10510000883E9340A105B10570F321E0C21AD10891
:10511000E108F10888EE880E83E0981EA11CB11CFE
:10512000C114D104E104F10419F7DDCFFF90EF9031
:10513000DF90CF90BF90AF909F908F9008955F9A2F
:1051400008952F923F924F925F926F927F928F922B
:105150009F92AF92BF92CF92DF92EF92FF920F9306
:105160001F93CF93DF9300D000D0CDB7DEB76C0193
:105170005B014A019EEF492E55245A941C821B82E2
:1051800022E0622E712C4B815C81480D591D8FEEFF
:10519000E82E8BE7F82E8A011501260C371C9101A9
:1051A000C501861997099A838983BC01C6010E94AB
:1051B000AA1CA401EB81FC814E1B5F0B8A019101AB
:1051C00069817A81C6010E94AA1C2B803C802A0C2E
:1051D0003B1C95018B819C81281B390B3A832983C9
:1051E000A401460D571D8A01910169817A81C6018A
:1051F0000E94AA1CA401461957098A0191016981DC
:105200007A81C6010E94AA1C8B819C810196EB8148
:10521000FC814E0E5F1E480E591EFFEF4F165F06B3
:1052200039F021E0621A71084618570846185708E5
:105230009C838B83681679060CF0A5CF0F900F9096
:105240000F900F90DF91CF911F910F91FF90EF90F2
:10525000DF90CF90BF90AF909F908F907F906F9096
:105260005F904F903F902F9008950E942639862F8F
:105270005F982B9A2D989CB59F7B9CBD2D9A9CB5D1
:1052800090649CBD0E94A81B5F9A0895CF93DF9302
:105290001F92CDB7DEB7872F5F982B9A2D989CB5BC
:1052A0009F7B9CBD2D9A9CB590649CBD69830E9498
:1052B000A81B2B9A2D989CB59F7B9CBD2D9A9CB5C5
:1052C00090649CBD6981862F0E94A81B5F9A0F90F5
:1052D000DF91CF910895862F5F982B982D989CB5DC
:1052E0009F7B9CBD2D9A9CB590649CBD0E94A81B81
:1052F0005F9A08956CE20E946B295F980895AF92BF
:10530000BF92CF92DF92EF92FF920F931F93CF93B2
:10531000DF93EC015B017A0169016AE20E946B296B
:10532000B501CE010E944629B601CE010E94462950
:105330006BE2CE010E946B29B701CE010E94462983
:10534000B801CE01DF91CF911F910F91FF90EF90A7
:10535000DF90CF90BF90AF900C9446290F931F938E
:10536000CF93DF93EC016930710519F06A3571054F
:1053700071F48AE590E09D838C8380EF90E09F83B9
:105380008E8380E491E09987888718E434C0623185
:10539000710519F0643B710571F484EB90E09D8315
:1053A0008C8380E491E09F838E8380EF90E09987E7
:1053B000888718E320C06B31710521F07E7F6E3045
:1053C000710571F48EE091E09D838C8380EF90E015
:1053D0009F838E8380E491E09987888718E80BC0CB
:1053E0001D821C8280E491E09F838E8380EF90E099
:1053F0009987888718EE66E3CE010E946B29612F9A
:10540000CE010E943729E881F9810885198501506C
:1054100011092E813F81215031090680F781E02D4D
:1054200040E050E060E070E0CE010995DF91CF915F
:105430001F910F910895CF93DF931F92CDB7DEB7E1
:10544000872F2B9A2D989CB59F7B9CBD2D9A9CB540
:1054500090649CBD69830E94A81B2B9A2D989CB5D3
:105460009F7B9CBD2D9A9CB590649CBD6981862FC5
:105470000F90DF91CF910C94A81B2F923F924F92E7
:105480005F926F927F928F929F92AF92BF92CF92D4
:10549000DF92EF92FF920F931F93CF93DF93EC0174
:1054A00060E070E00E94B51D34E0E32E00E010E003
:1054B00021E832E048E250E06FE070E0CE010E9467
:1054C000B22340EFE42EFF24FA9400E110E0C12C57
:1054D000D12C5CE3252E312C66E3462E512C46015F
:1054E00086E3880E911C2CE233E6A40158018CE37C
:1054F000A80EB11CB501CE010E946C1C2CE233E653
:10550000A4013101601A710AB301CE010E946C1C22
:1055100042018C189D082CE233E6A401B501CE01AE
:105520000E946C1C2CE233E6A401B301CE010E9460
:105530006C1C46018CE3880E911C2CE233E658016A
:1055400086E3A80EB11CA501B401CE010E946C1C1B
:1055500031016C187D082CE233E6A501B301CE01C0
:105560000E946C1C2CE233E65201A01AB10AA5017C
:10557000B401CE010E946C1C2CE233E6A501B301FC
:10558000CE010E946C1CC6010196EC0CFD1CE80EBD
:10559000F91EF7FC06C001501109E01AF10AE01AE1
:1055A000F10A6C01081719070CF099CF4EE250E090
:1055B00066E370E0CE010E94A12840E350E064E37E
:1055C00070E0CE010E94A1289CE2E92E93E6F92E1C
:1055D00005E010E02FE030E043E250E065E370E0EA
:1055E000CE010E94221CE12CF12C2FE030E043E29E
:1055F00050E065E370E0CE010E94AF1B20E8E22E90
:105600002AE7F22E26E030E04EE150E06AE370E057
:10561000CE010E94AF1B26E030E04CE150E068E391
:1056200070E0CE010E94AF1B26E030E04AE150E07E
:1056300066E370E0CE010E94AF1B26E030E048E157
:1056400050E064E370E0CE010E94AF1B61EA72E0BB
:1056500082EA92E00E94212382E0E82E00E010E03E
:105660002BE832E048EC50E069E170E0CE010E94A6
:10567000B22380913703882349F381E0809312039A
:10568000DF91CF911F910F91FF90EF90DF90CF901E
:10569000BF90AF909F908F907F906F905F904F9052
:1056A0003F902F9008951F920F920FB60F921124E2
:1056B0002F933F934F935F936F937F938F939F931A
:1056C000AF93BF93EF93FF9380E594E00E94B627DA
:1056D000FF91EF91BF91AF919F918F917F916F91CA
:1056E0005F914F913F912F910F900FBE0F901F90A0
:1056F00018951F920F920FB60F9211242F938F932C
:105700009F93EF93FF93E0916004F0916104808197
:10571000E0916604F091670482FD12C0908180914F
:1057200069048F5F8F7320916A04821751F0E091B2
:105730006904F0E0E05BFB4F958F8093690401C042
:105740008081FF91EF919F918F912F910F900FBECC
:105750000F901F90189590E0FC01E859FC4F349190
:10576000FC01EC55FC4F2491FC01E057FC4FE49107
:10577000EE2309F43BC0332339F1333091F038F490
:105780003130A9F0323001F584B58F7D12C0373049
:1057900091F03830A1F03430B9F4809180008F7DE1
:1057A00003C0809180008F77809380000DC084B506
:1057B0008F7784BD09C08091B0008F7703C080913E
:1057C000B0008F7D8093B000F0E0EE0FFF1FE45833
:1057D000FC4FA591B4918FB7F894EC91611103C07F
:1057E00020952E2301C02E2B2C938FBF08951F923E
:1057F0000F920FB60F9211242F933F938F939F9385
:10580000AF93BF938091120590911305A091140559
:10581000B09115053091110523E0230F2D3720F4A9
:105820000196A11DB11D05C026E8230F0296A11DFA
:10583000B11D209311058093120590931305A09339
:105840001405B09315058091160590911705A09148
:105850001805B09119050196A11DB11D809316057B
:1058600090931705A0931805B0931905BF91AF91B8
:105870009F918F913F912F910F900FBE0F901F908E
:1058800018952F923F924F925F926F927F928F92D4
:105890009F92AF92BF92CF92DF92EF92FF920F93BF
:1058A0001F93CF93DF935C0184E1689F6001112413
:1058B00094E1499F80011124412C512C3201760141
:1058C000C0E0D0E042019FEF891A990A120182E0FC
:1058D000280E311CFE01E40DF51DE350F74F8491B5
:1058E000FE01E80DF91DE350F74F2491FE01E20D92
:1058F000F31DE350F74FE491887F2C7F98E0299FB8
:1059000090011124382BE695E695E6952E2BA801FB
:10591000B701C5010E946C1C23968FEFE81AF80AA4
:10592000CC33D105B9F69CE3490E511C611C711CA6
:105930000F5F1F4F80EB481684E058066104710426
:1059400009F0BDCFDF91CF911F910F91FF90EF90A4
:10595000DF90CF90BF90AF909F908F907F906F908F
:105960005F904F903F902F9008952F923F924F92CB
:105970005F926F927F928F929F92AF92BF92CF92DF
:10598000DF92EF92FF920F931F93CF93DF935C010F
:1059900084E1689F6001112494E1499F80011124F2
:1059A000412C512C32017601C0E0D0E042019FEF42
:1059B000891A990A120182E0280E311CFE01E40DB9
:1059C000F51DE35BFB4F8491FE01E80DF91DE35BE0
:1059D000FB4F2491FE01E20DF31DE35BFB4FE491CD
:1059E000887F2C7F98E0299F90011124382BE69521
:1059F000E695E6952E2BA801B701C5010E946C1C07
:105A000023968FEFE81AF80ACC33D105B9F69CE358
:105A1000490E511C611C711C0F5F1F4F80EB481613
:105A200084E058066104710409F0BDCFDF91CF9185
:105A30001F910F91FF90EF90DF90CF90BF90AF90AC
:105A40009F908F907F906F905F904F903F902F909E
:105A500008950F931F93CF93DF93CDB7DEB767976A
:105A60000FB6F894DEBF0FBECDBF182F062FBA01B8
:105A7000CE0101960E941621402F612FCE01019682
:105A80000E94B52C67960FB6F894DEBF0FBECDBF4F
:105A9000DF91CF911F910F910895CF92DF92EF92F6
:105AA000FF920F931F93CF93DF938C01219A289835
:105AB000219A579A259A239A249829985F9A84E0E4
:105AC000F801868B8CB5837F8CBD8CB58F7D8CBDAA
:105AD000CFB7F89480911005811124C0EAE9F3E072
